{"abi":[{"inputs":[],"name":"brand","outputs":[{"internalType":"string","name":"","type":"string"}],"stateMutability":"view","type":"function"},{"inputs":[],"name":"getBrand","outputs":[{"internalType":"string","name":"","type":"string"}],"stateMutability":"view","type":"function"},{"inputs":[{"internalType":"string","name":"newBrand","type":"string"}],"name":"setBrand","outputs":[],"stateMutability":"nonpayable","type":"function"}],"devdoc":{"kind":"dev","methods":{},"version":1},"evm":{"assembly":"    /* \"Car.sol\":62:292  contract Car {\r... */\n  mstore(0x40, 0x80)\n  callvalue\n  dup1\n  iszero\n  tag_1\n  jumpi\n  0x00\n  dup1\n  revert\ntag_1:\n  pop\n  dataSize(sub_0)\n  dup1\n  dataOffset(sub_0)\n  0x00\n  codecopy\n  0x00\n  return\nstop\n\nsub_0: assembly {\n        /* \"Car.sol\":62:292  contract Car {\r... */\n      mstore(0x40, 0x80)\n      callvalue\n      dup1\n      iszero\n      tag_1\n      jumpi\n      0x00\n      dup1\n      revert\n    tag_1:\n      pop\n      jumpi(tag_2, lt(calldatasize, 0x04))\n      shr(0xe0, calldataload(0x00))\n      dup1\n      0x2d9fff01\n      eq\n      tag_3\n      jumpi\n      dup1\n      0xa3946e26\n      eq\n      tag_4\n      jumpi\n      dup1\n      0xc1fd4137\n      eq\n      tag_5\n      jumpi\n    tag_2:\n      0x00\n      dup1\n      revert\n        /* \"Car.sol\":82:101  string public brand */\n    tag_3:\n      tag_6\n      tag_7\n      jump\t// in\n    tag_6:\n      mload(0x40)\n      tag_8\n      swap2\n      swap1\n      tag_9\n      jump\t// in\n    tag_8:\n      mload(0x40)\n      dup1\n      swap2\n      sub\n      swap1\n      return\n        /* \"Car.sol\":110:197  function getBrand() public view returns (string memory) {\r... */\n    tag_4:\n      tag_10\n      tag_11\n      jump\t// in\n    tag_10:\n      mload(0x40)\n      tag_12\n      swap2\n      swap1\n      tag_9\n      jump\t// in\n    tag_12:\n      mload(0x40)\n      dup1\n      swap2\n      sub\n      swap1\n      return\n        /* \"Car.sol\":205:289  function setBrand(string memory newBrand) public {\r... */\n    tag_5:\n      tag_13\n      0x04\n      dup1\n      calldatasize\n      sub\n      dup2\n      add\n      swap1\n      tag_14\n      swap2\n      swap1\n      tag_15\n      jump\t// in\n    tag_14:\n      tag_16\n      jump\t// in\n    tag_13:\n      stop\n        /* \"Car.sol\":82:101  string public brand */\n    tag_7:\n      0x00\n      dup1\n      sload\n      tag_17\n      swap1\n      tag_18\n      jump\t// in\n    tag_17:\n      dup1\n      0x1f\n      add\n      0x20\n      dup1\n      swap2\n      div\n      mul\n      0x20\n      add\n      mload(0x40)\n      swap1\n      dup2\n      add\n      0x40\n      mstore\n      dup1\n      swap3\n      swap2\n      swap1\n      dup2\n      dup2\n      mstore\n      0x20\n      add\n      dup3\n      dup1\n      sload\n      tag_19\n      swap1\n      tag_18\n      jump\t// in\n    tag_19:\n      dup1\n      iszero\n      tag_20\n      jumpi\n      dup1\n      0x1f\n      lt\n      tag_21\n      jumpi\n      0x0100\n      dup1\n      dup4\n      sload\n      div\n      mul\n      dup4\n      mstore\n      swap2\n      0x20\n      add\n      swap2\n      jump(tag_20)\n    tag_21:\n      dup3\n      add\n      swap2\n      swap1\n      0x00\n      mstore\n      keccak256(0x00, 0x20)\n      swap1\n    tag_22:\n      dup2\n      sload\n      dup2\n      mstore\n      swap1\n      0x01\n      add\n      swap1\n      0x20\n      add\n      dup1\n      dup4\n      gt\n      tag_22\n      jumpi\n      dup3\n      swap1\n      sub\n      0x1f\n      and\n      dup3\n      add\n      swap2\n    tag_20:\n      pop\n      pop\n      pop\n      pop\n      pop\n      dup2\n      jump\t// out\n        /* \"Car.sol\":110:197  function getBrand() public view returns (string memory) {\r... */\n    tag_11:\n        /* \"Car.sol\":151:164  string memory */\n      0x60\n        /* \"Car.sol\":184:189  brand */\n      0x00\n        /* \"Car.sol\":177:189  return brand */\n      dup1\n      sload\n      tag_24\n      swap1\n      tag_18\n      jump\t// in\n    tag_24:\n      dup1\n      0x1f\n      add\n      0x20\n      dup1\n      swap2\n      div\n      mul\n      0x20\n      add\n      mload(0x40)\n      swap1\n      dup2\n      add\n      0x40\n      mstore\n      dup1\n      swap3\n      swap2\n      swap1\n      dup2\n      dup2\n      mstore\n      0x20\n      add\n      dup3\n      dup1\n      sload\n      tag_25\n      swap1\n      tag_18\n      jump\t// in\n    tag_25:\n      dup1\n      iszero\n      tag_26\n      jumpi\n      dup1\n      0x1f\n      lt\n      tag_27\n      jumpi\n      0x0100\n      dup1\n      dup4\n      sload\n      div\n      mul\n      dup4\n      mstore\n      swap2\n      0x20\n      add\n      swap2\n      jump(tag_26)\n    tag_27:\n      dup3\n      add\n      swap2\n      swap1\n      0x00\n      mstore\n      keccak256(0x00, 0x20)\n      swap1\n    tag_28:\n      dup2\n      sload\n      dup2\n      mstore\n      swap1\n      0x01\n      add\n      swap1\n      0x20\n      add\n      dup1\n      dup4\n      gt\n      tag_28\n      jumpi\n      dup3\n      swap1\n      sub\n      0x1f\n      and\n      dup3\n      add\n      swap2\n    tag_26:\n      pop\n      pop\n      pop\n      pop\n      pop\n      swap1\n      pop\n        /* \"Car.sol\":110:197  function getBrand() public view returns (string memory) {\r... */\n      swap1\n      jump\t// out\n        /* \"Car.sol\":205:289  function setBrand(string memory newBrand) public {\r... */\n    tag_16:\n        /* \"Car.sol\":273:281  newBrand */\n      dup1\n        /* \"Car.sol\":265:270  brand */\n      0x00\n        /* \"Car.sol\":265:281  brand = newBrand */\n      swap1\n      dup1\n      mload\n      swap1\n      0x20\n      add\n      swap1\n      tag_30\n      swap3\n      swap2\n      swap1\n      tag_31\n      jump\t// in\n    tag_30:\n      pop\n        /* \"Car.sol\":205:289  function setBrand(string memory newBrand) public {\r... */\n      pop\n      jump\t// out\n    tag_31:\n      dup3\n      dup1\n      sload\n      tag_32\n      swap1\n      tag_18\n      jump\t// in\n    tag_32:\n      swap1\n      0x00\n      mstore\n      keccak256(0x00, 0x20)\n      swap1\n      0x1f\n      add\n      0x20\n      swap1\n      div\n      dup2\n      add\n      swap3\n      dup3\n      tag_34\n      jumpi\n      0x00\n      dup6\n      sstore\n      jump(tag_33)\n    tag_34:\n      dup3\n      0x1f\n      lt\n      tag_35\n      jumpi\n      dup1\n      mload\n      not(0xff)\n      and\n      dup4\n      dup1\n      add\n      or\n      dup6\n      sstore\n      jump(tag_33)\n    tag_35:\n      dup3\n      dup1\n      add\n      0x01\n      add\n      dup6\n      sstore\n      dup3\n      iszero\n      tag_33\n      jumpi\n      swap2\n      dup3\n      add\n    tag_36:\n      dup3\n      dup2\n      gt\n      iszero\n      tag_37\n      jumpi\n      dup3\n      mload\n      dup3\n      sstore\n      swap2\n      0x20\n      add\n      swap2\n      swap1\n      0x01\n      add\n      swap1\n      jump(tag_36)\n    tag_37:\n    tag_33:\n      pop\n      swap1\n      pop\n      tag_38\n      swap2\n      swap1\n      tag_39\n      jump\t// in\n    tag_38:\n      pop\n      swap1\n      jump\t// out\n    tag_39:\n    tag_40:\n      dup1\n      dup3\n      gt\n      iszero\n      tag_41\n      jumpi\n      0x00\n      dup2\n      0x00\n      swap1\n      sstore\n      pop\n      0x01\n      add\n      jump(tag_40)\n    tag_41:\n      pop\n      swap1\n      jump\t// out\n        /* \"#utility.yul\":7:419   */\n    tag_43:\n        /* \"#utility.yul\":85:90   */\n      0x00\n        /* \"#utility.yul\":110:176   */\n      tag_45\n        /* \"#utility.yul\":126:175   */\n      tag_46\n        /* \"#utility.yul\":168:174   */\n      dup5\n        /* \"#utility.yul\":126:175   */\n      tag_47\n      jump\t// in\n    tag_46:\n        /* \"#utility.yul\":110:176   */\n      tag_48\n      jump\t// in\n    tag_45:\n        /* \"#utility.yul\":101:176   */\n      swap1\n      pop\n        /* \"#utility.yul\":199:205   */\n      dup3\n        /* \"#utility.yul\":192:197   */\n      dup2\n        /* \"#utility.yul\":185:206   */\n      mstore\n        /* \"#utility.yul\":237:241   */\n      0x20\n        /* \"#utility.yul\":230:235   */\n      dup2\n        /* \"#utility.yul\":226:242   */\n      add\n        /* \"#utility.yul\":275:278   */\n      dup5\n        /* \"#utility.yul\":266:272   */\n      dup5\n        /* \"#utility.yul\":261:264   */\n      dup5\n        /* \"#utility.yul\":257:273   */\n      add\n        /* \"#utility.yul\":254:279   */\n      gt\n        /* \"#utility.yul\":251:253   */\n      iszero\n      tag_49\n      jumpi\n        /* \"#utility.yul\":282:361   */\n      tag_50\n      tag_51\n      jump\t// in\n    tag_50:\n        /* \"#utility.yul\":251:253   */\n    tag_49:\n        /* \"#utility.yul\":372:413   */\n      tag_52\n        /* \"#utility.yul\":406:412   */\n      dup5\n        /* \"#utility.yul\":401:404   */\n      dup3\n        /* \"#utility.yul\":396:399   */\n      dup6\n        /* \"#utility.yul\":372:413   */\n      tag_53\n      jump\t// in\n    tag_52:\n        /* \"#utility.yul\":91:419   */\n      pop\n      swap4\n      swap3\n      pop\n      pop\n      pop\n      jump\t// out\n        /* \"#utility.yul\":439:779   */\n    tag_54:\n        /* \"#utility.yul\":495:500   */\n      0x00\n        /* \"#utility.yul\":544:547   */\n      dup3\n        /* \"#utility.yul\":537:541   */\n      0x1f\n        /* \"#utility.yul\":529:535   */\n      dup4\n        /* \"#utility.yul\":525:542   */\n      add\n        /* \"#utility.yul\":521:548   */\n      slt\n        /* \"#utility.yul\":511:513   */\n      tag_56\n      jumpi\n        /* \"#utility.yul\":552:631   */\n      tag_57\n      tag_58\n      jump\t// in\n    tag_57:\n        /* \"#utility.yul\":511:513   */\n    tag_56:\n        /* \"#utility.yul\":669:675   */\n      dup2\n        /* \"#utility.yul\":656:676   */\n      calldataload\n        /* \"#utility.yul\":694:773   */\n      tag_59\n        /* \"#utility.yul\":769:772   */\n      dup5\n        /* \"#utility.yul\":761:767   */\n      dup3\n        /* \"#utility.yul\":754:758   */\n      0x20\n        /* \"#utility.yul\":746:752   */\n      dup7\n        /* \"#utility.yul\":742:759   */\n      add\n        /* \"#utility.yul\":694:773   */\n      tag_43\n      jump\t// in\n    tag_59:\n        /* \"#utility.yul\":685:773   */\n      swap2\n      pop\n        /* \"#utility.yul\":501:779   */\n      pop\n      swap3\n      swap2\n      pop\n      pop\n      jump\t// out\n        /* \"#utility.yul\":785:1294   */\n    tag_15:\n        /* \"#utility.yul\":854:860   */\n      0x00\n        /* \"#utility.yul\":903:905   */\n      0x20\n        /* \"#utility.yul\":891:900   */\n      dup3\n        /* \"#utility.yul\":882:889   */\n      dup5\n        /* \"#utility.yul\":878:901   */\n      sub\n        /* \"#utility.yul\":874:906   */\n      slt\n        /* \"#utility.yul\":871:873   */\n      iszero\n      tag_61\n      jumpi\n        /* \"#utility.yul\":909:988   */\n      tag_62\n      tag_63\n      jump\t// in\n    tag_62:\n        /* \"#utility.yul\":871:873   */\n    tag_61:\n        /* \"#utility.yul\":1057:1058   */\n      0x00\n        /* \"#utility.yul\":1046:1055   */\n      dup3\n        /* \"#utility.yul\":1042:1059   */\n      add\n        /* \"#utility.yul\":1029:1060   */\n      calldataload\n        /* \"#utility.yul\":1087:1105   */\n      0xffffffffffffffff\n        /* \"#utility.yul\":1079:1085   */\n      dup2\n        /* \"#utility.yul\":1076:1106   */\n      gt\n        /* \"#utility.yul\":1073:1075   */\n      iszero\n      tag_64\n      jumpi\n        /* \"#utility.yul\":1109:1188   */\n      tag_65\n      tag_66\n      jump\t// in\n    tag_65:\n        /* \"#utility.yul\":1073:1075   */\n    tag_64:\n        /* \"#utility.yul\":1214:1277   */\n      tag_67\n        /* \"#utility.yul\":1269:1276   */\n      dup5\n        /* \"#utility.yul\":1260:1266   */\n      dup3\n        /* \"#utility.yul\":1249:1258   */\n      dup6\n        /* \"#utility.yul\":1245:1267   */\n      add\n        /* \"#utility.yul\":1214:1277   */\n      tag_54\n      jump\t// in\n    tag_67:\n        /* \"#utility.yul\":1204:1277   */\n      swap2\n      pop\n        /* \"#utility.yul\":1000:1287   */\n      pop\n        /* \"#utility.yul\":861:1294   */\n      swap3\n      swap2\n      pop\n      pop\n      jump\t// out\n        /* \"#utility.yul\":1300:1664   */\n    tag_68:\n        /* \"#utility.yul\":1388:1391   */\n      0x00\n        /* \"#utility.yul\":1416:1455   */\n      tag_70\n        /* \"#utility.yul\":1449:1454   */\n      dup3\n        /* \"#utility.yul\":1416:1455   */\n      tag_71\n      jump\t// in\n    tag_70:\n        /* \"#utility.yul\":1471:1542   */\n      tag_72\n        /* \"#utility.yul\":1535:1541   */\n      dup2\n        /* \"#utility.yul\":1530:1533   */\n      dup6\n        /* \"#utility.yul\":1471:1542   */\n      tag_73\n      jump\t// in\n    tag_72:\n        /* \"#utility.yul\":1464:1542   */\n      swap4\n      pop\n        /* \"#utility.yul\":1551:1603   */\n      tag_74\n        /* \"#utility.yul\":1596:1602   */\n      dup2\n        /* \"#utility.yul\":1591:1594   */\n      dup6\n        /* \"#utility.yul\":1584:1588   */\n      0x20\n        /* \"#utility.yul\":1577:1582   */\n      dup7\n        /* \"#utility.yul\":1573:1589   */\n      add\n        /* \"#utility.yul\":1551:1603   */\n      tag_75\n      jump\t// in\n    tag_74:\n        /* \"#utility.yul\":1628:1657   */\n      tag_76\n        /* \"#utility.yul\":1650:1656   */\n      dup2\n        /* \"#utility.yul\":1628:1657   */\n      tag_77\n      jump\t// in\n    tag_76:\n        /* \"#utility.yul\":1623:1626   */\n      dup5\n        /* \"#utility.yul\":1619:1658   */\n      add\n        /* \"#utility.yul\":1612:1658   */\n      swap2\n      pop\n        /* \"#utility.yul\":1392:1664   */\n      pop\n      swap3\n      swap2\n      pop\n      pop\n      jump\t// out\n        /* \"#utility.yul\":1670:1983   */\n    tag_9:\n        /* \"#utility.yul\":1783:1787   */\n      0x00\n        /* \"#utility.yul\":1821:1823   */\n      0x20\n        /* \"#utility.yul\":1810:1819   */\n      dup3\n        /* \"#utility.yul\":1806:1824   */\n      add\n        /* \"#utility.yul\":1798:1824   */\n      swap1\n      pop\n        /* \"#utility.yul\":1870:1879   */\n      dup2\n        /* \"#utility.yul\":1864:1868   */\n      dup2\n        /* \"#utility.yul\":1860:1880   */\n      sub\n        /* \"#utility.yul\":1856:1857   */\n      0x00\n        /* \"#utility.yul\":1845:1854   */\n      dup4\n        /* \"#utility.yul\":1841:1858   */\n      add\n        /* \"#utility.yul\":1834:1881   */\n      mstore\n        /* \"#utility.yul\":1898:1976   */\n      tag_79\n        /* \"#utility.yul\":1971:1975   */\n      dup2\n        /* \"#utility.yul\":1962:1968   */\n      dup5\n        /* \"#utility.yul\":1898:1976   */\n      tag_68\n      jump\t// in\n    tag_79:\n        /* \"#utility.yul\":1890:1976   */\n      swap1\n      pop\n        /* \"#utility.yul\":1788:1983   */\n      swap3\n      swap2\n      pop\n      pop\n      jump\t// out\n        /* \"#utility.yul\":1989:2118   */\n    tag_48:\n        /* \"#utility.yul\":2023:2029   */\n      0x00\n        /* \"#utility.yul\":2050:2070   */\n      tag_81\n      tag_82\n      jump\t// in\n    tag_81:\n        /* \"#utility.yul\":2040:2070   */\n      swap1\n      pop\n        /* \"#utility.yul\":2079:2112   */\n      tag_83\n        /* \"#utility.yul\":2107:2111   */\n      dup3\n        /* \"#utility.yul\":2099:2105   */\n      dup3\n        /* \"#utility.yul\":2079:2112   */\n      tag_84\n      jump\t// in\n    tag_83:\n        /* \"#utility.yul\":2030:2118   */\n      swap2\n      swap1\n      pop\n      jump\t// out\n        /* \"#utility.yul\":2124:2199   */\n    tag_82:\n        /* \"#utility.yul\":2157:2163   */\n      0x00\n        /* \"#utility.yul\":2190:2192   */\n      0x40\n        /* \"#utility.yul\":2184:2193   */\n      mload\n        /* \"#utility.yul\":2174:2193   */\n      swap1\n      pop\n        /* \"#utility.yul\":2164:2199   */\n      swap1\n      jump\t// out\n        /* \"#utility.yul\":2205:2513   */\n    tag_47:\n        /* \"#utility.yul\":2267:2271   */\n      0x00\n        /* \"#utility.yul\":2357:2375   */\n      0xffffffffffffffff\n        /* \"#utility.yul\":2349:2355   */\n      dup3\n        /* \"#utility.yul\":2346:2376   */\n      gt\n        /* \"#utility.yul\":2343:2345   */\n      iszero\n      tag_87\n      jumpi\n        /* \"#utility.yul\":2379:2397   */\n      tag_88\n      tag_89\n      jump\t// in\n    tag_88:\n        /* \"#utility.yul\":2343:2345   */\n    tag_87:\n        /* \"#utility.yul\":2417:2446   */\n      tag_90\n        /* \"#utility.yul\":2439:2445   */\n      dup3\n        /* \"#utility.yul\":2417:2446   */\n      tag_77\n      jump\t// in\n    tag_90:\n        /* \"#utility.yul\":2409:2446   */\n      swap1\n      pop\n        /* \"#utility.yul\":2501:2505   */\n      0x20\n        /* \"#utility.yul\":2495:2499   */\n      dup2\n        /* \"#utility.yul\":2491:2506   */\n      add\n        /* \"#utility.yul\":2483:2506   */\n      swap1\n      pop\n        /* \"#utility.yul\":2272:2513   */\n      swap2\n      swap1\n      pop\n      jump\t// out\n        /* \"#utility.yul\":2519:2618   */\n    tag_71:\n        /* \"#utility.yul\":2571:2577   */\n      0x00\n        /* \"#utility.yul\":2605:2610   */\n      dup2\n        /* \"#utility.yul\":2599:2611   */\n      mload\n        /* \"#utility.yul\":2589:2611   */\n      swap1\n      pop\n        /* \"#utility.yul\":2578:2618   */\n      swap2\n      swap1\n      pop\n      jump\t// out\n        /* \"#utility.yul\":2624:2793   */\n    tag_73:\n        /* \"#utility.yul\":2708:2719   */\n      0x00\n        /* \"#utility.yul\":2742:2748   */\n      dup3\n        /* \"#utility.yul\":2737:2740   */\n      dup3\n        /* \"#utility.yul\":2730:2749   */\n      mstore\n        /* \"#utility.yul\":2782:2786   */\n      0x20\n        /* \"#utility.yul\":2777:2780   */\n      dup3\n        /* \"#utility.yul\":2773:2787   */\n      add\n        /* \"#utility.yul\":2758:2787   */\n      swap1\n      pop\n        /* \"#utility.yul\":2720:2793   */\n      swap3\n      swap2\n      pop\n      pop\n      jump\t// out\n        /* \"#utility.yul\":2799:2953   */\n    tag_53:\n        /* \"#utility.yul\":2883:2889   */\n      dup3\n        /* \"#utility.yul\":2878:2881   */\n      dup2\n        /* \"#utility.yul\":2873:2876   */\n      dup4\n        /* \"#utility.yul\":2860:2890   */\n      calldatacopy\n        /* \"#utility.yul\":2945:2946   */\n      0x00\n        /* \"#utility.yul\":2936:2942   */\n      dup4\n        /* \"#utility.yul\":2931:2934   */\n      dup4\n        /* \"#utility.yul\":2927:2943   */\n      add\n        /* \"#utility.yul\":2920:2947   */\n      mstore\n        /* \"#utility.yul\":2850:2953   */\n      pop\n      pop\n      pop\n      jump\t// out\n        /* \"#utility.yul\":2959:3266   */\n    tag_75:\n        /* \"#utility.yul\":3027:3028   */\n      0x00\n        /* \"#utility.yul\":3037:3150   */\n    tag_95:\n        /* \"#utility.yul\":3051:3057   */\n      dup4\n        /* \"#utility.yul\":3048:3049   */\n      dup2\n        /* \"#utility.yul\":3045:3058   */\n      lt\n        /* \"#utility.yul\":3037:3150   */\n      iszero\n      tag_97\n      jumpi\n        /* \"#utility.yul\":3136:3137   */\n      dup1\n        /* \"#utility.yul\":3131:3134   */\n      dup3\n        /* \"#utility.yul\":3127:3138   */\n      add\n        /* \"#utility.yul\":3121:3139   */\n      mload\n        /* \"#utility.yul\":3117:3118   */\n      dup2\n        /* \"#utility.yul\":3112:3115   */\n      dup5\n        /* \"#utility.yul\":3108:3119   */\n      add\n        /* \"#utility.yul\":3101:3140   */\n      mstore\n        /* \"#utility.yul\":3073:3075   */\n      0x20\n        /* \"#utility.yul\":3070:3071   */\n      dup2\n        /* \"#utility.yul\":3066:3076   */\n      add\n        /* \"#utility.yul\":3061:3076   */\n      swap1\n      pop\n        /* \"#utility.yul\":3037:3150   */\n      jump(tag_95)\n    tag_97:\n        /* \"#utility.yul\":3168:3174   */\n      dup4\n        /* \"#utility.yul\":3165:3166   */\n      dup2\n        /* \"#utility.yul\":3162:3175   */\n      gt\n        /* \"#utility.yul\":3159:3161   */\n      iszero\n      tag_98\n      jumpi\n        /* \"#utility.yul\":3248:3249   */\n      0x00\n        /* \"#utility.yul\":3239:3245   */\n      dup5\n        /* \"#utility.yul\":3234:3237   */\n      dup5\n        /* \"#utility.yul\":3230:3246   */\n      add\n        /* \"#utility.yul\":3223:3250   */\n      mstore\n        /* \"#utility.yul\":3159:3161   */\n    tag_98:\n        /* \"#utility.yul\":3008:3266   */\n      pop\n      pop\n      pop\n      pop\n      jump\t// out\n        /* \"#utility.yul\":3272:3592   */\n    tag_18:\n        /* \"#utility.yul\":3316:3322   */\n      0x00\n        /* \"#utility.yul\":3353:3354   */\n      0x02\n        /* \"#utility.yul\":3347:3351   */\n      dup3\n        /* \"#utility.yul\":3343:3355   */\n      div\n        /* \"#utility.yul\":3333:3355   */\n      swap1\n      pop\n        /* \"#utility.yul\":3400:3401   */\n      0x01\n        /* \"#utility.yul\":3394:3398   */\n      dup3\n        /* \"#utility.yul\":3390:3402   */\n      and\n        /* \"#utility.yul\":3421:3439   */\n      dup1\n        /* \"#utility.yul\":3411:3413   */\n      tag_100\n      jumpi\n        /* \"#utility.yul\":3477:3481   */\n      0x7f\n        /* \"#utility.yul\":3469:3475   */\n      dup3\n        /* \"#utility.yul\":3465:3482   */\n      and\n        /* \"#utility.yul\":3455:3482   */\n      swap2\n      pop\n        /* \"#utility.yul\":3411:3413   */\n    tag_100:\n        /* \"#utility.yul\":3539:3541   */\n      0x20\n        /* \"#utility.yul\":3531:3537   */\n      dup3\n        /* \"#utility.yul\":3528:3542   */\n      lt\n        /* \"#utility.yul\":3508:3526   */\n      dup2\n        /* \"#utility.yul\":3505:3543   */\n      eq\n        /* \"#utility.yul\":3502:3504   */\n      iszero\n      tag_101\n      jumpi\n        /* \"#utility.yul\":3558:3576   */\n      tag_102\n      tag_103\n      jump\t// in\n    tag_102:\n        /* \"#utility.yul\":3502:3504   */\n    tag_101:\n        /* \"#utility.yul\":3323:3592   */\n      pop\n      swap2\n      swap1\n      pop\n      jump\t// out\n        /* \"#utility.yul\":3598:3879   */\n    tag_84:\n        /* \"#utility.yul\":3681:3708   */\n      tag_105\n        /* \"#utility.yul\":3703:3707   */\n      dup3\n        /* \"#utility.yul\":3681:3708   */\n      tag_77\n      jump\t// in\n    tag_105:\n        /* \"#utility.yul\":3673:3679   */\n      dup2\n        /* \"#utility.yul\":3669:3709   */\n      add\n        /* \"#utility.yul\":3811:3817   */\n      dup2\n        /* \"#utility.yul\":3799:3809   */\n      dup2\n        /* \"#utility.yul\":3796:3818   */\n      lt\n        /* \"#utility.yul\":3775:3793   */\n      0xffffffffffffffff\n        /* \"#utility.yul\":3763:3773   */\n      dup3\n        /* \"#utility.yul\":3760:3794   */\n      gt\n        /* \"#utility.yul\":3757:3819   */\n      or\n        /* \"#utility.yul\":3754:3756   */\n      iszero\n      tag_106\n      jumpi\n        /* \"#utility.yul\":3822:3840   */\n      tag_107\n      tag_89\n      jump\t// in\n    tag_107:\n        /* \"#utility.yul\":3754:3756   */\n    tag_106:\n        /* \"#utility.yul\":3862:3872   */\n      dup1\n        /* \"#utility.yul\":3858:3860   */\n      0x40\n        /* \"#utility.yul\":3851:3873   */\n      mstore\n        /* \"#utility.yul\":3641:3879   */\n      pop\n      pop\n      pop\n      jump\t// out\n        /* \"#utility.yul\":3885:4065   */\n    tag_103:\n        /* \"#utility.yul\":3933:4010   */\n      0x4e487b7100000000000000000000000000000000000000000000000000000000\n        /* \"#utility.yul\":3930:3931   */\n      0x00\n        /* \"#utility.yul\":3923:4011   */\n      mstore\n        /* \"#utility.yul\":4030:4034   */\n      0x22\n        /* \"#utility.yul\":4027:4028   */\n      0x04\n        /* \"#utility.yul\":4020:4035   */\n      mstore\n        /* \"#utility.yul\":4054:4058   */\n      0x24\n        /* \"#utility.yul\":4051:4052   */\n      0x00\n        /* \"#utility.yul\":4044:4059   */\n      revert\n        /* \"#utility.yul\":4071:4251   */\n    tag_89:\n        /* \"#utility.yul\":4119:4196   */\n      0x4e487b7100000000000000000000000000000000000000000000000000000000\n        /* \"#utility.yul\":4116:4117   */\n      0x00\n        /* \"#utility.yul\":4109:4197   */\n      mstore\n        /* \"#utility.yul\":4216:4220   */\n      0x41\n        /* \"#utility.yul\":4213:4214   */\n      0x04\n        /* \"#utility.yul\":4206:4221   */\n      mstore\n        /* \"#utility.yul\":4240:4244   */\n      0x24\n        /* \"#utility.yul\":4237:4238   */\n      0x00\n        /* \"#utility.yul\":4230:4245   */\n      revert\n        /* \"#utility.yul\":4257:4374   */\n    tag_58:\n        /* \"#utility.yul\":4366:4367   */\n      0x00\n        /* \"#utility.yul\":4363:4364   */\n      dup1\n        /* \"#utility.yul\":4356:4368   */\n      revert\n        /* \"#utility.yul\":4380:4497   */\n    tag_51:\n        /* \"#utility.yul\":4489:4490   */\n      0x00\n        /* \"#utility.yul\":4486:4487   */\n      dup1\n        /* \"#utility.yul\":4479:4491   */\n      revert\n        /* \"#utility.yul\":4503:4620   */\n    tag_66:\n        /* \"#utility.yul\":4612:4613   */\n      0x00\n        /* \"#utility.yul\":4609:4610   */\n      dup1\n        /* \"#utility.yul\":4602:4614   */\n      revert\n        /* \"#utility.yul\":4626:4743   */\n    tag_63:\n        /* \"#utility.yul\":4735:4736   */\n      0x00\n        /* \"#utility.yul\":4732:4733   */\n      dup1\n        /* \"#utility.yul\":4725:4737   */\n      revert\n        /* \"#utility.yul\":4749:4851   */\n    tag_77:\n        /* \"#utility.yul\":4790:4796   */\n      0x00\n        /* \"#utility.yul\":4841:4843   */\n      0x1f\n        /* \"#utility.yul\":4837:4844   */\n      not\n        /* \"#utility.yul\":4832:4834   */\n      0x1f\n        /* \"#utility.yul\":4825:4830   */\n      dup4\n        /* \"#utility.yul\":4821:4835   */\n      add\n        /* \"#utility.yul\":4817:4845   */\n      and\n        /* \"#utility.yul\":4807:4845   */\n      swap1\n      pop\n        /* \"#utility.yul\":4797:4851   */\n      swap2\n      swap1\n      pop\n      jump\t// out\n\n    auxdata: 0xa2646970667358221220e8a3264ad571e05edb99e4327b4388bf239c7eec22901d6617ce0626be540c7464736f6c63430008050033\n}\n","bytecode":{"linkReferences":{},"object":"608060405234801561001057600080fd5b5061055f806100206000396000f3fe608060405234801561001057600080fd5b50600436106100415760003560e01c80632d9fff0114610046578063a3946e2614610064578063c1fd413714610082575b600080fd5b61004e61009e565b60405161005b919061036d565b60405180910390f35b61006c61012c565b604051610079919061036d565b60405180910390f35b61009c600480360381019061009791906102eb565b6101be565b005b600080546100ab90610443565b80601f01602080910402602001604051908101604052809291908181526020018280546100d790610443565b80156101245780601f106100f957610100808354040283529160200191610124565b820191906000526020600020905b81548152906001019060200180831161010757829003601f168201915b505050505081565b60606000805461013b90610443565b80601f016020809104026020016040519081016040528092919081815260200182805461016790610443565b80156101b45780601f10610189576101008083540402835291602001916101b4565b820191906000526020600020905b81548152906001019060200180831161019757829003601f168201915b5050505050905090565b80600090805190602001906101d49291906101d8565b5050565b8280546101e490610443565b90600052602060002090601f016020900481019282610206576000855561024d565b82601f1061021f57805160ff191683800117855561024d565b8280016001018555821561024d579182015b8281111561024c578251825591602001919060010190610231565b5b50905061025a919061025e565b5090565b5b8082111561027757600081600090555060010161025f565b5090565b600061028e610289846103b4565b61038f565b9050828152602081018484840111156102aa576102a9610509565b5b6102b5848285610401565b509392505050565b600082601f8301126102d2576102d1610504565b5b81356102e284826020860161027b565b91505092915050565b60006020828403121561030157610300610513565b5b600082013567ffffffffffffffff81111561031f5761031e61050e565b5b61032b848285016102bd565b91505092915050565b600061033f826103e5565b61034981856103f0565b9350610359818560208601610410565b61036281610518565b840191505092915050565b600060208201905081810360008301526103878184610334565b905092915050565b60006103996103aa565b90506103a58282610475565b919050565b6000604051905090565b600067ffffffffffffffff8211156103cf576103ce6104d5565b5b6103d882610518565b9050602081019050919050565b600081519050919050565b600082825260208201905092915050565b82818337600083830152505050565b60005b8381101561042e578082015181840152602081019050610413565b8381111561043d576000848401525b50505050565b6000600282049050600182168061045b57607f821691505b6020821081141561046f5761046e6104a6565b5b50919050565b61047e82610518565b810181811067ffffffffffffffff8211171561049d5761049c6104d5565b5b80604052505050565b7f4e487b7100000000000000000000000000000000000000000000000000000000600052602260045260246000fd5b7f4e487b7100000000000000000000000000000000000000000000000000000000600052604160045260246000fd5b600080fd5b600080fd5b600080fd5b600080fd5b6000601f19601f830116905091905056fea2646970667358221220e8a3264ad571e05edb99e4327b4388bf239c7eec22901d6617ce0626be540c7464736f6c63430008050033","opcodes":"PUSH1 0x80 PUSH1 0x40 MSTORE CALLVALUE DUP1 ISZERO PUSH2 0x10 JUMPI PUSH1 0x0 DUP1 REVERT JUMPDEST POP PUSH2 0x55F DUP1 PUSH2 0x20 PUSH1 0x0 CODECOPY PUSH1 0x0 RETURN INVALID PUSH1 0x80 PUSH1 0x40 MSTORE CALLVALUE DUP1 ISZERO PUSH2 0x10 JUMPI PUSH1 0x0 DUP1 REVERT JUMPDEST POP PUSH1 0x4 CALLDATASIZE LT PUSH2 0x41 JUMPI PUSH1 0x0 CALLDATALOAD PUSH1 0xE0 SHR DUP1 PUSH4 0x2D9FFF01 EQ PUSH2 0x46 JUMPI DUP1 PUSH4 0xA3946E26 EQ PUSH2 0x64 JUMPI DUP1 PUSH4 0xC1FD4137 EQ PUSH2 0x82 JUMPI JUMPDEST PUSH1 0x0 DUP1 REVERT JUMPDEST PUSH2 0x4E PUSH2 0x9E JUMP JUMPDEST PUSH1 0x40 MLOAD PUSH2 0x5B SWAP2 SWAP1 PUSH2 0x36D JUMP JUMPDEST PUSH1 0x40 MLOAD DUP1 SWAP2 SUB SWAP1 RETURN JUMPDEST PUSH2 0x6C PUSH2 0x12C JUMP JUMPDEST PUSH1 0x40 MLOAD PUSH2 0x79 SWAP2 SWAP1 PUSH2 0x36D JUMP JUMPDEST PUSH1 0x40 MLOAD DUP1 SWAP2 SUB SWAP1 RETURN JUMPDEST PUSH2 0x9C PUSH1 0x4 DUP1 CALLDATASIZE SUB DUP2 ADD SWAP1 PUSH2 0x97 SWAP2 SWAP1 PUSH2 0x2EB JUMP JUMPDEST PUSH2 0x1BE JUMP JUMPDEST STOP JUMPDEST PUSH1 0x0 DUP1 SLOAD PUSH2 0xAB SWAP1 PUSH2 0x443 JUMP JUMPDEST DUP1 PUSH1 0x1F ADD PUSH1 0x20 DUP1 SWAP2 DIV MUL PUSH1 0x20 ADD PUSH1 0x40 MLOAD SWAP1 DUP2 ADD PUSH1 0x40 MSTORE DUP1 SWAP3 SWAP2 SWAP1 DUP2 DUP2 MSTORE PUSH1 0x20 ADD DUP3 DUP1 SLOAD PUSH2 0xD7 SWAP1 PUSH2 0x443 JUMP JUMPDEST DUP1 ISZERO PUSH2 0x124 JUMPI DUP1 PUSH1 0x1F LT PUSH2 0xF9 JUMPI PUSH2 0x100 DUP1 DUP4 SLOAD DIV MUL DUP4 MSTORE SWAP2 PUSH1 0x20 ADD SWAP2 PUSH2 0x124 JUMP JUMPDEST DUP3 ADD SWAP2 SWAP1 PUSH1 0x0 MSTORE PUSH1 0x20 PUSH1 0x0 KECCAK256 SWAP1 JUMPDEST DUP2 SLOAD DUP2 MSTORE SWAP1 PUSH1 0x1 ADD SWAP1 PUSH1 0x20 ADD DUP1 DUP4 GT PUSH2 0x107 JUMPI DUP3 SWAP1 SUB PUSH1 0x1F AND DUP3 ADD SWAP2 JUMPDEST POP POP POP POP POP DUP2 JUMP JUMPDEST PUSH1 0x60 PUSH1 0x0 DUP1 SLOAD PUSH2 0x13B SWAP1 PUSH2 0x443 JUMP JUMPDEST DUP1 PUSH1 0x1F ADD PUSH1 0x20 DUP1 SWAP2 DIV MUL PUSH1 0x20 ADD PUSH1 0x40 MLOAD SWAP1 DUP2 ADD PUSH1 0x40 MSTORE DUP1 SWAP3 SWAP2 SWAP1 DUP2 DUP2 MSTORE PUSH1 0x20 ADD DUP3 DUP1 SLOAD PUSH2 0x167 SWAP1 PUSH2 0x443 JUMP JUMPDEST DUP1 ISZERO PUSH2 0x1B4 JUMPI DUP1 PUSH1 0x1F LT PUSH2 0x189 JUMPI PUSH2 0x100 DUP1 DUP4 SLOAD DIV MUL DUP4 MSTORE SWAP2 PUSH1 0x20 ADD SWAP2 PUSH2 0x1B4 JUMP JUMPDEST DUP3 ADD SWAP2 SWAP1 PUSH1 0x0 MSTORE PUSH1 0x20 PUSH1 0x0 KECCAK256 SWAP1 JUMPDEST DUP2 SLOAD DUP2 MSTORE SWAP1 PUSH1 0x1 ADD SWAP1 PUSH1 0x20 ADD DUP1 DUP4 GT PUSH2 0x197 JUMPI DUP3 SWAP1 SUB PUSH1 0x1F AND DUP3 ADD SWAP2 JUMPDEST POP POP POP POP POP SWAP1 POP SWAP1 JUMP JUMPDEST DUP1 PUSH1 0x0 SWAP1 DUP1 MLOAD SWAP1 PUSH1 0x20 ADD SWAP1 PUSH2 0x1D4 SWAP3 SWAP2 SWAP1 PUSH2 0x1D8 JUMP JUMPDEST POP POP JUMP JUMPDEST DUP3 DUP1 SLOAD PUSH2 0x1E4 SWAP1 PUSH2 0x443 JUMP JUMPDEST SWAP1 PUSH1 0x0 MSTORE PUSH1 0x20 PUSH1 0x0 KECCAK256 SWAP1 PUSH1 0x1F ADD PUSH1 0x20 SWAP1 DIV DUP2 ADD SWAP3 DUP3 PUSH2 0x206 JUMPI PUSH1 0x0 DUP6 SSTORE PUSH2 0x24D JUMP JUMPDEST DUP3 PUSH1 0x1F LT PUSH2 0x21F JUMPI DUP1 MLOAD PUSH1 0xFF NOT AND DUP4 DUP1 ADD OR DUP6 SSTORE PUSH2 0x24D JUMP JUMPDEST DUP3 DUP1 ADD PUSH1 0x1 ADD DUP6 SSTORE DUP3 ISZERO PUSH2 0x24D JUMPI SWAP2 DUP3 ADD JUMPDEST DUP3 DUP2 GT ISZERO PUSH2 0x24C JUMPI DUP3 MLOAD DUP3 SSTORE SWAP2 PUSH1 0x20 ADD SWAP2 SWAP1 PUSH1 0x1 ADD SWAP1 PUSH2 0x231 JUMP JUMPDEST JUMPDEST POP SWAP1 POP PUSH2 0x25A SWAP2 SWAP1 PUSH2 0x25E JUMP JUMPDEST POP SWAP1 JUMP JUMPDEST JUMPDEST DUP1 DUP3 GT ISZERO PUSH2 0x277 JUMPI PUSH1 0x0 DUP2 PUSH1 0x0 SWAP1 SSTORE POP PUSH1 0x1 ADD PUSH2 0x25F JUMP JUMPDEST POP SWAP1 JUMP JUMPDEST PUSH1 0x0 PUSH2 0x28E PUSH2 0x289 DUP5 PUSH2 0x3B4 JUMP JUMPDEST PUSH2 0x38F JUMP JUMPDEST SWAP1 POP DUP3 DUP2 MSTORE PUSH1 0x20 DUP2 ADD DUP5 DUP5 DUP5 ADD GT ISZERO PUSH2 0x2AA JUMPI PUSH2 0x2A9 PUSH2 0x509 JUMP JUMPDEST JUMPDEST PUSH2 0x2B5 DUP5 DUP3 DUP6 PUSH2 0x401 JUMP JUMPDEST POP SWAP4 SWAP3 POP POP POP JUMP JUMPDEST PUSH1 0x0 DUP3 PUSH1 0x1F DUP4 ADD SLT PUSH2 0x2D2 JUMPI PUSH2 0x2D1 PUSH2 0x504 JUMP JUMPDEST JUMPDEST DUP2 CALLDATALOAD PUSH2 0x2E2 DUP5 DUP3 PUSH1 0x20 DUP7 ADD PUSH2 0x27B JUMP JUMPDEST SWAP2 POP POP SWAP3 SWAP2 POP POP JUMP JUMPDEST PUSH1 0x0 PUSH1 0x20 DUP3 DUP5 SUB SLT ISZERO PUSH2 0x301 JUMPI PUSH2 0x300 PUSH2 0x513 JUMP JUMPDEST JUMPDEST PUSH1 0x0 DUP3 ADD CALLDATALOAD PUSH8 0xFFFFFFFFFFFFFFFF DUP2 GT ISZERO PUSH2 0x31F JUMPI PUSH2 0x31E PUSH2 0x50E JUMP JUMPDEST JUMPDEST PUSH2 0x32B DUP5 DUP3 DUP6 ADD PUSH2 0x2BD JUMP JUMPDEST SWAP2 POP POP SWAP3 SWAP2 POP POP JUMP JUMPDEST PUSH1 0x0 PUSH2 0x33F DUP3 PUSH2 0x3E5 JUMP JUMPDEST PUSH2 0x349 DUP2 DUP6 PUSH2 0x3F0 JUMP JUMPDEST SWAP4 POP PUSH2 0x359 DUP2 DUP6 PUSH1 0x20 DUP7 ADD PUSH2 0x410 JUMP JUMPDEST PUSH2 0x362 DUP2 PUSH2 0x518 JUMP JUMPDEST DUP5 ADD SWAP2 POP POP SWAP3 SWAP2 POP POP JUMP JUMPDEST PUSH1 0x0 PUSH1 0x20 DUP3 ADD SWAP1 POP DUP2 DUP2 SUB PUSH1 0x0 DUP4 ADD MSTORE PUSH2 0x387 DUP2 DUP5 PUSH2 0x334 JUMP JUMPDEST SWAP1 POP SWAP3 SWAP2 POP POP JUMP JUMPDEST PUSH1 0x0 PUSH2 0x399 PUSH2 0x3AA JUMP JUMPDEST SWAP1 POP PUSH2 0x3A5 DUP3 DUP3 PUSH2 0x475 JUMP JUMPDEST SWAP2 SWAP1 POP JUMP JUMPDEST PUSH1 0x0 PUSH1 0x40 MLOAD SWAP1 POP SWAP1 JUMP JUMPDEST PUSH1 0x0 PUSH8 0xFFFFFFFFFFFFFFFF DUP3 GT ISZERO PUSH2 0x3CF JUMPI PUSH2 0x3CE PUSH2 0x4D5 JUMP JUMPDEST JUMPDEST PUSH2 0x3D8 DUP3 PUSH2 0x518 JUMP JUMPDEST SWAP1 POP PUSH1 0x20 DUP2 ADD SWAP1 POP SWAP2 SWAP1 POP JUMP JUMPDEST PUSH1 0x0 DUP2 MLOAD SWAP1 POP SWAP2 SWAP1 POP JUMP JUMPDEST PUSH1 0x0 DUP3 DUP3 MSTORE PUSH1 0x20 DUP3 ADD SWAP1 POP SWAP3 SWAP2 POP POP JUMP JUMPDEST DUP3 DUP2 DUP4 CALLDATACOPY PUSH1 0x0 DUP4 DUP4 ADD MSTORE POP POP POP JUMP JUMPDEST PUSH1 0x0 JUMPDEST DUP4 DUP2 LT ISZERO PUSH2 0x42E JUMPI DUP1 DUP3 ADD MLOAD DUP2 DUP5 ADD MSTORE PUSH1 0x20 DUP2 ADD SWAP1 POP PUSH2 0x413 JUMP JUMPDEST DUP4 DUP2 GT ISZERO PUSH2 0x43D JUMPI PUSH1 0x0 DUP5 DUP5 ADD MSTORE JUMPDEST POP POP POP POP JUMP JUMPDEST PUSH1 0x0 PUSH1 0x2 DUP3 DIV SWAP1 POP PUSH1 0x1 DUP3 AND DUP1 PUSH2 0x45B JUMPI PUSH1 0x7F DUP3 AND SWAP2 POP JUMPDEST PUSH1 0x20 DUP3 LT DUP2 EQ ISZERO PUSH2 0x46F JUMPI PUSH2 0x46E PUSH2 0x4A6 JUMP JUMPDEST JUMPDEST POP SWAP2 SWAP1 POP JUMP JUMPDEST PUSH2 0x47E DUP3 PUSH2 0x518 JUMP JUMPDEST DUP2 ADD DUP2 DUP2 LT PUSH8 0xFFFFFFFFFFFFFFFF DUP3 GT OR ISZERO PUSH2 0x49D JUMPI PUSH2 0x49C PUSH2 0x4D5 JUMP JUMPDEST JUMPDEST DUP1 PUSH1 0x40 MSTORE POP POP POP JUMP JUMPDEST PUSH32 0x4E487B7100000000000000000000000000000000000000000000000000000000 PUSH1 0x0 MSTORE PUSH1 0x22 PUSH1 0x4 MSTORE PUSH1 0x24 PUSH1 0x0 REVERT JUMPDEST PUSH32 0x4E487B7100000000000000000000000000000000000000000000000000000000 PUSH1 0x0 MSTORE PUSH1 0x41 PUSH1 0x4 MSTORE PUSH1 0x24 PUSH1 0x0 REVERT JUMPDEST PUSH1 0x0 DUP1 REVERT JUMPDEST PUSH1 0x0 DUP1 REVERT JUMPDEST PUSH1 0x0 DUP1 REVERT JUMPDEST PUSH1 0x0 DUP1 REVERT JUMPDEST PUSH1 0x0 PUSH1 0x1F NOT PUSH1 0x1F DUP4 ADD AND SWAP1 POP SWAP2 SWAP1 POP JUMP INVALID LOG2 PUSH5 0x6970667358 0x22 SLT KECCAK256 0xE8 LOG3 0x26 0x4A 0xD5 PUSH18 0xE05EDB99E4327B4388BF239C7EEC22901D66 OR 0xCE MOD 0x26 0xBE SLOAD 0xC PUSH21 0x64736F6C6343000805003300000000000000000000 "},"gasEstimates":{"creation":{"codeDepositCost":"275000","executionCost":"312","totalCost":"275312"},"external":{"brand()":"infinite","getBrand()":"infinite","setBrand(string)":"infinite"}},"methodIdentifiers":{"brand()":"2d9fff01","getBrand()":"a3946e26","setBrand(string)":"c1fd4137"}},"storageLayout":{"storage":[{"astId":3,"contract":"Car.sol:Car","label":"brand","offset":0,"slot":"0","type":"t_string_storage"}],"types":{"t_string_storage":{"encoding":"bytes","label":"string","numberOfBytes":"32"}}},"userdoc":{"kind":"user","methods":{},"version":1}}