{"abi":[{"inputs":[{"internalType":"string","name":"_description","type":"string"},{"internalType":"uint256","name":"_minInvest","type":"uint256"},{"internalType":"uint256","name":"_maxInvest","type":"uint256"},{"internalType":"uint256","name":"_goal","type":"uint256"},{"internalType":"address","name":"_owner","type":"address"}],"stateMutability":"nonpayable","type":"constructor"},{"inputs":[{"internalType":"uint256","name":"index","type":"uint256"}],"name":"approvePayment","outputs":[],"stateMutability":"nonpayable","type":"function"},{"inputs":[],"name":"contribute","outputs":[],"stateMutability":"payable","type":"function"},{"inputs":[{"internalType":"string","name":"_description","type":"string"},{"internalType":"uint256","name":"_amount","type":"uint256"},{"internalType":"address payable","name":"_receiver","type":"address"}],"name":"createPayment","outputs":[],"stateMutability":"nonpayable","type":"function"},{"inputs":[],"name":"description","outputs":[{"internalType":"string","name":"","type":"string"}],"stateMutability":"view","type":"function"},{"inputs":[{"internalType":"uint256","name":"index","type":"uint256"}],"name":"doPayment","outputs":[],"stateMutability":"nonpayable","type":"function"},{"inputs":[],"name":"goal","outputs":[{"internalType":"uint256","name":"","type":"uint256"}],"stateMutability":"view","type":"function"},{"inputs":[],"name":"investorCount","outputs":[{"internalType":"uint256","name":"","type":"uint256"}],"stateMutability":"view","type":"function"},{"inputs":[{"internalType":"address","name":"","type":"address"}],"name":"investors","outputs":[{"internalType":"uint256","name":"","type":"uint256"}],"stateMutability":"view","type":"function"},{"inputs":[],"name":"maxInvest","outputs":[{"internalType":"uint256","name":"","type":"uint256"}],"stateMutability":"view","type":"function"},{"inputs":[],"name":"minInvest","outputs":[{"internalType":"uint256","name":"","type":"uint256"}],"stateMutability":"view","type":"function"},{"inputs":[],"name":"owner","outputs":[{"internalType":"address","name":"","type":"address"}],"stateMutability":"view","type":"function"},{"inputs":[{"internalType":"uint256","name":"","type":"uint256"}],"name":"payments","outputs":[{"internalType":"string","name":"description","type":"string"},{"internalType":"uint256","name":"amount","type":"uint256"},{"internalType":"address payable","name":"receiver","type":"address"},{"internalType":"bool","name":"completed","type":"bool"},{"internalType":"uint256","name":"voterCount","type":"uint256"}],"stateMutability":"view","type":"function"}],"devdoc":{"kind":"dev","methods":{},"version":1},"evm":{"assembly":"    /* \"Project.sol\":88:2617  contract Project {\r... */\n  mstore(0x40, 0x80)\n    /* \"Project.sol\":718:1040  constructor(\r... */\n  callvalue\n  dup1\n  iszero\n  tag_1\n  jumpi\n  0x00\n  dup1\n  revert\ntag_1:\n  pop\n  mload(0x40)\n  sub(codesize, bytecodeSize)\n  dup1\n  bytecodeSize\n  dup4\n  codecopy\n  dup2\n  dup2\n  add\n  0x40\n  mstore\n  dup2\n  add\n  swap1\n  tag_2\n  swap2\n  swap1\n  tag_3\n  jump\t// in\ntag_2:\n    /* \"Project.sol\":900:906  _owner */\n  dup1\n    /* \"Project.sol\":892:897  owner */\n  0x00\n  dup1\n    /* \"Project.sol\":892:906  owner = _owner */\n  0x0100\n  exp\n  dup2\n  sload\n  dup2\n  0xffffffffffffffffffffffffffffffffffffffff\n  mul\n  not\n  and\n  swap1\n  dup4\n  0xffffffffffffffffffffffffffffffffffffffff\n  and\n  mul\n  or\n  swap1\n  sstore\n  pop\n    /* \"Project.sol\":931:943  _description */\n  dup5\n    /* \"Project.sol\":917:928  description */\n  0x01\n    /* \"Project.sol\":917:943  description = _description */\n  swap1\n  dup1\n  mload\n  swap1\n  0x20\n  add\n  swap1\n  tag_6\n  swap3\n  swap2\n  swap1\n  tag_7\n  jump\t// in\ntag_6:\n  pop\n    /* \"Project.sol\":966:976  _minInvest */\n  dup4\n    /* \"Project.sol\":954:963  minInvest */\n  0x02\n    /* \"Project.sol\":954:976  minInvest = _minInvest */\n  dup2\n  swap1\n  sstore\n  pop\n    /* \"Project.sol\":999:1009  _maxInvest */\n  dup3\n    /* \"Project.sol\":987:996  maxInvest */\n  0x03\n    /* \"Project.sol\":987:1009  maxInvest = _maxInvest */\n  dup2\n  swap1\n  sstore\n  pop\n    /* \"Project.sol\":1027:1032  _goal */\n  dup2\n    /* \"Project.sol\":1020:1024  goal */\n  0x04\n    /* \"Project.sol\":1020:1032  goal = _goal */\n  dup2\n  swap1\n  sstore\n  pop\n    /* \"Project.sol\":718:1040  constructor(\r... */\n  pop\n  pop\n  pop\n  pop\n  pop\n    /* \"Project.sol\":88:2617  contract Project {\r... */\n  jump(tag_8)\ntag_7:\n  dup3\n  dup1\n  sload\n  tag_9\n  swap1\n  tag_10\n  jump\t// in\ntag_9:\n  swap1\n  0x00\n  mstore\n  keccak256(0x00, 0x20)\n  swap1\n  0x1f\n  add\n  0x20\n  swap1\n  div\n  dup2\n  add\n  swap3\n  dup3\n  tag_12\n  jumpi\n  0x00\n  dup6\n  sstore\n  jump(tag_11)\ntag_12:\n  dup3\n  0x1f\n  lt\n  tag_13\n  jumpi\n  dup1\n  mload\n  not(0xff)\n  and\n  dup4\n  dup1\n  add\n  or\n  dup6\n  sstore\n  jump(tag_11)\ntag_13:\n  dup3\n  dup1\n  add\n  0x01\n  add\n  dup6\n  sstore\n  dup3\n  iszero\n  tag_11\n  jumpi\n  swap2\n  dup3\n  add\ntag_14:\n  dup3\n  dup2\n  gt\n  iszero\n  tag_15\n  jumpi\n  dup3\n  mload\n  dup3\n  sstore\n  swap2\n  0x20\n  add\n  swap2\n  swap1\n  0x01\n  add\n  swap1\n  jump(tag_14)\ntag_15:\ntag_11:\n  pop\n  swap1\n  pop\n  tag_16\n  swap2\n  swap1\n  tag_17\n  jump\t// in\ntag_16:\n  pop\n  swap1\n  jump\t// out\ntag_17:\ntag_18:\n  dup1\n  dup3\n  gt\n  iszero\n  tag_19\n  jumpi\n  0x00\n  dup2\n  0x00\n  swap1\n  sstore\n  pop\n  0x01\n  add\n  jump(tag_18)\ntag_19:\n  pop\n  swap1\n  jump\t// out\n    /* \"#utility.yul\":7:428   */\ntag_21:\n    /* \"#utility.yul\":96:101   */\n  0x00\n    /* \"#utility.yul\":121:187   */\n  tag_23\n    /* \"#utility.yul\":137:186   */\n  tag_24\n    /* \"#utility.yul\":179:185   */\n  dup5\n    /* \"#utility.yul\":137:186   */\n  tag_25\n  jump\t// in\ntag_24:\n    /* \"#utility.yul\":121:187   */\n  tag_26\n  jump\t// in\ntag_23:\n    /* \"#utility.yul\":112:187   */\n  swap1\n  pop\n    /* \"#utility.yul\":210:216   */\n  dup3\n    /* \"#utility.yul\":203:208   */\n  dup2\n    /* \"#utility.yul\":196:217   */\n  mstore\n    /* \"#utility.yul\":248:252   */\n  0x20\n    /* \"#utility.yul\":241:246   */\n  dup2\n    /* \"#utility.yul\":237:253   */\n  add\n    /* \"#utility.yul\":286:289   */\n  dup5\n    /* \"#utility.yul\":277:283   */\n  dup5\n    /* \"#utility.yul\":272:275   */\n  dup5\n    /* \"#utility.yul\":268:284   */\n  add\n    /* \"#utility.yul\":265:290   */\n  gt\n    /* \"#utility.yul\":262:264   */\n  iszero\n  tag_27\n  jumpi\n    /* \"#utility.yul\":293:372   */\n  tag_28\n  tag_29\n  jump\t// in\ntag_28:\n    /* \"#utility.yul\":262:264   */\ntag_27:\n    /* \"#utility.yul\":383:422   */\n  tag_30\n    /* \"#utility.yul\":415:421   */\n  dup5\n    /* \"#utility.yul\":410:413   */\n  dup3\n    /* \"#utility.yul\":405:408   */\n  dup6\n    /* \"#utility.yul\":383:422   */\n  tag_31\n  jump\t// in\ntag_30:\n    /* \"#utility.yul\":102:428   */\n  pop\n  swap4\n  swap3\n  pop\n  pop\n  pop\n  jump\t// out\n    /* \"#utility.yul\":434:577   */\ntag_32:\n    /* \"#utility.yul\":491:496   */\n  0x00\n    /* \"#utility.yul\":522:528   */\n  dup2\n    /* \"#utility.yul\":516:529   */\n  mload\n    /* \"#utility.yul\":507:529   */\n  swap1\n  pop\n    /* \"#utility.yul\":538:571   */\n  tag_34\n    /* \"#utility.yul\":565:570   */\n  dup2\n    /* \"#utility.yul\":538:571   */\n  tag_35\n  jump\t// in\ntag_34:\n    /* \"#utility.yul\":497:577   */\n  swap3\n  swap2\n  pop\n  pop\n  jump\t// out\n    /* \"#utility.yul\":597:952   */\ntag_36:\n    /* \"#utility.yul\":664:669   */\n  0x00\n    /* \"#utility.yul\":713:716   */\n  dup3\n    /* \"#utility.yul\":706:710   */\n  0x1f\n    /* \"#utility.yul\":698:704   */\n  dup4\n    /* \"#utility.yul\":694:711   */\n  add\n    /* \"#utility.yul\":690:717   */\n  slt\n    /* \"#utility.yul\":680:682   */\n  tag_38\n  jumpi\n    /* \"#utility.yul\":721:800   */\n  tag_39\n  tag_40\n  jump\t// in\ntag_39:\n    /* \"#utility.yul\":680:682   */\ntag_38:\n    /* \"#utility.yul\":831:837   */\n  dup2\n    /* \"#utility.yul\":825:838   */\n  mload\n    /* \"#utility.yul\":856:946   */\n  tag_41\n    /* \"#utility.yul\":942:945   */\n  dup5\n    /* \"#utility.yul\":934:940   */\n  dup3\n    /* \"#utility.yul\":927:931   */\n  0x20\n    /* \"#utility.yul\":919:925   */\n  dup7\n    /* \"#utility.yul\":915:932   */\n  add\n    /* \"#utility.yul\":856:946   */\n  tag_21\n  jump\t// in\ntag_41:\n    /* \"#utility.yul\":847:946   */\n  swap2\n  pop\n    /* \"#utility.yul\":670:952   */\n  pop\n  swap3\n  swap2\n  pop\n  pop\n  jump\t// out\n    /* \"#utility.yul\":958:1101   */\ntag_42:\n    /* \"#utility.yul\":1015:1020   */\n  0x00\n    /* \"#utility.yul\":1046:1052   */\n  dup2\n    /* \"#utility.yul\":1040:1053   */\n  mload\n    /* \"#utility.yul\":1031:1053   */\n  swap1\n  pop\n    /* \"#utility.yul\":1062:1095   */\n  tag_44\n    /* \"#utility.yul\":1089:1094   */\n  dup2\n    /* \"#utility.yul\":1062:1095   */\n  tag_45\n  jump\t// in\ntag_44:\n    /* \"#utility.yul\":1021:1101   */\n  swap3\n  swap2\n  pop\n  pop\n  jump\t// out\n    /* \"#utility.yul\":1107:2257   */\ntag_3:\n    /* \"#utility.yul\":1223:1229   */\n  0x00\n    /* \"#utility.yul\":1231:1237   */\n  dup1\n    /* \"#utility.yul\":1239:1245   */\n  0x00\n    /* \"#utility.yul\":1247:1253   */\n  dup1\n    /* \"#utility.yul\":1255:1261   */\n  0x00\n    /* \"#utility.yul\":1304:1307   */\n  0xa0\n    /* \"#utility.yul\":1292:1301   */\n  dup7\n    /* \"#utility.yul\":1283:1290   */\n  dup9\n    /* \"#utility.yul\":1279:1302   */\n  sub\n    /* \"#utility.yul\":1275:1308   */\n  slt\n    /* \"#utility.yul\":1272:1274   */\n  iszero\n  tag_47\n  jumpi\n    /* \"#utility.yul\":1311:1390   */\n  tag_48\n  tag_49\n  jump\t// in\ntag_48:\n    /* \"#utility.yul\":1272:1274   */\ntag_47:\n    /* \"#utility.yul\":1452:1453   */\n  0x00\n    /* \"#utility.yul\":1441:1450   */\n  dup7\n    /* \"#utility.yul\":1437:1454   */\n  add\n    /* \"#utility.yul\":1431:1455   */\n  mload\n    /* \"#utility.yul\":1482:1500   */\n  0xffffffffffffffff\n    /* \"#utility.yul\":1474:1480   */\n  dup2\n    /* \"#utility.yul\":1471:1501   */\n  gt\n    /* \"#utility.yul\":1468:1470   */\n  iszero\n  tag_50\n  jumpi\n    /* \"#utility.yul\":1504:1583   */\n  tag_51\n  tag_52\n  jump\t// in\ntag_51:\n    /* \"#utility.yul\":1468:1470   */\ntag_50:\n    /* \"#utility.yul\":1609:1683   */\n  tag_53\n    /* \"#utility.yul\":1675:1682   */\n  dup9\n    /* \"#utility.yul\":1666:1672   */\n  dup3\n    /* \"#utility.yul\":1655:1664   */\n  dup10\n    /* \"#utility.yul\":1651:1673   */\n  add\n    /* \"#utility.yul\":1609:1683   */\n  tag_36\n  jump\t// in\ntag_53:\n    /* \"#utility.yul\":1599:1683   */\n  swap6\n  pop\n    /* \"#utility.yul\":1402:1693   */\n  pop\n    /* \"#utility.yul\":1732:1734   */\n  0x20\n    /* \"#utility.yul\":1758:1822   */\n  tag_54\n    /* \"#utility.yul\":1814:1821   */\n  dup9\n    /* \"#utility.yul\":1805:1811   */\n  dup3\n    /* \"#utility.yul\":1794:1803   */\n  dup10\n    /* \"#utility.yul\":1790:1812   */\n  add\n    /* \"#utility.yul\":1758:1822   */\n  tag_42\n  jump\t// in\ntag_54:\n    /* \"#utility.yul\":1748:1822   */\n  swap5\n  pop\n    /* \"#utility.yul\":1703:1832   */\n  pop\n    /* \"#utility.yul\":1871:1873   */\n  0x40\n    /* \"#utility.yul\":1897:1961   */\n  tag_55\n    /* \"#utility.yul\":1953:1960   */\n  dup9\n    /* \"#utility.yul\":1944:1950   */\n  dup3\n    /* \"#utility.yul\":1933:1942   */\n  dup10\n    /* \"#utility.yul\":1929:1951   */\n  add\n    /* \"#utility.yul\":1897:1961   */\n  tag_42\n  jump\t// in\ntag_55:\n    /* \"#utility.yul\":1887:1961   */\n  swap4\n  pop\n    /* \"#utility.yul\":1842:1971   */\n  pop\n    /* \"#utility.yul\":2010:2012   */\n  0x60\n    /* \"#utility.yul\":2036:2100   */\n  tag_56\n    /* \"#utility.yul\":2092:2099   */\n  dup9\n    /* \"#utility.yul\":2083:2089   */\n  dup3\n    /* \"#utility.yul\":2072:2081   */\n  dup10\n    /* \"#utility.yul\":2068:2090   */\n  add\n    /* \"#utility.yul\":2036:2100   */\n  tag_42\n  jump\t// in\ntag_56:\n    /* \"#utility.yul\":2026:2100   */\n  swap3\n  pop\n    /* \"#utility.yul\":1981:2110   */\n  pop\n    /* \"#utility.yul\":2149:2152   */\n  0x80\n    /* \"#utility.yul\":2176:2240   */\n  tag_57\n    /* \"#utility.yul\":2232:2239   */\n  dup9\n    /* \"#utility.yul\":2223:2229   */\n  dup3\n    /* \"#utility.yul\":2212:2221   */\n  dup10\n    /* \"#utility.yul\":2208:2230   */\n  add\n    /* \"#utility.yul\":2176:2240   */\n  tag_32\n  jump\t// in\ntag_57:\n    /* \"#utility.yul\":2166:2240   */\n  swap2\n  pop\n    /* \"#utility.yul\":2120:2250   */\n  pop\n    /* \"#utility.yul\":1262:2257   */\n  swap3\n  swap6\n  pop\n  swap3\n  swap6\n  swap1\n  swap4\n  pop\n  jump\t// out\n    /* \"#utility.yul\":2263:2392   */\ntag_26:\n    /* \"#utility.yul\":2297:2303   */\n  0x00\n    /* \"#utility.yul\":2324:2344   */\n  tag_59\n  tag_60\n  jump\t// in\ntag_59:\n    /* \"#utility.yul\":2314:2344   */\n  swap1\n  pop\n    /* \"#utility.yul\":2353:2386   */\n  tag_61\n    /* \"#utility.yul\":2381:2385   */\n  dup3\n    /* \"#utility.yul\":2373:2379   */\n  dup3\n    /* \"#utility.yul\":2353:2386   */\n  tag_62\n  jump\t// in\ntag_61:\n    /* \"#utility.yul\":2304:2392   */\n  swap2\n  swap1\n  pop\n  jump\t// out\n    /* \"#utility.yul\":2398:2473   */\ntag_60:\n    /* \"#utility.yul\":2431:2437   */\n  0x00\n    /* \"#utility.yul\":2464:2466   */\n  0x40\n    /* \"#utility.yul\":2458:2467   */\n  mload\n    /* \"#utility.yul\":2448:2467   */\n  swap1\n  pop\n    /* \"#utility.yul\":2438:2473   */\n  swap1\n  jump\t// out\n    /* \"#utility.yul\":2479:2787   */\ntag_25:\n    /* \"#utility.yul\":2541:2545   */\n  0x00\n    /* \"#utility.yul\":2631:2649   */\n  0xffffffffffffffff\n    /* \"#utility.yul\":2623:2629   */\n  dup3\n    /* \"#utility.yul\":2620:2650   */\n  gt\n    /* \"#utility.yul\":2617:2619   */\n  iszero\n  tag_65\n  jumpi\n    /* \"#utility.yul\":2653:2671   */\n  tag_66\n  tag_67\n  jump\t// in\ntag_66:\n    /* \"#utility.yul\":2617:2619   */\ntag_65:\n    /* \"#utility.yul\":2691:2720   */\n  tag_68\n    /* \"#utility.yul\":2713:2719   */\n  dup3\n    /* \"#utility.yul\":2691:2720   */\n  tag_69\n  jump\t// in\ntag_68:\n    /* \"#utility.yul\":2683:2720   */\n  swap1\n  pop\n    /* \"#utility.yul\":2775:2779   */\n  0x20\n    /* \"#utility.yul\":2769:2773   */\n  dup2\n    /* \"#utility.yul\":2765:2780   */\n  add\n    /* \"#utility.yul\":2757:2780   */\n  swap1\n  pop\n    /* \"#utility.yul\":2546:2787   */\n  swap2\n  swap1\n  pop\n  jump\t// out\n    /* \"#utility.yul\":2793:2889   */\ntag_70:\n    /* \"#utility.yul\":2830:2837   */\n  0x00\n    /* \"#utility.yul\":2859:2883   */\n  tag_72\n    /* \"#utility.yul\":2877:2882   */\n  dup3\n    /* \"#utility.yul\":2859:2883   */\n  tag_73\n  jump\t// in\ntag_72:\n    /* \"#utility.yul\":2848:2883   */\n  swap1\n  pop\n    /* \"#utility.yul\":2838:2889   */\n  swap2\n  swap1\n  pop\n  jump\t// out\n    /* \"#utility.yul\":2895:3021   */\ntag_73:\n    /* \"#utility.yul\":2932:2939   */\n  0x00\n    /* \"#utility.yul\":2972:3014   */\n  0xffffffffffffffffffffffffffffffffffffffff\n    /* \"#utility.yul\":2965:2970   */\n  dup3\n    /* \"#utility.yul\":2961:3015   */\n  and\n    /* \"#utility.yul\":2950:3015   */\n  swap1\n  pop\n    /* \"#utility.yul\":2940:3021   */\n  swap2\n  swap1\n  pop\n  jump\t// out\n    /* \"#utility.yul\":3027:3104   */\ntag_75:\n    /* \"#utility.yul\":3064:3071   */\n  0x00\n    /* \"#utility.yul\":3093:3098   */\n  dup2\n    /* \"#utility.yul\":3082:3098   */\n  swap1\n  pop\n    /* \"#utility.yul\":3072:3104   */\n  swap2\n  swap1\n  pop\n  jump\t// out\n    /* \"#utility.yul\":3110:3417   */\ntag_31:\n    /* \"#utility.yul\":3178:3179   */\n  0x00\n    /* \"#utility.yul\":3188:3301   */\ntag_78:\n    /* \"#utility.yul\":3202:3208   */\n  dup4\n    /* \"#utility.yul\":3199:3200   */\n  dup2\n    /* \"#utility.yul\":3196:3209   */\n  lt\n    /* \"#utility.yul\":3188:3301   */\n  iszero\n  tag_80\n  jumpi\n    /* \"#utility.yul\":3287:3288   */\n  dup1\n    /* \"#utility.yul\":3282:3285   */\n  dup3\n    /* \"#utility.yul\":3278:3289   */\n  add\n    /* \"#utility.yul\":3272:3290   */\n  mload\n    /* \"#utility.yul\":3268:3269   */\n  dup2\n    /* \"#utility.yul\":3263:3266   */\n  dup5\n    /* \"#utility.yul\":3259:3270   */\n  add\n    /* \"#utility.yul\":3252:3291   */\n  mstore\n    /* \"#utility.yul\":3224:3226   */\n  0x20\n    /* \"#utility.yul\":3221:3222   */\n  dup2\n    /* \"#utility.yul\":3217:3227   */\n  add\n    /* \"#utility.yul\":3212:3227   */\n  swap1\n  pop\n    /* \"#utility.yul\":3188:3301   */\n  jump(tag_78)\ntag_80:\n    /* \"#utility.yul\":3319:3325   */\n  dup4\n    /* \"#utility.yul\":3316:3317   */\n  dup2\n    /* \"#utility.yul\":3313:3326   */\n  gt\n    /* \"#utility.yul\":3310:3312   */\n  iszero\n  tag_81\n  jumpi\n    /* \"#utility.yul\":3399:3400   */\n  0x00\n    /* \"#utility.yul\":3390:3396   */\n  dup5\n    /* \"#utility.yul\":3385:3388   */\n  dup5\n    /* \"#utility.yul\":3381:3397   */\n  add\n    /* \"#utility.yul\":3374:3401   */\n  mstore\n    /* \"#utility.yul\":3310:3312   */\ntag_81:\n    /* \"#utility.yul\":3159:3417   */\n  pop\n  pop\n  pop\n  pop\n  jump\t// out\n    /* \"#utility.yul\":3423:3743   */\ntag_10:\n    /* \"#utility.yul\":3467:3473   */\n  0x00\n    /* \"#utility.yul\":3504:3505   */\n  0x02\n    /* \"#utility.yul\":3498:3502   */\n  dup3\n    /* \"#utility.yul\":3494:3506   */\n  div\n    /* \"#utility.yul\":3484:3506   */\n  swap1\n  pop\n    /* \"#utility.yul\":3551:3552   */\n  0x01\n    /* \"#utility.yul\":3545:3549   */\n  dup3\n    /* \"#utility.yul\":3541:3553   */\n  and\n    /* \"#utility.yul\":3572:3590   */\n  dup1\n    /* \"#utility.yul\":3562:3564   */\n  tag_83\n  jumpi\n    /* \"#utility.yul\":3628:3632   */\n  0x7f\n    /* \"#utility.yul\":3620:3626   */\n  dup3\n    /* \"#utility.yul\":3616:3633   */\n  and\n    /* \"#utility.yul\":3606:3633   */\n  swap2\n  pop\n    /* \"#utility.yul\":3562:3564   */\ntag_83:\n    /* \"#utility.yul\":3690:3692   */\n  0x20\n    /* \"#utility.yul\":3682:3688   */\n  dup3\n    /* \"#utility.yul\":3679:3693   */\n  lt\n    /* \"#utility.yul\":3659:3677   */\n  dup2\n    /* \"#utility.yul\":3656:3694   */\n  eq\n    /* \"#utility.yul\":3653:3655   */\n  iszero\n  tag_84\n  jumpi\n    /* \"#utility.yul\":3709:3727   */\n  tag_85\n  tag_86\n  jump\t// in\ntag_85:\n    /* \"#utility.yul\":3653:3655   */\ntag_84:\n    /* \"#utility.yul\":3474:3743   */\n  pop\n  swap2\n  swap1\n  pop\n  jump\t// out\n    /* \"#utility.yul\":3749:4030   */\ntag_62:\n    /* \"#utility.yul\":3832:3859   */\n  tag_88\n    /* \"#utility.yul\":3854:3858   */\n  dup3\n    /* \"#utility.yul\":3832:3859   */\n  tag_69\n  jump\t// in\ntag_88:\n    /* \"#utility.yul\":3824:3830   */\n  dup2\n    /* \"#utility.yul\":3820:3860   */\n  add\n    /* \"#utility.yul\":3962:3968   */\n  dup2\n    /* \"#utility.yul\":3950:3960   */\n  dup2\n    /* \"#utility.yul\":3947:3969   */\n  lt\n    /* \"#utility.yul\":3926:3944   */\n  0xffffffffffffffff\n    /* \"#utility.yul\":3914:3924   */\n  dup3\n    /* \"#utility.yul\":3911:3945   */\n  gt\n    /* \"#utility.yul\":3908:3970   */\n  or\n    /* \"#utility.yul\":3905:3907   */\n  iszero\n  tag_89\n  jumpi\n    /* \"#utility.yul\":3973:3991   */\n  tag_90\n  tag_67\n  jump\t// in\ntag_90:\n    /* \"#utility.yul\":3905:3907   */\ntag_89:\n    /* \"#utility.yul\":4013:4023   */\n  dup1\n    /* \"#utility.yul\":4009:4011   */\n  0x40\n    /* \"#utility.yul\":4002:4024   */\n  mstore\n    /* \"#utility.yul\":3792:4030   */\n  pop\n  pop\n  pop\n  jump\t// out\n    /* \"#utility.yul\":4036:4216   */\ntag_86:\n    /* \"#utility.yul\":4084:4161   */\n  0x4e487b7100000000000000000000000000000000000000000000000000000000\n    /* \"#utility.yul\":4081:4082   */\n  0x00\n    /* \"#utility.yul\":4074:4162   */\n  mstore\n    /* \"#utility.yul\":4181:4185   */\n  0x22\n    /* \"#utility.yul\":4178:4179   */\n  0x04\n    /* \"#utility.yul\":4171:4186   */\n  mstore\n    /* \"#utility.yul\":4205:4209   */\n  0x24\n    /* \"#utility.yul\":4202:4203   */\n  0x00\n    /* \"#utility.yul\":4195:4210   */\n  revert\n    /* \"#utility.yul\":4222:4402   */\ntag_67:\n    /* \"#utility.yul\":4270:4347   */\n  0x4e487b7100000000000000000000000000000000000000000000000000000000\n    /* \"#utility.yul\":4267:4268   */\n  0x00\n    /* \"#utility.yul\":4260:4348   */\n  mstore\n    /* \"#utility.yul\":4367:4371   */\n  0x41\n    /* \"#utility.yul\":4364:4365   */\n  0x04\n    /* \"#utility.yul\":4357:4372   */\n  mstore\n    /* \"#utility.yul\":4391:4395   */\n  0x24\n    /* \"#utility.yul\":4388:4389   */\n  0x00\n    /* \"#utility.yul\":4381:4396   */\n  revert\n    /* \"#utility.yul\":4408:4525   */\ntag_40:\n    /* \"#utility.yul\":4517:4518   */\n  0x00\n    /* \"#utility.yul\":4514:4515   */\n  dup1\n    /* \"#utility.yul\":4507:4519   */\n  revert\n    /* \"#utility.yul\":4531:4648   */\ntag_29:\n    /* \"#utility.yul\":4640:4641   */\n  0x00\n    /* \"#utility.yul\":4637:4638   */\n  dup1\n    /* \"#utility.yul\":4630:4642   */\n  revert\n    /* \"#utility.yul\":4654:4771   */\ntag_52:\n    /* \"#utility.yul\":4763:4764   */\n  0x00\n    /* \"#utility.yul\":4760:4761   */\n  dup1\n    /* \"#utility.yul\":4753:4765   */\n  revert\n    /* \"#utility.yul\":4777:4894   */\ntag_49:\n    /* \"#utility.yul\":4886:4887   */\n  0x00\n    /* \"#utility.yul\":4883:4884   */\n  dup1\n    /* \"#utility.yul\":4876:4888   */\n  revert\n    /* \"#utility.yul\":4900:5002   */\ntag_69:\n    /* \"#utility.yul\":4941:4947   */\n  0x00\n    /* \"#utility.yul\":4992:4994   */\n  0x1f\n    /* \"#utility.yul\":4988:4995   */\n  not\n    /* \"#utility.yul\":4983:4985   */\n  0x1f\n    /* \"#utility.yul\":4976:4981   */\n  dup4\n    /* \"#utility.yul\":4972:4986   */\n  add\n    /* \"#utility.yul\":4968:4996   */\n  and\n    /* \"#utility.yul\":4958:4996   */\n  swap1\n  pop\n    /* \"#utility.yul\":4948:5002   */\n  swap2\n  swap1\n  pop\n  jump\t// out\n    /* \"#utility.yul\":5008:5130   */\ntag_35:\n    /* \"#utility.yul\":5081:5105   */\n  tag_99\n    /* \"#utility.yul\":5099:5104   */\n  dup2\n    /* \"#utility.yul\":5081:5105   */\n  tag_70\n  jump\t// in\ntag_99:\n    /* \"#utility.yul\":5074:5079   */\n  dup2\n    /* \"#utility.yul\":5071:5106   */\n  eq\n    /* \"#utility.yul\":5061:5063   */\n  tag_100\n  jumpi\n    /* \"#utility.yul\":5120:5121   */\n  0x00\n    /* \"#utility.yul\":5117:5118   */\n  dup1\n    /* \"#utility.yul\":5110:5122   */\n  revert\n    /* \"#utility.yul\":5061:5063   */\ntag_100:\n    /* \"#utility.yul\":5051:5130   */\n  pop\n  jump\t// out\n    /* \"#utility.yul\":5136:5258   */\ntag_45:\n    /* \"#utility.yul\":5209:5233   */\n  tag_102\n    /* \"#utility.yul\":5227:5232   */\n  dup2\n    /* \"#utility.yul\":5209:5233   */\n  tag_75\n  jump\t// in\ntag_102:\n    /* \"#utility.yul\":5202:5207   */\n  dup2\n    /* \"#utility.yul\":5199:5234   */\n  eq\n    /* \"#utility.yul\":5189:5191   */\n  tag_103\n  jumpi\n    /* \"#utility.yul\":5248:5249   */\n  0x00\n    /* \"#utility.yul\":5245:5246   */\n  dup1\n    /* \"#utility.yul\":5238:5250   */\n  revert\n    /* \"#utility.yul\":5189:5191   */\ntag_103:\n    /* \"#utility.yul\":5179:5258   */\n  pop\n  jump\t// out\n    /* \"Project.sol\":88:2617  contract Project {\r... */\ntag_8:\n  dataSize(sub_0)\n  dup1\n  dataOffset(sub_0)\n  0x00\n  codecopy\n  0x00\n  return\nstop\n\nsub_0: assembly {\n        /* \"Project.sol\":88:2617  contract Project {\r... */\n      mstore(0x40, 0x80)\n      jumpi(tag_1, lt(calldatasize, 0x04))\n      shr(0xe0, calldataload(0x00))\n      dup1\n      0x87d81789\n      gt\n      tag_14\n      jumpi\n      dup1\n      0x87d81789\n      eq\n      tag_8\n      jumpi\n      dup1\n      0x8da5cb5b\n      eq\n      tag_9\n      jumpi\n      dup1\n      0xd2b8b867\n      eq\n      tag_10\n      jumpi\n      dup1\n      0xd7bb99ba\n      eq\n      tag_11\n      jumpi\n      dup1\n      0xd7e64c00\n      eq\n      tag_12\n      jumpi\n      dup1\n      0xde14c818\n      eq\n      tag_13\n      jumpi\n      jump(tag_1)\n    tag_14:\n      dup1\n      0x03120d46\n      eq\n      tag_2\n      jumpi\n      dup1\n      0x3110235a\n      eq\n      tag_3\n      jumpi\n      dup1\n      0x40193883\n      eq\n      tag_4\n      jumpi\n      dup1\n      0x63fd9e38\n      eq\n      tag_5\n      jumpi\n      dup1\n      0x6f7bc9be\n      eq\n      tag_6\n      jumpi\n      dup1\n      0x7284e416\n      eq\n      tag_7\n      jumpi\n    tag_1:\n      0x00\n      dup1\n      revert\n        /* \"Project.sol\":1393:1891  function createPayment(\r... */\n    tag_2:\n      callvalue\n      dup1\n      iszero\n      tag_15\n      jumpi\n      0x00\n      dup1\n      revert\n    tag_15:\n      pop\n      tag_16\n      0x04\n      dup1\n      calldatasize\n      sub\n      dup2\n      add\n      swap1\n      tag_17\n      swap2\n      swap1\n      tag_18\n      jump\t// in\n    tag_17:\n      tag_19\n      jump\t// in\n    tag_16:\n      stop\n        /* \"Project.sol\":453:477  uint256 public maxInvest */\n    tag_3:\n      callvalue\n      dup1\n      iszero\n      tag_20\n      jumpi\n      0x00\n      dup1\n      revert\n    tag_20:\n      pop\n      tag_21\n      tag_22\n      jump\t// in\n    tag_21:\n      mload(0x40)\n      tag_23\n      swap2\n      swap1\n      tag_24\n      jump\t// in\n    tag_23:\n      mload(0x40)\n      dup1\n      swap2\n      sub\n      swap1\n      return\n        /* \"Project.sol\":484:503  uint256 public goal */\n    tag_4:\n      callvalue\n      dup1\n      iszero\n      tag_25\n      jumpi\n      0x00\n      dup1\n      revert\n    tag_25:\n      pop\n      tag_26\n      tag_27\n      jump\t// in\n    tag_26:\n      mload(0x40)\n      tag_28\n      swap2\n      swap1\n      tag_24\n      jump\t// in\n    tag_28:\n      mload(0x40)\n      dup1\n      swap2\n      sub\n      swap1\n      return\n        /* \"Project.sol\":422:446  uint256 public minInvest */\n    tag_5:\n      callvalue\n      dup1\n      iszero\n      tag_29\n      jumpi\n      0x00\n      dup1\n      revert\n    tag_29:\n      pop\n      tag_30\n      tag_31\n      jump\t// in\n    tag_30:\n      mload(0x40)\n      tag_32\n      swap2\n      swap1\n      tag_24\n      jump\t// in\n    tag_32:\n      mload(0x40)\n      dup1\n      swap2\n      sub\n      swap1\n      return\n        /* \"Project.sol\":545:589  mapping(address => uint256) public investors */\n    tag_6:\n      callvalue\n      dup1\n      iszero\n      tag_33\n      jumpi\n      0x00\n      dup1\n      revert\n    tag_33:\n      pop\n      tag_34\n      0x04\n      dup1\n      calldatasize\n      sub\n      dup2\n      add\n      swap1\n      tag_35\n      swap2\n      swap1\n      tag_36\n      jump\t// in\n    tag_35:\n      tag_37\n      jump\t// in\n    tag_34:\n      mload(0x40)\n      tag_38\n      swap2\n      swap1\n      tag_24\n      jump\t// in\n    tag_38:\n      mload(0x40)\n      dup1\n      swap2\n      sub\n      swap1\n      return\n        /* \"Project.sol\":390:415  string public description */\n    tag_7:\n      callvalue\n      dup1\n      iszero\n      tag_39\n      jumpi\n      0x00\n      dup1\n      revert\n    tag_39:\n      pop\n      tag_40\n      tag_41\n      jump\t// in\n    tag_40:\n      mload(0x40)\n      tag_42\n      swap2\n      swap1\n      tag_43\n      jump\t// in\n    tag_42:\n      mload(0x40)\n      dup1\n      swap2\n      sub\n      swap1\n      return\n        /* \"Project.sol\":596:621  Payment[] public payments */\n    tag_8:\n      callvalue\n      dup1\n      iszero\n      tag_44\n      jumpi\n      0x00\n      dup1\n      revert\n    tag_44:\n      pop\n      tag_45\n      0x04\n      dup1\n      calldatasize\n      sub\n      dup2\n      add\n      swap1\n      tag_46\n      swap2\n      swap1\n      tag_47\n      jump\t// in\n    tag_46:\n      tag_48\n      jump\t// in\n    tag_45:\n      mload(0x40)\n      tag_49\n      swap6\n      swap5\n      swap4\n      swap3\n      swap2\n      swap1\n      tag_50\n      jump\t// in\n    tag_49:\n      mload(0x40)\n      dup1\n      swap2\n      sub\n      swap1\n      return\n        /* \"Project.sol\":363:383  address public owner */\n    tag_9:\n      callvalue\n      dup1\n      iszero\n      tag_51\n      jumpi\n      0x00\n      dup1\n      revert\n    tag_51:\n      pop\n      tag_52\n      tag_53\n      jump\t// in\n    tag_52:\n      mload(0x40)\n      tag_54\n      swap2\n      swap1\n      tag_55\n      jump\t// in\n    tag_54:\n      mload(0x40)\n      dup1\n      swap2\n      sub\n      swap1\n      return\n        /* \"Project.sol\":2255:2614  function doPayment(uint256 index) public ownerOnly {\r... */\n    tag_10:\n      callvalue\n      dup1\n      iszero\n      tag_56\n      jumpi\n      0x00\n      dup1\n      revert\n    tag_56:\n      pop\n      tag_57\n      0x04\n      dup1\n      calldatasize\n      sub\n      dup2\n      add\n      swap1\n      tag_58\n      swap2\n      swap1\n      tag_47\n      jump\t// in\n    tag_58:\n      tag_59\n      jump\t// in\n    tag_57:\n      stop\n        /* \"Project.sol\":1048:1385  function contribute() public payable {\r... */\n    tag_11:\n      tag_60\n      tag_61\n      jump\t// in\n    tag_60:\n      stop\n        /* \"Project.sol\":510:538  uint256 public investorCount */\n    tag_12:\n      callvalue\n      dup1\n      iszero\n      tag_62\n      jumpi\n      0x00\n      dup1\n      revert\n    tag_62:\n      pop\n      tag_63\n      tag_64\n      jump\t// in\n    tag_63:\n      mload(0x40)\n      tag_65\n      swap2\n      swap1\n      tag_24\n      jump\t// in\n    tag_65:\n      mload(0x40)\n      dup1\n      swap2\n      sub\n      swap1\n      return\n        /* \"Project.sol\":1899:2247  function approvePayment(uint256 index) public {\r... */\n    tag_13:\n      callvalue\n      dup1\n      iszero\n      tag_66\n      jumpi\n      0x00\n      dup1\n      revert\n    tag_66:\n      pop\n      tag_67\n      0x04\n      dup1\n      calldatasize\n      sub\n      dup2\n      add\n      swap1\n      tag_68\n      swap2\n      swap1\n      tag_47\n      jump\t// in\n    tag_68:\n      tag_69\n      jump\t// in\n    tag_67:\n      stop\n        /* \"Project.sol\":1393:1891  function createPayment(\r... */\n    tag_19:\n        /* \"Project.sol\":684:689  owner */\n      0x00\n      dup1\n      sload\n      swap1\n      0x0100\n      exp\n      swap1\n      div\n      0xffffffffffffffffffffffffffffffffffffffff\n      and\n        /* \"Project.sol\":670:689  msg.sender == owner */\n      0xffffffffffffffffffffffffffffffffffffffff\n      and\n        /* \"Project.sol\":670:680  msg.sender */\n      caller\n        /* \"Project.sol\":670:689  msg.sender == owner */\n      0xffffffffffffffffffffffffffffffffffffffff\n      and\n      eq\n        /* \"Project.sol\":662:690  require(msg.sender == owner) */\n      tag_71\n      jumpi\n      0x00\n      dup1\n      revert\n    tag_71:\n        /* \"Project.sol\":1550:1571  uint256 paymentsCount */\n      0x00\n        /* \"Project.sol\":1574:1582  payments */\n      0x07\n        /* \"Project.sol\":1574:1589  payments.length */\n      dup1\n      sload\n      swap1\n      pop\n        /* \"Project.sol\":1550:1589  uint256 paymentsCount = payments.length */\n      swap1\n      pop\n        /* \"Project.sol\":1600:1608  payments */\n      0x07\n        /* \"Project.sol\":1600:1615  payments.push() */\n      0x01\n      dup2\n      0x01\n      dup2\n      sload\n      add\n      dup1\n      dup3\n      sstore\n      dup1\n      swap2\n      pop\n      pop\n      sub\n      swap1\n      0x00\n      mstore\n      keccak256(0x00, 0x20)\n      swap1\n      pop\n      pop\n        /* \"Project.sol\":1628:1654  Payment storage newPayment */\n      0x00\n        /* \"Project.sol\":1657:1665  payments */\n      0x07\n        /* \"Project.sol\":1666:1679  paymentsCount */\n      dup3\n        /* \"Project.sol\":1657:1680  payments[paymentsCount] */\n      dup2\n      sload\n      dup2\n      lt\n      tag_74\n      jumpi\n      tag_75\n      tag_76\n      jump\t// in\n    tag_75:\n    tag_74:\n      swap1\n      0x00\n      mstore\n      keccak256(0x00, 0x20)\n      swap1\n      0x05\n      mul\n      add\n        /* \"Project.sol\":1628:1680  Payment storage newPayment = payments[paymentsCount] */\n      swap1\n      pop\n        /* \"Project.sol\":1716:1728  _description */\n      dup5\n        /* \"Project.sol\":1691:1701  newPayment */\n      dup2\n        /* \"Project.sol\":1691:1713  newPayment.description */\n      0x00\n      add\n        /* \"Project.sol\":1691:1728  newPayment.description = _description */\n      swap1\n      dup1\n      mload\n      swap1\n      0x20\n      add\n      swap1\n      tag_78\n      swap3\n      swap2\n      swap1\n      tag_79\n      jump\t// in\n    tag_78:\n      pop\n        /* \"Project.sol\":1759:1766  _amount */\n      dup4\n        /* \"Project.sol\":1739:1749  newPayment */\n      dup2\n        /* \"Project.sol\":1739:1756  newPayment.amount */\n      0x01\n      add\n        /* \"Project.sol\":1739:1766  newPayment.amount = _amount */\n      dup2\n      swap1\n      sstore\n      pop\n        /* \"Project.sol\":1799:1808  _receiver */\n      dup3\n        /* \"Project.sol\":1777:1787  newPayment */\n      dup2\n        /* \"Project.sol\":1777:1796  newPayment.receiver */\n      0x02\n      add\n      0x00\n        /* \"Project.sol\":1777:1808  newPayment.receiver = _receiver */\n      0x0100\n      exp\n      dup2\n      sload\n      dup2\n      0xffffffffffffffffffffffffffffffffffffffff\n      mul\n      not\n      and\n      swap1\n      dup4\n      0xffffffffffffffffffffffffffffffffffffffff\n      and\n      mul\n      or\n      swap1\n      sstore\n      pop\n        /* \"Project.sol\":1842:1847  false */\n      0x00\n        /* \"Project.sol\":1819:1829  newPayment */\n      dup2\n        /* \"Project.sol\":1819:1839  newPayment.completed */\n      0x02\n      add\n      0x14\n        /* \"Project.sol\":1819:1847  newPayment.completed = false */\n      0x0100\n      exp\n      dup2\n      sload\n      dup2\n      0xff\n      mul\n      not\n      and\n      swap1\n      dup4\n      iszero\n      iszero\n      mul\n      or\n      swap1\n      sstore\n      pop\n        /* \"Project.sol\":1882:1883  0 */\n      0x00\n        /* \"Project.sol\":1858:1868  newPayment */\n      dup2\n        /* \"Project.sol\":1858:1879  newPayment.voterCount */\n      0x04\n      add\n        /* \"Project.sol\":1858:1883  newPayment.voterCount = 0 */\n      dup2\n      swap1\n      sstore\n      pop\n        /* \"Project.sol\":1539:1891  {\r... */\n      pop\n      pop\n        /* \"Project.sol\":1393:1891  function createPayment(\r... */\n      pop\n      pop\n      pop\n      jump\t// out\n        /* \"Project.sol\":453:477  uint256 public maxInvest */\n    tag_22:\n      sload(0x03)\n      dup2\n      jump\t// out\n        /* \"Project.sol\":484:503  uint256 public goal */\n    tag_27:\n      sload(0x04)\n      dup2\n      jump\t// out\n        /* \"Project.sol\":422:446  uint256 public minInvest */\n    tag_31:\n      sload(0x02)\n      dup2\n      jump\t// out\n        /* \"Project.sol\":545:589  mapping(address => uint256) public investors */\n    tag_37:\n      mstore(0x20, 0x06)\n      dup1\n      0x00\n      mstore\n      keccak256(0x00, 0x40)\n      0x00\n      swap2\n      pop\n      swap1\n      pop\n      sload\n      dup2\n      jump\t// out\n        /* \"Project.sol\":390:415  string public description */\n    tag_41:\n      0x01\n      dup1\n      sload\n      tag_80\n      swap1\n      tag_81\n      jump\t// in\n    tag_80:\n      dup1\n      0x1f\n      add\n      0x20\n      dup1\n      swap2\n      div\n      mul\n      0x20\n      add\n      mload(0x40)\n      swap1\n      dup2\n      add\n      0x40\n      mstore\n      dup1\n      swap3\n      swap2\n      swap1\n      dup2\n      dup2\n      mstore\n      0x20\n      add\n      dup3\n      dup1\n      sload\n      tag_82\n      swap1\n      tag_81\n      jump\t// in\n    tag_82:\n      dup1\n      iszero\n      tag_83\n      jumpi\n      dup1\n      0x1f\n      lt\n      tag_84\n      jumpi\n      0x0100\n      dup1\n      dup4\n      sload\n      div\n      mul\n      dup4\n      mstore\n      swap2\n      0x20\n      add\n      swap2\n      jump(tag_83)\n    tag_84:\n      dup3\n      add\n      swap2\n      swap1\n      0x00\n      mstore\n      keccak256(0x00, 0x20)\n      swap1\n    tag_85:\n      dup2\n      sload\n      dup2\n      mstore\n      swap1\n      0x01\n      add\n      swap1\n      0x20\n      add\n      dup1\n      dup4\n      gt\n      tag_85\n      jumpi\n      dup3\n      swap1\n      sub\n      0x1f\n      and\n      dup3\n      add\n      swap2\n    tag_83:\n      pop\n      pop\n      pop\n      pop\n      pop\n      dup2\n      jump\t// out\n        /* \"Project.sol\":596:621  Payment[] public payments */\n    tag_48:\n      0x07\n      dup2\n      dup2\n      sload\n      dup2\n      lt\n      tag_86\n      jumpi\n      0x00\n      dup1\n      revert\n    tag_86:\n      swap1\n      0x00\n      mstore\n      keccak256(0x00, 0x20)\n      swap1\n      0x05\n      mul\n      add\n      0x00\n      swap2\n      pop\n      swap1\n      pop\n      dup1\n      0x00\n      add\n      dup1\n      sload\n      tag_88\n      swap1\n      tag_81\n      jump\t// in\n    tag_88:\n      dup1\n      0x1f\n      add\n      0x20\n      dup1\n      swap2\n      div\n      mul\n      0x20\n      add\n      mload(0x40)\n      swap1\n      dup2\n      add\n      0x40\n      mstore\n      dup1\n      swap3\n      swap2\n      swap1\n      dup2\n      dup2\n      mstore\n      0x20\n      add\n      dup3\n      dup1\n      sload\n      tag_89\n      swap1\n      tag_81\n      jump\t// in\n    tag_89:\n      dup1\n      iszero\n      tag_90\n      jumpi\n      dup1\n      0x1f\n      lt\n      tag_91\n      jumpi\n      0x0100\n      dup1\n      dup4\n      sload\n      div\n      mul\n      dup4\n      mstore\n      swap2\n      0x20\n      add\n      swap2\n      jump(tag_90)\n    tag_91:\n      dup3\n      add\n      swap2\n      swap1\n      0x00\n      mstore\n      keccak256(0x00, 0x20)\n      swap1\n    tag_92:\n      dup2\n      sload\n      dup2\n      mstore\n      swap1\n      0x01\n      add\n      swap1\n      0x20\n      add\n      dup1\n      dup4\n      gt\n      tag_92\n      jumpi\n      dup3\n      swap1\n      sub\n      0x1f\n      and\n      dup3\n      add\n      swap2\n    tag_90:\n      pop\n      pop\n      pop\n      pop\n      pop\n      swap1\n      dup1\n      0x01\n      add\n      sload\n      swap1\n      dup1\n      0x02\n      add\n      0x00\n      swap1\n      sload\n      swap1\n      0x0100\n      exp\n      swap1\n      div\n      0xffffffffffffffffffffffffffffffffffffffff\n      and\n      swap1\n      dup1\n      0x02\n      add\n      0x14\n      swap1\n      sload\n      swap1\n      0x0100\n      exp\n      swap1\n      div\n      0xff\n      and\n      swap1\n      dup1\n      0x04\n      add\n      sload\n      swap1\n      pop\n      dup6\n      jump\t// out\n        /* \"Project.sol\":363:383  address public owner */\n    tag_53:\n      0x00\n      dup1\n      sload\n      swap1\n      0x0100\n      exp\n      swap1\n      div\n      0xffffffffffffffffffffffffffffffffffffffff\n      and\n      dup2\n      jump\t// out\n        /* \"Project.sol\":2255:2614  function doPayment(uint256 index) public ownerOnly {\r... */\n    tag_59:\n        /* \"Project.sol\":684:689  owner */\n      0x00\n      dup1\n      sload\n      swap1\n      0x0100\n      exp\n      swap1\n      div\n      0xffffffffffffffffffffffffffffffffffffffff\n      and\n        /* \"Project.sol\":670:689  msg.sender == owner */\n      0xffffffffffffffffffffffffffffffffffffffff\n      and\n        /* \"Project.sol\":670:680  msg.sender */\n      caller\n        /* \"Project.sol\":670:689  msg.sender == owner */\n      0xffffffffffffffffffffffffffffffffffffffff\n      and\n      eq\n        /* \"Project.sol\":662:690  require(msg.sender == owner) */\n      tag_94\n      jumpi\n      0x00\n      dup1\n      revert\n    tag_94:\n        /* \"Project.sol\":2317:2340  Payment storage payment */\n      0x00\n        /* \"Project.sol\":2343:2351  payments */\n      0x07\n        /* \"Project.sol\":2352:2357  index */\n      dup3\n        /* \"Project.sol\":2343:2358  payments[index] */\n      dup2\n      sload\n      dup2\n      lt\n      tag_96\n      jumpi\n      tag_97\n      tag_76\n      jump\t// in\n    tag_97:\n    tag_96:\n      swap1\n      0x00\n      mstore\n      keccak256(0x00, 0x20)\n      swap1\n      0x05\n      mul\n      add\n        /* \"Project.sol\":2317:2358  Payment storage payment = payments[index] */\n      swap1\n      pop\n        /* \"Project.sol\":2380:2387  payment */\n      dup1\n        /* \"Project.sol\":2380:2397  payment.completed */\n      0x02\n      add\n      0x14\n      swap1\n      sload\n      swap1\n      0x0100\n      exp\n      swap1\n      div\n      0xff\n      and\n        /* \"Project.sol\":2379:2397  !payment.completed */\n      iszero\n        /* \"Project.sol\":2371:2398  require(!payment.completed) */\n      tag_99\n      jumpi\n      0x00\n      dup1\n      revert\n    tag_99:\n        /* \"Project.sol\":2442:2449  payment */\n      dup1\n        /* \"Project.sol\":2442:2456  payment.amount */\n      0x01\n      add\n      sload\n        /* \"Project.sol\":2417:2438  address(this).balance */\n      selfbalance\n        /* \"Project.sol\":2417:2456  address(this).balance >= payment.amount */\n      lt\n      iszero\n        /* \"Project.sol\":2409:2457  require(address(this).balance >= payment.amount) */\n      tag_100\n      jumpi\n      0x00\n      dup1\n      revert\n    tag_100:\n        /* \"Project.sol\":2514:2515  2 */\n      0x02\n        /* \"Project.sol\":2498:2511  investorCount */\n      sload(0x05)\n        /* \"Project.sol\":2498:2515  investorCount / 2 */\n      tag_101\n      swap2\n      swap1\n      tag_102\n      jump\t// in\n    tag_101:\n        /* \"Project.sol\":2476:2483  payment */\n      dup2\n        /* \"Project.sol\":2476:2494  payment.voterCount */\n      0x04\n      add\n      sload\n        /* \"Project.sol\":2476:2516  payment.voterCount > (investorCount / 2) */\n      gt\n        /* \"Project.sol\":2468:2517  require(payment.voterCount > (investorCount / 2)) */\n      tag_103\n      jumpi\n      0x00\n      dup1\n      revert\n    tag_103:\n        /* \"Project.sol\":2530:2537  payment */\n      dup1\n        /* \"Project.sol\":2530:2546  payment.receiver */\n      0x02\n      add\n      0x00\n      swap1\n      sload\n      swap1\n      0x0100\n      exp\n      swap1\n      div\n      0xffffffffffffffffffffffffffffffffffffffff\n      and\n        /* \"Project.sol\":2530:2555  payment.receiver.transfer */\n      0xffffffffffffffffffffffffffffffffffffffff\n      and\n        /* \"Project.sol\":2530:2571  payment.receiver.transfer(payment.amount) */\n      0x08fc\n        /* \"Project.sol\":2556:2563  payment */\n      dup3\n        /* \"Project.sol\":2556:2570  payment.amount */\n      0x01\n      add\n      sload\n        /* \"Project.sol\":2530:2571  payment.receiver.transfer(payment.amount) */\n      swap1\n      dup2\n      iszero\n      mul\n      swap1\n      mload(0x40)\n      0x00\n      mload(0x40)\n      dup1\n      dup4\n      sub\n      dup2\n      dup6\n      dup9\n      dup9\n      call\n      swap4\n      pop\n      pop\n      pop\n      pop\n      iszero\n      dup1\n      iszero\n      tag_105\n      jumpi\n      returndatasize\n      0x00\n      dup1\n      returndatacopy\n      revert(0x00, returndatasize)\n    tag_105:\n      pop\n        /* \"Project.sol\":2602:2606  true */\n      0x01\n        /* \"Project.sol\":2582:2589  payment */\n      dup2\n        /* \"Project.sol\":2582:2599  payment.completed */\n      0x02\n      add\n      0x14\n        /* \"Project.sol\":2582:2606  payment.completed = true */\n      0x0100\n      exp\n      dup2\n      sload\n      dup2\n      0xff\n      mul\n      not\n      and\n      swap1\n      dup4\n      iszero\n      iszero\n      mul\n      or\n      swap1\n      sstore\n      pop\n        /* \"Project.sol\":2306:2614  {\r... */\n      pop\n        /* \"Project.sol\":2255:2614  function doPayment(uint256 index) public ownerOnly {\r... */\n      pop\n      jump\t// out\n        /* \"Project.sol\":1048:1385  function contribute() public payable {\r... */\n    tag_61:\n        /* \"Project.sol\":1117:1126  minInvest */\n      sload(0x02)\n        /* \"Project.sol\":1104:1113  msg.value */\n      callvalue\n        /* \"Project.sol\":1104:1126  msg.value >= minInvest */\n      lt\n      iszero\n        /* \"Project.sol\":1096:1127  require(msg.value >= minInvest) */\n      tag_107\n      jumpi\n      0x00\n      dup1\n      revert\n    tag_107:\n        /* \"Project.sol\":1159:1168  maxInvest */\n      sload(0x03)\n        /* \"Project.sol\":1146:1155  msg.value */\n      callvalue\n        /* \"Project.sol\":1146:1168  msg.value <= maxInvest */\n      gt\n      iszero\n        /* \"Project.sol\":1138:1169  require(msg.value <= maxInvest) */\n      tag_108\n      jumpi\n      0x00\n      dup1\n      revert\n    tag_108:\n        /* \"Project.sol\":1182:1200  uint256 newBalance */\n      0x00\n        /* \"Project.sol\":1228:1264  address(this).balance.add(msg.value) */\n      tag_109\n        /* \"Project.sol\":1254:1263  msg.value */\n      callvalue\n        /* \"Project.sol\":1228:1249  address(this).balance */\n      selfbalance\n        /* \"Project.sol\":1228:1253  address(this).balance.add */\n      tag_110\n      swap1\n        /* \"Project.sol\":1228:1264  address(this).balance.add(msg.value) */\n      swap2\n      swap1\n      0xffffffff\n      and\n      jump\t// in\n    tag_109:\n        /* \"Project.sol\":1215:1264  newBalance = address(this).balance.add(msg.value) */\n      swap1\n      pop\n        /* \"Project.sol\":1297:1301  goal */\n      sload(0x04)\n        /* \"Project.sol\":1283:1293  newBalance */\n      dup2\n        /* \"Project.sol\":1283:1301  newBalance <= goal */\n      gt\n      iszero\n        /* \"Project.sol\":1275:1302  require(newBalance <= goal) */\n      tag_111\n      jumpi\n      0x00\n      dup1\n      revert\n    tag_111:\n        /* \"Project.sol\":1339:1348  msg.value */\n      callvalue\n        /* \"Project.sol\":1315:1324  investors */\n      0x06\n        /* \"Project.sol\":1315:1336  investors[msg.sender] */\n      0x00\n        /* \"Project.sol\":1325:1335  msg.sender */\n      caller\n        /* \"Project.sol\":1315:1336  investors[msg.sender] */\n      0xffffffffffffffffffffffffffffffffffffffff\n      and\n      0xffffffffffffffffffffffffffffffffffffffff\n      and\n      dup2\n      mstore\n      0x20\n      add\n      swap1\n      dup2\n      mstore\n      0x20\n      add\n      0x00\n      keccak256\n        /* \"Project.sol\":1315:1348  investors[msg.sender] = msg.value */\n      dup2\n      swap1\n      sstore\n      pop\n        /* \"Project.sol\":1376:1377  1 */\n      0x01\n        /* \"Project.sol\":1359:1372  investorCount */\n      0x05\n      0x00\n        /* \"Project.sol\":1359:1377  investorCount += 1 */\n      dup3\n      dup3\n      sload\n      tag_112\n      swap2\n      swap1\n      tag_113\n      jump\t// in\n    tag_112:\n      swap3\n      pop\n      pop\n      dup2\n      swap1\n      sstore\n      pop\n        /* \"Project.sol\":1085:1385  {\r... */\n      pop\n        /* \"Project.sol\":1048:1385  function contribute() public payable {\r... */\n      jump\t// out\n        /* \"Project.sol\":510:538  uint256 public investorCount */\n    tag_64:\n      sload(0x05)\n      dup2\n      jump\t// out\n        /* \"Project.sol\":1899:2247  function approvePayment(uint256 index) public {\r... */\n    tag_69:\n        /* \"Project.sol\":1956:1979  Payment storage payment */\n      0x00\n        /* \"Project.sol\":1982:1990  payments */\n      0x07\n        /* \"Project.sol\":1991:1996  index */\n      dup3\n        /* \"Project.sol\":1982:1997  payments[index] */\n      dup2\n      sload\n      dup2\n      lt\n      tag_115\n      jumpi\n      tag_116\n      tag_76\n      jump\t// in\n    tag_116:\n    tag_115:\n      swap1\n      0x00\n      mstore\n      keccak256(0x00, 0x20)\n      swap1\n      0x05\n      mul\n      add\n        /* \"Project.sol\":1956:1997  Payment storage payment = payments[index] */\n      swap1\n      pop\n        /* \"Project.sol\":2079:2080  0 */\n      0x00\n        /* \"Project.sol\":2055:2064  investors */\n      0x06\n        /* \"Project.sol\":2055:2076  investors[msg.sender] */\n      0x00\n        /* \"Project.sol\":2065:2075  msg.sender */\n      caller\n        /* \"Project.sol\":2055:2076  investors[msg.sender] */\n      0xffffffffffffffffffffffffffffffffffffffff\n      and\n      0xffffffffffffffffffffffffffffffffffffffff\n      and\n      dup2\n      mstore\n      0x20\n      add\n      swap1\n      dup2\n      mstore\n      0x20\n      add\n      0x00\n      keccak256\n      sload\n        /* \"Project.sol\":2055:2080  investors[msg.sender] > 0 */\n      gt\n        /* \"Project.sol\":2047:2081  require(investors[msg.sender] > 0) */\n      tag_118\n      jumpi\n      0x00\n      dup1\n      revert\n    tag_118:\n        /* \"Project.sol\":2134:2141  payment */\n      dup1\n        /* \"Project.sol\":2134:2148  payment.voters */\n      0x03\n      add\n        /* \"Project.sol\":2134:2160  payment.voters[msg.sender] */\n      0x00\n        /* \"Project.sol\":2149:2159  msg.sender */\n      caller\n        /* \"Project.sol\":2134:2160  payment.voters[msg.sender] */\n      0xffffffffffffffffffffffffffffffffffffffff\n      and\n      0xffffffffffffffffffffffffffffffffffffffff\n      and\n      dup2\n      mstore\n      0x20\n      add\n      swap1\n      dup2\n      mstore\n      0x20\n      add\n      0x00\n      keccak256\n      0x00\n      swap1\n      sload\n      swap1\n      0x0100\n      exp\n      swap1\n      div\n      0xff\n      and\n        /* \"Project.sol\":2133:2160  !payment.voters[msg.sender] */\n      iszero\n        /* \"Project.sol\":2125:2161  require(!payment.voters[msg.sender]) */\n      tag_119\n      jumpi\n      0x00\n      dup1\n      revert\n    tag_119:\n        /* \"Project.sol\":2201:2205  true */\n      0x01\n        /* \"Project.sol\":2172:2179  payment */\n      dup2\n        /* \"Project.sol\":2172:2186  payment.voters */\n      0x03\n      add\n        /* \"Project.sol\":2172:2198  payment.voters[msg.sender] */\n      0x00\n        /* \"Project.sol\":2187:2197  msg.sender */\n      caller\n        /* \"Project.sol\":2172:2198  payment.voters[msg.sender] */\n      0xffffffffffffffffffffffffffffffffffffffff\n      and\n      0xffffffffffffffffffffffffffffffffffffffff\n      and\n      dup2\n      mstore\n      0x20\n      add\n      swap1\n      dup2\n      mstore\n      0x20\n      add\n      0x00\n      keccak256\n      0x00\n        /* \"Project.sol\":2172:2205  payment.voters[msg.sender] = true */\n      0x0100\n      exp\n      dup2\n      sload\n      dup2\n      0xff\n      mul\n      not\n      and\n      swap1\n      dup4\n      iszero\n      iszero\n      mul\n      or\n      swap1\n      sstore\n      pop\n        /* \"Project.sol\":2238:2239  1 */\n      0x01\n        /* \"Project.sol\":2216:2223  payment */\n      dup2\n        /* \"Project.sol\":2216:2234  payment.voterCount */\n      0x04\n      add\n      0x00\n        /* \"Project.sol\":2216:2239  payment.voterCount += 1 */\n      dup3\n      dup3\n      sload\n      tag_120\n      swap2\n      swap1\n      tag_113\n      jump\t// in\n    tag_120:\n      swap3\n      pop\n      pop\n      dup2\n      swap1\n      sstore\n      pop\n        /* \"Project.sol\":1945:2247  {\r... */\n      pop\n        /* \"Project.sol\":1899:2247  function approvePayment(uint256 index) public {\r... */\n      pop\n      jump\t// out\n        /* \"SafeMath.sol\":682:829  function add(uint256 a, uint256 b) internal pure returns (uint256) {\r... */\n    tag_110:\n        /* \"SafeMath.sol\":740:747  uint256 */\n      0x00\n        /* \"SafeMath.sol\":760:769  uint256 c */\n      dup1\n        /* \"SafeMath.sol\":776:777  b */\n      dup3\n        /* \"SafeMath.sol\":772:773  a */\n      dup5\n        /* \"SafeMath.sol\":772:777  a + b */\n      tag_122\n      swap2\n      swap1\n      tag_113\n      jump\t// in\n    tag_122:\n        /* \"SafeMath.sol\":760:777  uint256 c = a + b */\n      swap1\n      pop\n        /* \"SafeMath.sol\":800:801  a */\n      dup4\n        /* \"SafeMath.sol\":795:796  c */\n      dup2\n        /* \"SafeMath.sol\":795:801  c >= a */\n      lt\n      iszero\n        /* \"SafeMath.sol\":788:802  assert(c >= a) */\n      tag_123\n      jumpi\n      tag_124\n      tag_125\n      jump\t// in\n    tag_124:\n    tag_123:\n        /* \"SafeMath.sol\":820:821  c */\n      dup1\n        /* \"SafeMath.sol\":813:821  return c */\n      swap2\n      pop\n      pop\n        /* \"SafeMath.sol\":682:829  function add(uint256 a, uint256 b) internal pure returns (uint256) {\r... */\n      swap3\n      swap2\n      pop\n      pop\n      jump\t// out\n    tag_79:\n      dup3\n      dup1\n      sload\n      tag_126\n      swap1\n      tag_81\n      jump\t// in\n    tag_126:\n      swap1\n      0x00\n      mstore\n      keccak256(0x00, 0x20)\n      swap1\n      0x1f\n      add\n      0x20\n      swap1\n      div\n      dup2\n      add\n      swap3\n      dup3\n      tag_128\n      jumpi\n      0x00\n      dup6\n      sstore\n      jump(tag_127)\n    tag_128:\n      dup3\n      0x1f\n      lt\n      tag_129\n      jumpi\n      dup1\n      mload\n      not(0xff)\n      and\n      dup4\n      dup1\n      add\n      or\n      dup6\n      sstore\n      jump(tag_127)\n    tag_129:\n      dup3\n      dup1\n      add\n      0x01\n      add\n      dup6\n      sstore\n      dup3\n      iszero\n      tag_127\n      jumpi\n      swap2\n      dup3\n      add\n    tag_130:\n      dup3\n      dup2\n      gt\n      iszero\n      tag_131\n      jumpi\n      dup3\n      mload\n      dup3\n      sstore\n      swap2\n      0x20\n      add\n      swap2\n      swap1\n      0x01\n      add\n      swap1\n      jump(tag_130)\n    tag_131:\n    tag_127:\n      pop\n      swap1\n      pop\n      tag_132\n      swap2\n      swap1\n      tag_133\n      jump\t// in\n    tag_132:\n      pop\n      swap1\n      jump\t// out\n    tag_133:\n    tag_134:\n      dup1\n      dup3\n      gt\n      iszero\n      tag_135\n      jumpi\n      0x00\n      dup2\n      0x00\n      swap1\n      sstore\n      pop\n      0x01\n      add\n      jump(tag_134)\n    tag_135:\n      pop\n      swap1\n      jump\t// out\n        /* \"#utility.yul\":7:419   */\n    tag_137:\n        /* \"#utility.yul\":85:90   */\n      0x00\n        /* \"#utility.yul\":110:176   */\n      tag_139\n        /* \"#utility.yul\":126:175   */\n      tag_140\n        /* \"#utility.yul\":168:174   */\n      dup5\n        /* \"#utility.yul\":126:175   */\n      tag_141\n      jump\t// in\n    tag_140:\n        /* \"#utility.yul\":110:176   */\n      tag_142\n      jump\t// in\n    tag_139:\n        /* \"#utility.yul\":101:176   */\n      swap1\n      pop\n        /* \"#utility.yul\":199:205   */\n      dup3\n        /* \"#utility.yul\":192:197   */\n      dup2\n        /* \"#utility.yul\":185:206   */\n      mstore\n        /* \"#utility.yul\":237:241   */\n      0x20\n        /* \"#utility.yul\":230:235   */\n      dup2\n        /* \"#utility.yul\":226:242   */\n      add\n        /* \"#utility.yul\":275:278   */\n      dup5\n        /* \"#utility.yul\":266:272   */\n      dup5\n        /* \"#utility.yul\":261:264   */\n      dup5\n        /* \"#utility.yul\":257:273   */\n      add\n        /* \"#utility.yul\":254:279   */\n      gt\n        /* \"#utility.yul\":251:253   */\n      iszero\n      tag_143\n      jumpi\n        /* \"#utility.yul\":282:361   */\n      tag_144\n      tag_145\n      jump\t// in\n    tag_144:\n        /* \"#utility.yul\":251:253   */\n    tag_143:\n        /* \"#utility.yul\":372:413   */\n      tag_146\n        /* \"#utility.yul\":406:412   */\n      dup5\n        /* \"#utility.yul\":401:404   */\n      dup3\n        /* \"#utility.yul\":396:399   */\n      dup6\n        /* \"#utility.yul\":372:413   */\n      tag_147\n      jump\t// in\n    tag_146:\n        /* \"#utility.yul\":91:419   */\n      pop\n      swap4\n      swap3\n      pop\n      pop\n      pop\n      jump\t// out\n        /* \"#utility.yul\":425:564   */\n    tag_148:\n        /* \"#utility.yul\":471:476   */\n      0x00\n        /* \"#utility.yul\":509:515   */\n      dup2\n        /* \"#utility.yul\":496:516   */\n      calldataload\n        /* \"#utility.yul\":487:516   */\n      swap1\n      pop\n        /* \"#utility.yul\":525:558   */\n      tag_150\n        /* \"#utility.yul\":552:557   */\n      dup2\n        /* \"#utility.yul\":525:558   */\n      tag_151\n      jump\t// in\n    tag_150:\n        /* \"#utility.yul\":477:564   */\n      swap3\n      swap2\n      pop\n      pop\n      jump\t// out\n        /* \"#utility.yul\":570:725   */\n    tag_152:\n        /* \"#utility.yul\":624:629   */\n      0x00\n        /* \"#utility.yul\":662:668   */\n      dup2\n        /* \"#utility.yul\":649:669   */\n      calldataload\n        /* \"#utility.yul\":640:669   */\n      swap1\n      pop\n        /* \"#utility.yul\":678:719   */\n      tag_154\n        /* \"#utility.yul\":713:718   */\n      dup2\n        /* \"#utility.yul\":678:719   */\n      tag_155\n      jump\t// in\n    tag_154:\n        /* \"#utility.yul\":630:725   */\n      swap3\n      swap2\n      pop\n      pop\n      jump\t// out\n        /* \"#utility.yul\":745:1085   */\n    tag_156:\n        /* \"#utility.yul\":801:806   */\n      0x00\n        /* \"#utility.yul\":850:853   */\n      dup3\n        /* \"#utility.yul\":843:847   */\n      0x1f\n        /* \"#utility.yul\":835:841   */\n      dup4\n        /* \"#utility.yul\":831:848   */\n      add\n        /* \"#utility.yul\":827:854   */\n      slt\n        /* \"#utility.yul\":817:819   */\n      tag_158\n      jumpi\n        /* \"#utility.yul\":858:937   */\n      tag_159\n      tag_160\n      jump\t// in\n    tag_159:\n        /* \"#utility.yul\":817:819   */\n    tag_158:\n        /* \"#utility.yul\":975:981   */\n      dup2\n        /* \"#utility.yul\":962:982   */\n      calldataload\n        /* \"#utility.yul\":1000:1079   */\n      tag_161\n        /* \"#utility.yul\":1075:1078   */\n      dup5\n        /* \"#utility.yul\":1067:1073   */\n      dup3\n        /* \"#utility.yul\":1060:1064   */\n      0x20\n        /* \"#utility.yul\":1052:1058   */\n      dup7\n        /* \"#utility.yul\":1048:1065   */\n      add\n        /* \"#utility.yul\":1000:1079   */\n      tag_137\n      jump\t// in\n    tag_161:\n        /* \"#utility.yul\":991:1079   */\n      swap2\n      pop\n        /* \"#utility.yul\":807:1085   */\n      pop\n      swap3\n      swap2\n      pop\n      pop\n      jump\t// out\n        /* \"#utility.yul\":1091:1230   */\n    tag_162:\n        /* \"#utility.yul\":1137:1142   */\n      0x00\n        /* \"#utility.yul\":1175:1181   */\n      dup2\n        /* \"#utility.yul\":1162:1182   */\n      calldataload\n        /* \"#utility.yul\":1153:1182   */\n      swap1\n      pop\n        /* \"#utility.yul\":1191:1224   */\n      tag_164\n        /* \"#utility.yul\":1218:1223   */\n      dup2\n        /* \"#utility.yul\":1191:1224   */\n      tag_165\n      jump\t// in\n    tag_164:\n        /* \"#utility.yul\":1143:1230   */\n      swap3\n      swap2\n      pop\n      pop\n      jump\t// out\n        /* \"#utility.yul\":1236:1565   */\n    tag_36:\n        /* \"#utility.yul\":1295:1301   */\n      0x00\n        /* \"#utility.yul\":1344:1346   */\n      0x20\n        /* \"#utility.yul\":1332:1341   */\n      dup3\n        /* \"#utility.yul\":1323:1330   */\n      dup5\n        /* \"#utility.yul\":1319:1342   */\n      sub\n        /* \"#utility.yul\":1315:1347   */\n      slt\n        /* \"#utility.yul\":1312:1314   */\n      iszero\n      tag_167\n      jumpi\n        /* \"#utility.yul\":1350:1429   */\n      tag_168\n      tag_169\n      jump\t// in\n    tag_168:\n        /* \"#utility.yul\":1312:1314   */\n    tag_167:\n        /* \"#utility.yul\":1470:1471   */\n      0x00\n        /* \"#utility.yul\":1495:1548   */\n      tag_170\n        /* \"#utility.yul\":1540:1547   */\n      dup5\n        /* \"#utility.yul\":1531:1537   */\n      dup3\n        /* \"#utility.yul\":1520:1529   */\n      dup6\n        /* \"#utility.yul\":1516:1538   */\n      add\n        /* \"#utility.yul\":1495:1548   */\n      tag_148\n      jump\t// in\n    tag_170:\n        /* \"#utility.yul\":1485:1548   */\n      swap2\n      pop\n        /* \"#utility.yul\":1441:1558   */\n      pop\n        /* \"#utility.yul\":1302:1565   */\n      swap3\n      swap2\n      pop\n      pop\n      jump\t// out\n        /* \"#utility.yul\":1571:2386   */\n    tag_18:\n        /* \"#utility.yul\":1666:1672   */\n      0x00\n        /* \"#utility.yul\":1674:1680   */\n      dup1\n        /* \"#utility.yul\":1682:1688   */\n      0x00\n        /* \"#utility.yul\":1731:1733   */\n      0x60\n        /* \"#utility.yul\":1719:1728   */\n      dup5\n        /* \"#utility.yul\":1710:1717   */\n      dup7\n        /* \"#utility.yul\":1706:1729   */\n      sub\n        /* \"#utility.yul\":1702:1734   */\n      slt\n        /* \"#utility.yul\":1699:1701   */\n      iszero\n      tag_172\n      jumpi\n        /* \"#utility.yul\":1737:1816   */\n      tag_173\n      tag_169\n      jump\t// in\n    tag_173:\n        /* \"#utility.yul\":1699:1701   */\n    tag_172:\n        /* \"#utility.yul\":1885:1886   */\n      0x00\n        /* \"#utility.yul\":1874:1883   */\n      dup5\n        /* \"#utility.yul\":1870:1887   */\n      add\n        /* \"#utility.yul\":1857:1888   */\n      calldataload\n        /* \"#utility.yul\":1915:1933   */\n      0xffffffffffffffff\n        /* \"#utility.yul\":1907:1913   */\n      dup2\n        /* \"#utility.yul\":1904:1934   */\n      gt\n        /* \"#utility.yul\":1901:1903   */\n      iszero\n      tag_174\n      jumpi\n        /* \"#utility.yul\":1937:2016   */\n      tag_175\n      tag_176\n      jump\t// in\n    tag_175:\n        /* \"#utility.yul\":1901:1903   */\n    tag_174:\n        /* \"#utility.yul\":2042:2105   */\n      tag_177\n        /* \"#utility.yul\":2097:2104   */\n      dup7\n        /* \"#utility.yul\":2088:2094   */\n      dup3\n        /* \"#utility.yul\":2077:2086   */\n      dup8\n        /* \"#utility.yul\":2073:2095   */\n      add\n        /* \"#utility.yul\":2042:2105   */\n      tag_156\n      jump\t// in\n    tag_177:\n        /* \"#utility.yul\":2032:2105   */\n      swap4\n      pop\n        /* \"#utility.yul\":1828:2115   */\n      pop\n        /* \"#utility.yul\":2154:2156   */\n      0x20\n        /* \"#utility.yul\":2180:2233   */\n      tag_178\n        /* \"#utility.yul\":2225:2232   */\n      dup7\n        /* \"#utility.yul\":2216:2222   */\n      dup3\n        /* \"#utility.yul\":2205:2214   */\n      dup8\n        /* \"#utility.yul\":2201:2223   */\n      add\n        /* \"#utility.yul\":2180:2233   */\n      tag_162\n      jump\t// in\n    tag_178:\n        /* \"#utility.yul\":2170:2233   */\n      swap3\n      pop\n        /* \"#utility.yul\":2125:2243   */\n      pop\n        /* \"#utility.yul\":2282:2284   */\n      0x40\n        /* \"#utility.yul\":2308:2369   */\n      tag_179\n        /* \"#utility.yul\":2361:2368   */\n      dup7\n        /* \"#utility.yul\":2352:2358   */\n      dup3\n        /* \"#utility.yul\":2341:2350   */\n      dup8\n        /* \"#utility.yul\":2337:2359   */\n      add\n        /* \"#utility.yul\":2308:2369   */\n      tag_152\n      jump\t// in\n    tag_179:\n        /* \"#utility.yul\":2298:2369   */\n      swap2\n      pop\n        /* \"#utility.yul\":2253:2379   */\n      pop\n        /* \"#utility.yul\":1689:2386   */\n      swap3\n      pop\n      swap3\n      pop\n      swap3\n      jump\t// out\n        /* \"#utility.yul\":2392:2721   */\n    tag_47:\n        /* \"#utility.yul\":2451:2457   */\n      0x00\n        /* \"#utility.yul\":2500:2502   */\n      0x20\n        /* \"#utility.yul\":2488:2497   */\n      dup3\n        /* \"#utility.yul\":2479:2486   */\n      dup5\n        /* \"#utility.yul\":2475:2498   */\n      sub\n        /* \"#utility.yul\":2471:2503   */\n      slt\n        /* \"#utility.yul\":2468:2470   */\n      iszero\n      tag_181\n      jumpi\n        /* \"#utility.yul\":2506:2585   */\n      tag_182\n      tag_169\n      jump\t// in\n    tag_182:\n        /* \"#utility.yul\":2468:2470   */\n    tag_181:\n        /* \"#utility.yul\":2626:2627   */\n      0x00\n        /* \"#utility.yul\":2651:2704   */\n      tag_183\n        /* \"#utility.yul\":2696:2703   */\n      dup5\n        /* \"#utility.yul\":2687:2693   */\n      dup3\n        /* \"#utility.yul\":2676:2685   */\n      dup6\n        /* \"#utility.yul\":2672:2694   */\n      add\n        /* \"#utility.yul\":2651:2704   */\n      tag_162\n      jump\t// in\n    tag_183:\n        /* \"#utility.yul\":2641:2704   */\n      swap2\n      pop\n        /* \"#utility.yul\":2597:2714   */\n      pop\n        /* \"#utility.yul\":2458:2721   */\n      swap3\n      swap2\n      pop\n      pop\n      jump\t// out\n        /* \"#utility.yul\":2727:2869   */\n    tag_184:\n        /* \"#utility.yul\":2830:2862   */\n      tag_186\n        /* \"#utility.yul\":2856:2861   */\n      dup2\n        /* \"#utility.yul\":2830:2862   */\n      tag_187\n      jump\t// in\n    tag_186:\n        /* \"#utility.yul\":2825:2828   */\n      dup3\n        /* \"#utility.yul\":2818:2863   */\n      mstore\n        /* \"#utility.yul\":2808:2869   */\n      pop\n      pop\n      jump\t// out\n        /* \"#utility.yul\":2875:2993   */\n    tag_188:\n        /* \"#utility.yul\":2962:2986   */\n      tag_190\n        /* \"#utility.yul\":2980:2985   */\n      dup2\n        /* \"#utility.yul\":2962:2986   */\n      tag_191\n      jump\t// in\n    tag_190:\n        /* \"#utility.yul\":2957:2960   */\n      dup3\n        /* \"#utility.yul\":2950:2987   */\n      mstore\n        /* \"#utility.yul\":2940:2993   */\n      pop\n      pop\n      jump\t// out\n        /* \"#utility.yul\":2999:3108   */\n    tag_192:\n        /* \"#utility.yul\":3080:3101   */\n      tag_194\n        /* \"#utility.yul\":3095:3100   */\n      dup2\n        /* \"#utility.yul\":3080:3101   */\n      tag_195\n      jump\t// in\n    tag_194:\n        /* \"#utility.yul\":3075:3078   */\n      dup3\n        /* \"#utility.yul\":3068:3102   */\n      mstore\n        /* \"#utility.yul\":3058:3108   */\n      pop\n      pop\n      jump\t// out\n        /* \"#utility.yul\":3114:3478   */\n    tag_196:\n        /* \"#utility.yul\":3202:3205   */\n      0x00\n        /* \"#utility.yul\":3230:3269   */\n      tag_198\n        /* \"#utility.yul\":3263:3268   */\n      dup3\n        /* \"#utility.yul\":3230:3269   */\n      tag_199\n      jump\t// in\n    tag_198:\n        /* \"#utility.yul\":3285:3356   */\n      tag_200\n        /* \"#utility.yul\":3349:3355   */\n      dup2\n        /* \"#utility.yul\":3344:3347   */\n      dup6\n        /* \"#utility.yul\":3285:3356   */\n      tag_201\n      jump\t// in\n    tag_200:\n        /* \"#utility.yul\":3278:3356   */\n      swap4\n      pop\n        /* \"#utility.yul\":3365:3417   */\n      tag_202\n        /* \"#utility.yul\":3410:3416   */\n      dup2\n        /* \"#utility.yul\":3405:3408   */\n      dup6\n        /* \"#utility.yul\":3398:3402   */\n      0x20\n        /* \"#utility.yul\":3391:3396   */\n      dup7\n        /* \"#utility.yul\":3387:3403   */\n      add\n        /* \"#utility.yul\":3365:3417   */\n      tag_203\n      jump\t// in\n    tag_202:\n        /* \"#utility.yul\":3442:3471   */\n      tag_204\n        /* \"#utility.yul\":3464:3470   */\n      dup2\n        /* \"#utility.yul\":3442:3471   */\n      tag_205\n      jump\t// in\n    tag_204:\n        /* \"#utility.yul\":3437:3440   */\n      dup5\n        /* \"#utility.yul\":3433:3472   */\n      add\n        /* \"#utility.yul\":3426:3472   */\n      swap2\n      pop\n        /* \"#utility.yul\":3206:3478   */\n      pop\n      swap3\n      swap2\n      pop\n      pop\n      jump\t// out\n        /* \"#utility.yul\":3484:3602   */\n    tag_206:\n        /* \"#utility.yul\":3571:3595   */\n      tag_208\n        /* \"#utility.yul\":3589:3594   */\n      dup2\n        /* \"#utility.yul\":3571:3595   */\n      tag_209\n      jump\t// in\n    tag_208:\n        /* \"#utility.yul\":3566:3569   */\n      dup3\n        /* \"#utility.yul\":3559:3596   */\n      mstore\n        /* \"#utility.yul\":3549:3602   */\n      pop\n      pop\n      jump\t// out\n        /* \"#utility.yul\":3608:3830   */\n    tag_55:\n        /* \"#utility.yul\":3701:3705   */\n      0x00\n        /* \"#utility.yul\":3739:3741   */\n      0x20\n        /* \"#utility.yul\":3728:3737   */\n      dup3\n        /* \"#utility.yul\":3724:3742   */\n      add\n        /* \"#utility.yul\":3716:3742   */\n      swap1\n      pop\n        /* \"#utility.yul\":3752:3823   */\n      tag_211\n        /* \"#utility.yul\":3820:3821   */\n      0x00\n        /* \"#utility.yul\":3809:3818   */\n      dup4\n        /* \"#utility.yul\":3805:3822   */\n      add\n        /* \"#utility.yul\":3796:3802   */\n      dup5\n        /* \"#utility.yul\":3752:3823   */\n      tag_188\n      jump\t// in\n    tag_211:\n        /* \"#utility.yul\":3706:3830   */\n      swap3\n      swap2\n      pop\n      pop\n      jump\t// out\n        /* \"#utility.yul\":3836:4149   */\n    tag_43:\n        /* \"#utility.yul\":3949:3953   */\n      0x00\n        /* \"#utility.yul\":3987:3989   */\n      0x20\n        /* \"#utility.yul\":3976:3985   */\n      dup3\n        /* \"#utility.yul\":3972:3990   */\n      add\n        /* \"#utility.yul\":3964:3990   */\n      swap1\n      pop\n        /* \"#utility.yul\":4036:4045   */\n      dup2\n        /* \"#utility.yul\":4030:4034   */\n      dup2\n        /* \"#utility.yul\":4026:4046   */\n      sub\n        /* \"#utility.yul\":4022:4023   */\n      0x00\n        /* \"#utility.yul\":4011:4020   */\n      dup4\n        /* \"#utility.yul\":4007:4024   */\n      add\n        /* \"#utility.yul\":4000:4047   */\n      mstore\n        /* \"#utility.yul\":4064:4142   */\n      tag_213\n        /* \"#utility.yul\":4137:4141   */\n      dup2\n        /* \"#utility.yul\":4128:4134   */\n      dup5\n        /* \"#utility.yul\":4064:4142   */\n      tag_196\n      jump\t// in\n    tag_213:\n        /* \"#utility.yul\":4056:4142   */\n      swap1\n      pop\n        /* \"#utility.yul\":3954:4149   */\n      swap3\n      swap2\n      pop\n      pop\n      jump\t// out\n        /* \"#utility.yul\":4155:4930   */\n    tag_50:\n        /* \"#utility.yul\":4390:4394   */\n      0x00\n        /* \"#utility.yul\":4428:4431   */\n      0xa0\n        /* \"#utility.yul\":4417:4426   */\n      dup3\n        /* \"#utility.yul\":4413:4432   */\n      add\n        /* \"#utility.yul\":4405:4432   */\n      swap1\n      pop\n        /* \"#utility.yul\":4478:4487   */\n      dup2\n        /* \"#utility.yul\":4472:4476   */\n      dup2\n        /* \"#utility.yul\":4468:4488   */\n      sub\n        /* \"#utility.yul\":4464:4465   */\n      0x00\n        /* \"#utility.yul\":4453:4462   */\n      dup4\n        /* \"#utility.yul\":4449:4466   */\n      add\n        /* \"#utility.yul\":4442:4489   */\n      mstore\n        /* \"#utility.yul\":4506:4584   */\n      tag_215\n        /* \"#utility.yul\":4579:4583   */\n      dup2\n        /* \"#utility.yul\":4570:4576   */\n      dup9\n        /* \"#utility.yul\":4506:4584   */\n      tag_196\n      jump\t// in\n    tag_215:\n        /* \"#utility.yul\":4498:4584   */\n      swap1\n      pop\n        /* \"#utility.yul\":4594:4666   */\n      tag_216\n        /* \"#utility.yul\":4662:4664   */\n      0x20\n        /* \"#utility.yul\":4651:4660   */\n      dup4\n        /* \"#utility.yul\":4647:4665   */\n      add\n        /* \"#utility.yul\":4638:4644   */\n      dup8\n        /* \"#utility.yul\":4594:4666   */\n      tag_206\n      jump\t// in\n    tag_216:\n        /* \"#utility.yul\":4676:4764   */\n      tag_217\n        /* \"#utility.yul\":4760:4762   */\n      0x40\n        /* \"#utility.yul\":4749:4758   */\n      dup4\n        /* \"#utility.yul\":4745:4763   */\n      add\n        /* \"#utility.yul\":4736:4742   */\n      dup7\n        /* \"#utility.yul\":4676:4764   */\n      tag_184\n      jump\t// in\n    tag_217:\n        /* \"#utility.yul\":4774:4840   */\n      tag_218\n        /* \"#utility.yul\":4836:4838   */\n      0x60\n        /* \"#utility.yul\":4825:4834   */\n      dup4\n        /* \"#utility.yul\":4821:4839   */\n      add\n        /* \"#utility.yul\":4812:4818   */\n      dup6\n        /* \"#utility.yul\":4774:4840   */\n      tag_192\n      jump\t// in\n    tag_218:\n        /* \"#utility.yul\":4850:4923   */\n      tag_219\n        /* \"#utility.yul\":4918:4921   */\n      0x80\n        /* \"#utility.yul\":4907:4916   */\n      dup4\n        /* \"#utility.yul\":4903:4922   */\n      add\n        /* \"#utility.yul\":4894:4900   */\n      dup5\n        /* \"#utility.yul\":4850:4923   */\n      tag_206\n      jump\t// in\n    tag_219:\n        /* \"#utility.yul\":4395:4930   */\n      swap7\n      swap6\n      pop\n      pop\n      pop\n      pop\n      pop\n      pop\n      jump\t// out\n        /* \"#utility.yul\":4936:5158   */\n    tag_24:\n        /* \"#utility.yul\":5029:5033   */\n      0x00\n        /* \"#utility.yul\":5067:5069   */\n      0x20\n        /* \"#utility.yul\":5056:5065   */\n      dup3\n        /* \"#utility.yul\":5052:5070   */\n      add\n        /* \"#utility.yul\":5044:5070   */\n      swap1\n      pop\n        /* \"#utility.yul\":5080:5151   */\n      tag_221\n        /* \"#utility.yul\":5148:5149   */\n      0x00\n        /* \"#utility.yul\":5137:5146   */\n      dup4\n        /* \"#utility.yul\":5133:5150   */\n      add\n        /* \"#utility.yul\":5124:5130   */\n      dup5\n        /* \"#utility.yul\":5080:5151   */\n      tag_206\n      jump\t// in\n    tag_221:\n        /* \"#utility.yul\":5034:5158   */\n      swap3\n      swap2\n      pop\n      pop\n      jump\t// out\n        /* \"#utility.yul\":5164:5293   */\n    tag_142:\n        /* \"#utility.yul\":5198:5204   */\n      0x00\n        /* \"#utility.yul\":5225:5245   */\n      tag_223\n      tag_224\n      jump\t// in\n    tag_223:\n        /* \"#utility.yul\":5215:5245   */\n      swap1\n      pop\n        /* \"#utility.yul\":5254:5287   */\n      tag_225\n        /* \"#utility.yul\":5282:5286   */\n      dup3\n        /* \"#utility.yul\":5274:5280   */\n      dup3\n        /* \"#utility.yul\":5254:5287   */\n      tag_226\n      jump\t// in\n    tag_225:\n        /* \"#utility.yul\":5205:5293   */\n      swap2\n      swap1\n      pop\n      jump\t// out\n        /* \"#utility.yul\":5299:5374   */\n    tag_224:\n        /* \"#utility.yul\":5332:5338   */\n      0x00\n        /* \"#utility.yul\":5365:5367   */\n      0x40\n        /* \"#utility.yul\":5359:5368   */\n      mload\n        /* \"#utility.yul\":5349:5368   */\n      swap1\n      pop\n        /* \"#utility.yul\":5339:5374   */\n      swap1\n      jump\t// out\n        /* \"#utility.yul\":5380:5688   */\n    tag_141:\n        /* \"#utility.yul\":5442:5446   */\n      0x00\n        /* \"#utility.yul\":5532:5550   */\n      0xffffffffffffffff\n        /* \"#utility.yul\":5524:5530   */\n      dup3\n        /* \"#utility.yul\":5521:5551   */\n      gt\n        /* \"#utility.yul\":5518:5520   */\n      iszero\n      tag_229\n      jumpi\n        /* \"#utility.yul\":5554:5572   */\n      tag_230\n      tag_231\n      jump\t// in\n    tag_230:\n        /* \"#utility.yul\":5518:5520   */\n    tag_229:\n        /* \"#utility.yul\":5592:5621   */\n      tag_232\n        /* \"#utility.yul\":5614:5620   */\n      dup3\n        /* \"#utility.yul\":5592:5621   */\n      tag_205\n      jump\t// in\n    tag_232:\n        /* \"#utility.yul\":5584:5621   */\n      swap1\n      pop\n        /* \"#utility.yul\":5676:5680   */\n      0x20\n        /* \"#utility.yul\":5670:5674   */\n      dup2\n        /* \"#utility.yul\":5666:5681   */\n      add\n        /* \"#utility.yul\":5658:5681   */\n      swap1\n      pop\n        /* \"#utility.yul\":5447:5688   */\n      swap2\n      swap1\n      pop\n      jump\t// out\n        /* \"#utility.yul\":5694:5793   */\n    tag_199:\n        /* \"#utility.yul\":5746:5752   */\n      0x00\n        /* \"#utility.yul\":5780:5785   */\n      dup2\n        /* \"#utility.yul\":5774:5786   */\n      mload\n        /* \"#utility.yul\":5764:5786   */\n      swap1\n      pop\n        /* \"#utility.yul\":5753:5793   */\n      swap2\n      swap1\n      pop\n      jump\t// out\n        /* \"#utility.yul\":5799:5968   */\n    tag_201:\n        /* \"#utility.yul\":5883:5894   */\n      0x00\n        /* \"#utility.yul\":5917:5923   */\n      dup3\n        /* \"#utility.yul\":5912:5915   */\n      dup3\n        /* \"#utility.yul\":5905:5924   */\n      mstore\n        /* \"#utility.yul\":5957:5961   */\n      0x20\n        /* \"#utility.yul\":5952:5955   */\n      dup3\n        /* \"#utility.yul\":5948:5962   */\n      add\n        /* \"#utility.yul\":5933:5962   */\n      swap1\n      pop\n        /* \"#utility.yul\":5895:5968   */\n      swap3\n      swap2\n      pop\n      pop\n      jump\t// out\n        /* \"#utility.yul\":5974:6279   */\n    tag_113:\n        /* \"#utility.yul\":6014:6017   */\n      0x00\n        /* \"#utility.yul\":6033:6053   */\n      tag_236\n        /* \"#utility.yul\":6051:6052   */\n      dup3\n        /* \"#utility.yul\":6033:6053   */\n      tag_209\n      jump\t// in\n    tag_236:\n        /* \"#utility.yul\":6028:6053   */\n      swap2\n      pop\n        /* \"#utility.yul\":6067:6087   */\n      tag_237\n        /* \"#utility.yul\":6085:6086   */\n      dup4\n        /* \"#utility.yul\":6067:6087   */\n      tag_209\n      jump\t// in\n    tag_237:\n        /* \"#utility.yul\":6062:6087   */\n      swap3\n      pop\n        /* \"#utility.yul\":6221:6222   */\n      dup3\n        /* \"#utility.yul\":6153:6219   */\n      0xffffffffffffffffffffffffffffffffffffffffffffffffffffffffffffffff\n        /* \"#utility.yul\":6149:6223   */\n      sub\n        /* \"#utility.yul\":6146:6147   */\n      dup3\n        /* \"#utility.yul\":6143:6224   */\n      gt\n        /* \"#utility.yul\":6140:6142   */\n      iszero\n      tag_238\n      jumpi\n        /* \"#utility.yul\":6227:6245   */\n      tag_239\n      tag_240\n      jump\t// in\n    tag_239:\n        /* \"#utility.yul\":6140:6142   */\n    tag_238:\n        /* \"#utility.yul\":6271:6272   */\n      dup3\n        /* \"#utility.yul\":6268:6269   */\n      dup3\n        /* \"#utility.yul\":6264:6273   */\n      add\n        /* \"#utility.yul\":6257:6273   */\n      swap1\n      pop\n        /* \"#utility.yul\":6018:6279   */\n      swap3\n      swap2\n      pop\n      pop\n      jump\t// out\n        /* \"#utility.yul\":6285:6470   */\n    tag_102:\n        /* \"#utility.yul\":6325:6326   */\n      0x00\n        /* \"#utility.yul\":6342:6362   */\n      tag_242\n        /* \"#utility.yul\":6360:6361   */\n      dup3\n        /* \"#utility.yul\":6342:6362   */\n      tag_209\n      jump\t// in\n    tag_242:\n        /* \"#utility.yul\":6337:6362   */\n      swap2\n      pop\n        /* \"#utility.yul\":6376:6396   */\n      tag_243\n        /* \"#utility.yul\":6394:6395   */\n      dup4\n        /* \"#utility.yul\":6376:6396   */\n      tag_209\n      jump\t// in\n    tag_243:\n        /* \"#utility.yul\":6371:6396   */\n      swap3\n      pop\n        /* \"#utility.yul\":6415:6416   */\n      dup3\n        /* \"#utility.yul\":6405:6407   */\n      tag_244\n      jumpi\n        /* \"#utility.yul\":6420:6438   */\n      tag_245\n      tag_246\n      jump\t// in\n    tag_245:\n        /* \"#utility.yul\":6405:6407   */\n    tag_244:\n        /* \"#utility.yul\":6462:6463   */\n      dup3\n        /* \"#utility.yul\":6459:6460   */\n      dup3\n        /* \"#utility.yul\":6455:6464   */\n      div\n        /* \"#utility.yul\":6450:6464   */\n      swap1\n      pop\n        /* \"#utility.yul\":6327:6470   */\n      swap3\n      swap2\n      pop\n      pop\n      jump\t// out\n        /* \"#utility.yul\":6476:6572   */\n    tag_191:\n        /* \"#utility.yul\":6513:6520   */\n      0x00\n        /* \"#utility.yul\":6542:6566   */\n      tag_248\n        /* \"#utility.yul\":6560:6565   */\n      dup3\n        /* \"#utility.yul\":6542:6566   */\n      tag_249\n      jump\t// in\n    tag_248:\n        /* \"#utility.yul\":6531:6566   */\n      swap1\n      pop\n        /* \"#utility.yul\":6521:6572   */\n      swap2\n      swap1\n      pop\n      jump\t// out\n        /* \"#utility.yul\":6578:6682   */\n    tag_187:\n        /* \"#utility.yul\":6623:6630   */\n      0x00\n        /* \"#utility.yul\":6652:6676   */\n      tag_251\n        /* \"#utility.yul\":6670:6675   */\n      dup3\n        /* \"#utility.yul\":6652:6676   */\n      tag_249\n      jump\t// in\n    tag_251:\n        /* \"#utility.yul\":6641:6676   */\n      swap1\n      pop\n        /* \"#utility.yul\":6631:6682   */\n      swap2\n      swap1\n      pop\n      jump\t// out\n        /* \"#utility.yul\":6688:6778   */\n    tag_195:\n        /* \"#utility.yul\":6722:6729   */\n      0x00\n        /* \"#utility.yul\":6765:6770   */\n      dup2\n        /* \"#utility.yul\":6758:6771   */\n      iszero\n        /* \"#utility.yul\":6751:6772   */\n      iszero\n        /* \"#utility.yul\":6740:6772   */\n      swap1\n      pop\n        /* \"#utility.yul\":6730:6778   */\n      swap2\n      swap1\n      pop\n      jump\t// out\n        /* \"#utility.yul\":6784:6910   */\n    tag_249:\n        /* \"#utility.yul\":6821:6828   */\n      0x00\n        /* \"#utility.yul\":6861:6903   */\n      0xffffffffffffffffffffffffffffffffffffffff\n        /* \"#utility.yul\":6854:6859   */\n      dup3\n        /* \"#utility.yul\":6850:6904   */\n      and\n        /* \"#utility.yul\":6839:6904   */\n      swap1\n      pop\n        /* \"#utility.yul\":6829:6910   */\n      swap2\n      swap1\n      pop\n      jump\t// out\n        /* \"#utility.yul\":6916:6993   */\n    tag_209:\n        /* \"#utility.yul\":6953:6960   */\n      0x00\n        /* \"#utility.yul\":6982:6987   */\n      dup2\n        /* \"#utility.yul\":6971:6987   */\n      swap1\n      pop\n        /* \"#utility.yul\":6961:6993   */\n      swap2\n      swap1\n      pop\n      jump\t// out\n        /* \"#utility.yul\":6999:7153   */\n    tag_147:\n        /* \"#utility.yul\":7083:7089   */\n      dup3\n        /* \"#utility.yul\":7078:7081   */\n      dup2\n        /* \"#utility.yul\":7073:7076   */\n      dup4\n        /* \"#utility.yul\":7060:7090   */\n      calldatacopy\n        /* \"#utility.yul\":7145:7146   */\n      0x00\n        /* \"#utility.yul\":7136:7142   */\n      dup4\n        /* \"#utility.yul\":7131:7134   */\n      dup4\n        /* \"#utility.yul\":7127:7143   */\n      add\n        /* \"#utility.yul\":7120:7147   */\n      mstore\n        /* \"#utility.yul\":7050:7153   */\n      pop\n      pop\n      pop\n      jump\t// out\n        /* \"#utility.yul\":7159:7466   */\n    tag_203:\n        /* \"#utility.yul\":7227:7228   */\n      0x00\n        /* \"#utility.yul\":7237:7350   */\n    tag_257:\n        /* \"#utility.yul\":7251:7257   */\n      dup4\n        /* \"#utility.yul\":7248:7249   */\n      dup2\n        /* \"#utility.yul\":7245:7258   */\n      lt\n        /* \"#utility.yul\":7237:7350   */\n      iszero\n      tag_259\n      jumpi\n        /* \"#utility.yul\":7336:7337   */\n      dup1\n        /* \"#utility.yul\":7331:7334   */\n      dup3\n        /* \"#utility.yul\":7327:7338   */\n      add\n        /* \"#utility.yul\":7321:7339   */\n      mload\n        /* \"#utility.yul\":7317:7318   */\n      dup2\n        /* \"#utility.yul\":7312:7315   */\n      dup5\n        /* \"#utility.yul\":7308:7319   */\n      add\n        /* \"#utility.yul\":7301:7340   */\n      mstore\n        /* \"#utility.yul\":7273:7275   */\n      0x20\n        /* \"#utility.yul\":7270:7271   */\n      dup2\n        /* \"#utility.yul\":7266:7276   */\n      add\n        /* \"#utility.yul\":7261:7276   */\n      swap1\n      pop\n        /* \"#utility.yul\":7237:7350   */\n      jump(tag_257)\n    tag_259:\n        /* \"#utility.yul\":7368:7374   */\n      dup4\n        /* \"#utility.yul\":7365:7366   */\n      dup2\n        /* \"#utility.yul\":7362:7375   */\n      gt\n        /* \"#utility.yul\":7359:7361   */\n      iszero\n      tag_260\n      jumpi\n        /* \"#utility.yul\":7448:7449   */\n      0x00\n        /* \"#utility.yul\":7439:7445   */\n      dup5\n        /* \"#utility.yul\":7434:7437   */\n      dup5\n        /* \"#utility.yul\":7430:7446   */\n      add\n        /* \"#utility.yul\":7423:7450   */\n      mstore\n        /* \"#utility.yul\":7359:7361   */\n    tag_260:\n        /* \"#utility.yul\":7208:7466   */\n      pop\n      pop\n      pop\n      pop\n      jump\t// out\n        /* \"#utility.yul\":7472:7792   */\n    tag_81:\n        /* \"#utility.yul\":7516:7522   */\n      0x00\n        /* \"#utility.yul\":7553:7554   */\n      0x02\n        /* \"#utility.yul\":7547:7551   */\n      dup3\n        /* \"#utility.yul\":7543:7555   */\n      div\n        /* \"#utility.yul\":7533:7555   */\n      swap1\n      pop\n        /* \"#utility.yul\":7600:7601   */\n      0x01\n        /* \"#utility.yul\":7594:7598   */\n      dup3\n        /* \"#utility.yul\":7590:7602   */\n      and\n        /* \"#utility.yul\":7621:7639   */\n      dup1\n        /* \"#utility.yul\":7611:7613   */\n      tag_262\n      jumpi\n        /* \"#utility.yul\":7677:7681   */\n      0x7f\n        /* \"#utility.yul\":7669:7675   */\n      dup3\n        /* \"#utility.yul\":7665:7682   */\n      and\n        /* \"#utility.yul\":7655:7682   */\n      swap2\n      pop\n        /* \"#utility.yul\":7611:7613   */\n    tag_262:\n        /* \"#utility.yul\":7739:7741   */\n      0x20\n        /* \"#utility.yul\":7731:7737   */\n      dup3\n        /* \"#utility.yul\":7728:7742   */\n      lt\n        /* \"#utility.yul\":7708:7726   */\n      dup2\n        /* \"#utility.yul\":7705:7743   */\n      eq\n        /* \"#utility.yul\":7702:7704   */\n      iszero\n      tag_263\n      jumpi\n        /* \"#utility.yul\":7758:7776   */\n      tag_264\n      tag_265\n      jump\t// in\n    tag_264:\n        /* \"#utility.yul\":7702:7704   */\n    tag_263:\n        /* \"#utility.yul\":7523:7792   */\n      pop\n      swap2\n      swap1\n      pop\n      jump\t// out\n        /* \"#utility.yul\":7798:8079   */\n    tag_226:\n        /* \"#utility.yul\":7881:7908   */\n      tag_267\n        /* \"#utility.yul\":7903:7907   */\n      dup3\n        /* \"#utility.yul\":7881:7908   */\n      tag_205\n      jump\t// in\n    tag_267:\n        /* \"#utility.yul\":7873:7879   */\n      dup2\n        /* \"#utility.yul\":7869:7909   */\n      add\n        /* \"#utility.yul\":8011:8017   */\n      dup2\n        /* \"#utility.yul\":7999:8009   */\n      dup2\n        /* \"#utility.yul\":7996:8018   */\n      lt\n        /* \"#utility.yul\":7975:7993   */\n      0xffffffffffffffff\n        /* \"#utility.yul\":7963:7973   */\n      dup3\n        /* \"#utility.yul\":7960:7994   */\n      gt\n        /* \"#utility.yul\":7957:8019   */\n      or\n        /* \"#utility.yul\":7954:7956   */\n      iszero\n      tag_268\n      jumpi\n        /* \"#utility.yul\":8022:8040   */\n      tag_269\n      tag_231\n      jump\t// in\n    tag_269:\n        /* \"#utility.yul\":7954:7956   */\n    tag_268:\n        /* \"#utility.yul\":8062:8072   */\n      dup1\n        /* \"#utility.yul\":8058:8060   */\n      0x40\n        /* \"#utility.yul\":8051:8073   */\n      mstore\n        /* \"#utility.yul\":7841:8079   */\n      pop\n      pop\n      pop\n      jump\t// out\n        /* \"#utility.yul\":8085:8265   */\n    tag_125:\n        /* \"#utility.yul\":8133:8210   */\n      0x4e487b7100000000000000000000000000000000000000000000000000000000\n        /* \"#utility.yul\":8130:8131   */\n      0x00\n        /* \"#utility.yul\":8123:8211   */\n      mstore\n        /* \"#utility.yul\":8230:8234   */\n      0x01\n        /* \"#utility.yul\":8227:8228   */\n      0x04\n        /* \"#utility.yul\":8220:8235   */\n      mstore\n        /* \"#utility.yul\":8254:8258   */\n      0x24\n        /* \"#utility.yul\":8251:8252   */\n      0x00\n        /* \"#utility.yul\":8244:8259   */\n      revert\n        /* \"#utility.yul\":8271:8451   */\n    tag_240:\n        /* \"#utility.yul\":8319:8396   */\n      0x4e487b7100000000000000000000000000000000000000000000000000000000\n        /* \"#utility.yul\":8316:8317   */\n      0x00\n        /* \"#utility.yul\":8309:8397   */\n      mstore\n        /* \"#utility.yul\":8416:8420   */\n      0x11\n        /* \"#utility.yul\":8413:8414   */\n      0x04\n        /* \"#utility.yul\":8406:8421   */\n      mstore\n        /* \"#utility.yul\":8440:8444   */\n      0x24\n        /* \"#utility.yul\":8437:8438   */\n      0x00\n        /* \"#utility.yul\":8430:8445   */\n      revert\n        /* \"#utility.yul\":8457:8637   */\n    tag_246:\n        /* \"#utility.yul\":8505:8582   */\n      0x4e487b7100000000000000000000000000000000000000000000000000000000\n        /* \"#utility.yul\":8502:8503   */\n      0x00\n        /* \"#utility.yul\":8495:8583   */\n      mstore\n        /* \"#utility.yul\":8602:8606   */\n      0x12\n        /* \"#utility.yul\":8599:8600   */\n      0x04\n        /* \"#utility.yul\":8592:8607   */\n      mstore\n        /* \"#utility.yul\":8626:8630   */\n      0x24\n        /* \"#utility.yul\":8623:8624   */\n      0x00\n        /* \"#utility.yul\":8616:8631   */\n      revert\n        /* \"#utility.yul\":8643:8823   */\n    tag_265:\n        /* \"#utility.yul\":8691:8768   */\n      0x4e487b7100000000000000000000000000000000000000000000000000000000\n        /* \"#utility.yul\":8688:8689   */\n      0x00\n        /* \"#utility.yul\":8681:8769   */\n      mstore\n        /* \"#utility.yul\":8788:8792   */\n      0x22\n        /* \"#utility.yul\":8785:8786   */\n      0x04\n        /* \"#utility.yul\":8778:8793   */\n      mstore\n        /* \"#utility.yul\":8812:8816   */\n      0x24\n        /* \"#utility.yul\":8809:8810   */\n      0x00\n        /* \"#utility.yul\":8802:8817   */\n      revert\n        /* \"#utility.yul\":8829:9009   */\n    tag_76:\n        /* \"#utility.yul\":8877:8954   */\n      0x4e487b7100000000000000000000000000000000000000000000000000000000\n        /* \"#utility.yul\":8874:8875   */\n      0x00\n        /* \"#utility.yul\":8867:8955   */\n      mstore\n        /* \"#utility.yul\":8974:8978   */\n      0x32\n        /* \"#utility.yul\":8971:8972   */\n      0x04\n        /* \"#utility.yul\":8964:8979   */\n      mstore\n        /* \"#utility.yul\":8998:9002   */\n      0x24\n        /* \"#utility.yul\":8995:8996   */\n      0x00\n        /* \"#utility.yul\":8988:9003   */\n      revert\n        /* \"#utility.yul\":9015:9195   */\n    tag_231:\n        /* \"#utility.yul\":9063:9140   */\n      0x4e487b7100000000000000000000000000000000000000000000000000000000\n        /* \"#utility.yul\":9060:9061   */\n      0x00\n        /* \"#utility.yul\":9053:9141   */\n      mstore\n        /* \"#utility.yul\":9160:9164   */\n      0x41\n        /* \"#utility.yul\":9157:9158   */\n      0x04\n        /* \"#utility.yul\":9150:9165   */\n      mstore\n        /* \"#utility.yul\":9184:9188   */\n      0x24\n        /* \"#utility.yul\":9181:9182   */\n      0x00\n        /* \"#utility.yul\":9174:9189   */\n      revert\n        /* \"#utility.yul\":9201:9318   */\n    tag_160:\n        /* \"#utility.yul\":9310:9311   */\n      0x00\n        /* \"#utility.yul\":9307:9308   */\n      dup1\n        /* \"#utility.yul\":9300:9312   */\n      revert\n        /* \"#utility.yul\":9324:9441   */\n    tag_145:\n        /* \"#utility.yul\":9433:9434   */\n      0x00\n        /* \"#utility.yul\":9430:9431   */\n      dup1\n        /* \"#utility.yul\":9423:9435   */\n      revert\n        /* \"#utility.yul\":9447:9564   */\n    tag_176:\n        /* \"#utility.yul\":9556:9557   */\n      0x00\n        /* \"#utility.yul\":9553:9554   */\n      dup1\n        /* \"#utility.yul\":9546:9558   */\n      revert\n        /* \"#utility.yul\":9570:9687   */\n    tag_169:\n        /* \"#utility.yul\":9679:9680   */\n      0x00\n        /* \"#utility.yul\":9676:9677   */\n      dup1\n        /* \"#utility.yul\":9669:9681   */\n      revert\n        /* \"#utility.yul\":9693:9795   */\n    tag_205:\n        /* \"#utility.yul\":9734:9740   */\n      0x00\n        /* \"#utility.yul\":9785:9787   */\n      0x1f\n        /* \"#utility.yul\":9781:9788   */\n      not\n        /* \"#utility.yul\":9776:9778   */\n      0x1f\n        /* \"#utility.yul\":9769:9774   */\n      dup4\n        /* \"#utility.yul\":9765:9779   */\n      add\n        /* \"#utility.yul\":9761:9789   */\n      and\n        /* \"#utility.yul\":9751:9789   */\n      swap1\n      pop\n        /* \"#utility.yul\":9741:9795   */\n      swap2\n      swap1\n      pop\n      jump\t// out\n        /* \"#utility.yul\":9801:9923   */\n    tag_151:\n        /* \"#utility.yul\":9874:9898   */\n      tag_282\n        /* \"#utility.yul\":9892:9897   */\n      dup2\n        /* \"#utility.yul\":9874:9898   */\n      tag_191\n      jump\t// in\n    tag_282:\n        /* \"#utility.yul\":9867:9872   */\n      dup2\n        /* \"#utility.yul\":9864:9899   */\n      eq\n        /* \"#utility.yul\":9854:9856   */\n      tag_283\n      jumpi\n        /* \"#utility.yul\":9913:9914   */\n      0x00\n        /* \"#utility.yul\":9910:9911   */\n      dup1\n        /* \"#utility.yul\":9903:9915   */\n      revert\n        /* \"#utility.yul\":9854:9856   */\n    tag_283:\n        /* \"#utility.yul\":9844:9923   */\n      pop\n      jump\t// out\n        /* \"#utility.yul\":9929:10067   */\n    tag_155:\n        /* \"#utility.yul\":10010:10042   */\n      tag_285\n        /* \"#utility.yul\":10036:10041   */\n      dup2\n        /* \"#utility.yul\":10010:10042   */\n      tag_187\n      jump\t// in\n    tag_285:\n        /* \"#utility.yul\":10003:10008   */\n      dup2\n        /* \"#utility.yul\":10000:10043   */\n      eq\n        /* \"#utility.yul\":9990:9992   */\n      tag_286\n      jumpi\n        /* \"#utility.yul\":10057:10058   */\n      0x00\n        /* \"#utility.yul\":10054:10055   */\n      dup1\n        /* \"#utility.yul\":10047:10059   */\n      revert\n        /* \"#utility.yul\":9990:9992   */\n    tag_286:\n        /* \"#utility.yul\":9980:10067   */\n      pop\n      jump\t// out\n        /* \"#utility.yul\":10073:10195   */\n    tag_165:\n        /* \"#utility.yul\":10146:10170   */\n      tag_288\n        /* \"#utility.yul\":10164:10169   */\n      dup2\n        /* \"#utility.yul\":10146:10170   */\n      tag_209\n      jump\t// in\n    tag_288:\n        /* \"#utility.yul\":10139:10144   */\n      dup2\n        /* \"#utility.yul\":10136:10171   */\n      eq\n        /* \"#utility.yul\":10126:10128   */\n      tag_289\n      jumpi\n        /* \"#utility.yul\":10185:10186   */\n      0x00\n        /* \"#utility.yul\":10182:10183   */\n      dup1\n        /* \"#utility.yul\":10175:10187   */\n      revert\n        /* \"#utility.yul\":10126:10128   */\n    tag_289:\n        /* \"#utility.yul\":10116:10195   */\n      pop\n      jump\t// out\n\n    auxdata: 0xa2646970667358221220c1516db7eb4aae5fe1b4957890dc5f956d01e751210b46d46a4dc02d5febe53c64736f6c63430008050033\n}\n","bytecode":{"linkReferences":{},"object":"60806040523480156200001157600080fd5b50604051620014e3380380620014e383398181016040528101906200003791906200020c565b806000806101000a81548173ffffffffffffffffffffffffffffffffffffffff021916908373ffffffffffffffffffffffffffffffffffffffff16021790555084600190805190602001906200008f929190620000b0565b508360028190555082600381905550816004819055505050505050620004a9565b828054620000be9062000386565b90600052602060002090601f016020900481019282620000e257600085556200012e565b82601f10620000fd57805160ff19168380011785556200012e565b828001600101855582156200012e579182015b828111156200012d57825182559160200191906001019062000110565b5b5090506200013d919062000141565b5090565b5b808211156200015c57600081600090555060010162000142565b5090565b6000620001776200017184620002dc565b620002b3565b90508281526020810184848401111562000196576200019562000455565b5b620001a384828562000350565b509392505050565b600081519050620001bc8162000475565b92915050565b600082601f830112620001da57620001d962000450565b5b8151620001ec84826020860162000160565b91505092915050565b60008151905062000206816200048f565b92915050565b600080600080600060a086880312156200022b576200022a6200045f565b5b600086015167ffffffffffffffff8111156200024c576200024b6200045a565b5b6200025a88828901620001c2565b95505060206200026d88828901620001f5565b94505060406200028088828901620001f5565b93505060606200029388828901620001f5565b9250506080620002a688828901620001ab565b9150509295509295909350565b6000620002bf620002d2565b9050620002cd8282620003bc565b919050565b6000604051905090565b600067ffffffffffffffff821115620002fa57620002f962000421565b5b620003058262000464565b9050602081019050919050565b60006200031f8262000326565b9050919050565b600073ffffffffffffffffffffffffffffffffffffffff82169050919050565b6000819050919050565b60005b838110156200037057808201518184015260208101905062000353565b8381111562000380576000848401525b50505050565b600060028204905060018216806200039f57607f821691505b60208210811415620003b657620003b5620003f2565b5b50919050565b620003c78262000464565b810181811067ffffffffffffffff82111715620003e957620003e862000421565b5b80604052505050565b7f4e487b7100000000000000000000000000000000000000000000000000000000600052602260045260246000fd5b7f4e487b7100000000000000000000000000000000000000000000000000000000600052604160045260246000fd5b600080fd5b600080fd5b600080fd5b600080fd5b6000601f19601f8301169050919050565b620004808162000312565b81146200048c57600080fd5b50565b6200049a8162000346565b8114620004a657600080fd5b50565b61102a80620004b96000396000f3fe6080604052600436106100a75760003560e01c806387d817891161006457806387d81789146101be5780638da5cb5b146101ff578063d2b8b8671461022a578063d7bb99ba14610253578063d7e64c001461025d578063de14c81814610288576100a7565b806303120d46146100ac5780633110235a146100d5578063401938831461010057806363fd9e381461012b5780636f7bc9be146101565780637284e41614610193575b600080fd5b3480156100b857600080fd5b506100d360048036038101906100ce9190610ab5565b6102b1565b005b3480156100e157600080fd5b506100ea6103ea565b6040516100f79190610c5d565b60405180910390f35b34801561010c57600080fd5b506101156103f0565b6040516101229190610c5d565b60405180910390f35b34801561013757600080fd5b506101406103f6565b60405161014d9190610c5d565b60405180910390f35b34801561016257600080fd5b5061017d60048036038101906101789190610a88565b6103fc565b60405161018a9190610c5d565b60405180910390f35b34801561019f57600080fd5b506101a8610414565b6040516101b59190610be1565b60405180910390f35b3480156101ca57600080fd5b506101e560048036038101906101e09190610b24565b6104a2565b6040516101f6959493929190610c03565b60405180910390f35b34801561020b57600080fd5b5061021461059d565b6040516102219190610bc6565b60405180910390f35b34801561023657600080fd5b50610251600480360381019061024c9190610b24565b6105c1565b005b61025b61071a565b005b34801561026957600080fd5b506102726107bf565b60405161027f9190610c5d565b60405180910390f35b34801561029457600080fd5b506102af60048036038101906102aa9190610b24565b6107c5565b005b60008054906101000a900473ffffffffffffffffffffffffffffffffffffffff1673ffffffffffffffffffffffffffffffffffffffff163373ffffffffffffffffffffffffffffffffffffffff161461030957600080fd5b6000600780549050905060076001816001815401808255809150500390600052602060002090505060006007828154811061034757610346610f2c565b5b906000526020600020906005020190508481600001908051906020019061036f929190610936565b50838160010181905550828160020160006101000a81548173ffffffffffffffffffffffffffffffffffffffff021916908373ffffffffffffffffffffffffffffffffffffffff16021790555060008160020160146101000a81548160ff021916908315150217905550600081600401819055505050505050565b60035481565b60045481565b60025481565b60066020528060005260406000206000915090505481565b6001805461042190610e0d565b80601f016020809104026020016040519081016040528092919081815260200182805461044d90610e0d565b801561049a5780601f1061046f5761010080835404028352916020019161049a565b820191906000526020600020905b81548152906001019060200180831161047d57829003601f168201915b505050505081565b600781815481106104b257600080fd5b90600052602060002090600502016000915090508060000180546104d590610e0d565b80601f016020809104026020016040519081016040528092919081815260200182805461050190610e0d565b801561054e5780601f106105235761010080835404028352916020019161054e565b820191906000526020600020905b81548152906001019060200180831161053157829003601f168201915b5050505050908060010154908060020160009054906101000a900473ffffffffffffffffffffffffffffffffffffffff16908060020160149054906101000a900460ff16908060040154905085565b60008054906101000a900473ffffffffffffffffffffffffffffffffffffffff1681565b60008054906101000a900473ffffffffffffffffffffffffffffffffffffffff1673ffffffffffffffffffffffffffffffffffffffff163373ffffffffffffffffffffffffffffffffffffffff161461061957600080fd5b60006007828154811061062f5761062e610f2c565b5b906000526020600020906005020190508060020160149054906101000a900460ff161561065b57600080fd5b806001015447101561066c57600080fd5b600260055461067b9190610d40565b81600401541161068a57600080fd5b8060020160009054906101000a900473ffffffffffffffffffffffffffffffffffffffff1673ffffffffffffffffffffffffffffffffffffffff166108fc82600101549081150290604051600060405180830381858888f193505050501580156106f8573d6000803e3d6000fd5b5060018160020160146101000a81548160ff0219169083151502179055505050565b60025434101561072957600080fd5b60035434111561073857600080fd5b600061074d344761090a90919063ffffffff16565b905060045481111561075e57600080fd5b34600660003373ffffffffffffffffffffffffffffffffffffffff1673ffffffffffffffffffffffffffffffffffffffff168152602001908152602001600020819055506001600560008282546107b59190610cea565b9250508190555050565b60055481565b6000600782815481106107db576107da610f2c565b5b906000526020600020906005020190506000600660003373ffffffffffffffffffffffffffffffffffffffff1673ffffffffffffffffffffffffffffffffffffffff168152602001908152602001600020541161083757600080fd5b8060030160003373ffffffffffffffffffffffffffffffffffffffff1673ffffffffffffffffffffffffffffffffffffffff16815260200190815260200160002060009054906101000a900460ff161561089057600080fd5b60018160030160003373ffffffffffffffffffffffffffffffffffffffff1673ffffffffffffffffffffffffffffffffffffffff16815260200190815260200160002060006101000a81548160ff02191690831515021790555060018160040160008282546108ff9190610cea565b925050819055505050565b60008082846109199190610cea565b90508381101561092c5761092b610e70565b5b8091505092915050565b82805461094290610e0d565b90600052602060002090601f01602090048101928261096457600085556109ab565b82601f1061097d57805160ff19168380011785556109ab565b828001600101855582156109ab579182015b828111156109aa57825182559160200191906001019061098f565b5b5090506109b891906109bc565b5090565b5b808211156109d55760008160009055506001016109bd565b5090565b60006109ec6109e784610c9d565b610c78565b905082815260208101848484011115610a0857610a07610f8f565b5b610a13848285610dcb565b509392505050565b600081359050610a2a81610faf565b92915050565b600081359050610a3f81610fc6565b92915050565b600082601f830112610a5a57610a59610f8a565b5b8135610a6a8482602086016109d9565b91505092915050565b600081359050610a8281610fdd565b92915050565b600060208284031215610a9e57610a9d610f99565b5b6000610aac84828501610a1b565b91505092915050565b600080600060608486031215610ace57610acd610f99565b5b600084013567ffffffffffffffff811115610aec57610aeb610f94565b5b610af886828701610a45565b9350506020610b0986828701610a73565b9250506040610b1a86828701610a30565b9150509250925092565b600060208284031215610b3a57610b39610f99565b5b6000610b4884828501610a73565b91505092915050565b610b5a81610d83565b82525050565b610b6981610d71565b82525050565b610b7881610d95565b82525050565b6000610b8982610cce565b610b938185610cd9565b9350610ba3818560208601610dda565b610bac81610f9e565b840191505092915050565b610bc081610dc1565b82525050565b6000602082019050610bdb6000830184610b60565b92915050565b60006020820190508181036000830152610bfb8184610b7e565b905092915050565b600060a0820190508181036000830152610c1d8188610b7e565b9050610c2c6020830187610bb7565b610c396040830186610b51565b610c466060830185610b6f565b610c536080830184610bb7565b9695505050505050565b6000602082019050610c726000830184610bb7565b92915050565b6000610c82610c93565b9050610c8e8282610e3f565b919050565b6000604051905090565b600067ffffffffffffffff821115610cb857610cb7610f5b565b5b610cc182610f9e565b9050602081019050919050565b600081519050919050565b600082825260208201905092915050565b6000610cf582610dc1565b9150610d0083610dc1565b9250827fffffffffffffffffffffffffffffffffffffffffffffffffffffffffffffffff03821115610d3557610d34610e9f565b5b828201905092915050565b6000610d4b82610dc1565b9150610d5683610dc1565b925082610d6657610d65610ece565b5b828204905092915050565b6000610d7c82610da1565b9050919050565b6000610d8e82610da1565b9050919050565b60008115159050919050565b600073ffffffffffffffffffffffffffffffffffffffff82169050919050565b6000819050919050565b82818337600083830152505050565b60005b83811015610df8578082015181840152602081019050610ddd565b83811115610e07576000848401525b50505050565b60006002820490506001821680610e2557607f821691505b60208210811415610e3957610e38610efd565b5b50919050565b610e4882610f9e565b810181811067ffffffffffffffff82111715610e6757610e66610f5b565b5b80604052505050565b7f4e487b7100000000000000000000000000000000000000000000000000000000600052600160045260246000fd5b7f4e487b7100000000000000000000000000000000000000000000000000000000600052601160045260246000fd5b7f4e487b7100000000000000000000000000000000000000000000000000000000600052601260045260246000fd5b7f4e487b7100000000000000000000000000000000000000000000000000000000600052602260045260246000fd5b7f4e487b7100000000000000000000000000000000000000000000000000000000600052603260045260246000fd5b7f4e487b7100000000000000000000000000000000000000000000000000000000600052604160045260246000fd5b600080fd5b600080fd5b600080fd5b600080fd5b6000601f19601f8301169050919050565b610fb881610d71565b8114610fc357600080fd5b50565b610fcf81610d83565b8114610fda57600080fd5b50565b610fe681610dc1565b8114610ff157600080fd5b5056fea2646970667358221220c1516db7eb4aae5fe1b4957890dc5f956d01e751210b46d46a4dc02d5febe53c64736f6c63430008050033","opcodes":"PUSH1 0x80 PUSH1 0x40 MSTORE CALLVALUE DUP1 ISZERO PUSH3 0x11 JUMPI PUSH1 0x0 DUP1 REVERT JUMPDEST POP PUSH1 0x40 MLOAD PUSH3 0x14E3 CODESIZE SUB DUP1 PUSH3 0x14E3 DUP4 CODECOPY DUP2 DUP2 ADD PUSH1 0x40 MSTORE DUP2 ADD SWAP1 PUSH3 0x37 SWAP2 SWAP1 PUSH3 0x20C JUMP JUMPDEST DUP1 PUSH1 0x0 DUP1 PUSH2 0x100 EXP DUP2 SLOAD DUP2 PUSH20 0xFFFFFFFFFFFFFFFFFFFFFFFFFFFFFFFFFFFFFFFF MUL NOT AND SWAP1 DUP4 PUSH20 0xFFFFFFFFFFFFFFFFFFFFFFFFFFFFFFFFFFFFFFFF AND MUL OR SWAP1 SSTORE POP DUP5 PUSH1 0x1 SWAP1 DUP1 MLOAD SWAP1 PUSH1 0x20 ADD SWAP1 PUSH3 0x8F SWAP3 SWAP2 SWAP1 PUSH3 0xB0 JUMP JUMPDEST POP DUP4 PUSH1 0x2 DUP2 SWAP1 SSTORE POP DUP3 PUSH1 0x3 DUP2 SWAP1 SSTORE POP DUP2 PUSH1 0x4 DUP2 SWAP1 SSTORE POP POP POP POP POP POP PUSH3 0x4A9 JUMP JUMPDEST DUP3 DUP1 SLOAD PUSH3 0xBE SWAP1 PUSH3 0x386 JUMP JUMPDEST SWAP1 PUSH1 0x0 MSTORE PUSH1 0x20 PUSH1 0x0 KECCAK256 SWAP1 PUSH1 0x1F ADD PUSH1 0x20 SWAP1 DIV DUP2 ADD SWAP3 DUP3 PUSH3 0xE2 JUMPI PUSH1 0x0 DUP6 SSTORE PUSH3 0x12E JUMP JUMPDEST DUP3 PUSH1 0x1F LT PUSH3 0xFD JUMPI DUP1 MLOAD PUSH1 0xFF NOT AND DUP4 DUP1 ADD OR DUP6 SSTORE PUSH3 0x12E JUMP JUMPDEST DUP3 DUP1 ADD PUSH1 0x1 ADD DUP6 SSTORE DUP3 ISZERO PUSH3 0x12E JUMPI SWAP2 DUP3 ADD JUMPDEST DUP3 DUP2 GT ISZERO PUSH3 0x12D JUMPI DUP3 MLOAD DUP3 SSTORE SWAP2 PUSH1 0x20 ADD SWAP2 SWAP1 PUSH1 0x1 ADD SWAP1 PUSH3 0x110 JUMP JUMPDEST JUMPDEST POP SWAP1 POP PUSH3 0x13D SWAP2 SWAP1 PUSH3 0x141 JUMP JUMPDEST POP SWAP1 JUMP JUMPDEST JUMPDEST DUP1 DUP3 GT ISZERO PUSH3 0x15C JUMPI PUSH1 0x0 DUP2 PUSH1 0x0 SWAP1 SSTORE POP PUSH1 0x1 ADD PUSH3 0x142 JUMP JUMPDEST POP SWAP1 JUMP JUMPDEST PUSH1 0x0 PUSH3 0x177 PUSH3 0x171 DUP5 PUSH3 0x2DC JUMP JUMPDEST PUSH3 0x2B3 JUMP JUMPDEST SWAP1 POP DUP3 DUP2 MSTORE PUSH1 0x20 DUP2 ADD DUP5 DUP5 DUP5 ADD GT ISZERO PUSH3 0x196 JUMPI PUSH3 0x195 PUSH3 0x455 JUMP JUMPDEST JUMPDEST PUSH3 0x1A3 DUP5 DUP3 DUP6 PUSH3 0x350 JUMP JUMPDEST POP SWAP4 SWAP3 POP POP POP JUMP JUMPDEST PUSH1 0x0 DUP2 MLOAD SWAP1 POP PUSH3 0x1BC DUP2 PUSH3 0x475 JUMP JUMPDEST SWAP3 SWAP2 POP POP JUMP JUMPDEST PUSH1 0x0 DUP3 PUSH1 0x1F DUP4 ADD SLT PUSH3 0x1DA JUMPI PUSH3 0x1D9 PUSH3 0x450 JUMP JUMPDEST JUMPDEST DUP2 MLOAD PUSH3 0x1EC DUP5 DUP3 PUSH1 0x20 DUP7 ADD PUSH3 0x160 JUMP JUMPDEST SWAP2 POP POP SWAP3 SWAP2 POP POP JUMP JUMPDEST PUSH1 0x0 DUP2 MLOAD SWAP1 POP PUSH3 0x206 DUP2 PUSH3 0x48F JUMP JUMPDEST SWAP3 SWAP2 POP POP JUMP JUMPDEST PUSH1 0x0 DUP1 PUSH1 0x0 DUP1 PUSH1 0x0 PUSH1 0xA0 DUP7 DUP9 SUB SLT ISZERO PUSH3 0x22B JUMPI PUSH3 0x22A PUSH3 0x45F JUMP JUMPDEST JUMPDEST PUSH1 0x0 DUP7 ADD MLOAD PUSH8 0xFFFFFFFFFFFFFFFF DUP2 GT ISZERO PUSH3 0x24C JUMPI PUSH3 0x24B PUSH3 0x45A JUMP JUMPDEST JUMPDEST PUSH3 0x25A DUP9 DUP3 DUP10 ADD PUSH3 0x1C2 JUMP JUMPDEST SWAP6 POP POP PUSH1 0x20 PUSH3 0x26D DUP9 DUP3 DUP10 ADD PUSH3 0x1F5 JUMP JUMPDEST SWAP5 POP POP PUSH1 0x40 PUSH3 0x280 DUP9 DUP3 DUP10 ADD PUSH3 0x1F5 JUMP JUMPDEST SWAP4 POP POP PUSH1 0x60 PUSH3 0x293 DUP9 DUP3 DUP10 ADD PUSH3 0x1F5 JUMP JUMPDEST SWAP3 POP POP PUSH1 0x80 PUSH3 0x2A6 DUP9 DUP3 DUP10 ADD PUSH3 0x1AB JUMP JUMPDEST SWAP2 POP POP SWAP3 SWAP6 POP SWAP3 SWAP6 SWAP1 SWAP4 POP JUMP JUMPDEST PUSH1 0x0 PUSH3 0x2BF PUSH3 0x2D2 JUMP JUMPDEST SWAP1 POP PUSH3 0x2CD DUP3 DUP3 PUSH3 0x3BC JUMP JUMPDEST SWAP2 SWAP1 POP JUMP JUMPDEST PUSH1 0x0 PUSH1 0x40 MLOAD SWAP1 POP SWAP1 JUMP JUMPDEST PUSH1 0x0 PUSH8 0xFFFFFFFFFFFFFFFF DUP3 GT ISZERO PUSH3 0x2FA JUMPI PUSH3 0x2F9 PUSH3 0x421 JUMP JUMPDEST JUMPDEST PUSH3 0x305 DUP3 PUSH3 0x464 JUMP JUMPDEST SWAP1 POP PUSH1 0x20 DUP2 ADD SWAP1 POP SWAP2 SWAP1 POP JUMP JUMPDEST PUSH1 0x0 PUSH3 0x31F DUP3 PUSH3 0x326 JUMP JUMPDEST SWAP1 POP SWAP2 SWAP1 POP JUMP JUMPDEST PUSH1 0x0 PUSH20 0xFFFFFFFFFFFFFFFFFFFFFFFFFFFFFFFFFFFFFFFF DUP3 AND SWAP1 POP SWAP2 SWAP1 POP JUMP JUMPDEST PUSH1 0x0 DUP2 SWAP1 POP SWAP2 SWAP1 POP JUMP JUMPDEST PUSH1 0x0 JUMPDEST DUP4 DUP2 LT ISZERO PUSH3 0x370 JUMPI DUP1 DUP3 ADD MLOAD DUP2 DUP5 ADD MSTORE PUSH1 0x20 DUP2 ADD SWAP1 POP PUSH3 0x353 JUMP JUMPDEST DUP4 DUP2 GT ISZERO PUSH3 0x380 JUMPI PUSH1 0x0 DUP5 DUP5 ADD MSTORE JUMPDEST POP POP POP POP JUMP JUMPDEST PUSH1 0x0 PUSH1 0x2 DUP3 DIV SWAP1 POP PUSH1 0x1 DUP3 AND DUP1 PUSH3 0x39F JUMPI PUSH1 0x7F DUP3 AND SWAP2 POP JUMPDEST PUSH1 0x20 DUP3 LT DUP2 EQ ISZERO PUSH3 0x3B6 JUMPI PUSH3 0x3B5 PUSH3 0x3F2 JUMP JUMPDEST JUMPDEST POP SWAP2 SWAP1 POP JUMP JUMPDEST PUSH3 0x3C7 DUP3 PUSH3 0x464 JUMP JUMPDEST DUP2 ADD DUP2 DUP2 LT PUSH8 0xFFFFFFFFFFFFFFFF DUP3 GT OR ISZERO PUSH3 0x3E9 JUMPI PUSH3 0x3E8 PUSH3 0x421 JUMP JUMPDEST JUMPDEST DUP1 PUSH1 0x40 MSTORE POP POP POP JUMP JUMPDEST PUSH32 0x4E487B7100000000000000000000000000000000000000000000000000000000 PUSH1 0x0 MSTORE PUSH1 0x22 PUSH1 0x4 MSTORE PUSH1 0x24 PUSH1 0x0 REVERT JUMPDEST PUSH32 0x4E487B7100000000000000000000000000000000000000000000000000000000 PUSH1 0x0 MSTORE PUSH1 0x41 PUSH1 0x4 MSTORE PUSH1 0x24 PUSH1 0x0 REVERT JUMPDEST PUSH1 0x0 DUP1 REVERT JUMPDEST PUSH1 0x0 DUP1 REVERT JUMPDEST PUSH1 0x0 DUP1 REVERT JUMPDEST PUSH1 0x0 DUP1 REVERT JUMPDEST PUSH1 0x0 PUSH1 0x1F NOT PUSH1 0x1F DUP4 ADD AND SWAP1 POP SWAP2 SWAP1 POP JUMP JUMPDEST PUSH3 0x480 DUP2 PUSH3 0x312 JUMP JUMPDEST DUP2 EQ PUSH3 0x48C JUMPI PUSH1 0x0 DUP1 REVERT JUMPDEST POP JUMP JUMPDEST PUSH3 0x49A DUP2 PUSH3 0x346 JUMP JUMPDEST DUP2 EQ PUSH3 0x4A6 JUMPI PUSH1 0x0 DUP1 REVERT JUMPDEST POP JUMP JUMPDEST PUSH2 0x102A DUP1 PUSH3 0x4B9 PUSH1 0x0 CODECOPY PUSH1 0x0 RETURN INVALID PUSH1 0x80 PUSH1 0x40 MSTORE PUSH1 0x4 CALLDATASIZE LT PUSH2 0xA7 JUMPI PUSH1 0x0 CALLDATALOAD PUSH1 0xE0 SHR DUP1 PUSH4 0x87D81789 GT PUSH2 0x64 JUMPI DUP1 PUSH4 0x87D81789 EQ PUSH2 0x1BE JUMPI DUP1 PUSH4 0x8DA5CB5B EQ PUSH2 0x1FF JUMPI DUP1 PUSH4 0xD2B8B867 EQ PUSH2 0x22A JUMPI DUP1 PUSH4 0xD7BB99BA EQ PUSH2 0x253 JUMPI DUP1 PUSH4 0xD7E64C00 EQ PUSH2 0x25D JUMPI DUP1 PUSH4 0xDE14C818 EQ PUSH2 0x288 JUMPI PUSH2 0xA7 JUMP JUMPDEST DUP1 PUSH4 0x3120D46 EQ PUSH2 0xAC JUMPI DUP1 PUSH4 0x3110235A EQ PUSH2 0xD5 JUMPI DUP1 PUSH4 0x40193883 EQ PUSH2 0x100 JUMPI DUP1 PUSH4 0x63FD9E38 EQ PUSH2 0x12B JUMPI DUP1 PUSH4 0x6F7BC9BE EQ PUSH2 0x156 JUMPI DUP1 PUSH4 0x7284E416 EQ PUSH2 0x193 JUMPI JUMPDEST PUSH1 0x0 DUP1 REVERT JUMPDEST CALLVALUE DUP1 ISZERO PUSH2 0xB8 JUMPI PUSH1 0x0 DUP1 REVERT JUMPDEST POP PUSH2 0xD3 PUSH1 0x4 DUP1 CALLDATASIZE SUB DUP2 ADD SWAP1 PUSH2 0xCE SWAP2 SWAP1 PUSH2 0xAB5 JUMP JUMPDEST PUSH2 0x2B1 JUMP JUMPDEST STOP JUMPDEST CALLVALUE DUP1 ISZERO PUSH2 0xE1 JUMPI PUSH1 0x0 DUP1 REVERT JUMPDEST POP PUSH2 0xEA PUSH2 0x3EA JUMP JUMPDEST PUSH1 0x40 MLOAD PUSH2 0xF7 SWAP2 SWAP1 PUSH2 0xC5D JUMP JUMPDEST PUSH1 0x40 MLOAD DUP1 SWAP2 SUB SWAP1 RETURN JUMPDEST CALLVALUE DUP1 ISZERO PUSH2 0x10C JUMPI PUSH1 0x0 DUP1 REVERT JUMPDEST POP PUSH2 0x115 PUSH2 0x3F0 JUMP JUMPDEST PUSH1 0x40 MLOAD PUSH2 0x122 SWAP2 SWAP1 PUSH2 0xC5D JUMP JUMPDEST PUSH1 0x40 MLOAD DUP1 SWAP2 SUB SWAP1 RETURN JUMPDEST CALLVALUE DUP1 ISZERO PUSH2 0x137 JUMPI PUSH1 0x0 DUP1 REVERT JUMPDEST POP PUSH2 0x140 PUSH2 0x3F6 JUMP JUMPDEST PUSH1 0x40 MLOAD PUSH2 0x14D SWAP2 SWAP1 PUSH2 0xC5D JUMP JUMPDEST PUSH1 0x40 MLOAD DUP1 SWAP2 SUB SWAP1 RETURN JUMPDEST CALLVALUE DUP1 ISZERO PUSH2 0x162 JUMPI PUSH1 0x0 DUP1 REVERT JUMPDEST POP PUSH2 0x17D PUSH1 0x4 DUP1 CALLDATASIZE SUB DUP2 ADD SWAP1 PUSH2 0x178 SWAP2 SWAP1 PUSH2 0xA88 JUMP JUMPDEST PUSH2 0x3FC JUMP JUMPDEST PUSH1 0x40 MLOAD PUSH2 0x18A SWAP2 SWAP1 PUSH2 0xC5D JUMP JUMPDEST PUSH1 0x40 MLOAD DUP1 SWAP2 SUB SWAP1 RETURN JUMPDEST CALLVALUE DUP1 ISZERO PUSH2 0x19F JUMPI PUSH1 0x0 DUP1 REVERT JUMPDEST POP PUSH2 0x1A8 PUSH2 0x414 JUMP JUMPDEST PUSH1 0x40 MLOAD PUSH2 0x1B5 SWAP2 SWAP1 PUSH2 0xBE1 JUMP JUMPDEST PUSH1 0x40 MLOAD DUP1 SWAP2 SUB SWAP1 RETURN JUMPDEST CALLVALUE DUP1 ISZERO PUSH2 0x1CA JUMPI PUSH1 0x0 DUP1 REVERT JUMPDEST POP PUSH2 0x1E5 PUSH1 0x4 DUP1 CALLDATASIZE SUB DUP2 ADD SWAP1 PUSH2 0x1E0 SWAP2 SWAP1 PUSH2 0xB24 JUMP JUMPDEST PUSH2 0x4A2 JUMP JUMPDEST PUSH1 0x40 MLOAD PUSH2 0x1F6 SWAP6 SWAP5 SWAP4 SWAP3 SWAP2 SWAP1 PUSH2 0xC03 JUMP JUMPDEST PUSH1 0x40 MLOAD DUP1 SWAP2 SUB SWAP1 RETURN JUMPDEST CALLVALUE DUP1 ISZERO PUSH2 0x20B JUMPI PUSH1 0x0 DUP1 REVERT JUMPDEST POP PUSH2 0x214 PUSH2 0x59D JUMP JUMPDEST PUSH1 0x40 MLOAD PUSH2 0x221 SWAP2 SWAP1 PUSH2 0xBC6 JUMP JUMPDEST PUSH1 0x40 MLOAD DUP1 SWAP2 SUB SWAP1 RETURN JUMPDEST CALLVALUE DUP1 ISZERO PUSH2 0x236 JUMPI PUSH1 0x0 DUP1 REVERT JUMPDEST POP PUSH2 0x251 PUSH1 0x4 DUP1 CALLDATASIZE SUB DUP2 ADD SWAP1 PUSH2 0x24C SWAP2 SWAP1 PUSH2 0xB24 JUMP JUMPDEST PUSH2 0x5C1 JUMP JUMPDEST STOP JUMPDEST PUSH2 0x25B PUSH2 0x71A JUMP JUMPDEST STOP JUMPDEST CALLVALUE DUP1 ISZERO PUSH2 0x269 JUMPI PUSH1 0x0 DUP1 REVERT JUMPDEST POP PUSH2 0x272 PUSH2 0x7BF JUMP JUMPDEST PUSH1 0x40 MLOAD PUSH2 0x27F SWAP2 SWAP1 PUSH2 0xC5D JUMP JUMPDEST PUSH1 0x40 MLOAD DUP1 SWAP2 SUB SWAP1 RETURN JUMPDEST CALLVALUE DUP1 ISZERO PUSH2 0x294 JUMPI PUSH1 0x0 DUP1 REVERT JUMPDEST POP PUSH2 0x2AF PUSH1 0x4 DUP1 CALLDATASIZE SUB DUP2 ADD SWAP1 PUSH2 0x2AA SWAP2 SWAP1 PUSH2 0xB24 JUMP JUMPDEST PUSH2 0x7C5 JUMP JUMPDEST STOP JUMPDEST PUSH1 0x0 DUP1 SLOAD SWAP1 PUSH2 0x100 EXP SWAP1 DIV PUSH20 0xFFFFFFFFFFFFFFFFFFFFFFFFFFFFFFFFFFFFFFFF AND PUSH20 0xFFFFFFFFFFFFFFFFFFFFFFFFFFFFFFFFFFFFFFFF AND CALLER PUSH20 0xFFFFFFFFFFFFFFFFFFFFFFFFFFFFFFFFFFFFFFFF AND EQ PUSH2 0x309 JUMPI PUSH1 0x0 DUP1 REVERT JUMPDEST PUSH1 0x0 PUSH1 0x7 DUP1 SLOAD SWAP1 POP SWAP1 POP PUSH1 0x7 PUSH1 0x1 DUP2 PUSH1 0x1 DUP2 SLOAD ADD DUP1 DUP3 SSTORE DUP1 SWAP2 POP POP SUB SWAP1 PUSH1 0x0 MSTORE PUSH1 0x20 PUSH1 0x0 KECCAK256 SWAP1 POP POP PUSH1 0x0 PUSH1 0x7 DUP3 DUP2 SLOAD DUP2 LT PUSH2 0x347 JUMPI PUSH2 0x346 PUSH2 0xF2C JUMP JUMPDEST JUMPDEST SWAP1 PUSH1 0x0 MSTORE PUSH1 0x20 PUSH1 0x0 KECCAK256 SWAP1 PUSH1 0x5 MUL ADD SWAP1 POP DUP5 DUP2 PUSH1 0x0 ADD SWAP1 DUP1 MLOAD SWAP1 PUSH1 0x20 ADD SWAP1 PUSH2 0x36F SWAP3 SWAP2 SWAP1 PUSH2 0x936 JUMP JUMPDEST POP DUP4 DUP2 PUSH1 0x1 ADD DUP2 SWAP1 SSTORE POP DUP3 DUP2 PUSH1 0x2 ADD PUSH1 0x0 PUSH2 0x100 EXP DUP2 SLOAD DUP2 PUSH20 0xFFFFFFFFFFFFFFFFFFFFFFFFFFFFFFFFFFFFFFFF MUL NOT AND SWAP1 DUP4 PUSH20 0xFFFFFFFFFFFFFFFFFFFFFFFFFFFFFFFFFFFFFFFF AND MUL OR SWAP1 SSTORE POP PUSH1 0x0 DUP2 PUSH1 0x2 ADD PUSH1 0x14 PUSH2 0x100 EXP DUP2 SLOAD DUP2 PUSH1 0xFF MUL NOT AND SWAP1 DUP4 ISZERO ISZERO MUL OR SWAP1 SSTORE POP PUSH1 0x0 DUP2 PUSH1 0x4 ADD DUP2 SWAP1 SSTORE POP POP POP POP POP POP JUMP JUMPDEST PUSH1 0x3 SLOAD DUP2 JUMP JUMPDEST PUSH1 0x4 SLOAD DUP2 JUMP JUMPDEST PUSH1 0x2 SLOAD DUP2 JUMP JUMPDEST PUSH1 0x6 PUSH1 0x20 MSTORE DUP1 PUSH1 0x0 MSTORE PUSH1 0x40 PUSH1 0x0 KECCAK256 PUSH1 0x0 SWAP2 POP SWAP1 POP SLOAD DUP2 JUMP JUMPDEST PUSH1 0x1 DUP1 SLOAD PUSH2 0x421 SWAP1 PUSH2 0xE0D JUMP JUMPDEST DUP1 PUSH1 0x1F ADD PUSH1 0x20 DUP1 SWAP2 DIV MUL PUSH1 0x20 ADD PUSH1 0x40 MLOAD SWAP1 DUP2 ADD PUSH1 0x40 MSTORE DUP1 SWAP3 SWAP2 SWAP1 DUP2 DUP2 MSTORE PUSH1 0x20 ADD DUP3 DUP1 SLOAD PUSH2 0x44D SWAP1 PUSH2 0xE0D JUMP JUMPDEST DUP1 ISZERO PUSH2 0x49A JUMPI DUP1 PUSH1 0x1F LT PUSH2 0x46F JUMPI PUSH2 0x100 DUP1 DUP4 SLOAD DIV MUL DUP4 MSTORE SWAP2 PUSH1 0x20 ADD SWAP2 PUSH2 0x49A JUMP JUMPDEST DUP3 ADD SWAP2 SWAP1 PUSH1 0x0 MSTORE PUSH1 0x20 PUSH1 0x0 KECCAK256 SWAP1 JUMPDEST DUP2 SLOAD DUP2 MSTORE SWAP1 PUSH1 0x1 ADD SWAP1 PUSH1 0x20 ADD DUP1 DUP4 GT PUSH2 0x47D JUMPI DUP3 SWAP1 SUB PUSH1 0x1F AND DUP3 ADD SWAP2 JUMPDEST POP POP POP POP POP DUP2 JUMP JUMPDEST PUSH1 0x7 DUP2 DUP2 SLOAD DUP2 LT PUSH2 0x4B2 JUMPI PUSH1 0x0 DUP1 REVERT JUMPDEST SWAP1 PUSH1 0x0 MSTORE PUSH1 0x20 PUSH1 0x0 KECCAK256 SWAP1 PUSH1 0x5 MUL ADD PUSH1 0x0 SWAP2 POP SWAP1 POP DUP1 PUSH1 0x0 ADD DUP1 SLOAD PUSH2 0x4D5 SWAP1 PUSH2 0xE0D JUMP JUMPDEST DUP1 PUSH1 0x1F ADD PUSH1 0x20 DUP1 SWAP2 DIV MUL PUSH1 0x20 ADD PUSH1 0x40 MLOAD SWAP1 DUP2 ADD PUSH1 0x40 MSTORE DUP1 SWAP3 SWAP2 SWAP1 DUP2 DUP2 MSTORE PUSH1 0x20 ADD DUP3 DUP1 SLOAD PUSH2 0x501 SWAP1 PUSH2 0xE0D JUMP JUMPDEST DUP1 ISZERO PUSH2 0x54E JUMPI DUP1 PUSH1 0x1F LT PUSH2 0x523 JUMPI PUSH2 0x100 DUP1 DUP4 SLOAD DIV MUL DUP4 MSTORE SWAP2 PUSH1 0x20 ADD SWAP2 PUSH2 0x54E JUMP JUMPDEST DUP3 ADD SWAP2 SWAP1 PUSH1 0x0 MSTORE PUSH1 0x20 PUSH1 0x0 KECCAK256 SWAP1 JUMPDEST DUP2 SLOAD DUP2 MSTORE SWAP1 PUSH1 0x1 ADD SWAP1 PUSH1 0x20 ADD DUP1 DUP4 GT PUSH2 0x531 JUMPI DUP3 SWAP1 SUB PUSH1 0x1F AND DUP3 ADD SWAP2 JUMPDEST POP POP POP POP POP SWAP1 DUP1 PUSH1 0x1 ADD SLOAD SWAP1 DUP1 PUSH1 0x2 ADD PUSH1 0x0 SWAP1 SLOAD SWAP1 PUSH2 0x100 EXP SWAP1 DIV PUSH20 0xFFFFFFFFFFFFFFFFFFFFFFFFFFFFFFFFFFFFFFFF AND SWAP1 DUP1 PUSH1 0x2 ADD PUSH1 0x14 SWAP1 SLOAD SWAP1 PUSH2 0x100 EXP SWAP1 DIV PUSH1 0xFF AND SWAP1 DUP1 PUSH1 0x4 ADD SLOAD SWAP1 POP DUP6 JUMP JUMPDEST PUSH1 0x0 DUP1 SLOAD SWAP1 PUSH2 0x100 EXP SWAP1 DIV PUSH20 0xFFFFFFFFFFFFFFFFFFFFFFFFFFFFFFFFFFFFFFFF AND DUP2 JUMP JUMPDEST PUSH1 0x0 DUP1 SLOAD SWAP1 PUSH2 0x100 EXP SWAP1 DIV PUSH20 0xFFFFFFFFFFFFFFFFFFFFFFFFFFFFFFFFFFFFFFFF AND PUSH20 0xFFFFFFFFFFFFFFFFFFFFFFFFFFFFFFFFFFFFFFFF AND CALLER PUSH20 0xFFFFFFFFFFFFFFFFFFFFFFFFFFFFFFFFFFFFFFFF AND EQ PUSH2 0x619 JUMPI PUSH1 0x0 DUP1 REVERT JUMPDEST PUSH1 0x0 PUSH1 0x7 DUP3 DUP2 SLOAD DUP2 LT PUSH2 0x62F JUMPI PUSH2 0x62E PUSH2 0xF2C JUMP JUMPDEST JUMPDEST SWAP1 PUSH1 0x0 MSTORE PUSH1 0x20 PUSH1 0x0 KECCAK256 SWAP1 PUSH1 0x5 MUL ADD SWAP1 POP DUP1 PUSH1 0x2 ADD PUSH1 0x14 SWAP1 SLOAD SWAP1 PUSH2 0x100 EXP SWAP1 DIV PUSH1 0xFF AND ISZERO PUSH2 0x65B JUMPI PUSH1 0x0 DUP1 REVERT JUMPDEST DUP1 PUSH1 0x1 ADD SLOAD SELFBALANCE LT ISZERO PUSH2 0x66C JUMPI PUSH1 0x0 DUP1 REVERT JUMPDEST PUSH1 0x2 PUSH1 0x5 SLOAD PUSH2 0x67B SWAP2 SWAP1 PUSH2 0xD40 JUMP JUMPDEST DUP2 PUSH1 0x4 ADD SLOAD GT PUSH2 0x68A JUMPI PUSH1 0x0 DUP1 REVERT JUMPDEST DUP1 PUSH1 0x2 ADD PUSH1 0x0 SWAP1 SLOAD SWAP1 PUSH2 0x100 EXP SWAP1 DIV PUSH20 0xFFFFFFFFFFFFFFFFFFFFFFFFFFFFFFFFFFFFFFFF AND PUSH20 0xFFFFFFFFFFFFFFFFFFFFFFFFFFFFFFFFFFFFFFFF AND PUSH2 0x8FC DUP3 PUSH1 0x1 ADD SLOAD SWAP1 DUP2 ISZERO MUL SWAP1 PUSH1 0x40 MLOAD PUSH1 0x0 PUSH1 0x40 MLOAD DUP1 DUP4 SUB DUP2 DUP6 DUP9 DUP9 CALL SWAP4 POP POP POP POP ISZERO DUP1 ISZERO PUSH2 0x6F8 JUMPI RETURNDATASIZE PUSH1 0x0 DUP1 RETURNDATACOPY RETURNDATASIZE PUSH1 0x0 REVERT JUMPDEST POP PUSH1 0x1 DUP2 PUSH1 0x2 ADD PUSH1 0x14 PUSH2 0x100 EXP DUP2 SLOAD DUP2 PUSH1 0xFF MUL NOT AND SWAP1 DUP4 ISZERO ISZERO MUL OR SWAP1 SSTORE POP POP POP JUMP JUMPDEST PUSH1 0x2 SLOAD CALLVALUE LT ISZERO PUSH2 0x729 JUMPI PUSH1 0x0 DUP1 REVERT JUMPDEST PUSH1 0x3 SLOAD CALLVALUE GT ISZERO PUSH2 0x738 JUMPI PUSH1 0x0 DUP1 REVERT JUMPDEST PUSH1 0x0 PUSH2 0x74D CALLVALUE SELFBALANCE PUSH2 0x90A SWAP1 SWAP2 SWAP1 PUSH4 0xFFFFFFFF AND JUMP JUMPDEST SWAP1 POP PUSH1 0x4 SLOAD DUP2 GT ISZERO PUSH2 0x75E JUMPI PUSH1 0x0 DUP1 REVERT JUMPDEST CALLVALUE PUSH1 0x6 PUSH1 0x0 CALLER PUSH20 0xFFFFFFFFFFFFFFFFFFFFFFFFFFFFFFFFFFFFFFFF AND PUSH20 0xFFFFFFFFFFFFFFFFFFFFFFFFFFFFFFFFFFFFFFFF AND DUP2 MSTORE PUSH1 0x20 ADD SWAP1 DUP2 MSTORE PUSH1 0x20 ADD PUSH1 0x0 KECCAK256 DUP2 SWAP1 SSTORE POP PUSH1 0x1 PUSH1 0x5 PUSH1 0x0 DUP3 DUP3 SLOAD PUSH2 0x7B5 SWAP2 SWAP1 PUSH2 0xCEA JUMP JUMPDEST SWAP3 POP POP DUP2 SWAP1 SSTORE POP POP JUMP JUMPDEST PUSH1 0x5 SLOAD DUP2 JUMP JUMPDEST PUSH1 0x0 PUSH1 0x7 DUP3 DUP2 SLOAD DUP2 LT PUSH2 0x7DB JUMPI PUSH2 0x7DA PUSH2 0xF2C JUMP JUMPDEST JUMPDEST SWAP1 PUSH1 0x0 MSTORE PUSH1 0x20 PUSH1 0x0 KECCAK256 SWAP1 PUSH1 0x5 MUL ADD SWAP1 POP PUSH1 0x0 PUSH1 0x6 PUSH1 0x0 CALLER PUSH20 0xFFFFFFFFFFFFFFFFFFFFFFFFFFFFFFFFFFFFFFFF AND PUSH20 0xFFFFFFFFFFFFFFFFFFFFFFFFFFFFFFFFFFFFFFFF AND DUP2 MSTORE PUSH1 0x20 ADD SWAP1 DUP2 MSTORE PUSH1 0x20 ADD PUSH1 0x0 KECCAK256 SLOAD GT PUSH2 0x837 JUMPI PUSH1 0x0 DUP1 REVERT JUMPDEST DUP1 PUSH1 0x3 ADD PUSH1 0x0 CALLER PUSH20 0xFFFFFFFFFFFFFFFFFFFFFFFFFFFFFFFFFFFFFFFF AND PUSH20 0xFFFFFFFFFFFFFFFFFFFFFFFFFFFFFFFFFFFFFFFF AND DUP2 MSTORE PUSH1 0x20 ADD SWAP1 DUP2 MSTORE PUSH1 0x20 ADD PUSH1 0x0 KECCAK256 PUSH1 0x0 SWAP1 SLOAD SWAP1 PUSH2 0x100 EXP SWAP1 DIV PUSH1 0xFF AND ISZERO PUSH2 0x890 JUMPI PUSH1 0x0 DUP1 REVERT JUMPDEST PUSH1 0x1 DUP2 PUSH1 0x3 ADD PUSH1 0x0 CALLER PUSH20 0xFFFFFFFFFFFFFFFFFFFFFFFFFFFFFFFFFFFFFFFF AND PUSH20 0xFFFFFFFFFFFFFFFFFFFFFFFFFFFFFFFFFFFFFFFF AND DUP2 MSTORE PUSH1 0x20 ADD SWAP1 DUP2 MSTORE PUSH1 0x20 ADD PUSH1 0x0 KECCAK256 PUSH1 0x0 PUSH2 0x100 EXP DUP2 SLOAD DUP2 PUSH1 0xFF MUL NOT AND SWAP1 DUP4 ISZERO ISZERO MUL OR SWAP1 SSTORE POP PUSH1 0x1 DUP2 PUSH1 0x4 ADD PUSH1 0x0 DUP3 DUP3 SLOAD PUSH2 0x8FF SWAP2 SWAP1 PUSH2 0xCEA JUMP JUMPDEST SWAP3 POP POP DUP2 SWAP1 SSTORE POP POP POP JUMP JUMPDEST PUSH1 0x0 DUP1 DUP3 DUP5 PUSH2 0x919 SWAP2 SWAP1 PUSH2 0xCEA JUMP JUMPDEST SWAP1 POP DUP4 DUP2 LT ISZERO PUSH2 0x92C JUMPI PUSH2 0x92B PUSH2 0xE70 JUMP JUMPDEST JUMPDEST DUP1 SWAP2 POP POP SWAP3 SWAP2 POP POP JUMP JUMPDEST DUP3 DUP1 SLOAD PUSH2 0x942 SWAP1 PUSH2 0xE0D JUMP JUMPDEST SWAP1 PUSH1 0x0 MSTORE PUSH1 0x20 PUSH1 0x0 KECCAK256 SWAP1 PUSH1 0x1F ADD PUSH1 0x20 SWAP1 DIV DUP2 ADD SWAP3 DUP3 PUSH2 0x964 JUMPI PUSH1 0x0 DUP6 SSTORE PUSH2 0x9AB JUMP JUMPDEST DUP3 PUSH1 0x1F LT PUSH2 0x97D JUMPI DUP1 MLOAD PUSH1 0xFF NOT AND DUP4 DUP1 ADD OR DUP6 SSTORE PUSH2 0x9AB JUMP JUMPDEST DUP3 DUP1 ADD PUSH1 0x1 ADD DUP6 SSTORE DUP3 ISZERO PUSH2 0x9AB JUMPI SWAP2 DUP3 ADD JUMPDEST DUP3 DUP2 GT ISZERO PUSH2 0x9AA JUMPI DUP3 MLOAD DUP3 SSTORE SWAP2 PUSH1 0x20 ADD SWAP2 SWAP1 PUSH1 0x1 ADD SWAP1 PUSH2 0x98F JUMP JUMPDEST JUMPDEST POP SWAP1 POP PUSH2 0x9B8 SWAP2 SWAP1 PUSH2 0x9BC JUMP JUMPDEST POP SWAP1 JUMP JUMPDEST JUMPDEST DUP1 DUP3 GT ISZERO PUSH2 0x9D5 JUMPI PUSH1 0x0 DUP2 PUSH1 0x0 SWAP1 SSTORE POP PUSH1 0x1 ADD PUSH2 0x9BD JUMP JUMPDEST POP SWAP1 JUMP JUMPDEST PUSH1 0x0 PUSH2 0x9EC PUSH2 0x9E7 DUP5 PUSH2 0xC9D JUMP JUMPDEST PUSH2 0xC78 JUMP JUMPDEST SWAP1 POP DUP3 DUP2 MSTORE PUSH1 0x20 DUP2 ADD DUP5 DUP5 DUP5 ADD GT ISZERO PUSH2 0xA08 JUMPI PUSH2 0xA07 PUSH2 0xF8F JUMP JUMPDEST JUMPDEST PUSH2 0xA13 DUP5 DUP3 DUP6 PUSH2 0xDCB JUMP JUMPDEST POP SWAP4 SWAP3 POP POP POP JUMP JUMPDEST PUSH1 0x0 DUP2 CALLDATALOAD SWAP1 POP PUSH2 0xA2A DUP2 PUSH2 0xFAF JUMP JUMPDEST SWAP3 SWAP2 POP POP JUMP JUMPDEST PUSH1 0x0 DUP2 CALLDATALOAD SWAP1 POP PUSH2 0xA3F DUP2 PUSH2 0xFC6 JUMP JUMPDEST SWAP3 SWAP2 POP POP JUMP JUMPDEST PUSH1 0x0 DUP3 PUSH1 0x1F DUP4 ADD SLT PUSH2 0xA5A JUMPI PUSH2 0xA59 PUSH2 0xF8A JUMP JUMPDEST JUMPDEST DUP2 CALLDATALOAD PUSH2 0xA6A DUP5 DUP3 PUSH1 0x20 DUP7 ADD PUSH2 0x9D9 JUMP JUMPDEST SWAP2 POP POP SWAP3 SWAP2 POP POP JUMP JUMPDEST PUSH1 0x0 DUP2 CALLDATALOAD SWAP1 POP PUSH2 0xA82 DUP2 PUSH2 0xFDD JUMP JUMPDEST SWAP3 SWAP2 POP POP JUMP JUMPDEST PUSH1 0x0 PUSH1 0x20 DUP3 DUP5 SUB SLT ISZERO PUSH2 0xA9E JUMPI PUSH2 0xA9D PUSH2 0xF99 JUMP JUMPDEST JUMPDEST PUSH1 0x0 PUSH2 0xAAC DUP5 DUP3 DUP6 ADD PUSH2 0xA1B JUMP JUMPDEST SWAP2 POP POP SWAP3 SWAP2 POP POP JUMP JUMPDEST PUSH1 0x0 DUP1 PUSH1 0x0 PUSH1 0x60 DUP5 DUP7 SUB SLT ISZERO PUSH2 0xACE JUMPI PUSH2 0xACD PUSH2 0xF99 JUMP JUMPDEST JUMPDEST PUSH1 0x0 DUP5 ADD CALLDATALOAD PUSH8 0xFFFFFFFFFFFFFFFF DUP2 GT ISZERO PUSH2 0xAEC JUMPI PUSH2 0xAEB PUSH2 0xF94 JUMP JUMPDEST JUMPDEST PUSH2 0xAF8 DUP7 DUP3 DUP8 ADD PUSH2 0xA45 JUMP JUMPDEST SWAP4 POP POP PUSH1 0x20 PUSH2 0xB09 DUP7 DUP3 DUP8 ADD PUSH2 0xA73 JUMP JUMPDEST SWAP3 POP POP PUSH1 0x40 PUSH2 0xB1A DUP7 DUP3 DUP8 ADD PUSH2 0xA30 JUMP JUMPDEST SWAP2 POP POP SWAP3 POP SWAP3 POP SWAP3 JUMP JUMPDEST PUSH1 0x0 PUSH1 0x20 DUP3 DUP5 SUB SLT ISZERO PUSH2 0xB3A JUMPI PUSH2 0xB39 PUSH2 0xF99 JUMP JUMPDEST JUMPDEST PUSH1 0x0 PUSH2 0xB48 DUP5 DUP3 DUP6 ADD PUSH2 0xA73 JUMP JUMPDEST SWAP2 POP POP SWAP3 SWAP2 POP POP JUMP JUMPDEST PUSH2 0xB5A DUP2 PUSH2 0xD83 JUMP JUMPDEST DUP3 MSTORE POP POP JUMP JUMPDEST PUSH2 0xB69 DUP2 PUSH2 0xD71 JUMP JUMPDEST DUP3 MSTORE POP POP JUMP JUMPDEST PUSH2 0xB78 DUP2 PUSH2 0xD95 JUMP JUMPDEST DUP3 MSTORE POP POP JUMP JUMPDEST PUSH1 0x0 PUSH2 0xB89 DUP3 PUSH2 0xCCE JUMP JUMPDEST PUSH2 0xB93 DUP2 DUP6 PUSH2 0xCD9 JUMP JUMPDEST SWAP4 POP PUSH2 0xBA3 DUP2 DUP6 PUSH1 0x20 DUP7 ADD PUSH2 0xDDA JUMP JUMPDEST PUSH2 0xBAC DUP2 PUSH2 0xF9E JUMP JUMPDEST DUP5 ADD SWAP2 POP POP SWAP3 SWAP2 POP POP JUMP JUMPDEST PUSH2 0xBC0 DUP2 PUSH2 0xDC1 JUMP JUMPDEST DUP3 MSTORE POP POP JUMP JUMPDEST PUSH1 0x0 PUSH1 0x20 DUP3 ADD SWAP1 POP PUSH2 0xBDB PUSH1 0x0 DUP4 ADD DUP5 PUSH2 0xB60 JUMP JUMPDEST SWAP3 SWAP2 POP POP JUMP JUMPDEST PUSH1 0x0 PUSH1 0x20 DUP3 ADD SWAP1 POP DUP2 DUP2 SUB PUSH1 0x0 DUP4 ADD MSTORE PUSH2 0xBFB DUP2 DUP5 PUSH2 0xB7E JUMP JUMPDEST SWAP1 POP SWAP3 SWAP2 POP POP JUMP JUMPDEST PUSH1 0x0 PUSH1 0xA0 DUP3 ADD SWAP1 POP DUP2 DUP2 SUB PUSH1 0x0 DUP4 ADD MSTORE PUSH2 0xC1D DUP2 DUP9 PUSH2 0xB7E JUMP JUMPDEST SWAP1 POP PUSH2 0xC2C PUSH1 0x20 DUP4 ADD DUP8 PUSH2 0xBB7 JUMP JUMPDEST PUSH2 0xC39 PUSH1 0x40 DUP4 ADD DUP7 PUSH2 0xB51 JUMP JUMPDEST PUSH2 0xC46 PUSH1 0x60 DUP4 ADD DUP6 PUSH2 0xB6F JUMP JUMPDEST PUSH2 0xC53 PUSH1 0x80 DUP4 ADD DUP5 PUSH2 0xBB7 JUMP JUMPDEST SWAP7 SWAP6 POP POP POP POP POP POP JUMP JUMPDEST PUSH1 0x0 PUSH1 0x20 DUP3 ADD SWAP1 POP PUSH2 0xC72 PUSH1 0x0 DUP4 ADD DUP5 PUSH2 0xBB7 JUMP JUMPDEST SWAP3 SWAP2 POP POP JUMP JUMPDEST PUSH1 0x0 PUSH2 0xC82 PUSH2 0xC93 JUMP JUMPDEST SWAP1 POP PUSH2 0xC8E DUP3 DUP3 PUSH2 0xE3F JUMP JUMPDEST SWAP2 SWAP1 POP JUMP JUMPDEST PUSH1 0x0 PUSH1 0x40 MLOAD SWAP1 POP SWAP1 JUMP JUMPDEST PUSH1 0x0 PUSH8 0xFFFFFFFFFFFFFFFF DUP3 GT ISZERO PUSH2 0xCB8 JUMPI PUSH2 0xCB7 PUSH2 0xF5B JUMP JUMPDEST JUMPDEST PUSH2 0xCC1 DUP3 PUSH2 0xF9E JUMP JUMPDEST SWAP1 POP PUSH1 0x20 DUP2 ADD SWAP1 POP SWAP2 SWAP1 POP JUMP JUMPDEST PUSH1 0x0 DUP2 MLOAD SWAP1 POP SWAP2 SWAP1 POP JUMP JUMPDEST PUSH1 0x0 DUP3 DUP3 MSTORE PUSH1 0x20 DUP3 ADD SWAP1 POP SWAP3 SWAP2 POP POP JUMP JUMPDEST PUSH1 0x0 PUSH2 0xCF5 DUP3 PUSH2 0xDC1 JUMP JUMPDEST SWAP2 POP PUSH2 0xD00 DUP4 PUSH2 0xDC1 JUMP JUMPDEST SWAP3 POP DUP3 PUSH32 0xFFFFFFFFFFFFFFFFFFFFFFFFFFFFFFFFFFFFFFFFFFFFFFFFFFFFFFFFFFFFFFFF SUB DUP3 GT ISZERO PUSH2 0xD35 JUMPI PUSH2 0xD34 PUSH2 0xE9F JUMP JUMPDEST JUMPDEST DUP3 DUP3 ADD SWAP1 POP SWAP3 SWAP2 POP POP JUMP JUMPDEST PUSH1 0x0 PUSH2 0xD4B DUP3 PUSH2 0xDC1 JUMP JUMPDEST SWAP2 POP PUSH2 0xD56 DUP4 PUSH2 0xDC1 JUMP JUMPDEST SWAP3 POP DUP3 PUSH2 0xD66 JUMPI PUSH2 0xD65 PUSH2 0xECE JUMP JUMPDEST JUMPDEST DUP3 DUP3 DIV SWAP1 POP SWAP3 SWAP2 POP POP JUMP JUMPDEST PUSH1 0x0 PUSH2 0xD7C DUP3 PUSH2 0xDA1 JUMP JUMPDEST SWAP1 POP SWAP2 SWAP1 POP JUMP JUMPDEST PUSH1 0x0 PUSH2 0xD8E DUP3 PUSH2 0xDA1 JUMP JUMPDEST SWAP1 POP SWAP2 SWAP1 POP JUMP JUMPDEST PUSH1 0x0 DUP2 ISZERO ISZERO SWAP1 POP SWAP2 SWAP1 POP JUMP JUMPDEST PUSH1 0x0 PUSH20 0xFFFFFFFFFFFFFFFFFFFFFFFFFFFFFFFFFFFFFFFF DUP3 AND SWAP1 POP SWAP2 SWAP1 POP JUMP JUMPDEST PUSH1 0x0 DUP2 SWAP1 POP SWAP2 SWAP1 POP JUMP JUMPDEST DUP3 DUP2 DUP4 CALLDATACOPY PUSH1 0x0 DUP4 DUP4 ADD MSTORE POP POP POP JUMP JUMPDEST PUSH1 0x0 JUMPDEST DUP4 DUP2 LT ISZERO PUSH2 0xDF8 JUMPI DUP1 DUP3 ADD MLOAD DUP2 DUP5 ADD MSTORE PUSH1 0x20 DUP2 ADD SWAP1 POP PUSH2 0xDDD JUMP JUMPDEST DUP4 DUP2 GT ISZERO PUSH2 0xE07 JUMPI PUSH1 0x0 DUP5 DUP5 ADD MSTORE JUMPDEST POP POP POP POP JUMP JUMPDEST PUSH1 0x0 PUSH1 0x2 DUP3 DIV SWAP1 POP PUSH1 0x1 DUP3 AND DUP1 PUSH2 0xE25 JUMPI PUSH1 0x7F DUP3 AND SWAP2 POP JUMPDEST PUSH1 0x20 DUP3 LT DUP2 EQ ISZERO PUSH2 0xE39 JUMPI PUSH2 0xE38 PUSH2 0xEFD JUMP JUMPDEST JUMPDEST POP SWAP2 SWAP1 POP JUMP JUMPDEST PUSH2 0xE48 DUP3 PUSH2 0xF9E JUMP JUMPDEST DUP2 ADD DUP2 DUP2 LT PUSH8 0xFFFFFFFFFFFFFFFF DUP3 GT OR ISZERO PUSH2 0xE67 JUMPI PUSH2 0xE66 PUSH2 0xF5B JUMP JUMPDEST JUMPDEST DUP1 PUSH1 0x40 MSTORE POP POP POP JUMP JUMPDEST PUSH32 0x4E487B7100000000000000000000000000000000000000000000000000000000 PUSH1 0x0 MSTORE PUSH1 0x1 PUSH1 0x4 MSTORE PUSH1 0x24 PUSH1 0x0 REVERT JUMPDEST PUSH32 0x4E487B7100000000000000000000000000000000000000000000000000000000 PUSH1 0x0 MSTORE PUSH1 0x11 PUSH1 0x4 MSTORE PUSH1 0x24 PUSH1 0x0 REVERT JUMPDEST PUSH32 0x4E487B7100000000000000000000000000000000000000000000000000000000 PUSH1 0x0 MSTORE PUSH1 0x12 PUSH1 0x4 MSTORE PUSH1 0x24 PUSH1 0x0 REVERT JUMPDEST PUSH32 0x4E487B7100000000000000000000000000000000000000000000000000000000 PUSH1 0x0 MSTORE PUSH1 0x22 PUSH1 0x4 MSTORE PUSH1 0x24 PUSH1 0x0 REVERT JUMPDEST PUSH32 0x4E487B7100000000000000000000000000000000000000000000000000000000 PUSH1 0x0 MSTORE PUSH1 0x32 PUSH1 0x4 MSTORE PUSH1 0x24 PUSH1 0x0 REVERT JUMPDEST PUSH32 0x4E487B7100000000000000000000000000000000000000000000000000000000 PUSH1 0x0 MSTORE PUSH1 0x41 PUSH1 0x4 MSTORE PUSH1 0x24 PUSH1 0x0 REVERT JUMPDEST PUSH1 0x0 DUP1 REVERT JUMPDEST PUSH1 0x0 DUP1 REVERT JUMPDEST PUSH1 0x0 DUP1 REVERT JUMPDEST PUSH1 0x0 DUP1 REVERT JUMPDEST PUSH1 0x0 PUSH1 0x1F NOT PUSH1 0x1F DUP4 ADD AND SWAP1 POP SWAP2 SWAP1 POP JUMP JUMPDEST PUSH2 0xFB8 DUP2 PUSH2 0xD71 JUMP JUMPDEST DUP2 EQ PUSH2 0xFC3 JUMPI PUSH1 0x0 DUP1 REVERT JUMPDEST POP JUMP JUMPDEST PUSH2 0xFCF DUP2 PUSH2 0xD83 JUMP JUMPDEST DUP2 EQ PUSH2 0xFDA JUMPI PUSH1 0x0 DUP1 REVERT JUMPDEST POP JUMP JUMPDEST PUSH2 0xFE6 DUP2 PUSH2 0xDC1 JUMP JUMPDEST DUP2 EQ PUSH2 0xFF1 JUMPI PUSH1 0x0 DUP1 REVERT JUMPDEST POP JUMP INVALID LOG2 PUSH5 0x6970667358 0x22 SLT KECCAK256 0xC1 MLOAD PUSH14 0xB7EB4AAE5FE1B4957890DC5F956D ADD 0xE7 MLOAD 0x21 SIGNEXTEND CHAINID 0xD4 PUSH11 0x4DC02D5FEBE53C64736F6C PUSH4 0x43000805 STOP CALLER "},"gasEstimates":{"creation":{"codeDepositCost":"827600","executionCost":"infinite","totalCost":"infinite"},"external":{"approvePayment(uint256)":"infinite","contribute()":"infinite","createPayment(string,uint256,address)":"infinite","description()":"infinite","doPayment(uint256)":"infinite","goal()":"2474","investorCount()":"2517","investors(address)":"2903","maxInvest()":"2452","minInvest()":"2496","owner()":"2533","payments(uint256)":"infinite"}},"methodIdentifiers":{"approvePayment(uint256)":"de14c818","contribute()":"d7bb99ba","createPayment(string,uint256,address)":"03120d46","description()":"7284e416","doPayment(uint256)":"d2b8b867","goal()":"40193883","investorCount()":"d7e64c00","investors(address)":"6f7bc9be","maxInvest()":"3110235a","minInvest()":"63fd9e38","owner()":"8da5cb5b","payments(uint256)":"87d81789"}},"storageLayout":{"storage":[{"astId":55,"contract":"Project.sol:Project","label":"owner","offset":0,"slot":"0","type":"t_address"},{"astId":57,"contract":"Project.sol:Project","label":"description","offset":0,"slot":"1","type":"t_string_storage"},{"astId":59,"contract":"Project.sol:Project","label":"minInvest","offset":0,"slot":"2","type":"t_uint256"},{"astId":61,"contract":"Project.sol:Project","label":"maxInvest","offset":0,"slot":"3","type":"t_uint256"},{"astId":63,"contract":"Project.sol:Project","label":"goal","offset":0,"slot":"4","type":"t_uint256"},{"astId":65,"contract":"Project.sol:Project","label":"investorCount","offset":0,"slot":"5","type":"t_uint256"},{"astId":69,"contract":"Project.sol:Project","label":"investors","offset":0,"slot":"6","type":"t_mapping(t_address,t_uint256)"},{"astId":73,"contract":"Project.sol:Project","label":"payments","offset":0,"slot":"7","type":"t_array(t_struct(Payment)53_storage)dyn_storage"}],"types":{"t_address":{"encoding":"inplace","label":"address","numberOfBytes":"20"},"t_address_payable":{"encoding":"inplace","label":"address payable","numberOfBytes":"20"},"t_array(t_struct(Payment)53_storage)dyn_storage":{"base":"t_struct(Payment)53_storage","encoding":"dynamic_array","label":"struct Project.Payment[]","numberOfBytes":"32"},"t_bool":{"encoding":"inplace","label":"bool","numberOfBytes":"1"},"t_mapping(t_address,t_bool)":{"encoding":"mapping","key":"t_address","label":"mapping(address => bool)","numberOfBytes":"32","value":"t_bool"},"t_mapping(t_address,t_uint256)":{"encoding":"mapping","key":"t_address","label":"mapping(address => uint256)","numberOfBytes":"32","value":"t_uint256"},"t_string_storage":{"encoding":"bytes","label":"string","numberOfBytes":"32"},"t_struct(Payment)53_storage":{"encoding":"inplace","label":"struct Project.Payment","members":[{"astId":40,"contract":"Project.sol:Project","label":"description","offset":0,"slot":"0","type":"t_string_storage"},{"astId":42,"contract":"Project.sol:Project","label":"amount","offset":0,"slot":"1","type":"t_uint256"},{"astId":44,"contract":"Project.sol:Project","label":"receiver","offset":0,"slot":"2","type":"t_address_payable"},{"astId":46,"contract":"Project.sol:Project","label":"completed","offset":20,"slot":"2","type":"t_bool"},{"astId":50,"contract":"Project.sol:Project","label":"voters","offset":0,"slot":"3","type":"t_mapping(t_address,t_bool)"},{"astId":52,"contract":"Project.sol:Project","label":"voterCount","offset":0,"slot":"4","type":"t_uint256"}],"numberOfBytes":"160"},"t_uint256":{"encoding":"inplace","label":"uint256","numberOfBytes":"32"}}},"userdoc":{"kind":"user","methods":{},"version":1}}