{"abi":[{"inputs":[],"name":"CreatedProject","outputs":[{"internalType":"address","name":"","type":"address"}],"stateMutability":"view","type":"function"},{"inputs":[{"internalType":"string","name":"_description","type":"string"},{"internalType":"uint256","name":"_minInvest","type":"uint256"},{"internalType":"uint256","name":"_maxInvest","type":"uint256"},{"internalType":"uint256","name":"_goal","type":"uint256"}],"name":"createProject","outputs":[],"stateMutability":"nonpayable","type":"function"},{"inputs":[],"name":"getCreatedProject","outputs":[{"internalType":"address","name":"","type":"address"}],"stateMutability":"view","type":"function"},{"inputs":[],"name":"getProjects","outputs":[{"internalType":"address[]","name":"","type":"address[]"}],"stateMutability":"view","type":"function"},{"inputs":[{"internalType":"uint256","name":"","type":"uint256"}],"name":"projects","outputs":[{"internalType":"address","name":"","type":"address"}],"stateMutability":"view","type":"function"}],"devdoc":{"kind":"dev","methods":{},"version":1},"evm":{"assembly":"    /* \"ProjectList.sol\":113:807  contract ProjectList {\r... */\n  mstore(0x40, 0x80)\n  callvalue\n  dup1\n  iszero\n  tag_1\n  jumpi\n  0x00\n  dup1\n  revert\ntag_1:\n  pop\n  dataSize(sub_0)\n  dup1\n  dataOffset(sub_0)\n  0x00\n  codecopy\n  0x00\n  return\nstop\n\nsub_0: assembly {\n        /* \"ProjectList.sol\":113:807  contract ProjectList {\r... */\n      mstore(0x40, 0x80)\n      callvalue\n      dup1\n      iszero\n      tag_1\n      jumpi\n      0x00\n      dup1\n      revert\n    tag_1:\n      pop\n      jumpi(tag_2, lt(calldatasize, 0x04))\n      shr(0xe0, calldataload(0x00))\n      dup1\n      0x107046bd\n      eq\n      tag_3\n      jumpi\n      dup1\n      0x610a6a2a\n      eq\n      tag_4\n      jumpi\n      dup1\n      0x91c65403\n      eq\n      tag_5\n      jumpi\n      dup1\n      0xdcc60128\n      eq\n      tag_6\n      jumpi\n      dup1\n      0xead1256d\n      eq\n      tag_7\n      jumpi\n    tag_2:\n      0x00\n      dup1\n      revert\n        /* \"ProjectList.sol\":174:199  address[] public projects */\n    tag_3:\n      tag_8\n      0x04\n      dup1\n      calldatasize\n      sub\n      dup2\n      add\n      swap1\n      tag_9\n      swap2\n      swap1\n      tag_10\n      jump\t// in\n    tag_9:\n      tag_11\n      jump\t// in\n    tag_8:\n      mload(0x40)\n      tag_12\n      swap2\n      swap1\n      tag_13\n      jump\t// in\n    tag_12:\n      mload(0x40)\n      dup1\n      swap2\n      sub\n      swap1\n      return\n        /* \"ProjectList.sol\":244:593  function createProject(\r... */\n    tag_4:\n      tag_14\n      0x04\n      dup1\n      calldatasize\n      sub\n      dup2\n      add\n      swap1\n      tag_15\n      swap2\n      swap1\n      tag_16\n      jump\t// in\n    tag_15:\n      tag_17\n      jump\t// in\n    tag_14:\n      stop\n        /* \"ProjectList.sol\":206:235  address public CreatedProject */\n    tag_5:\n      tag_18\n      tag_19\n      jump\t// in\n    tag_18:\n      mload(0x40)\n      tag_20\n      swap2\n      swap1\n      tag_13\n      jump\t// in\n    tag_20:\n      mload(0x40)\n      dup1\n      swap2\n      sub\n      swap1\n      return\n        /* \"ProjectList.sol\":601:697  function getProjects() public view returns (address[] memory) {\r... */\n    tag_6:\n      tag_21\n      tag_22\n      jump\t// in\n    tag_21:\n      mload(0x40)\n      tag_23\n      swap2\n      swap1\n      tag_24\n      jump\t// in\n    tag_23:\n      mload(0x40)\n      dup1\n      swap2\n      sub\n      swap1\n      return\n        /* \"ProjectList.sol\":705:804  function getCreatedProject() public view returns (address) {\r... */\n    tag_7:\n      tag_25\n      tag_26\n      jump\t// in\n    tag_25:\n      mload(0x40)\n      tag_27\n      swap2\n      swap1\n      tag_13\n      jump\t// in\n    tag_27:\n      mload(0x40)\n      dup1\n      swap2\n      sub\n      swap1\n      return\n        /* \"ProjectList.sol\":174:199  address[] public projects */\n    tag_11:\n      0x00\n      dup2\n      dup2\n      sload\n      dup2\n      lt\n      tag_28\n      jumpi\n      0x00\n      dup1\n      revert\n    tag_28:\n      swap1\n      0x00\n      mstore\n      keccak256(0x00, 0x20)\n      add\n      0x00\n      swap2\n      pop\n      sload\n      swap1\n      0x0100\n      exp\n      swap1\n      div\n      0xffffffffffffffffffffffffffffffffffffffff\n      and\n      dup2\n      jump\t// out\n        /* \"ProjectList.sol\":244:593  function createProject(\r... */\n    tag_17:\n        /* \"ProjectList.sol\":411:429  address newProject */\n      0x00\n        /* \"ProjectList.sol\":452:464  _description */\n      dup5\n        /* \"ProjectList.sol\":466:476  _minInvest */\n      dup5\n        /* \"ProjectList.sol\":478:488  _maxInvest */\n      dup5\n        /* \"ProjectList.sol\":490:495  _goal */\n      dup5\n        /* \"ProjectList.sol\":497:507  msg.sender */\n      caller\n        /* \"ProjectList.sol\":440:508  new Project(_description, _minInvest, _maxInvest, _goal, msg.sender) */\n      mload(0x40)\n      tag_31\n      swap1\n      tag_32\n      jump\t// in\n    tag_31:\n      tag_33\n      swap6\n      swap5\n      swap4\n      swap3\n      swap2\n      swap1\n      tag_34\n      jump\t// in\n    tag_33:\n      mload(0x40)\n      dup1\n      swap2\n      sub\n      swap1\n      0x00\n      create\n      dup1\n      iszero\n      dup1\n      iszero\n      tag_35\n      jumpi\n      returndatasize\n      0x00\n      dup1\n      returndatacopy\n      revert(0x00, returndatasize)\n    tag_35:\n      pop\n        /* \"ProjectList.sol\":411:509  address newProject = address(new Project(_description, _minInvest, _maxInvest, _goal, msg.sender)) */\n      swap1\n      pop\n        /* \"ProjectList.sol\":520:528  projects */\n      0x00\n        /* \"ProjectList.sol\":534:544  newProject */\n      dup2\n        /* \"ProjectList.sol\":520:545  projects.push(newProject) */\n      swap1\n      dup1\n      0x01\n      dup2\n      sload\n      add\n      dup1\n      dup3\n      sstore\n      dup1\n      swap2\n      pop\n      pop\n      0x01\n      swap1\n      sub\n      swap1\n      0x00\n      mstore\n      keccak256(0x00, 0x20)\n      add\n      0x00\n      swap1\n      swap2\n      swap1\n      swap2\n      swap1\n      swap2\n      0x0100\n      exp\n      dup2\n      sload\n      dup2\n      0xffffffffffffffffffffffffffffffffffffffff\n      mul\n      not\n      and\n      swap1\n      dup4\n      0xffffffffffffffffffffffffffffffffffffffff\n      and\n      mul\n      or\n      swap1\n      sstore\n      pop\n        /* \"ProjectList.sol\":575:585  newProject */\n      dup1\n        /* \"ProjectList.sol\":558:572  CreatedProject */\n      0x01\n      0x00\n        /* \"ProjectList.sol\":558:585  CreatedProject = newProject */\n      0x0100\n      exp\n      dup2\n      sload\n      dup2\n      0xffffffffffffffffffffffffffffffffffffffff\n      mul\n      not\n      and\n      swap1\n      dup4\n      0xffffffffffffffffffffffffffffffffffffffff\n      and\n      mul\n      or\n      swap1\n      sstore\n      pop\n        /* \"ProjectList.sol\":400:593  {\r... */\n      pop\n        /* \"ProjectList.sol\":244:593  function createProject(\r... */\n      pop\n      pop\n      pop\n      pop\n      jump\t// out\n        /* \"ProjectList.sol\":206:235  address public CreatedProject */\n    tag_19:\n      0x01\n      0x00\n      swap1\n      sload\n      swap1\n      0x0100\n      exp\n      swap1\n      div\n      0xffffffffffffffffffffffffffffffffffffffff\n      and\n      dup2\n      jump\t// out\n        /* \"ProjectList.sol\":601:697  function getProjects() public view returns (address[] memory) {\r... */\n    tag_22:\n        /* \"ProjectList.sol\":645:661  address[] memory */\n      0x60\n        /* \"ProjectList.sol\":681:689  projects */\n      0x00\n        /* \"ProjectList.sol\":674:689  return projects */\n      dup1\n      sload\n      dup1\n      0x20\n      mul\n      0x20\n      add\n      mload(0x40)\n      swap1\n      dup2\n      add\n      0x40\n      mstore\n      dup1\n      swap3\n      swap2\n      swap1\n      dup2\n      dup2\n      mstore\n      0x20\n      add\n      dup3\n      dup1\n      sload\n      dup1\n      iszero\n      tag_38\n      jumpi\n      0x20\n      mul\n      dup3\n      add\n      swap2\n      swap1\n      0x00\n      mstore\n      keccak256(0x00, 0x20)\n      swap1\n    tag_39:\n      dup2\n      0x00\n      swap1\n      sload\n      swap1\n      0x0100\n      exp\n      swap1\n      div\n      0xffffffffffffffffffffffffffffffffffffffff\n      and\n      0xffffffffffffffffffffffffffffffffffffffff\n      and\n      dup2\n      mstore\n      0x20\n      add\n      swap1\n      0x01\n      add\n      swap1\n      dup1\n      dup4\n      gt\n      tag_39\n      jumpi\n    tag_38:\n      pop\n      pop\n      pop\n      pop\n      pop\n      swap1\n      pop\n        /* \"ProjectList.sol\":601:697  function getProjects() public view returns (address[] memory) {\r... */\n      swap1\n      jump\t// out\n        /* \"ProjectList.sol\":705:804  function getCreatedProject() public view returns (address) {\r... */\n    tag_26:\n        /* \"ProjectList.sol\":755:762  address */\n      0x00\n        /* \"ProjectList.sol\":782:796  CreatedProject */\n      0x01\n      0x00\n      swap1\n      sload\n      swap1\n      0x0100\n      exp\n      swap1\n      div\n      0xffffffffffffffffffffffffffffffffffffffff\n      and\n        /* \"ProjectList.sol\":775:796  return CreatedProject */\n      swap1\n      pop\n        /* \"ProjectList.sol\":705:804  function getCreatedProject() public view returns (address) {\r... */\n      swap1\n      jump\t// out\n    tag_32:\n      dataSize(sub_0)\n      dup1\n      dataOffset(sub_0)\n      dup4\n      codecopy\n      add\n      swap1\n      jump\t// out\n        /* \"#utility.yul\":7:419   */\n    tag_42:\n        /* \"#utility.yul\":85:90   */\n      0x00\n        /* \"#utility.yul\":110:176   */\n      tag_44\n        /* \"#utility.yul\":126:175   */\n      tag_45\n        /* \"#utility.yul\":168:174   */\n      dup5\n        /* \"#utility.yul\":126:175   */\n      tag_46\n      jump\t// in\n    tag_45:\n        /* \"#utility.yul\":110:176   */\n      tag_47\n      jump\t// in\n    tag_44:\n        /* \"#utility.yul\":101:176   */\n      swap1\n      pop\n        /* \"#utility.yul\":199:205   */\n      dup3\n        /* \"#utility.yul\":192:197   */\n      dup2\n        /* \"#utility.yul\":185:206   */\n      mstore\n        /* \"#utility.yul\":237:241   */\n      0x20\n        /* \"#utility.yul\":230:235   */\n      dup2\n        /* \"#utility.yul\":226:242   */\n      add\n        /* \"#utility.yul\":275:278   */\n      dup5\n        /* \"#utility.yul\":266:272   */\n      dup5\n        /* \"#utility.yul\":261:264   */\n      dup5\n        /* \"#utility.yul\":257:273   */\n      add\n        /* \"#utility.yul\":254:279   */\n      gt\n        /* \"#utility.yul\":251:253   */\n      iszero\n      tag_48\n      jumpi\n        /* \"#utility.yul\":282:361   */\n      tag_49\n      tag_50\n      jump\t// in\n    tag_49:\n        /* \"#utility.yul\":251:253   */\n    tag_48:\n        /* \"#utility.yul\":372:413   */\n      tag_51\n        /* \"#utility.yul\":406:412   */\n      dup5\n        /* \"#utility.yul\":401:404   */\n      dup3\n        /* \"#utility.yul\":396:399   */\n      dup6\n        /* \"#utility.yul\":372:413   */\n      tag_52\n      jump\t// in\n    tag_51:\n        /* \"#utility.yul\":91:419   */\n      pop\n      swap4\n      swap3\n      pop\n      pop\n      pop\n      jump\t// out\n        /* \"#utility.yul\":439:779   */\n    tag_53:\n        /* \"#utility.yul\":495:500   */\n      0x00\n        /* \"#utility.yul\":544:547   */\n      dup3\n        /* \"#utility.yul\":537:541   */\n      0x1f\n        /* \"#utility.yul\":529:535   */\n      dup4\n        /* \"#utility.yul\":525:542   */\n      add\n        /* \"#utility.yul\":521:548   */\n      slt\n        /* \"#utility.yul\":511:513   */\n      tag_55\n      jumpi\n        /* \"#utility.yul\":552:631   */\n      tag_56\n      tag_57\n      jump\t// in\n    tag_56:\n        /* \"#utility.yul\":511:513   */\n    tag_55:\n        /* \"#utility.yul\":669:675   */\n      dup2\n        /* \"#utility.yul\":656:676   */\n      calldataload\n        /* \"#utility.yul\":694:773   */\n      tag_58\n        /* \"#utility.yul\":769:772   */\n      dup5\n        /* \"#utility.yul\":761:767   */\n      dup3\n        /* \"#utility.yul\":754:758   */\n      0x20\n        /* \"#utility.yul\":746:752   */\n      dup7\n        /* \"#utility.yul\":742:759   */\n      add\n        /* \"#utility.yul\":694:773   */\n      tag_42\n      jump\t// in\n    tag_58:\n        /* \"#utility.yul\":685:773   */\n      swap2\n      pop\n        /* \"#utility.yul\":501:779   */\n      pop\n      swap3\n      swap2\n      pop\n      pop\n      jump\t// out\n        /* \"#utility.yul\":785:924   */\n    tag_59:\n        /* \"#utility.yul\":831:836   */\n      0x00\n        /* \"#utility.yul\":869:875   */\n      dup2\n        /* \"#utility.yul\":856:876   */\n      calldataload\n        /* \"#utility.yul\":847:876   */\n      swap1\n      pop\n        /* \"#utility.yul\":885:918   */\n      tag_61\n        /* \"#utility.yul\":912:917   */\n      dup2\n        /* \"#utility.yul\":885:918   */\n      tag_62\n      jump\t// in\n    tag_61:\n        /* \"#utility.yul\":837:924   */\n      swap3\n      swap2\n      pop\n      pop\n      jump\t// out\n        /* \"#utility.yul\":930:1875   */\n    tag_16:\n        /* \"#utility.yul\":1026:1032   */\n      0x00\n        /* \"#utility.yul\":1034:1040   */\n      dup1\n        /* \"#utility.yul\":1042:1048   */\n      0x00\n        /* \"#utility.yul\":1050:1056   */\n      dup1\n        /* \"#utility.yul\":1099:1102   */\n      0x80\n        /* \"#utility.yul\":1087:1096   */\n      dup6\n        /* \"#utility.yul\":1078:1085   */\n      dup8\n        /* \"#utility.yul\":1074:1097   */\n      sub\n        /* \"#utility.yul\":1070:1103   */\n      slt\n        /* \"#utility.yul\":1067:1069   */\n      iszero\n      tag_64\n      jumpi\n        /* \"#utility.yul\":1106:1185   */\n      tag_65\n      tag_66\n      jump\t// in\n    tag_65:\n        /* \"#utility.yul\":1067:1069   */\n    tag_64:\n        /* \"#utility.yul\":1254:1255   */\n      0x00\n        /* \"#utility.yul\":1243:1252   */\n      dup6\n        /* \"#utility.yul\":1239:1256   */\n      add\n        /* \"#utility.yul\":1226:1257   */\n      calldataload\n        /* \"#utility.yul\":1284:1302   */\n      0xffffffffffffffff\n        /* \"#utility.yul\":1276:1282   */\n      dup2\n        /* \"#utility.yul\":1273:1303   */\n      gt\n        /* \"#utility.yul\":1270:1272   */\n      iszero\n      tag_67\n      jumpi\n        /* \"#utility.yul\":1306:1385   */\n      tag_68\n      tag_69\n      jump\t// in\n    tag_68:\n        /* \"#utility.yul\":1270:1272   */\n    tag_67:\n        /* \"#utility.yul\":1411:1474   */\n      tag_70\n        /* \"#utility.yul\":1466:1473   */\n      dup8\n        /* \"#utility.yul\":1457:1463   */\n      dup3\n        /* \"#utility.yul\":1446:1455   */\n      dup9\n        /* \"#utility.yul\":1442:1464   */\n      add\n        /* \"#utility.yul\":1411:1474   */\n      tag_53\n      jump\t// in\n    tag_70:\n        /* \"#utility.yul\":1401:1474   */\n      swap5\n      pop\n        /* \"#utility.yul\":1197:1484   */\n      pop\n        /* \"#utility.yul\":1523:1525   */\n      0x20\n        /* \"#utility.yul\":1549:1602   */\n      tag_71\n        /* \"#utility.yul\":1594:1601   */\n      dup8\n        /* \"#utility.yul\":1585:1591   */\n      dup3\n        /* \"#utility.yul\":1574:1583   */\n      dup9\n        /* \"#utility.yul\":1570:1592   */\n      add\n        /* \"#utility.yul\":1549:1602   */\n      tag_59\n      jump\t// in\n    tag_71:\n        /* \"#utility.yul\":1539:1602   */\n      swap4\n      pop\n        /* \"#utility.yul\":1494:1612   */\n      pop\n        /* \"#utility.yul\":1651:1653   */\n      0x40\n        /* \"#utility.yul\":1677:1730   */\n      tag_72\n        /* \"#utility.yul\":1722:1729   */\n      dup8\n        /* \"#utility.yul\":1713:1719   */\n      dup3\n        /* \"#utility.yul\":1702:1711   */\n      dup9\n        /* \"#utility.yul\":1698:1720   */\n      add\n        /* \"#utility.yul\":1677:1730   */\n      tag_59\n      jump\t// in\n    tag_72:\n        /* \"#utility.yul\":1667:1730   */\n      swap3\n      pop\n        /* \"#utility.yul\":1622:1740   */\n      pop\n        /* \"#utility.yul\":1779:1781   */\n      0x60\n        /* \"#utility.yul\":1805:1858   */\n      tag_73\n        /* \"#utility.yul\":1850:1857   */\n      dup8\n        /* \"#utility.yul\":1841:1847   */\n      dup3\n        /* \"#utility.yul\":1830:1839   */\n      dup9\n        /* \"#utility.yul\":1826:1848   */\n      add\n        /* \"#utility.yul\":1805:1858   */\n      tag_59\n      jump\t// in\n    tag_73:\n        /* \"#utility.yul\":1795:1858   */\n      swap2\n      pop\n        /* \"#utility.yul\":1750:1868   */\n      pop\n        /* \"#utility.yul\":1057:1875   */\n      swap3\n      swap6\n      swap2\n      swap5\n      pop\n      swap3\n      pop\n      jump\t// out\n        /* \"#utility.yul\":1881:2210   */\n    tag_10:\n        /* \"#utility.yul\":1940:1946   */\n      0x00\n        /* \"#utility.yul\":1989:1991   */\n      0x20\n        /* \"#utility.yul\":1977:1986   */\n      dup3\n        /* \"#utility.yul\":1968:1975   */\n      dup5\n        /* \"#utility.yul\":1964:1987   */\n      sub\n        /* \"#utility.yul\":1960:1992   */\n      slt\n        /* \"#utility.yul\":1957:1959   */\n      iszero\n      tag_75\n      jumpi\n        /* \"#utility.yul\":1995:2074   */\n      tag_76\n      tag_66\n      jump\t// in\n    tag_76:\n        /* \"#utility.yul\":1957:1959   */\n    tag_75:\n        /* \"#utility.yul\":2115:2116   */\n      0x00\n        /* \"#utility.yul\":2140:2193   */\n      tag_77\n        /* \"#utility.yul\":2185:2192   */\n      dup5\n        /* \"#utility.yul\":2176:2182   */\n      dup3\n        /* \"#utility.yul\":2165:2174   */\n      dup6\n        /* \"#utility.yul\":2161:2183   */\n      add\n        /* \"#utility.yul\":2140:2193   */\n      tag_59\n      jump\t// in\n    tag_77:\n        /* \"#utility.yul\":2130:2193   */\n      swap2\n      pop\n        /* \"#utility.yul\":2086:2203   */\n      pop\n        /* \"#utility.yul\":1947:2210   */\n      swap3\n      swap2\n      pop\n      pop\n      jump\t// out\n        /* \"#utility.yul\":2216:2395   */\n    tag_78:\n        /* \"#utility.yul\":2285:2295   */\n      0x00\n        /* \"#utility.yul\":2306:2352   */\n      tag_80\n        /* \"#utility.yul\":2348:2351   */\n      dup4\n        /* \"#utility.yul\":2340:2346   */\n      dup4\n        /* \"#utility.yul\":2306:2352   */\n      tag_81\n      jump\t// in\n    tag_80:\n        /* \"#utility.yul\":2384:2388   */\n      0x20\n        /* \"#utility.yul\":2379:2382   */\n      dup4\n        /* \"#utility.yul\":2375:2389   */\n      add\n        /* \"#utility.yul\":2361:2389   */\n      swap1\n      pop\n        /* \"#utility.yul\":2296:2395   */\n      swap3\n      swap2\n      pop\n      pop\n      jump\t// out\n        /* \"#utility.yul\":2401:2509   */\n    tag_81:\n        /* \"#utility.yul\":2478:2502   */\n      tag_83\n        /* \"#utility.yul\":2496:2501   */\n      dup2\n        /* \"#utility.yul\":2478:2502   */\n      tag_84\n      jump\t// in\n    tag_83:\n        /* \"#utility.yul\":2473:2476   */\n      dup3\n        /* \"#utility.yul\":2466:2503   */\n      mstore\n        /* \"#utility.yul\":2456:2509   */\n      pop\n      pop\n      jump\t// out\n        /* \"#utility.yul\":2515:2633   */\n    tag_85:\n        /* \"#utility.yul\":2602:2626   */\n      tag_87\n        /* \"#utility.yul\":2620:2625   */\n      dup2\n        /* \"#utility.yul\":2602:2626   */\n      tag_84\n      jump\t// in\n    tag_87:\n        /* \"#utility.yul\":2597:2600   */\n      dup3\n        /* \"#utility.yul\":2590:2627   */\n      mstore\n        /* \"#utility.yul\":2580:2633   */\n      pop\n      pop\n      jump\t// out\n        /* \"#utility.yul\":2669:3401   */\n    tag_88:\n        /* \"#utility.yul\":2788:2791   */\n      0x00\n        /* \"#utility.yul\":2817:2871   */\n      tag_90\n        /* \"#utility.yul\":2865:2870   */\n      dup3\n        /* \"#utility.yul\":2817:2871   */\n      tag_91\n      jump\t// in\n    tag_90:\n        /* \"#utility.yul\":2887:2973   */\n      tag_92\n        /* \"#utility.yul\":2966:2972   */\n      dup2\n        /* \"#utility.yul\":2961:2964   */\n      dup6\n        /* \"#utility.yul\":2887:2973   */\n      tag_93\n      jump\t// in\n    tag_92:\n        /* \"#utility.yul\":2880:2973   */\n      swap4\n      pop\n        /* \"#utility.yul\":2997:3053   */\n      tag_94\n        /* \"#utility.yul\":3047:3052   */\n      dup4\n        /* \"#utility.yul\":2997:3053   */\n      tag_95\n      jump\t// in\n    tag_94:\n        /* \"#utility.yul\":3076:3083   */\n      dup1\n        /* \"#utility.yul\":3107:3108   */\n      0x00\n        /* \"#utility.yul\":3092:3376   */\n    tag_96:\n        /* \"#utility.yul\":3117:3123   */\n      dup4\n        /* \"#utility.yul\":3114:3115   */\n      dup2\n        /* \"#utility.yul\":3111:3124   */\n      lt\n        /* \"#utility.yul\":3092:3376   */\n      iszero\n      tag_98\n      jumpi\n        /* \"#utility.yul\":3193:3199   */\n      dup2\n        /* \"#utility.yul\":3187:3200   */\n      mload\n        /* \"#utility.yul\":3220:3283   */\n      tag_99\n        /* \"#utility.yul\":3279:3282   */\n      dup9\n        /* \"#utility.yul\":3264:3277   */\n      dup3\n        /* \"#utility.yul\":3220:3283   */\n      tag_78\n      jump\t// in\n    tag_99:\n        /* \"#utility.yul\":3213:3283   */\n      swap8\n      pop\n        /* \"#utility.yul\":3306:3366   */\n      tag_100\n        /* \"#utility.yul\":3359:3365   */\n      dup4\n        /* \"#utility.yul\":3306:3366   */\n      tag_101\n      jump\t// in\n    tag_100:\n        /* \"#utility.yul\":3296:3366   */\n      swap3\n      pop\n        /* \"#utility.yul\":3152:3376   */\n      pop\n        /* \"#utility.yul\":3139:3140   */\n      0x01\n        /* \"#utility.yul\":3136:3137   */\n      dup2\n        /* \"#utility.yul\":3132:3141   */\n      add\n        /* \"#utility.yul\":3127:3141   */\n      swap1\n      pop\n        /* \"#utility.yul\":3092:3376   */\n      jump(tag_96)\n    tag_98:\n        /* \"#utility.yul\":3096:3110   */\n      pop\n        /* \"#utility.yul\":3392:3395   */\n      dup6\n        /* \"#utility.yul\":3385:3395   */\n      swap4\n      pop\n        /* \"#utility.yul\":2793:3401   */\n      pop\n      pop\n      pop\n      swap3\n      swap2\n      pop\n      pop\n      jump\t// out\n        /* \"#utility.yul\":3407:3771   */\n    tag_102:\n        /* \"#utility.yul\":3495:3498   */\n      0x00\n        /* \"#utility.yul\":3523:3562   */\n      tag_104\n        /* \"#utility.yul\":3556:3561   */\n      dup3\n        /* \"#utility.yul\":3523:3562   */\n      tag_105\n      jump\t// in\n    tag_104:\n        /* \"#utility.yul\":3578:3649   */\n      tag_106\n        /* \"#utility.yul\":3642:3648   */\n      dup2\n        /* \"#utility.yul\":3637:3640   */\n      dup6\n        /* \"#utility.yul\":3578:3649   */\n      tag_107\n      jump\t// in\n    tag_106:\n        /* \"#utility.yul\":3571:3649   */\n      swap4\n      pop\n        /* \"#utility.yul\":3658:3710   */\n      tag_108\n        /* \"#utility.yul\":3703:3709   */\n      dup2\n        /* \"#utility.yul\":3698:3701   */\n      dup6\n        /* \"#utility.yul\":3691:3695   */\n      0x20\n        /* \"#utility.yul\":3684:3689   */\n      dup7\n        /* \"#utility.yul\":3680:3696   */\n      add\n        /* \"#utility.yul\":3658:3710   */\n      tag_109\n      jump\t// in\n    tag_108:\n        /* \"#utility.yul\":3735:3764   */\n      tag_110\n        /* \"#utility.yul\":3757:3763   */\n      dup2\n        /* \"#utility.yul\":3735:3764   */\n      tag_111\n      jump\t// in\n    tag_110:\n        /* \"#utility.yul\":3730:3733   */\n      dup5\n        /* \"#utility.yul\":3726:3765   */\n      add\n        /* \"#utility.yul\":3719:3765   */\n      swap2\n      pop\n        /* \"#utility.yul\":3499:3771   */\n      pop\n      swap3\n      swap2\n      pop\n      pop\n      jump\t// out\n        /* \"#utility.yul\":3777:3895   */\n    tag_112:\n        /* \"#utility.yul\":3864:3888   */\n      tag_114\n        /* \"#utility.yul\":3882:3887   */\n      dup2\n        /* \"#utility.yul\":3864:3888   */\n      tag_115\n      jump\t// in\n    tag_114:\n        /* \"#utility.yul\":3859:3862   */\n      dup3\n        /* \"#utility.yul\":3852:3889   */\n      mstore\n        /* \"#utility.yul\":3842:3895   */\n      pop\n      pop\n      jump\t// out\n        /* \"#utility.yul\":3901:4123   */\n    tag_13:\n        /* \"#utility.yul\":3994:3998   */\n      0x00\n        /* \"#utility.yul\":4032:4034   */\n      0x20\n        /* \"#utility.yul\":4021:4030   */\n      dup3\n        /* \"#utility.yul\":4017:4035   */\n      add\n        /* \"#utility.yul\":4009:4035   */\n      swap1\n      pop\n        /* \"#utility.yul\":4045:4116   */\n      tag_117\n        /* \"#utility.yul\":4113:4114   */\n      0x00\n        /* \"#utility.yul\":4102:4111   */\n      dup4\n        /* \"#utility.yul\":4098:4115   */\n      add\n        /* \"#utility.yul\":4089:4095   */\n      dup5\n        /* \"#utility.yul\":4045:4116   */\n      tag_85\n      jump\t// in\n    tag_117:\n        /* \"#utility.yul\":3999:4123   */\n      swap3\n      swap2\n      pop\n      pop\n      jump\t// out\n        /* \"#utility.yul\":4129:4502   */\n    tag_24:\n        /* \"#utility.yul\":4272:4276   */\n      0x00\n        /* \"#utility.yul\":4310:4312   */\n      0x20\n        /* \"#utility.yul\":4299:4308   */\n      dup3\n        /* \"#utility.yul\":4295:4313   */\n      add\n        /* \"#utility.yul\":4287:4313   */\n      swap1\n      pop\n        /* \"#utility.yul\":4359:4368   */\n      dup2\n        /* \"#utility.yul\":4353:4357   */\n      dup2\n        /* \"#utility.yul\":4349:4369   */\n      sub\n        /* \"#utility.yul\":4345:4346   */\n      0x00\n        /* \"#utility.yul\":4334:4343   */\n      dup4\n        /* \"#utility.yul\":4330:4347   */\n      add\n        /* \"#utility.yul\":4323:4370   */\n      mstore\n        /* \"#utility.yul\":4387:4495   */\n      tag_119\n        /* \"#utility.yul\":4490:4494   */\n      dup2\n        /* \"#utility.yul\":4481:4487   */\n      dup5\n        /* \"#utility.yul\":4387:4495   */\n      tag_88\n      jump\t// in\n    tag_119:\n        /* \"#utility.yul\":4379:4495   */\n      swap1\n      pop\n        /* \"#utility.yul\":4277:4502   */\n      swap3\n      swap2\n      pop\n      pop\n      jump\t// out\n        /* \"#utility.yul\":4508:5263   */\n    tag_34:\n        /* \"#utility.yul\":4733:4737   */\n      0x00\n        /* \"#utility.yul\":4771:4774   */\n      0xa0\n        /* \"#utility.yul\":4760:4769   */\n      dup3\n        /* \"#utility.yul\":4756:4775   */\n      add\n        /* \"#utility.yul\":4748:4775   */\n      swap1\n      pop\n        /* \"#utility.yul\":4821:4830   */\n      dup2\n        /* \"#utility.yul\":4815:4819   */\n      dup2\n        /* \"#utility.yul\":4811:4831   */\n      sub\n        /* \"#utility.yul\":4807:4808   */\n      0x00\n        /* \"#utility.yul\":4796:4805   */\n      dup4\n        /* \"#utility.yul\":4792:4809   */\n      add\n        /* \"#utility.yul\":4785:4832   */\n      mstore\n        /* \"#utility.yul\":4849:4927   */\n      tag_121\n        /* \"#utility.yul\":4922:4926   */\n      dup2\n        /* \"#utility.yul\":4913:4919   */\n      dup9\n        /* \"#utility.yul\":4849:4927   */\n      tag_102\n      jump\t// in\n    tag_121:\n        /* \"#utility.yul\":4841:4927   */\n      swap1\n      pop\n        /* \"#utility.yul\":4937:5009   */\n      tag_122\n        /* \"#utility.yul\":5005:5007   */\n      0x20\n        /* \"#utility.yul\":4994:5003   */\n      dup4\n        /* \"#utility.yul\":4990:5008   */\n      add\n        /* \"#utility.yul\":4981:4987   */\n      dup8\n        /* \"#utility.yul\":4937:5009   */\n      tag_112\n      jump\t// in\n    tag_122:\n        /* \"#utility.yul\":5019:5091   */\n      tag_123\n        /* \"#utility.yul\":5087:5089   */\n      0x40\n        /* \"#utility.yul\":5076:5085   */\n      dup4\n        /* \"#utility.yul\":5072:5090   */\n      add\n        /* \"#utility.yul\":5063:5069   */\n      dup7\n        /* \"#utility.yul\":5019:5091   */\n      tag_112\n      jump\t// in\n    tag_123:\n        /* \"#utility.yul\":5101:5173   */\n      tag_124\n        /* \"#utility.yul\":5169:5171   */\n      0x60\n        /* \"#utility.yul\":5158:5167   */\n      dup4\n        /* \"#utility.yul\":5154:5172   */\n      add\n        /* \"#utility.yul\":5145:5151   */\n      dup6\n        /* \"#utility.yul\":5101:5173   */\n      tag_112\n      jump\t// in\n    tag_124:\n        /* \"#utility.yul\":5183:5256   */\n      tag_125\n        /* \"#utility.yul\":5251:5254   */\n      0x80\n        /* \"#utility.yul\":5240:5249   */\n      dup4\n        /* \"#utility.yul\":5236:5255   */\n      add\n        /* \"#utility.yul\":5227:5233   */\n      dup5\n        /* \"#utility.yul\":5183:5256   */\n      tag_85\n      jump\t// in\n    tag_125:\n        /* \"#utility.yul\":4738:5263   */\n      swap7\n      swap6\n      pop\n      pop\n      pop\n      pop\n      pop\n      pop\n      jump\t// out\n        /* \"#utility.yul\":5269:5398   */\n    tag_47:\n        /* \"#utility.yul\":5303:5309   */\n      0x00\n        /* \"#utility.yul\":5330:5350   */\n      tag_127\n      tag_128\n      jump\t// in\n    tag_127:\n        /* \"#utility.yul\":5320:5350   */\n      swap1\n      pop\n        /* \"#utility.yul\":5359:5392   */\n      tag_129\n        /* \"#utility.yul\":5387:5391   */\n      dup3\n        /* \"#utility.yul\":5379:5385   */\n      dup3\n        /* \"#utility.yul\":5359:5392   */\n      tag_130\n      jump\t// in\n    tag_129:\n        /* \"#utility.yul\":5310:5398   */\n      swap2\n      swap1\n      pop\n      jump\t// out\n        /* \"#utility.yul\":5404:5479   */\n    tag_128:\n        /* \"#utility.yul\":5437:5443   */\n      0x00\n        /* \"#utility.yul\":5470:5472   */\n      0x40\n        /* \"#utility.yul\":5464:5473   */\n      mload\n        /* \"#utility.yul\":5454:5473   */\n      swap1\n      pop\n        /* \"#utility.yul\":5444:5479   */\n      swap1\n      jump\t// out\n        /* \"#utility.yul\":5485:5793   */\n    tag_46:\n        /* \"#utility.yul\":5547:5551   */\n      0x00\n        /* \"#utility.yul\":5637:5655   */\n      0xffffffffffffffff\n        /* \"#utility.yul\":5629:5635   */\n      dup3\n        /* \"#utility.yul\":5626:5656   */\n      gt\n        /* \"#utility.yul\":5623:5625   */\n      iszero\n      tag_133\n      jumpi\n        /* \"#utility.yul\":5659:5677   */\n      tag_134\n      tag_135\n      jump\t// in\n    tag_134:\n        /* \"#utility.yul\":5623:5625   */\n    tag_133:\n        /* \"#utility.yul\":5697:5726   */\n      tag_136\n        /* \"#utility.yul\":5719:5725   */\n      dup3\n        /* \"#utility.yul\":5697:5726   */\n      tag_111\n      jump\t// in\n    tag_136:\n        /* \"#utility.yul\":5689:5726   */\n      swap1\n      pop\n        /* \"#utility.yul\":5781:5785   */\n      0x20\n        /* \"#utility.yul\":5775:5779   */\n      dup2\n        /* \"#utility.yul\":5771:5786   */\n      add\n        /* \"#utility.yul\":5763:5786   */\n      swap1\n      pop\n        /* \"#utility.yul\":5552:5793   */\n      swap2\n      swap1\n      pop\n      jump\t// out\n        /* \"#utility.yul\":5799:5931   */\n    tag_95:\n        /* \"#utility.yul\":5866:5870   */\n      0x00\n        /* \"#utility.yul\":5889:5892   */\n      dup2\n        /* \"#utility.yul\":5881:5892   */\n      swap1\n      pop\n        /* \"#utility.yul\":5919:5923   */\n      0x20\n        /* \"#utility.yul\":5914:5917   */\n      dup3\n        /* \"#utility.yul\":5910:5924   */\n      add\n        /* \"#utility.yul\":5902:5924   */\n      swap1\n      pop\n        /* \"#utility.yul\":5871:5931   */\n      swap2\n      swap1\n      pop\n      jump\t// out\n        /* \"#utility.yul\":5937:6051   */\n    tag_91:\n        /* \"#utility.yul\":6004:6010   */\n      0x00\n        /* \"#utility.yul\":6038:6043   */\n      dup2\n        /* \"#utility.yul\":6032:6044   */\n      mload\n        /* \"#utility.yul\":6022:6044   */\n      swap1\n      pop\n        /* \"#utility.yul\":6011:6051   */\n      swap2\n      swap1\n      pop\n      jump\t// out\n        /* \"#utility.yul\":6057:6156   */\n    tag_105:\n        /* \"#utility.yul\":6109:6115   */\n      0x00\n        /* \"#utility.yul\":6143:6148   */\n      dup2\n        /* \"#utility.yul\":6137:6149   */\n      mload\n        /* \"#utility.yul\":6127:6149   */\n      swap1\n      pop\n        /* \"#utility.yul\":6116:6156   */\n      swap2\n      swap1\n      pop\n      jump\t// out\n        /* \"#utility.yul\":6162:6275   */\n    tag_101:\n        /* \"#utility.yul\":6232:6236   */\n      0x00\n        /* \"#utility.yul\":6264:6268   */\n      0x20\n        /* \"#utility.yul\":6259:6262   */\n      dup3\n        /* \"#utility.yul\":6255:6269   */\n      add\n        /* \"#utility.yul\":6247:6269   */\n      swap1\n      pop\n        /* \"#utility.yul\":6237:6275   */\n      swap2\n      swap1\n      pop\n      jump\t// out\n        /* \"#utility.yul\":6281:6465   */\n    tag_93:\n        /* \"#utility.yul\":6380:6391   */\n      0x00\n        /* \"#utility.yul\":6414:6420   */\n      dup3\n        /* \"#utility.yul\":6409:6412   */\n      dup3\n        /* \"#utility.yul\":6402:6421   */\n      mstore\n        /* \"#utility.yul\":6454:6458   */\n      0x20\n        /* \"#utility.yul\":6449:6452   */\n      dup3\n        /* \"#utility.yul\":6445:6459   */\n      add\n        /* \"#utility.yul\":6430:6459   */\n      swap1\n      pop\n        /* \"#utility.yul\":6392:6465   */\n      swap3\n      swap2\n      pop\n      pop\n      jump\t// out\n        /* \"#utility.yul\":6471:6640   */\n    tag_107:\n        /* \"#utility.yul\":6555:6566   */\n      0x00\n        /* \"#utility.yul\":6589:6595   */\n      dup3\n        /* \"#utility.yul\":6584:6587   */\n      dup3\n        /* \"#utility.yul\":6577:6596   */\n      mstore\n        /* \"#utility.yul\":6629:6633   */\n      0x20\n        /* \"#utility.yul\":6624:6627   */\n      dup3\n        /* \"#utility.yul\":6620:6634   */\n      add\n        /* \"#utility.yul\":6605:6634   */\n      swap1\n      pop\n        /* \"#utility.yul\":6567:6640   */\n      swap3\n      swap2\n      pop\n      pop\n      jump\t// out\n        /* \"#utility.yul\":6646:6742   */\n    tag_84:\n        /* \"#utility.yul\":6683:6690   */\n      0x00\n        /* \"#utility.yul\":6712:6736   */\n      tag_144\n        /* \"#utility.yul\":6730:6735   */\n      dup3\n        /* \"#utility.yul\":6712:6736   */\n      tag_145\n      jump\t// in\n    tag_144:\n        /* \"#utility.yul\":6701:6736   */\n      swap1\n      pop\n        /* \"#utility.yul\":6691:6742   */\n      swap2\n      swap1\n      pop\n      jump\t// out\n        /* \"#utility.yul\":6748:6874   */\n    tag_145:\n        /* \"#utility.yul\":6785:6792   */\n      0x00\n        /* \"#utility.yul\":6825:6867   */\n      0xffffffffffffffffffffffffffffffffffffffff\n        /* \"#utility.yul\":6818:6823   */\n      dup3\n        /* \"#utility.yul\":6814:6868   */\n      and\n        /* \"#utility.yul\":6803:6868   */\n      swap1\n      pop\n        /* \"#utility.yul\":6793:6874   */\n      swap2\n      swap1\n      pop\n      jump\t// out\n        /* \"#utility.yul\":6880:6957   */\n    tag_115:\n        /* \"#utility.yul\":6917:6924   */\n      0x00\n        /* \"#utility.yul\":6946:6951   */\n      dup2\n        /* \"#utility.yul\":6935:6951   */\n      swap1\n      pop\n        /* \"#utility.yul\":6925:6957   */\n      swap2\n      swap1\n      pop\n      jump\t// out\n        /* \"#utility.yul\":6963:7117   */\n    tag_52:\n        /* \"#utility.yul\":7047:7053   */\n      dup3\n        /* \"#utility.yul\":7042:7045   */\n      dup2\n        /* \"#utility.yul\":7037:7040   */\n      dup4\n        /* \"#utility.yul\":7024:7054   */\n      calldatacopy\n        /* \"#utility.yul\":7109:7110   */\n      0x00\n        /* \"#utility.yul\":7100:7106   */\n      dup4\n        /* \"#utility.yul\":7095:7098   */\n      dup4\n        /* \"#utility.yul\":7091:7107   */\n      add\n        /* \"#utility.yul\":7084:7111   */\n      mstore\n        /* \"#utility.yul\":7014:7117   */\n      pop\n      pop\n      pop\n      jump\t// out\n        /* \"#utility.yul\":7123:7430   */\n    tag_109:\n        /* \"#utility.yul\":7191:7192   */\n      0x00\n        /* \"#utility.yul\":7201:7314   */\n    tag_150:\n        /* \"#utility.yul\":7215:7221   */\n      dup4\n        /* \"#utility.yul\":7212:7213   */\n      dup2\n        /* \"#utility.yul\":7209:7222   */\n      lt\n        /* \"#utility.yul\":7201:7314   */\n      iszero\n      tag_152\n      jumpi\n        /* \"#utility.yul\":7300:7301   */\n      dup1\n        /* \"#utility.yul\":7295:7298   */\n      dup3\n        /* \"#utility.yul\":7291:7302   */\n      add\n        /* \"#utility.yul\":7285:7303   */\n      mload\n        /* \"#utility.yul\":7281:7282   */\n      dup2\n        /* \"#utility.yul\":7276:7279   */\n      dup5\n        /* \"#utility.yul\":7272:7283   */\n      add\n        /* \"#utility.yul\":7265:7304   */\n      mstore\n        /* \"#utility.yul\":7237:7239   */\n      0x20\n        /* \"#utility.yul\":7234:7235   */\n      dup2\n        /* \"#utility.yul\":7230:7240   */\n      add\n        /* \"#utility.yul\":7225:7240   */\n      swap1\n      pop\n        /* \"#utility.yul\":7201:7314   */\n      jump(tag_150)\n    tag_152:\n        /* \"#utility.yul\":7332:7338   */\n      dup4\n        /* \"#utility.yul\":7329:7330   */\n      dup2\n        /* \"#utility.yul\":7326:7339   */\n      gt\n        /* \"#utility.yul\":7323:7325   */\n      iszero\n      tag_153\n      jumpi\n        /* \"#utility.yul\":7412:7413   */\n      0x00\n        /* \"#utility.yul\":7403:7409   */\n      dup5\n        /* \"#utility.yul\":7398:7401   */\n      dup5\n        /* \"#utility.yul\":7394:7410   */\n      add\n        /* \"#utility.yul\":7387:7414   */\n      mstore\n        /* \"#utility.yul\":7323:7325   */\n    tag_153:\n        /* \"#utility.yul\":7172:7430   */\n      pop\n      pop\n      pop\n      pop\n      jump\t// out\n        /* \"#utility.yul\":7436:7717   */\n    tag_130:\n        /* \"#utility.yul\":7519:7546   */\n      tag_155\n        /* \"#utility.yul\":7541:7545   */\n      dup3\n        /* \"#utility.yul\":7519:7546   */\n      tag_111\n      jump\t// in\n    tag_155:\n        /* \"#utility.yul\":7511:7517   */\n      dup2\n        /* \"#utility.yul\":7507:7547   */\n      add\n        /* \"#utility.yul\":7649:7655   */\n      dup2\n        /* \"#utility.yul\":7637:7647   */\n      dup2\n        /* \"#utility.yul\":7634:7656   */\n      lt\n        /* \"#utility.yul\":7613:7631   */\n      0xffffffffffffffff\n        /* \"#utility.yul\":7601:7611   */\n      dup3\n        /* \"#utility.yul\":7598:7632   */\n      gt\n        /* \"#utility.yul\":7595:7657   */\n      or\n        /* \"#utility.yul\":7592:7594   */\n      iszero\n      tag_156\n      jumpi\n        /* \"#utility.yul\":7660:7678   */\n      tag_157\n      tag_135\n      jump\t// in\n    tag_157:\n        /* \"#utility.yul\":7592:7594   */\n    tag_156:\n        /* \"#utility.yul\":7700:7710   */\n      dup1\n        /* \"#utility.yul\":7696:7698   */\n      0x40\n        /* \"#utility.yul\":7689:7711   */\n      mstore\n        /* \"#utility.yul\":7479:7717   */\n      pop\n      pop\n      pop\n      jump\t// out\n        /* \"#utility.yul\":7723:7903   */\n    tag_135:\n        /* \"#utility.yul\":7771:7848   */\n      0x4e487b7100000000000000000000000000000000000000000000000000000000\n        /* \"#utility.yul\":7768:7769   */\n      0x00\n        /* \"#utility.yul\":7761:7849   */\n      mstore\n        /* \"#utility.yul\":7868:7872   */\n      0x41\n        /* \"#utility.yul\":7865:7866   */\n      0x04\n        /* \"#utility.yul\":7858:7873   */\n      mstore\n        /* \"#utility.yul\":7892:7896   */\n      0x24\n        /* \"#utility.yul\":7889:7890   */\n      0x00\n        /* \"#utility.yul\":7882:7897   */\n      revert\n        /* \"#utility.yul\":7909:8026   */\n    tag_57:\n        /* \"#utility.yul\":8018:8019   */\n      0x00\n        /* \"#utility.yul\":8015:8016   */\n      dup1\n        /* \"#utility.yul\":8008:8020   */\n      revert\n        /* \"#utility.yul\":8032:8149   */\n    tag_50:\n        /* \"#utility.yul\":8141:8142   */\n      0x00\n        /* \"#utility.yul\":8138:8139   */\n      dup1\n        /* \"#utility.yul\":8131:8143   */\n      revert\n        /* \"#utility.yul\":8155:8272   */\n    tag_69:\n        /* \"#utility.yul\":8264:8265   */\n      0x00\n        /* \"#utility.yul\":8261:8262   */\n      dup1\n        /* \"#utility.yul\":8254:8266   */\n      revert\n        /* \"#utility.yul\":8278:8395   */\n    tag_66:\n        /* \"#utility.yul\":8387:8388   */\n      0x00\n        /* \"#utility.yul\":8384:8385   */\n      dup1\n        /* \"#utility.yul\":8377:8389   */\n      revert\n        /* \"#utility.yul\":8401:8503   */\n    tag_111:\n        /* \"#utility.yul\":8442:8448   */\n      0x00\n        /* \"#utility.yul\":8493:8495   */\n      0x1f\n        /* \"#utility.yul\":8489:8496   */\n      not\n        /* \"#utility.yul\":8484:8486   */\n      0x1f\n        /* \"#utility.yul\":8477:8482   */\n      dup4\n        /* \"#utility.yul\":8473:8487   */\n      add\n        /* \"#utility.yul\":8469:8497   */\n      and\n        /* \"#utility.yul\":8459:8497   */\n      swap1\n      pop\n        /* \"#utility.yul\":8449:8503   */\n      swap2\n      swap1\n      pop\n      jump\t// out\n        /* \"#utility.yul\":8509:8631   */\n    tag_62:\n        /* \"#utility.yul\":8582:8606   */\n      tag_165\n        /* \"#utility.yul\":8600:8605   */\n      dup2\n        /* \"#utility.yul\":8582:8606   */\n      tag_115\n      jump\t// in\n    tag_165:\n        /* \"#utility.yul\":8575:8580   */\n      dup2\n        /* \"#utility.yul\":8572:8607   */\n      eq\n        /* \"#utility.yul\":8562:8564   */\n      tag_166\n      jumpi\n        /* \"#utility.yul\":8621:8622   */\n      0x00\n        /* \"#utility.yul\":8618:8619   */\n      dup1\n        /* \"#utility.yul\":8611:8623   */\n      revert\n        /* \"#utility.yul\":8562:8564   */\n    tag_166:\n        /* \"#utility.yul\":8552:8631   */\n      pop\n      jump\t// out\n    stop\n\n    sub_0: assembly {\n            /* \"Project.sol\":88:4749  contract Project {\r... */\n          mstore(0x40, 0x80)\n            /* \"Project.sol\":729:1051  constructor(\r... */\n          callvalue\n          dup1\n          iszero\n          tag_1\n          jumpi\n          0x00\n          dup1\n          revert\n        tag_1:\n          pop\n          mload(0x40)\n          sub(codesize, bytecodeSize)\n          dup1\n          bytecodeSize\n          dup4\n          codecopy\n          dup2\n          dup2\n          add\n          0x40\n          mstore\n          dup2\n          add\n          swap1\n          tag_2\n          swap2\n          swap1\n          tag_3\n          jump\t// in\n        tag_2:\n            /* \"Project.sol\":911:917  _owner */\n          dup1\n            /* \"Project.sol\":903:908  owner */\n          0x00\n          dup1\n            /* \"Project.sol\":903:917  owner = _owner */\n          0x0100\n          exp\n          dup2\n          sload\n          dup2\n          0xffffffffffffffffffffffffffffffffffffffff\n          mul\n          not\n          and\n          swap1\n          dup4\n          0xffffffffffffffffffffffffffffffffffffffff\n          and\n          mul\n          or\n          swap1\n          sstore\n          pop\n            /* \"Project.sol\":942:954  _description */\n          dup5\n            /* \"Project.sol\":928:939  description */\n          0x01\n            /* \"Project.sol\":928:954  description = _description */\n          swap1\n          dup1\n          mload\n          swap1\n          0x20\n          add\n          swap1\n          tag_6\n          swap3\n          swap2\n          swap1\n          tag_7\n          jump\t// in\n        tag_6:\n          pop\n            /* \"Project.sol\":977:987  _minInvest */\n          dup4\n            /* \"Project.sol\":965:974  minInvest */\n          0x02\n            /* \"Project.sol\":965:987  minInvest = _minInvest */\n          dup2\n          swap1\n          sstore\n          pop\n            /* \"Project.sol\":1010:1020  _maxInvest */\n          dup3\n            /* \"Project.sol\":998:1007  maxInvest */\n          0x03\n            /* \"Project.sol\":998:1020  maxInvest = _maxInvest */\n          dup2\n          swap1\n          sstore\n          pop\n            /* \"Project.sol\":1038:1043  _goal */\n          dup2\n            /* \"Project.sol\":1031:1035  goal */\n          0x04\n            /* \"Project.sol\":1031:1043  goal = _goal */\n          dup2\n          swap1\n          sstore\n          pop\n            /* \"Project.sol\":729:1051  constructor(\r... */\n          pop\n          pop\n          pop\n          pop\n          pop\n            /* \"Project.sol\":88:4749  contract Project {\r... */\n          jump(tag_8)\n        tag_7:\n          dup3\n          dup1\n          sload\n          tag_9\n          swap1\n          tag_10\n          jump\t// in\n        tag_9:\n          swap1\n          0x00\n          mstore\n          keccak256(0x00, 0x20)\n          swap1\n          0x1f\n          add\n          0x20\n          swap1\n          div\n          dup2\n          add\n          swap3\n          dup3\n          tag_12\n          jumpi\n          0x00\n          dup6\n          sstore\n          jump(tag_11)\n        tag_12:\n          dup3\n          0x1f\n          lt\n          tag_13\n          jumpi\n          dup1\n          mload\n          not(0xff)\n          and\n          dup4\n          dup1\n          add\n          or\n          dup6\n          sstore\n          jump(tag_11)\n        tag_13:\n          dup3\n          dup1\n          add\n          0x01\n          add\n          dup6\n          sstore\n          dup3\n          iszero\n          tag_11\n          jumpi\n          swap2\n          dup3\n          add\n        tag_14:\n          dup3\n          dup2\n          gt\n          iszero\n          tag_15\n          jumpi\n          dup3\n          mload\n          dup3\n          sstore\n          swap2\n          0x20\n          add\n          swap2\n          swap1\n          0x01\n          add\n          swap1\n          jump(tag_14)\n        tag_15:\n        tag_11:\n          pop\n          swap1\n          pop\n          tag_16\n          swap2\n          swap1\n          tag_17\n          jump\t// in\n        tag_16:\n          pop\n          swap1\n          jump\t// out\n        tag_17:\n        tag_18:\n          dup1\n          dup3\n          gt\n          iszero\n          tag_19\n          jumpi\n          0x00\n          dup2\n          0x00\n          swap1\n          sstore\n          pop\n          0x01\n          add\n          jump(tag_18)\n        tag_19:\n          pop\n          swap1\n          jump\t// out\n            /* \"#utility.yul\":7:428   */\n        tag_21:\n            /* \"#utility.yul\":96:101   */\n          0x00\n            /* \"#utility.yul\":121:187   */\n          tag_23\n            /* \"#utility.yul\":137:186   */\n          tag_24\n            /* \"#utility.yul\":179:185   */\n          dup5\n            /* \"#utility.yul\":137:186   */\n          tag_25\n          jump\t// in\n        tag_24:\n            /* \"#utility.yul\":121:187   */\n          tag_26\n          jump\t// in\n        tag_23:\n            /* \"#utility.yul\":112:187   */\n          swap1\n          pop\n            /* \"#utility.yul\":210:216   */\n          dup3\n            /* \"#utility.yul\":203:208   */\n          dup2\n            /* \"#utility.yul\":196:217   */\n          mstore\n            /* \"#utility.yul\":248:252   */\n          0x20\n            /* \"#utility.yul\":241:246   */\n          dup2\n            /* \"#utility.yul\":237:253   */\n          add\n            /* \"#utility.yul\":286:289   */\n          dup5\n            /* \"#utility.yul\":277:283   */\n          dup5\n            /* \"#utility.yul\":272:275   */\n          dup5\n            /* \"#utility.yul\":268:284   */\n          add\n            /* \"#utility.yul\":265:290   */\n          gt\n            /* \"#utility.yul\":262:264   */\n          iszero\n          tag_27\n          jumpi\n            /* \"#utility.yul\":293:372   */\n          tag_28\n          tag_29\n          jump\t// in\n        tag_28:\n            /* \"#utility.yul\":262:264   */\n        tag_27:\n            /* \"#utility.yul\":383:422   */\n          tag_30\n            /* \"#utility.yul\":415:421   */\n          dup5\n            /* \"#utility.yul\":410:413   */\n          dup3\n            /* \"#utility.yul\":405:408   */\n          dup6\n            /* \"#utility.yul\":383:422   */\n          tag_31\n          jump\t// in\n        tag_30:\n            /* \"#utility.yul\":102:428   */\n          pop\n          swap4\n          swap3\n          pop\n          pop\n          pop\n          jump\t// out\n            /* \"#utility.yul\":434:577   */\n        tag_32:\n            /* \"#utility.yul\":491:496   */\n          0x00\n            /* \"#utility.yul\":522:528   */\n          dup2\n            /* \"#utility.yul\":516:529   */\n          mload\n            /* \"#utility.yul\":507:529   */\n          swap1\n          pop\n            /* \"#utility.yul\":538:571   */\n          tag_34\n            /* \"#utility.yul\":565:570   */\n          dup2\n            /* \"#utility.yul\":538:571   */\n          tag_35\n          jump\t// in\n        tag_34:\n            /* \"#utility.yul\":497:577   */\n          swap3\n          swap2\n          pop\n          pop\n          jump\t// out\n            /* \"#utility.yul\":597:952   */\n        tag_36:\n            /* \"#utility.yul\":664:669   */\n          0x00\n            /* \"#utility.yul\":713:716   */\n          dup3\n            /* \"#utility.yul\":706:710   */\n          0x1f\n            /* \"#utility.yul\":698:704   */\n          dup4\n            /* \"#utility.yul\":694:711   */\n          add\n            /* \"#utility.yul\":690:717   */\n          slt\n            /* \"#utility.yul\":680:682   */\n          tag_38\n          jumpi\n            /* \"#utility.yul\":721:800   */\n          tag_39\n          tag_40\n          jump\t// in\n        tag_39:\n            /* \"#utility.yul\":680:682   */\n        tag_38:\n            /* \"#utility.yul\":831:837   */\n          dup2\n            /* \"#utility.yul\":825:838   */\n          mload\n            /* \"#utility.yul\":856:946   */\n          tag_41\n            /* \"#utility.yul\":942:945   */\n          dup5\n            /* \"#utility.yul\":934:940   */\n          dup3\n            /* \"#utility.yul\":927:931   */\n          0x20\n            /* \"#utility.yul\":919:925   */\n          dup7\n            /* \"#utility.yul\":915:932   */\n          add\n            /* \"#utility.yul\":856:946   */\n          tag_21\n          jump\t// in\n        tag_41:\n            /* \"#utility.yul\":847:946   */\n          swap2\n          pop\n            /* \"#utility.yul\":670:952   */\n          pop\n          swap3\n          swap2\n          pop\n          pop\n          jump\t// out\n            /* \"#utility.yul\":958:1101   */\n        tag_42:\n            /* \"#utility.yul\":1015:1020   */\n          0x00\n            /* \"#utility.yul\":1046:1052   */\n          dup2\n            /* \"#utility.yul\":1040:1053   */\n          mload\n            /* \"#utility.yul\":1031:1053   */\n          swap1\n          pop\n            /* \"#utility.yul\":1062:1095   */\n          tag_44\n            /* \"#utility.yul\":1089:1094   */\n          dup2\n            /* \"#utility.yul\":1062:1095   */\n          tag_45\n          jump\t// in\n        tag_44:\n            /* \"#utility.yul\":1021:1101   */\n          swap3\n          swap2\n          pop\n          pop\n          jump\t// out\n            /* \"#utility.yul\":1107:2257   */\n        tag_3:\n            /* \"#utility.yul\":1223:1229   */\n          0x00\n            /* \"#utility.yul\":1231:1237   */\n          dup1\n            /* \"#utility.yul\":1239:1245   */\n          0x00\n            /* \"#utility.yul\":1247:1253   */\n          dup1\n            /* \"#utility.yul\":1255:1261   */\n          0x00\n            /* \"#utility.yul\":1304:1307   */\n          0xa0\n            /* \"#utility.yul\":1292:1301   */\n          dup7\n            /* \"#utility.yul\":1283:1290   */\n          dup9\n            /* \"#utility.yul\":1279:1302   */\n          sub\n            /* \"#utility.yul\":1275:1308   */\n          slt\n            /* \"#utility.yul\":1272:1274   */\n          iszero\n          tag_47\n          jumpi\n            /* \"#utility.yul\":1311:1390   */\n          tag_48\n          tag_49\n          jump\t// in\n        tag_48:\n            /* \"#utility.yul\":1272:1274   */\n        tag_47:\n            /* \"#utility.yul\":1452:1453   */\n          0x00\n            /* \"#utility.yul\":1441:1450   */\n          dup7\n            /* \"#utility.yul\":1437:1454   */\n          add\n            /* \"#utility.yul\":1431:1455   */\n          mload\n            /* \"#utility.yul\":1482:1500   */\n          0xffffffffffffffff\n            /* \"#utility.yul\":1474:1480   */\n          dup2\n            /* \"#utility.yul\":1471:1501   */\n          gt\n            /* \"#utility.yul\":1468:1470   */\n          iszero\n          tag_50\n          jumpi\n            /* \"#utility.yul\":1504:1583   */\n          tag_51\n          tag_52\n          jump\t// in\n        tag_51:\n            /* \"#utility.yul\":1468:1470   */\n        tag_50:\n            /* \"#utility.yul\":1609:1683   */\n          tag_53\n            /* \"#utility.yul\":1675:1682   */\n          dup9\n            /* \"#utility.yul\":1666:1672   */\n          dup3\n            /* \"#utility.yul\":1655:1664   */\n          dup10\n            /* \"#utility.yul\":1651:1673   */\n          add\n            /* \"#utility.yul\":1609:1683   */\n          tag_36\n          jump\t// in\n        tag_53:\n            /* \"#utility.yul\":1599:1683   */\n          swap6\n          pop\n            /* \"#utility.yul\":1402:1693   */\n          pop\n            /* \"#utility.yul\":1732:1734   */\n          0x20\n            /* \"#utility.yul\":1758:1822   */\n          tag_54\n            /* \"#utility.yul\":1814:1821   */\n          dup9\n            /* \"#utility.yul\":1805:1811   */\n          dup3\n            /* \"#utility.yul\":1794:1803   */\n          dup10\n            /* \"#utility.yul\":1790:1812   */\n          add\n            /* \"#utility.yul\":1758:1822   */\n          tag_42\n          jump\t// in\n        tag_54:\n            /* \"#utility.yul\":1748:1822   */\n          swap5\n          pop\n            /* \"#utility.yul\":1703:1832   */\n          pop\n            /* \"#utility.yul\":1871:1873   */\n          0x40\n            /* \"#utility.yul\":1897:1961   */\n          tag_55\n            /* \"#utility.yul\":1953:1960   */\n          dup9\n            /* \"#utility.yul\":1944:1950   */\n          dup3\n            /* \"#utility.yul\":1933:1942   */\n          dup10\n            /* \"#utility.yul\":1929:1951   */\n          add\n            /* \"#utility.yul\":1897:1961   */\n          tag_42\n          jump\t// in\n        tag_55:\n            /* \"#utility.yul\":1887:1961   */\n          swap4\n          pop\n            /* \"#utility.yul\":1842:1971   */\n          pop\n            /* \"#utility.yul\":2010:2012   */\n          0x60\n            /* \"#utility.yul\":2036:2100   */\n          tag_56\n            /* \"#utility.yul\":2092:2099   */\n          dup9\n            /* \"#utility.yul\":2083:2089   */\n          dup3\n            /* \"#utility.yul\":2072:2081   */\n          dup10\n            /* \"#utility.yul\":2068:2090   */\n          add\n            /* \"#utility.yul\":2036:2100   */\n          tag_42\n          jump\t// in\n        tag_56:\n            /* \"#utility.yul\":2026:2100   */\n          swap3\n          pop\n            /* \"#utility.yul\":1981:2110   */\n          pop\n            /* \"#utility.yul\":2149:2152   */\n          0x80\n            /* \"#utility.yul\":2176:2240   */\n          tag_57\n            /* \"#utility.yul\":2232:2239   */\n          dup9\n            /* \"#utility.yul\":2223:2229   */\n          dup3\n            /* \"#utility.yul\":2212:2221   */\n          dup10\n            /* \"#utility.yul\":2208:2230   */\n          add\n            /* \"#utility.yul\":2176:2240   */\n          tag_32\n          jump\t// in\n        tag_57:\n            /* \"#utility.yul\":2166:2240   */\n          swap2\n          pop\n            /* \"#utility.yul\":2120:2250   */\n          pop\n            /* \"#utility.yul\":1262:2257   */\n          swap3\n          swap6\n          pop\n          swap3\n          swap6\n          swap1\n          swap4\n          pop\n          jump\t// out\n            /* \"#utility.yul\":2263:2392   */\n        tag_26:\n            /* \"#utility.yul\":2297:2303   */\n          0x00\n            /* \"#utility.yul\":2324:2344   */\n          tag_59\n          tag_60\n          jump\t// in\n        tag_59:\n            /* \"#utility.yul\":2314:2344   */\n          swap1\n          pop\n            /* \"#utility.yul\":2353:2386   */\n          tag_61\n            /* \"#utility.yul\":2381:2385   */\n          dup3\n            /* \"#utility.yul\":2373:2379   */\n          dup3\n            /* \"#utility.yul\":2353:2386   */\n          tag_62\n          jump\t// in\n        tag_61:\n            /* \"#utility.yul\":2304:2392   */\n          swap2\n          swap1\n          pop\n          jump\t// out\n            /* \"#utility.yul\":2398:2473   */\n        tag_60:\n            /* \"#utility.yul\":2431:2437   */\n          0x00\n            /* \"#utility.yul\":2464:2466   */\n          0x40\n            /* \"#utility.yul\":2458:2467   */\n          mload\n            /* \"#utility.yul\":2448:2467   */\n          swap1\n          pop\n            /* \"#utility.yul\":2438:2473   */\n          swap1\n          jump\t// out\n            /* \"#utility.yul\":2479:2787   */\n        tag_25:\n            /* \"#utility.yul\":2541:2545   */\n          0x00\n            /* \"#utility.yul\":2631:2649   */\n          0xffffffffffffffff\n            /* \"#utility.yul\":2623:2629   */\n          dup3\n            /* \"#utility.yul\":2620:2650   */\n          gt\n            /* \"#utility.yul\":2617:2619   */\n          iszero\n          tag_65\n          jumpi\n            /* \"#utility.yul\":2653:2671   */\n          tag_66\n          tag_67\n          jump\t// in\n        tag_66:\n            /* \"#utility.yul\":2617:2619   */\n        tag_65:\n            /* \"#utility.yul\":2691:2720   */\n          tag_68\n            /* \"#utility.yul\":2713:2719   */\n          dup3\n            /* \"#utility.yul\":2691:2720   */\n          tag_69\n          jump\t// in\n        tag_68:\n            /* \"#utility.yul\":2683:2720   */\n          swap1\n          pop\n            /* \"#utility.yul\":2775:2779   */\n          0x20\n            /* \"#utility.yul\":2769:2773   */\n          dup2\n            /* \"#utility.yul\":2765:2780   */\n          add\n            /* \"#utility.yul\":2757:2780   */\n          swap1\n          pop\n            /* \"#utility.yul\":2546:2787   */\n          swap2\n          swap1\n          pop\n          jump\t// out\n            /* \"#utility.yul\":2793:2889   */\n        tag_70:\n            /* \"#utility.yul\":2830:2837   */\n          0x00\n            /* \"#utility.yul\":2859:2883   */\n          tag_72\n            /* \"#utility.yul\":2877:2882   */\n          dup3\n            /* \"#utility.yul\":2859:2883   */\n          tag_73\n          jump\t// in\n        tag_72:\n            /* \"#utility.yul\":2848:2883   */\n          swap1\n          pop\n            /* \"#utility.yul\":2838:2889   */\n          swap2\n          swap1\n          pop\n          jump\t// out\n            /* \"#utility.yul\":2895:3021   */\n        tag_73:\n            /* \"#utility.yul\":2932:2939   */\n          0x00\n            /* \"#utility.yul\":2972:3014   */\n          0xffffffffffffffffffffffffffffffffffffffff\n            /* \"#utility.yul\":2965:2970   */\n          dup3\n            /* \"#utility.yul\":2961:3015   */\n          and\n            /* \"#utility.yul\":2950:3015   */\n          swap1\n          pop\n            /* \"#utility.yul\":2940:3021   */\n          swap2\n          swap1\n          pop\n          jump\t// out\n            /* \"#utility.yul\":3027:3104   */\n        tag_75:\n            /* \"#utility.yul\":3064:3071   */\n          0x00\n            /* \"#utility.yul\":3093:3098   */\n          dup2\n            /* \"#utility.yul\":3082:3098   */\n          swap1\n          pop\n            /* \"#utility.yul\":3072:3104   */\n          swap2\n          swap1\n          pop\n          jump\t// out\n            /* \"#utility.yul\":3110:3417   */\n        tag_31:\n            /* \"#utility.yul\":3178:3179   */\n          0x00\n            /* \"#utility.yul\":3188:3301   */\n        tag_78:\n            /* \"#utility.yul\":3202:3208   */\n          dup4\n            /* \"#utility.yul\":3199:3200   */\n          dup2\n            /* \"#utility.yul\":3196:3209   */\n          lt\n            /* \"#utility.yul\":3188:3301   */\n          iszero\n          tag_80\n          jumpi\n            /* \"#utility.yul\":3287:3288   */\n          dup1\n            /* \"#utility.yul\":3282:3285   */\n          dup3\n            /* \"#utility.yul\":3278:3289   */\n          add\n            /* \"#utility.yul\":3272:3290   */\n          mload\n            /* \"#utility.yul\":3268:3269   */\n          dup2\n            /* \"#utility.yul\":3263:3266   */\n          dup5\n            /* \"#utility.yul\":3259:3270   */\n          add\n            /* \"#utility.yul\":3252:3291   */\n          mstore\n            /* \"#utility.yul\":3224:3226   */\n          0x20\n            /* \"#utility.yul\":3221:3222   */\n          dup2\n            /* \"#utility.yul\":3217:3227   */\n          add\n            /* \"#utility.yul\":3212:3227   */\n          swap1\n          pop\n            /* \"#utility.yul\":3188:3301   */\n          jump(tag_78)\n        tag_80:\n            /* \"#utility.yul\":3319:3325   */\n          dup4\n            /* \"#utility.yul\":3316:3317   */\n          dup2\n            /* \"#utility.yul\":3313:3326   */\n          gt\n            /* \"#utility.yul\":3310:3312   */\n          iszero\n          tag_81\n          jumpi\n            /* \"#utility.yul\":3399:3400   */\n          0x00\n            /* \"#utility.yul\":3390:3396   */\n          dup5\n            /* \"#utility.yul\":3385:3388   */\n          dup5\n            /* \"#utility.yul\":3381:3397   */\n          add\n            /* \"#utility.yul\":3374:3401   */\n          mstore\n            /* \"#utility.yul\":3310:3312   */\n        tag_81:\n            /* \"#utility.yul\":3159:3417   */\n          pop\n          pop\n          pop\n          pop\n          jump\t// out\n            /* \"#utility.yul\":3423:3743   */\n        tag_10:\n            /* \"#utility.yul\":3467:3473   */\n          0x00\n            /* \"#utility.yul\":3504:3505   */\n          0x02\n            /* \"#utility.yul\":3498:3502   */\n          dup3\n            /* \"#utility.yul\":3494:3506   */\n          div\n            /* \"#utility.yul\":3484:3506   */\n          swap1\n          pop\n            /* \"#utility.yul\":3551:3552   */\n          0x01\n            /* \"#utility.yul\":3545:3549   */\n          dup3\n            /* \"#utility.yul\":3541:3553   */\n          and\n            /* \"#utility.yul\":3572:3590   */\n          dup1\n            /* \"#utility.yul\":3562:3564   */\n          tag_83\n          jumpi\n            /* \"#utility.yul\":3628:3632   */\n          0x7f\n            /* \"#utility.yul\":3620:3626   */\n          dup3\n            /* \"#utility.yul\":3616:3633   */\n          and\n            /* \"#utility.yul\":3606:3633   */\n          swap2\n          pop\n            /* \"#utility.yul\":3562:3564   */\n        tag_83:\n            /* \"#utility.yul\":3690:3692   */\n          0x20\n            /* \"#utility.yul\":3682:3688   */\n          dup3\n            /* \"#utility.yul\":3679:3693   */\n          lt\n            /* \"#utility.yul\":3659:3677   */\n          dup2\n            /* \"#utility.yul\":3656:3694   */\n          eq\n            /* \"#utility.yul\":3653:3655   */\n          iszero\n          tag_84\n          jumpi\n            /* \"#utility.yul\":3709:3727   */\n          tag_85\n          tag_86\n          jump\t// in\n        tag_85:\n            /* \"#utility.yul\":3653:3655   */\n        tag_84:\n            /* \"#utility.yul\":3474:3743   */\n          pop\n          swap2\n          swap1\n          pop\n          jump\t// out\n            /* \"#utility.yul\":3749:4030   */\n        tag_62:\n            /* \"#utility.yul\":3832:3859   */\n          tag_88\n            /* \"#utility.yul\":3854:3858   */\n          dup3\n            /* \"#utility.yul\":3832:3859   */\n          tag_69\n          jump\t// in\n        tag_88:\n            /* \"#utility.yul\":3824:3830   */\n          dup2\n            /* \"#utility.yul\":3820:3860   */\n          add\n            /* \"#utility.yul\":3962:3968   */\n          dup2\n            /* \"#utility.yul\":3950:3960   */\n          dup2\n            /* \"#utility.yul\":3947:3969   */\n          lt\n            /* \"#utility.yul\":3926:3944   */\n          0xffffffffffffffff\n            /* \"#utility.yul\":3914:3924   */\n          dup3\n            /* \"#utility.yul\":3911:3945   */\n          gt\n            /* \"#utility.yul\":3908:3970   */\n          or\n            /* \"#utility.yul\":3905:3907   */\n          iszero\n          tag_89\n          jumpi\n            /* \"#utility.yul\":3973:3991   */\n          tag_90\n          tag_67\n          jump\t// in\n        tag_90:\n            /* \"#utility.yul\":3905:3907   */\n        tag_89:\n            /* \"#utility.yul\":4013:4023   */\n          dup1\n            /* \"#utility.yul\":4009:4011   */\n          0x40\n            /* \"#utility.yul\":4002:4024   */\n          mstore\n            /* \"#utility.yul\":3792:4030   */\n          pop\n          pop\n          pop\n          jump\t// out\n            /* \"#utility.yul\":4036:4216   */\n        tag_86:\n            /* \"#utility.yul\":4084:4161   */\n          0x4e487b7100000000000000000000000000000000000000000000000000000000\n            /* \"#utility.yul\":4081:4082   */\n          0x00\n            /* \"#utility.yul\":4074:4162   */\n          mstore\n            /* \"#utility.yul\":4181:4185   */\n          0x22\n            /* \"#utility.yul\":4178:4179   */\n          0x04\n            /* \"#utility.yul\":4171:4186   */\n          mstore\n            /* \"#utility.yul\":4205:4209   */\n          0x24\n            /* \"#utility.yul\":4202:4203   */\n          0x00\n            /* \"#utility.yul\":4195:4210   */\n          revert\n            /* \"#utility.yul\":4222:4402   */\n        tag_67:\n            /* \"#utility.yul\":4270:4347   */\n          0x4e487b7100000000000000000000000000000000000000000000000000000000\n            /* \"#utility.yul\":4267:4268   */\n          0x00\n            /* \"#utility.yul\":4260:4348   */\n          mstore\n            /* \"#utility.yul\":4367:4371   */\n          0x41\n            /* \"#utility.yul\":4364:4365   */\n          0x04\n            /* \"#utility.yul\":4357:4372   */\n          mstore\n            /* \"#utility.yul\":4391:4395   */\n          0x24\n            /* \"#utility.yul\":4388:4389   */\n          0x00\n            /* \"#utility.yul\":4381:4396   */\n          revert\n            /* \"#utility.yul\":4408:4525   */\n        tag_40:\n            /* \"#utility.yul\":4517:4518   */\n          0x00\n            /* \"#utility.yul\":4514:4515   */\n          dup1\n            /* \"#utility.yul\":4507:4519   */\n          revert\n            /* \"#utility.yul\":4531:4648   */\n        tag_29:\n            /* \"#utility.yul\":4640:4641   */\n          0x00\n            /* \"#utility.yul\":4637:4638   */\n          dup1\n            /* \"#utility.yul\":4630:4642   */\n          revert\n            /* \"#utility.yul\":4654:4771   */\n        tag_52:\n            /* \"#utility.yul\":4763:4764   */\n          0x00\n            /* \"#utility.yul\":4760:4761   */\n          dup1\n            /* \"#utility.yul\":4753:4765   */\n          revert\n            /* \"#utility.yul\":4777:4894   */\n        tag_49:\n            /* \"#utility.yul\":4886:4887   */\n          0x00\n            /* \"#utility.yul\":4883:4884   */\n          dup1\n            /* \"#utility.yul\":4876:4888   */\n          revert\n            /* \"#utility.yul\":4900:5002   */\n        tag_69:\n            /* \"#utility.yul\":4941:4947   */\n          0x00\n            /* \"#utility.yul\":4992:4994   */\n          0x1f\n            /* \"#utility.yul\":4988:4995   */\n          not\n            /* \"#utility.yul\":4983:4985   */\n          0x1f\n            /* \"#utility.yul\":4976:4981   */\n          dup4\n            /* \"#utility.yul\":4972:4986   */\n          add\n            /* \"#utility.yul\":4968:4996   */\n          and\n            /* \"#utility.yul\":4958:4996   */\n          swap1\n          pop\n            /* \"#utility.yul\":4948:5002   */\n          swap2\n          swap1\n          pop\n          jump\t// out\n            /* \"#utility.yul\":5008:5130   */\n        tag_35:\n            /* \"#utility.yul\":5081:5105   */\n          tag_99\n            /* \"#utility.yul\":5099:5104   */\n          dup2\n            /* \"#utility.yul\":5081:5105   */\n          tag_70\n          jump\t// in\n        tag_99:\n            /* \"#utility.yul\":5074:5079   */\n          dup2\n            /* \"#utility.yul\":5071:5106   */\n          eq\n            /* \"#utility.yul\":5061:5063   */\n          tag_100\n          jumpi\n            /* \"#utility.yul\":5120:5121   */\n          0x00\n            /* \"#utility.yul\":5117:5118   */\n          dup1\n            /* \"#utility.yul\":5110:5122   */\n          revert\n            /* \"#utility.yul\":5061:5063   */\n        tag_100:\n            /* \"#utility.yul\":5051:5130   */\n          pop\n          jump\t// out\n            /* \"#utility.yul\":5136:5258   */\n        tag_45:\n            /* \"#utility.yul\":5209:5233   */\n          tag_102\n            /* \"#utility.yul\":5227:5232   */\n          dup2\n            /* \"#utility.yul\":5209:5233   */\n          tag_75\n          jump\t// in\n        tag_102:\n            /* \"#utility.yul\":5202:5207   */\n          dup2\n            /* \"#utility.yul\":5199:5234   */\n          eq\n            /* \"#utility.yul\":5189:5191   */\n          tag_103\n          jumpi\n            /* \"#utility.yul\":5248:5249   */\n          0x00\n            /* \"#utility.yul\":5245:5246   */\n          dup1\n            /* \"#utility.yul\":5238:5250   */\n          revert\n            /* \"#utility.yul\":5189:5191   */\n        tag_103:\n            /* \"#utility.yul\":5179:5258   */\n          pop\n          jump\t// out\n            /* \"Project.sol\":88:4749  contract Project {\r... */\n        tag_8:\n          dataSize(sub_0)\n          dup1\n          dataOffset(sub_0)\n          0x00\n          codecopy\n          0x00\n          return\n        stop\n\n        sub_0: assembly {\n                /* \"Project.sol\":88:4749  contract Project {\r... */\n              mstore(0x40, 0x80)\n              jumpi(tag_1, lt(calldatasize, 0x04))\n              shr(0xe0, calldataload(0x00))\n              dup1\n              0x7284e416\n              gt\n              tag_20\n              jumpi\n              dup1\n              0xb11a19e8\n              gt\n              tag_21\n              jumpi\n              dup1\n              0xb11a19e8\n              eq\n              tag_15\n              jumpi\n              dup1\n              0xd2b8b867\n              eq\n              tag_16\n              jumpi\n              dup1\n              0xd7bb99ba\n              eq\n              tag_17\n              jumpi\n              dup1\n              0xd7e64c00\n              eq\n              tag_18\n              jumpi\n              dup1\n              0xde14c818\n              eq\n              tag_19\n              jumpi\n              jump(tag_1)\n            tag_21:\n              dup1\n              0x7284e416\n              eq\n              tag_11\n              jumpi\n              dup1\n              0x8323406b\n              eq\n              tag_12\n              jumpi\n              dup1\n              0x87d81789\n              eq\n              tag_13\n              jumpi\n              dup1\n              0x8da5cb5b\n              eq\n              tag_14\n              jumpi\n              jump(tag_1)\n            tag_20:\n              dup1\n              0x56ca623e\n              gt\n              tag_22\n              jumpi\n              dup1\n              0x56ca623e\n              eq\n              tag_6\n              jumpi\n              dup1\n              0x63fd9e38\n              eq\n              tag_7\n              jumpi\n              dup1\n              0x6900a3ae\n              eq\n              tag_8\n              jumpi\n              dup1\n              0x6f7bc9be\n              eq\n              tag_9\n              jumpi\n              dup1\n              0x71aad10d\n              eq\n              tag_10\n              jumpi\n              jump(tag_1)\n            tag_22:\n              dup1\n              0x03120d46\n              eq\n              tag_2\n              jumpi\n              dup1\n              0x3110235a\n              eq\n              tag_3\n              jumpi\n              dup1\n              0x40193883\n              eq\n              tag_4\n              jumpi\n              dup1\n              0x4051ddac\n              eq\n              tag_5\n              jumpi\n            tag_1:\n              0x00\n              dup1\n              revert\n                /* \"Project.sol\":1555:2053  function createPayment(\r... */\n            tag_2:\n              callvalue\n              dup1\n              iszero\n              tag_23\n              jumpi\n              0x00\n              dup1\n              revert\n            tag_23:\n              pop\n              tag_24\n              0x04\n              dup1\n              calldatasize\n              sub\n              dup2\n              add\n              swap1\n              tag_25\n              swap2\n              swap1\n              tag_26\n              jump\t// in\n            tag_25:\n              tag_27\n              jump\t// in\n            tag_24:\n              stop\n                /* \"Project.sol\":464:488  uint256 public maxInvest */\n            tag_3:\n              callvalue\n              dup1\n              iszero\n              tag_28\n              jumpi\n              0x00\n              dup1\n              revert\n            tag_28:\n              pop\n              tag_29\n              tag_30\n              jump\t// in\n            tag_29:\n              mload(0x40)\n              tag_31\n              swap2\n              swap1\n              tag_32\n              jump\t// in\n            tag_31:\n              mload(0x40)\n              dup1\n              swap2\n              sub\n              swap1\n              return\n                /* \"Project.sol\":495:514  uint256 public goal */\n            tag_4:\n              callvalue\n              dup1\n              iszero\n              tag_33\n              jumpi\n              0x00\n              dup1\n              revert\n            tag_33:\n              pop\n              tag_34\n              tag_35\n              jump\t// in\n            tag_34:\n              mload(0x40)\n              tag_36\n              swap2\n              swap1\n              tag_32\n              jump\t// in\n            tag_36:\n              mload(0x40)\n              dup1\n              swap2\n              sub\n              swap1\n              return\n                /* \"Project.sol\":3246:3643  function getSummary()\r... */\n            tag_5:\n              callvalue\n              dup1\n              iszero\n              tag_37\n              jumpi\n              0x00\n              dup1\n              revert\n            tag_37:\n              pop\n              tag_38\n              tag_39\n              jump\t// in\n            tag_38:\n              mload(0x40)\n              tag_40\n              swap9\n              swap8\n              swap7\n              swap6\n              swap5\n              swap4\n              swap3\n              swap2\n              swap1\n              tag_41\n              jump\t// in\n            tag_40:\n              mload(0x40)\n              dup1\n              swap2\n              sub\n              swap1\n              return\n                /* \"Project.sol\":3857:3989  function toString(address account) public pure returns (string memory) {\r... */\n            tag_6:\n              callvalue\n              dup1\n              iszero\n              tag_42\n              jumpi\n              0x00\n              dup1\n              revert\n            tag_42:\n              pop\n              tag_43\n              0x04\n              dup1\n              calldatasize\n              sub\n              dup2\n              add\n              swap1\n              tag_44\n              swap2\n              swap1\n              tag_45\n              jump\t// in\n            tag_44:\n              tag_46\n              jump\t// in\n            tag_43:\n              mload(0x40)\n              tag_47\n              swap2\n              swap1\n              tag_48\n              jump\t// in\n            tag_47:\n              mload(0x40)\n              dup1\n              swap2\n              sub\n              swap1\n              return\n                /* \"Project.sol\":433:457  uint256 public minInvest */\n            tag_7:\n              callvalue\n              dup1\n              iszero\n              tag_49\n              jumpi\n              0x00\n              dup1\n              revert\n            tag_49:\n              pop\n              tag_50\n              tag_51\n              jump\t// in\n            tag_50:\n              mload(0x40)\n              tag_52\n              swap2\n              swap1\n              tag_32\n              jump\t// in\n            tag_52:\n              mload(0x40)\n              dup1\n              swap2\n              sub\n              swap1\n              return\n                /* \"Project.sol\":3997:4125  function toString(uint256 value) public pure returns (string memory) {\r... */\n            tag_8:\n              callvalue\n              dup1\n              iszero\n              tag_53\n              jumpi\n              0x00\n              dup1\n              revert\n            tag_53:\n              pop\n              tag_54\n              0x04\n              dup1\n              calldatasize\n              sub\n              dup2\n              add\n              swap1\n              tag_55\n              swap2\n              swap1\n              tag_56\n              jump\t// in\n            tag_55:\n              tag_57\n              jump\t// in\n            tag_54:\n              mload(0x40)\n              tag_58\n              swap2\n              swap1\n              tag_48\n              jump\t// in\n            tag_58:\n              mload(0x40)\n              dup1\n              swap2\n              sub\n              swap1\n              return\n                /* \"Project.sol\":556:600  mapping(address => uint256) public investors */\n            tag_9:\n              callvalue\n              dup1\n              iszero\n              tag_59\n              jumpi\n              0x00\n              dup1\n              revert\n            tag_59:\n              pop\n              tag_60\n              0x04\n              dup1\n              calldatasize\n              sub\n              dup2\n              add\n              swap1\n              tag_61\n              swap2\n              swap1\n              tag_45\n              jump\t// in\n            tag_61:\n              tag_62\n              jump\t// in\n            tag_60:\n              mload(0x40)\n              tag_63\n              swap2\n              swap1\n              tag_32\n              jump\t// in\n            tag_63:\n              mload(0x40)\n              dup1\n              swap2\n              sub\n              swap1\n              return\n                /* \"Project.sol\":4269:4746  function toString(bytes memory data) public pure returns (string memory) {\r... */\n            tag_10:\n              callvalue\n              dup1\n              iszero\n              tag_64\n              jumpi\n              0x00\n              dup1\n              revert\n            tag_64:\n              pop\n              tag_65\n              0x04\n              dup1\n              calldatasize\n              sub\n              dup2\n              add\n              swap1\n              tag_66\n              swap2\n              swap1\n              tag_67\n              jump\t// in\n            tag_66:\n              tag_68\n              jump\t// in\n            tag_65:\n              mload(0x40)\n              tag_69\n              swap2\n              swap1\n              tag_48\n              jump\t// in\n            tag_69:\n              mload(0x40)\n              dup1\n              swap2\n              sub\n              swap1\n              return\n                /* \"Project.sol\":401:426  string public description */\n            tag_11:\n              callvalue\n              dup1\n              iszero\n              tag_70\n              jumpi\n              0x00\n              dup1\n              revert\n            tag_70:\n              pop\n              tag_71\n              tag_72\n              jump\t// in\n            tag_71:\n              mload(0x40)\n              tag_73\n              swap2\n              swap1\n              tag_48\n              jump\t// in\n            tag_73:\n              mload(0x40)\n              dup1\n              swap2\n              sub\n              swap1\n              return\n                /* \"Project.sol\":2483:2872  function disApprovePayment(uint256 index) public {\r... */\n            tag_12:\n              callvalue\n              dup1\n              iszero\n              tag_74\n              jumpi\n              0x00\n              dup1\n              revert\n            tag_74:\n              pop\n              tag_75\n              0x04\n              dup1\n              calldatasize\n              sub\n              dup2\n              add\n              swap1\n              tag_76\n              swap2\n              swap1\n              tag_56\n              jump\t// in\n            tag_76:\n              tag_77\n              jump\t// in\n            tag_75:\n              stop\n                /* \"Project.sol\":607:632  Payment[] public payments */\n            tag_13:\n              callvalue\n              dup1\n              iszero\n              tag_78\n              jumpi\n              0x00\n              dup1\n              revert\n            tag_78:\n              pop\n              tag_79\n              0x04\n              dup1\n              calldatasize\n              sub\n              dup2\n              add\n              swap1\n              tag_80\n              swap2\n              swap1\n              tag_56\n              jump\t// in\n            tag_80:\n              tag_81\n              jump\t// in\n            tag_79:\n              mload(0x40)\n              tag_82\n              swap8\n              swap7\n              swap6\n              swap5\n              swap4\n              swap3\n              swap2\n              swap1\n              tag_83\n              jump\t// in\n            tag_82:\n              mload(0x40)\n              dup1\n              swap2\n              sub\n              swap1\n              return\n                /* \"Project.sol\":374:394  address public owner */\n            tag_14:\n              callvalue\n              dup1\n              iszero\n              tag_84\n              jumpi\n              0x00\n              dup1\n              revert\n            tag_84:\n              pop\n              tag_85\n              tag_86\n              jump\t// in\n            tag_85:\n              mload(0x40)\n              tag_87\n              swap2\n              swap1\n              tag_88\n              jump\t// in\n            tag_87:\n              mload(0x40)\n              dup1\n              swap2\n              sub\n              swap1\n              return\n                /* \"Project.sol\":4133:4261  function toString(bytes32 value) public pure returns (string memory) {\r... */\n            tag_15:\n              callvalue\n              dup1\n              iszero\n              tag_89\n              jumpi\n              0x00\n              dup1\n              revert\n            tag_89:\n              pop\n              tag_90\n              0x04\n              dup1\n              calldatasize\n              sub\n              dup2\n              add\n              swap1\n              tag_91\n              swap2\n              swap1\n              tag_92\n              jump\t// in\n            tag_91:\n              tag_93\n              jump\t// in\n            tag_90:\n              mload(0x40)\n              tag_94\n              swap2\n              swap1\n              tag_48\n              jump\t// in\n            tag_94:\n              mload(0x40)\n              dup1\n              swap2\n              sub\n              swap1\n              return\n                /* \"Project.sol\":2880:3238  function doPayment(uint256 index) public ownerOnly {\r... */\n            tag_16:\n              callvalue\n              dup1\n              iszero\n              tag_95\n              jumpi\n              0x00\n              dup1\n              revert\n            tag_95:\n              pop\n              tag_96\n              0x04\n              dup1\n              calldatasize\n              sub\n              dup2\n              add\n              swap1\n              tag_97\n              swap2\n              swap1\n              tag_56\n              jump\t// in\n            tag_97:\n              tag_98\n              jump\t// in\n            tag_96:\n              stop\n                /* \"Project.sol\":1059:1547  function contribute() public payable {\r... */\n            tag_17:\n              tag_99\n              tag_100\n              jump\t// in\n            tag_99:\n              stop\n                /* \"Project.sol\":521:549  uint256 public investorCount */\n            tag_18:\n              callvalue\n              dup1\n              iszero\n              tag_101\n              jumpi\n              0x00\n              dup1\n              revert\n            tag_101:\n              pop\n              tag_102\n              tag_103\n              jump\t// in\n            tag_102:\n              mload(0x40)\n              tag_104\n              swap2\n              swap1\n              tag_32\n              jump\t// in\n            tag_104:\n              mload(0x40)\n              dup1\n              swap2\n              sub\n              swap1\n              return\n                /* \"Project.sol\":2061:2475  function approvePayment(uint256 index) public {\r... */\n            tag_19:\n              callvalue\n              dup1\n              iszero\n              tag_105\n              jumpi\n              0x00\n              dup1\n              revert\n            tag_105:\n              pop\n              tag_106\n              0x04\n              dup1\n              calldatasize\n              sub\n              dup2\n              add\n              swap1\n              tag_107\n              swap2\n              swap1\n              tag_56\n              jump\t// in\n            tag_107:\n              tag_108\n              jump\t// in\n            tag_106:\n              stop\n                /* \"Project.sol\":1555:2053  function createPayment(\r... */\n            tag_27:\n                /* \"Project.sol\":695:700  owner */\n              0x00\n              dup1\n              sload\n              swap1\n              0x0100\n              exp\n              swap1\n              div\n              0xffffffffffffffffffffffffffffffffffffffff\n              and\n                /* \"Project.sol\":681:700  msg.sender == owner */\n              0xffffffffffffffffffffffffffffffffffffffff\n              and\n                /* \"Project.sol\":681:691  msg.sender */\n              caller\n                /* \"Project.sol\":681:700  msg.sender == owner */\n              0xffffffffffffffffffffffffffffffffffffffff\n              and\n              eq\n                /* \"Project.sol\":673:701  require(msg.sender == owner) */\n              tag_110\n              jumpi\n              0x00\n              dup1\n              revert\n            tag_110:\n                /* \"Project.sol\":1712:1733  uint256 paymentsCount */\n              0x00\n                /* \"Project.sol\":1736:1744  payments */\n              0x07\n                /* \"Project.sol\":1736:1751  payments.length */\n              dup1\n              sload\n              swap1\n              pop\n                /* \"Project.sol\":1712:1751  uint256 paymentsCount = payments.length */\n              swap1\n              pop\n                /* \"Project.sol\":1762:1770  payments */\n              0x07\n                /* \"Project.sol\":1762:1777  payments.push() */\n              0x01\n              dup2\n              0x01\n              dup2\n              sload\n              add\n              dup1\n              dup3\n              sstore\n              dup1\n              swap2\n              pop\n              pop\n              sub\n              swap1\n              0x00\n              mstore\n              keccak256(0x00, 0x20)\n              swap1\n              pop\n              pop\n                /* \"Project.sol\":1790:1816  Payment storage newPayment */\n              0x00\n                /* \"Project.sol\":1819:1827  payments */\n              0x07\n                /* \"Project.sol\":1828:1841  paymentsCount */\n              dup3\n                /* \"Project.sol\":1819:1842  payments[paymentsCount] */\n              dup2\n              sload\n              dup2\n              lt\n              tag_113\n              jumpi\n              tag_114\n              tag_115\n              jump\t// in\n            tag_114:\n            tag_113:\n              swap1\n              0x00\n              mstore\n              keccak256(0x00, 0x20)\n              swap1\n              0x06\n              mul\n              add\n                /* \"Project.sol\":1790:1842  Payment storage newPayment = payments[paymentsCount] */\n              swap1\n              pop\n                /* \"Project.sol\":1878:1890  _description */\n              dup5\n                /* \"Project.sol\":1853:1863  newPayment */\n              dup2\n                /* \"Project.sol\":1853:1875  newPayment.description */\n              0x00\n              add\n                /* \"Project.sol\":1853:1890  newPayment.description = _description */\n              swap1\n              dup1\n              mload\n              swap1\n              0x20\n              add\n              swap1\n              tag_117\n              swap3\n              swap2\n              swap1\n              tag_118\n              jump\t// in\n            tag_117:\n              pop\n                /* \"Project.sol\":1921:1928  _amount */\n              dup4\n                /* \"Project.sol\":1901:1911  newPayment */\n              dup2\n                /* \"Project.sol\":1901:1918  newPayment.amount */\n              0x01\n              add\n                /* \"Project.sol\":1901:1928  newPayment.amount = _amount */\n              dup2\n              swap1\n              sstore\n              pop\n                /* \"Project.sol\":1961:1970  _receiver */\n              dup3\n                /* \"Project.sol\":1939:1949  newPayment */\n              dup2\n                /* \"Project.sol\":1939:1958  newPayment.receiver */\n              0x03\n              add\n              0x00\n                /* \"Project.sol\":1939:1970  newPayment.receiver = _receiver */\n              0x0100\n              exp\n              dup2\n              sload\n              dup2\n              0xffffffffffffffffffffffffffffffffffffffff\n              mul\n              not\n              and\n              swap1\n              dup4\n              0xffffffffffffffffffffffffffffffffffffffff\n              and\n              mul\n              or\n              swap1\n              sstore\n              pop\n                /* \"Project.sol\":2004:2009  false */\n              0x00\n                /* \"Project.sol\":1981:1991  newPayment */\n              dup2\n                /* \"Project.sol\":1981:2001  newPayment.completed */\n              0x03\n              add\n              0x14\n                /* \"Project.sol\":1981:2009  newPayment.completed = false */\n              0x0100\n              exp\n              dup2\n              sload\n              dup2\n              0xff\n              mul\n              not\n              and\n              swap1\n              dup4\n              iszero\n              iszero\n              mul\n              or\n              swap1\n              sstore\n              pop\n                /* \"Project.sol\":2044:2045  0 */\n              0x00\n                /* \"Project.sol\":2020:2030  newPayment */\n              dup2\n                /* \"Project.sol\":2020:2041  newPayment.voterCount */\n              0x02\n              add\n                /* \"Project.sol\":2020:2045  newPayment.voterCount = 0 */\n              dup2\n              swap1\n              sstore\n              pop\n                /* \"Project.sol\":1701:2053  {\r... */\n              pop\n              pop\n                /* \"Project.sol\":1555:2053  function createPayment(\r... */\n              pop\n              pop\n              pop\n              jump\t// out\n                /* \"Project.sol\":464:488  uint256 public maxInvest */\n            tag_30:\n              sload(0x03)\n              dup2\n              jump\t// out\n                /* \"Project.sol\":495:514  uint256 public goal */\n            tag_35:\n              sload(0x04)\n              dup2\n              jump\t// out\n                /* \"Project.sol\":3246:3643  function getSummary()\r... */\n            tag_39:\n                /* \"Project.sol\":3330:3343  string memory */\n              0x60\n                /* \"Project.sol\":3358:3365  uint256 */\n              0x00\n                /* \"Project.sol\":3380:3387  uint256 */\n              dup1\n                /* \"Project.sol\":3402:3409  uint256 */\n              0x00\n                /* \"Project.sol\":3424:3431  uint256 */\n              dup1\n                /* \"Project.sol\":3446:3453  uint256 */\n              0x00\n                /* \"Project.sol\":3468:3475  uint256 */\n              dup1\n                /* \"Project.sol\":3490:3497  address */\n              0x00\n                /* \"Project.sol\":3533:3544  description */\n              0x01\n                /* \"Project.sol\":3546:3555  minInvest */\n              sload(0x02)\n                /* \"Project.sol\":3557:3566  maxInvest */\n              sload(0x03)\n                /* \"Project.sol\":3568:3572  goal */\n              sload(0x04)\n                /* \"Project.sol\":3574:3595  address(this).balance */\n              selfbalance\n                /* \"Project.sol\":3597:3610  investorCount */\n              sload(0x05)\n                /* \"Project.sol\":3612:3620  payments */\n              0x07\n                /* \"Project.sol\":3612:3627  payments.length */\n              dup1\n              sload\n              swap1\n              pop\n                /* \"Project.sol\":3629:3634  owner */\n              0x00\n              dup1\n              sload\n              swap1\n              0x0100\n              exp\n              swap1\n              div\n              0xffffffffffffffffffffffffffffffffffffffff\n              and\n                /* \"Project.sol\":3525:3635  return (description, minInvest, maxInvest, goal, address(this).balance, investorCount, payments.length, owner) */\n              dup8\n              dup1\n              sload\n              tag_120\n              swap1\n              tag_121\n              jump\t// in\n            tag_120:\n              dup1\n              0x1f\n              add\n              0x20\n              dup1\n              swap2\n              div\n              mul\n              0x20\n              add\n              mload(0x40)\n              swap1\n              dup2\n              add\n              0x40\n              mstore\n              dup1\n              swap3\n              swap2\n              swap1\n              dup2\n              dup2\n              mstore\n              0x20\n              add\n              dup3\n              dup1\n              sload\n              tag_122\n              swap1\n              tag_121\n              jump\t// in\n            tag_122:\n              dup1\n              iszero\n              tag_123\n              jumpi\n              dup1\n              0x1f\n              lt\n              tag_124\n              jumpi\n              0x0100\n              dup1\n              dup4\n              sload\n              div\n              mul\n              dup4\n              mstore\n              swap2\n              0x20\n              add\n              swap2\n              jump(tag_123)\n            tag_124:\n              dup3\n              add\n              swap2\n              swap1\n              0x00\n              mstore\n              keccak256(0x00, 0x20)\n              swap1\n            tag_125:\n              dup2\n              sload\n              dup2\n              mstore\n              swap1\n              0x01\n              add\n              swap1\n              0x20\n              add\n              dup1\n              dup4\n              gt\n              tag_125\n              jumpi\n              dup3\n              swap1\n              sub\n              0x1f\n              and\n              dup3\n              add\n              swap2\n            tag_123:\n              pop\n              pop\n              pop\n              pop\n              pop\n              swap8\n              pop\n              swap8\n              pop\n              swap8\n              pop\n              swap8\n              pop\n              swap8\n              pop\n              swap8\n              pop\n              swap8\n              pop\n              swap8\n              pop\n              swap8\n              pop\n                /* \"Project.sol\":3246:3643  function getSummary()\r... */\n              swap1\n              swap2\n              swap3\n              swap4\n              swap5\n              swap6\n              swap7\n              swap8\n              jump\t// out\n                /* \"Project.sol\":3857:3989  function toString(address account) public pure returns (string memory) {\r... */\n            tag_46:\n                /* \"Project.sol\":3913:3926  string memory */\n              0x60\n                /* \"Project.sol\":3946:3981  toString(abi.encodePacked(account)) */\n              tag_127\n                /* \"Project.sol\":3972:3979  account */\n              dup3\n                /* \"Project.sol\":3955:3980  abi.encodePacked(account) */\n              add(0x20, mload(0x40))\n              tag_128\n              swap2\n              swap1\n              tag_129\n              jump\t// in\n            tag_128:\n              mload(0x40)\n              0x20\n              dup2\n              dup4\n              sub\n              sub\n              dup2\n              mstore\n              swap1\n              0x40\n              mstore\n                /* \"Project.sol\":3946:3954  toString */\n              tag_68\n                /* \"Project.sol\":3946:3981  toString(abi.encodePacked(account)) */\n              jump\t// in\n            tag_127:\n                /* \"Project.sol\":3939:3981  return toString(abi.encodePacked(account)) */\n              swap1\n              pop\n                /* \"Project.sol\":3857:3989  function toString(address account) public pure returns (string memory) {\r... */\n              swap2\n              swap1\n              pop\n              jump\t// out\n                /* \"Project.sol\":433:457  uint256 public minInvest */\n            tag_51:\n              sload(0x02)\n              dup2\n              jump\t// out\n                /* \"Project.sol\":3997:4125  function toString(uint256 value) public pure returns (string memory) {\r... */\n            tag_57:\n                /* \"Project.sol\":4051:4064  string memory */\n              0x60\n                /* \"Project.sol\":4084:4117  toString(abi.encodePacked(value)) */\n              tag_131\n                /* \"Project.sol\":4110:4115  value */\n              dup3\n                /* \"Project.sol\":4093:4116  abi.encodePacked(value) */\n              add(0x20, mload(0x40))\n              tag_132\n              swap2\n              swap1\n              tag_133\n              jump\t// in\n            tag_132:\n              mload(0x40)\n              0x20\n              dup2\n              dup4\n              sub\n              sub\n              dup2\n              mstore\n              swap1\n              0x40\n              mstore\n                /* \"Project.sol\":4084:4092  toString */\n              tag_68\n                /* \"Project.sol\":4084:4117  toString(abi.encodePacked(value)) */\n              jump\t// in\n            tag_131:\n                /* \"Project.sol\":4077:4117  return toString(abi.encodePacked(value)) */\n              swap1\n              pop\n                /* \"Project.sol\":3997:4125  function toString(uint256 value) public pure returns (string memory) {\r... */\n              swap2\n              swap1\n              pop\n              jump\t// out\n                /* \"Project.sol\":556:600  mapping(address => uint256) public investors */\n            tag_62:\n              mstore(0x20, 0x06)\n              dup1\n              0x00\n              mstore\n              keccak256(0x00, 0x40)\n              0x00\n              swap2\n              pop\n              swap1\n              pop\n              sload\n              dup2\n              jump\t// out\n                /* \"Project.sol\":4269:4746  function toString(bytes memory data) public pure returns (string memory) {\r... */\n            tag_68:\n                /* \"Project.sol\":4327:4340  string memory */\n              0x60\n                /* \"Project.sol\":4353:4374  bytes memory alphabet */\n              0x00\n                /* \"Project.sol\":4353:4395  bytes memory alphabet = \"0123456789abcdef\" */\n              mload(0x40)\n              dup1\n              0x40\n              add\n              0x40\n              mstore\n              dup1\n              0x10\n              dup2\n              mstore\n              0x20\n              add\n              0x3031323334353637383961626364656600000000000000000000000000000000\n              dup2\n              mstore\n              pop\n              swap1\n              pop\n                /* \"Project.sol\":4408:4424  bytes memory str */\n              0x00\n                /* \"Project.sol\":4455:4456  2 */\n              0x02\n                /* \"Project.sol\":4441:4445  data */\n              dup5\n                /* \"Project.sol\":4441:4452  data.length */\n              mload\n                /* \"Project.sol\":4441:4456  data.length * 2 */\n              tag_135\n              swap2\n              swap1\n              tag_136\n              jump\t// in\n            tag_135:\n                /* \"Project.sol\":4437:4438  2 */\n              0x02\n                /* \"Project.sol\":4437:4456  2 + data.length * 2 */\n              tag_137\n              swap2\n              swap1\n              tag_138\n              jump\t// in\n            tag_137:\n                /* \"Project.sol\":4427:4457  new bytes(2 + data.length * 2) */\n              0xffffffffffffffff\n              dup2\n              gt\n              iszero\n              tag_139\n              jumpi\n              tag_140\n              tag_141\n              jump\t// in\n            tag_140:\n            tag_139:\n              mload(0x40)\n              swap1\n              dup1\n              dup3\n              mstore\n              dup1\n              0x1f\n              add\n              not(0x1f)\n              and\n              0x20\n              add\n              dup3\n              add\n              0x40\n              mstore\n              dup1\n              iszero\n              tag_142\n              jumpi\n              dup2\n              0x20\n              add\n              0x01\n              dup3\n              mul\n              dup1\n              calldatasize\n              dup4\n              calldatacopy\n              dup1\n              dup3\n              add\n              swap2\n              pop\n              pop\n              swap1\n              pop\n            tag_142:\n              pop\n                /* \"Project.sol\":4408:4457  bytes memory str = new bytes(2 + data.length * 2) */\n              swap1\n              pop\n                /* \"Project.sol\":4468:4480  str[0] = \"0\" */\n              0x3000000000000000000000000000000000000000000000000000000000000000\n                /* \"Project.sol\":4468:4471  str */\n              dup2\n                /* \"Project.sol\":4472:4473  0 */\n              0x00\n                /* \"Project.sol\":4468:4474  str[0] */\n              dup2\n              mload\n              dup2\n              lt\n              tag_143\n              jumpi\n              tag_144\n              tag_115\n              jump\t// in\n            tag_144:\n            tag_143:\n              0x20\n              add\n              add\n                /* \"Project.sol\":4468:4480  str[0] = \"0\" */\n              swap1\n              not(0xffffffffffffffffffffffffffffffffffffffffffffffffffffffffffffff)\n              and\n              swap1\n              dup2\n              0x00\n              byte\n              swap1\n              mstore8\n              pop\n                /* \"Project.sol\":4491:4503  str[1] = \"x\" */\n              0x7800000000000000000000000000000000000000000000000000000000000000\n                /* \"Project.sol\":4491:4494  str */\n              dup2\n                /* \"Project.sol\":4495:4496  1 */\n              0x01\n                /* \"Project.sol\":4491:4497  str[1] */\n              dup2\n              mload\n              dup2\n              lt\n              tag_145\n              jumpi\n              tag_146\n              tag_115\n              jump\t// in\n            tag_146:\n            tag_145:\n              0x20\n              add\n              add\n                /* \"Project.sol\":4491:4503  str[1] = \"x\" */\n              swap1\n              not(0xffffffffffffffffffffffffffffffffffffffffffffffffffffffffffffff)\n              and\n              swap1\n              dup2\n              0x00\n              byte\n              swap1\n              mstore8\n              pop\n                /* \"Project.sol\":4519:4528  uint256 i */\n              0x00\n                /* \"Project.sol\":4514:4710  for (uint256 i = 0; i < data.length; i++) {\r... */\n            tag_147:\n                /* \"Project.sol\":4538:4542  data */\n              dup5\n                /* \"Project.sol\":4538:4549  data.length */\n              mload\n                /* \"Project.sol\":4534:4535  i */\n              dup2\n                /* \"Project.sol\":4534:4549  i < data.length */\n              lt\n                /* \"Project.sol\":4514:4710  for (uint256 i = 0; i < data.length; i++) {\r... */\n              iszero\n              tag_148\n              jumpi\n                /* \"Project.sol\":4588:4596  alphabet */\n              dup3\n                /* \"Project.sol\":4622:4623  4 */\n              0x04\n                /* \"Project.sol\":4611:4615  data */\n              dup7\n                /* \"Project.sol\":4616:4617  i */\n              dup4\n                /* \"Project.sol\":4611:4618  data[i] */\n              dup2\n              mload\n              dup2\n              lt\n              tag_150\n              jumpi\n              tag_151\n              tag_115\n              jump\t// in\n            tag_151:\n            tag_150:\n              0x20\n              add\n              add\n              mload\n              0xf8\n              shr\n              0xf8\n              shl\n                /* \"Project.sol\":4611:4623  data[i] >> 4 */\n              not(0xffffffffffffffffffffffffffffffffffffffffffffffffffffffffffffff)\n              and\n              swap1\n              shr\n                /* \"Project.sol\":4605:4624  uint8(data[i] >> 4) */\n              0xf8\n              shr\n                /* \"Project.sol\":4597:4625  uint256(uint8(data[i] >> 4)) */\n              0xff\n              and\n                /* \"Project.sol\":4588:4626  alphabet[uint256(uint8(data[i] >> 4))] */\n              dup2\n              mload\n              dup2\n              lt\n              tag_152\n              jumpi\n              tag_153\n              tag_115\n              jump\t// in\n            tag_153:\n            tag_152:\n              0x20\n              add\n              add\n              mload\n              0xf8\n              shr\n              0xf8\n              shl\n                /* \"Project.sol\":4571:4574  str */\n              dup3\n                /* \"Project.sol\":4583:4584  2 */\n              0x02\n                /* \"Project.sol\":4579:4580  i */\n              dup4\n                /* \"Project.sol\":4579:4584  i * 2 */\n              tag_154\n              swap2\n              swap1\n              tag_136\n              jump\t// in\n            tag_154:\n                /* \"Project.sol\":4575:4576  2 */\n              0x02\n                /* \"Project.sol\":4575:4584  2 + i * 2 */\n              tag_155\n              swap2\n              swap1\n              tag_138\n              jump\t// in\n            tag_155:\n                /* \"Project.sol\":4571:4585  str[2 + i * 2] */\n              dup2\n              mload\n              dup2\n              lt\n              tag_156\n              jumpi\n              tag_157\n              tag_115\n              jump\t// in\n            tag_157:\n            tag_156:\n              0x20\n              add\n              add\n                /* \"Project.sol\":4571:4626  str[2 + i * 2] = alphabet[uint256(uint8(data[i] >> 4))] */\n              swap1\n              not(0xffffffffffffffffffffffffffffffffffffffffffffffffffffffffffffff)\n              and\n              swap1\n              dup2\n              0x00\n              byte\n              swap1\n              mstore8\n              pop\n                /* \"Project.sol\":4658:4666  alphabet */\n              dup3\n                /* \"Project.sol\":4691:4695  0x0f */\n              0x0f\n                /* \"Project.sol\":4681:4695  data[i] & 0x0f */\n              0xf8\n              shl\n                /* \"Project.sol\":4681:4685  data */\n              dup7\n                /* \"Project.sol\":4686:4687  i */\n              dup4\n                /* \"Project.sol\":4681:4688  data[i] */\n              dup2\n              mload\n              dup2\n              lt\n              tag_158\n              jumpi\n              tag_159\n              tag_115\n              jump\t// in\n            tag_159:\n            tag_158:\n              0x20\n              add\n              add\n              mload\n              0xf8\n              shr\n              0xf8\n              shl\n                /* \"Project.sol\":4681:4695  data[i] & 0x0f */\n              and\n                /* \"Project.sol\":4675:4696  uint8(data[i] & 0x0f) */\n              0xf8\n              shr\n                /* \"Project.sol\":4667:4697  uint256(uint8(data[i] & 0x0f)) */\n              0xff\n              and\n                /* \"Project.sol\":4658:4698  alphabet[uint256(uint8(data[i] & 0x0f))] */\n              dup2\n              mload\n              dup2\n              lt\n              tag_160\n              jumpi\n              tag_161\n              tag_115\n              jump\t// in\n            tag_161:\n            tag_160:\n              0x20\n              add\n              add\n              mload\n              0xf8\n              shr\n              0xf8\n              shl\n                /* \"Project.sol\":4641:4644  str */\n              dup3\n                /* \"Project.sol\":4653:4654  2 */\n              0x02\n                /* \"Project.sol\":4649:4650  i */\n              dup4\n                /* \"Project.sol\":4649:4654  i * 2 */\n              tag_162\n              swap2\n              swap1\n              tag_136\n              jump\t// in\n            tag_162:\n                /* \"Project.sol\":4645:4646  3 */\n              0x03\n                /* \"Project.sol\":4645:4654  3 + i * 2 */\n              tag_163\n              swap2\n              swap1\n              tag_138\n              jump\t// in\n            tag_163:\n                /* \"Project.sol\":4641:4655  str[3 + i * 2] */\n              dup2\n              mload\n              dup2\n              lt\n              tag_164\n              jumpi\n              tag_165\n              tag_115\n              jump\t// in\n            tag_165:\n            tag_164:\n              0x20\n              add\n              add\n                /* \"Project.sol\":4641:4698  str[3 + i * 2] = alphabet[uint256(uint8(data[i] & 0x0f))] */\n              swap1\n              not(0xffffffffffffffffffffffffffffffffffffffffffffffffffffffffffffff)\n              and\n              swap1\n              dup2\n              0x00\n              byte\n              swap1\n              mstore8\n              pop\n                /* \"Project.sol\":4551:4554  i++ */\n              dup1\n              dup1\n              tag_166\n              swap1\n              tag_167\n              jump\t// in\n            tag_166:\n              swap2\n              pop\n              pop\n                /* \"Project.sol\":4514:4710  for (uint256 i = 0; i < data.length; i++) {\r... */\n              jump(tag_147)\n            tag_148:\n              pop\n                /* \"Project.sol\":4734:4737  str */\n              dup1\n                /* \"Project.sol\":4720:4738  return string(str) */\n              swap3\n              pop\n              pop\n              pop\n                /* \"Project.sol\":4269:4746  function toString(bytes memory data) public pure returns (string memory) {\r... */\n              swap2\n              swap1\n              pop\n              jump\t// out\n                /* \"Project.sol\":401:426  string public description */\n            tag_72:\n              0x01\n              dup1\n              sload\n              tag_168\n              swap1\n              tag_121\n              jump\t// in\n            tag_168:\n              dup1\n              0x1f\n              add\n              0x20\n              dup1\n              swap2\n              div\n              mul\n              0x20\n              add\n              mload(0x40)\n              swap1\n              dup2\n              add\n              0x40\n              mstore\n              dup1\n              swap3\n              swap2\n              swap1\n              dup2\n              dup2\n              mstore\n              0x20\n              add\n              dup3\n              dup1\n              sload\n              tag_169\n              swap1\n              tag_121\n              jump\t// in\n            tag_169:\n              dup1\n              iszero\n              tag_170\n              jumpi\n              dup1\n              0x1f\n              lt\n              tag_171\n              jumpi\n              0x0100\n              dup1\n              dup4\n              sload\n              div\n              mul\n              dup4\n              mstore\n              swap2\n              0x20\n              add\n              swap2\n              jump(tag_170)\n            tag_171:\n              dup3\n              add\n              swap2\n              swap1\n              0x00\n              mstore\n              keccak256(0x00, 0x20)\n              swap1\n            tag_172:\n              dup2\n              sload\n              dup2\n              mstore\n              swap1\n              0x01\n              add\n              swap1\n              0x20\n              add\n              dup1\n              dup4\n              gt\n              tag_172\n              jumpi\n              dup3\n              swap1\n              sub\n              0x1f\n              and\n              dup3\n              add\n              swap2\n            tag_170:\n              pop\n              pop\n              pop\n              pop\n              pop\n              dup2\n              jump\t// out\n                /* \"Project.sol\":2483:2872  function disApprovePayment(uint256 index) public {\r... */\n            tag_77:\n                /* \"Project.sol\":2543:2566  Payment storage payment */\n              0x00\n                /* \"Project.sol\":2569:2577  payments */\n              0x07\n                /* \"Project.sol\":2578:2583  index */\n              dup3\n                /* \"Project.sol\":2569:2584  payments[index] */\n              dup2\n              sload\n              dup2\n              lt\n              tag_174\n              jumpi\n              tag_175\n              tag_115\n              jump\t// in\n            tag_175:\n            tag_174:\n              swap1\n              0x00\n              mstore\n              keccak256(0x00, 0x20)\n              swap1\n              0x06\n              mul\n              add\n                /* \"Project.sol\":2543:2584  Payment storage payment = payments[index] */\n              swap1\n              pop\n                /* \"Project.sol\":2666:2667  0 */\n              0x00\n                /* \"Project.sol\":2642:2651  investors */\n              0x06\n                /* \"Project.sol\":2642:2663  investors[msg.sender] */\n              0x00\n                /* \"Project.sol\":2652:2662  msg.sender */\n              caller\n                /* \"Project.sol\":2642:2663  investors[msg.sender] */\n              0xffffffffffffffffffffffffffffffffffffffff\n              and\n              0xffffffffffffffffffffffffffffffffffffffff\n              and\n              dup2\n              mstore\n              0x20\n              add\n              swap1\n              dup2\n              mstore\n              0x20\n              add\n              0x00\n              keccak256\n              sload\n                /* \"Project.sol\":2642:2667  investors[msg.sender] > 0 */\n              gt\n                /* \"Project.sol\":2634:2668  require(investors[msg.sender] > 0) */\n              tag_177\n              jumpi\n              0x00\n              dup1\n              revert\n            tag_177:\n                /* \"Project.sol\":2738:2743  false */\n              0x00\n                /* \"Project.sol\":2717:2743  payment.completed == false */\n              iszero\n              iszero\n                /* \"Project.sol\":2717:2724  payment */\n              dup2\n                /* \"Project.sol\":2717:2734  payment.completed */\n              0x03\n              add\n              0x14\n              swap1\n              sload\n              swap1\n              0x0100\n              exp\n              swap1\n              div\n              0xff\n              and\n                /* \"Project.sol\":2717:2743  payment.completed == false */\n              iszero\n              iszero\n              eq\n                /* \"Project.sol\":2709:2744  require(payment.completed == false) */\n              tag_178\n              jumpi\n              0x00\n              dup1\n              revert\n            tag_178:\n                /* \"Project.sol\":2775:2779  true */\n              0x01\n                /* \"Project.sol\":2755:2762  payment */\n              dup2\n                /* \"Project.sol\":2755:2772  payment.completed */\n              0x03\n              add\n              0x14\n                /* \"Project.sol\":2755:2779  payment.completed = true */\n              0x0100\n              exp\n              dup2\n              sload\n              dup2\n              0xff\n              mul\n              not\n              and\n              swap1\n              dup4\n              iszero\n              iszero\n              mul\n              or\n              swap1\n              sstore\n              pop\n                /* \"Project.sol\":2811:2864  append(payment.disApprove, \"-\", toString(msg.sender)) */\n              tag_179\n                /* \"Project.sol\":2818:2825  payment */\n              dup2\n                /* \"Project.sol\":2818:2836  payment.disApprove */\n              0x05\n              add\n                /* \"Project.sol\":2811:2864  append(payment.disApprove, \"-\", toString(msg.sender)) */\n              dup1\n              sload\n              tag_180\n              swap1\n              tag_121\n              jump\t// in\n            tag_180:\n              dup1\n              0x1f\n              add\n              0x20\n              dup1\n              swap2\n              div\n              mul\n              0x20\n              add\n              mload(0x40)\n              swap1\n              dup2\n              add\n              0x40\n              mstore\n              dup1\n              swap3\n              swap2\n              swap1\n              dup2\n              dup2\n              mstore\n              0x20\n              add\n              dup3\n              dup1\n              sload\n              tag_181\n              swap1\n              tag_121\n              jump\t// in\n            tag_181:\n              dup1\n              iszero\n              tag_182\n              jumpi\n              dup1\n              0x1f\n              lt\n              tag_183\n              jumpi\n              0x0100\n              dup1\n              dup4\n              sload\n              div\n              mul\n              dup4\n              mstore\n              swap2\n              0x20\n              add\n              swap2\n              jump(tag_182)\n            tag_183:\n              dup3\n              add\n              swap2\n              swap1\n              0x00\n              mstore\n              keccak256(0x00, 0x20)\n              swap1\n            tag_184:\n              dup2\n              sload\n              dup2\n              mstore\n              swap1\n              0x01\n              add\n              swap1\n              0x20\n              add\n              dup1\n              dup4\n              gt\n              tag_184\n              jumpi\n              dup3\n              swap1\n              sub\n              0x1f\n              and\n              dup3\n              add\n              swap2\n            tag_182:\n              pop\n              pop\n              pop\n              pop\n              pop\n              mload(0x40)\n              dup1\n              0x40\n              add\n              0x40\n              mstore\n              dup1\n              0x01\n              dup2\n              mstore\n              0x20\n              add\n              0x2d00000000000000000000000000000000000000000000000000000000000000\n              dup2\n              mstore\n              pop\n                /* \"Project.sol\":2843:2863  toString(msg.sender) */\n              tag_185\n                /* \"Project.sol\":2852:2862  msg.sender */\n              caller\n                /* \"Project.sol\":2843:2851  toString */\n              tag_46\n                /* \"Project.sol\":2843:2863  toString(msg.sender) */\n              jump\t// in\n            tag_185:\n                /* \"Project.sol\":2811:2817  append */\n              tag_186\n                /* \"Project.sol\":2811:2864  append(payment.disApprove, \"-\", toString(msg.sender)) */\n              jump\t// in\n            tag_179:\n                /* \"Project.sol\":2790:2797  payment */\n              dup2\n                /* \"Project.sol\":2790:2808  payment.disApprove */\n              0x05\n              add\n                /* \"Project.sol\":2790:2864  payment.disApprove = append(payment.disApprove, \"-\", toString(msg.sender)) */\n              swap1\n              dup1\n              mload\n              swap1\n              0x20\n              add\n              swap1\n              tag_187\n              swap3\n              swap2\n              swap1\n              tag_118\n              jump\t// in\n            tag_187:\n              pop\n                /* \"Project.sol\":2532:2872  {\r... */\n              pop\n                /* \"Project.sol\":2483:2872  function disApprovePayment(uint256 index) public {\r... */\n              pop\n              jump\t// out\n                /* \"Project.sol\":607:632  Payment[] public payments */\n            tag_81:\n              0x07\n              dup2\n              dup2\n              sload\n              dup2\n              lt\n              tag_188\n              jumpi\n              0x00\n              dup1\n              revert\n            tag_188:\n              swap1\n              0x00\n              mstore\n              keccak256(0x00, 0x20)\n              swap1\n              0x06\n              mul\n              add\n              0x00\n              swap2\n              pop\n              swap1\n              pop\n              dup1\n              0x00\n              add\n              dup1\n              sload\n              tag_190\n              swap1\n              tag_121\n              jump\t// in\n            tag_190:\n              dup1\n              0x1f\n              add\n              0x20\n              dup1\n              swap2\n              div\n              mul\n              0x20\n              add\n              mload(0x40)\n              swap1\n              dup2\n              add\n              0x40\n              mstore\n              dup1\n              swap3\n              swap2\n              swap1\n              dup2\n              dup2\n              mstore\n              0x20\n              add\n              dup3\n              dup1\n              sload\n              tag_191\n              swap1\n              tag_121\n              jump\t// in\n            tag_191:\n              dup1\n              iszero\n              tag_192\n              jumpi\n              dup1\n              0x1f\n              lt\n              tag_193\n              jumpi\n              0x0100\n              dup1\n              dup4\n              sload\n              div\n              mul\n              dup4\n              mstore\n              swap2\n              0x20\n              add\n              swap2\n              jump(tag_192)\n            tag_193:\n              dup3\n              add\n              swap2\n              swap1\n              0x00\n              mstore\n              keccak256(0x00, 0x20)\n              swap1\n            tag_194:\n              dup2\n              sload\n              dup2\n              mstore\n              swap1\n              0x01\n              add\n              swap1\n              0x20\n              add\n              dup1\n              dup4\n              gt\n              tag_194\n              jumpi\n              dup3\n              swap1\n              sub\n              0x1f\n              and\n              dup3\n              add\n              swap2\n            tag_192:\n              pop\n              pop\n              pop\n              pop\n              pop\n              swap1\n              dup1\n              0x01\n              add\n              sload\n              swap1\n              dup1\n              0x02\n              add\n              sload\n              swap1\n              dup1\n              0x03\n              add\n              0x00\n              swap1\n              sload\n              swap1\n              0x0100\n              exp\n              swap1\n              div\n              0xffffffffffffffffffffffffffffffffffffffff\n              and\n              swap1\n              dup1\n              0x03\n              add\n              0x14\n              swap1\n              sload\n              swap1\n              0x0100\n              exp\n              swap1\n              div\n              0xff\n              and\n              swap1\n              dup1\n              0x04\n              add\n              dup1\n              sload\n              tag_195\n              swap1\n              tag_121\n              jump\t// in\n            tag_195:\n              dup1\n              0x1f\n              add\n              0x20\n              dup1\n              swap2\n              div\n              mul\n              0x20\n              add\n              mload(0x40)\n              swap1\n              dup2\n              add\n              0x40\n              mstore\n              dup1\n              swap3\n              swap2\n              swap1\n              dup2\n              dup2\n              mstore\n              0x20\n              add\n              dup3\n              dup1\n              sload\n              tag_196\n              swap1\n              tag_121\n              jump\t// in\n            tag_196:\n              dup1\n              iszero\n              tag_197\n              jumpi\n              dup1\n              0x1f\n              lt\n              tag_198\n              jumpi\n              0x0100\n              dup1\n              dup4\n              sload\n              div\n              mul\n              dup4\n              mstore\n              swap2\n              0x20\n              add\n              swap2\n              jump(tag_197)\n            tag_198:\n              dup3\n              add\n              swap2\n              swap1\n              0x00\n              mstore\n              keccak256(0x00, 0x20)\n              swap1\n            tag_199:\n              dup2\n              sload\n              dup2\n              mstore\n              swap1\n              0x01\n              add\n              swap1\n              0x20\n              add\n              dup1\n              dup4\n              gt\n              tag_199\n              jumpi\n              dup3\n              swap1\n              sub\n              0x1f\n              and\n              dup3\n              add\n              swap2\n            tag_197:\n              pop\n              pop\n              pop\n              pop\n              pop\n              swap1\n              dup1\n              0x05\n              add\n              dup1\n              sload\n              tag_200\n              swap1\n              tag_121\n              jump\t// in\n            tag_200:\n              dup1\n              0x1f\n              add\n              0x20\n              dup1\n              swap2\n              div\n              mul\n              0x20\n              add\n              mload(0x40)\n              swap1\n              dup2\n              add\n              0x40\n              mstore\n              dup1\n              swap3\n              swap2\n              swap1\n              dup2\n              dup2\n              mstore\n              0x20\n              add\n              dup3\n              dup1\n              sload\n              tag_201\n              swap1\n              tag_121\n              jump\t// in\n            tag_201:\n              dup1\n              iszero\n              tag_202\n              jumpi\n              dup1\n              0x1f\n              lt\n              tag_203\n              jumpi\n              0x0100\n              dup1\n              dup4\n              sload\n              div\n              mul\n              dup4\n              mstore\n              swap2\n              0x20\n              add\n              swap2\n              jump(tag_202)\n            tag_203:\n              dup3\n              add\n              swap2\n              swap1\n              0x00\n              mstore\n              keccak256(0x00, 0x20)\n              swap1\n            tag_204:\n              dup2\n              sload\n              dup2\n              mstore\n              swap1\n              0x01\n              add\n              swap1\n              0x20\n              add\n              dup1\n              dup4\n              gt\n              tag_204\n              jumpi\n              dup3\n              swap1\n              sub\n              0x1f\n              and\n              dup3\n              add\n              swap2\n            tag_202:\n              pop\n              pop\n              pop\n              pop\n              pop\n              swap1\n              pop\n              dup8\n              jump\t// out\n                /* \"Project.sol\":374:394  address public owner */\n            tag_86:\n              0x00\n              dup1\n              sload\n              swap1\n              0x0100\n              exp\n              swap1\n              div\n              0xffffffffffffffffffffffffffffffffffffffff\n              and\n              dup2\n              jump\t// out\n                /* \"Project.sol\":4133:4261  function toString(bytes32 value) public pure returns (string memory) {\r... */\n            tag_93:\n                /* \"Project.sol\":4187:4200  string memory */\n              0x60\n                /* \"Project.sol\":4220:4253  toString(abi.encodePacked(value)) */\n              tag_206\n                /* \"Project.sol\":4246:4251  value */\n              dup3\n                /* \"Project.sol\":4229:4252  abi.encodePacked(value) */\n              add(0x20, mload(0x40))\n              tag_207\n              swap2\n              swap1\n              tag_208\n              jump\t// in\n            tag_207:\n              mload(0x40)\n              0x20\n              dup2\n              dup4\n              sub\n              sub\n              dup2\n              mstore\n              swap1\n              0x40\n              mstore\n                /* \"Project.sol\":4220:4228  toString */\n              tag_68\n                /* \"Project.sol\":4220:4253  toString(abi.encodePacked(value)) */\n              jump\t// in\n            tag_206:\n                /* \"Project.sol\":4213:4253  return toString(abi.encodePacked(value)) */\n              swap1\n              pop\n                /* \"Project.sol\":4133:4261  function toString(bytes32 value) public pure returns (string memory) {\r... */\n              swap2\n              swap1\n              pop\n              jump\t// out\n                /* \"Project.sol\":2880:3238  function doPayment(uint256 index) public ownerOnly {\r... */\n            tag_98:\n                /* \"Project.sol\":695:700  owner */\n              0x00\n              dup1\n              sload\n              swap1\n              0x0100\n              exp\n              swap1\n              div\n              0xffffffffffffffffffffffffffffffffffffffff\n              and\n                /* \"Project.sol\":681:700  msg.sender == owner */\n              0xffffffffffffffffffffffffffffffffffffffff\n              and\n                /* \"Project.sol\":681:691  msg.sender */\n              caller\n                /* \"Project.sol\":681:700  msg.sender == owner */\n              0xffffffffffffffffffffffffffffffffffffffff\n              and\n              eq\n                /* \"Project.sol\":673:701  require(msg.sender == owner) */\n              tag_210\n              jumpi\n              0x00\n              dup1\n              revert\n            tag_210:\n                /* \"Project.sol\":2942:2965  Payment storage payment */\n              0x00\n                /* \"Project.sol\":2968:2976  payments */\n              0x07\n                /* \"Project.sol\":2977:2982  index */\n              dup3\n                /* \"Project.sol\":2968:2983  payments[index] */\n              dup2\n              sload\n              dup2\n              lt\n              tag_212\n              jumpi\n              tag_213\n              tag_115\n              jump\t// in\n            tag_213:\n            tag_212:\n              swap1\n              0x00\n              mstore\n              keccak256(0x00, 0x20)\n              swap1\n              0x06\n              mul\n              add\n                /* \"Project.sol\":2942:2983  Payment storage payment = payments[index] */\n              swap1\n              pop\n                /* \"Project.sol\":3004:3011  payment */\n              dup1\n                /* \"Project.sol\":3004:3021  payment.completed */\n              0x03\n              add\n              0x14\n              swap1\n              sload\n              swap1\n              0x0100\n              exp\n              swap1\n              div\n              0xff\n              and\n                /* \"Project.sol\":2996:3022  require(payment.completed) */\n              tag_215\n              jumpi\n              0x00\n              dup1\n              revert\n            tag_215:\n                /* \"Project.sol\":3066:3073  payment */\n              dup1\n                /* \"Project.sol\":3066:3080  payment.amount */\n              0x01\n              add\n              sload\n                /* \"Project.sol\":3041:3062  address(this).balance */\n              selfbalance\n                /* \"Project.sol\":3041:3080  address(this).balance >= payment.amount */\n              lt\n              iszero\n                /* \"Project.sol\":3033:3081  require(address(this).balance >= payment.amount) */\n              tag_216\n              jumpi\n              0x00\n              dup1\n              revert\n            tag_216:\n                /* \"Project.sol\":3138:3139  2 */\n              0x02\n                /* \"Project.sol\":3122:3135  investorCount */\n              sload(0x05)\n                /* \"Project.sol\":3122:3139  investorCount / 2 */\n              tag_217\n              swap2\n              swap1\n              tag_218\n              jump\t// in\n            tag_217:\n                /* \"Project.sol\":3100:3107  payment */\n              dup2\n                /* \"Project.sol\":3100:3118  payment.voterCount */\n              0x02\n              add\n              sload\n                /* \"Project.sol\":3100:3140  payment.voterCount > (investorCount / 2) */\n              gt\n                /* \"Project.sol\":3092:3141  require(payment.voterCount > (investorCount / 2)) */\n              tag_219\n              jumpi\n              0x00\n              dup1\n              revert\n            tag_219:\n                /* \"Project.sol\":3154:3161  payment */\n              dup1\n                /* \"Project.sol\":3154:3170  payment.receiver */\n              0x03\n              add\n              0x00\n              swap1\n              sload\n              swap1\n              0x0100\n              exp\n              swap1\n              div\n              0xffffffffffffffffffffffffffffffffffffffff\n              and\n                /* \"Project.sol\":3154:3179  payment.receiver.transfer */\n              0xffffffffffffffffffffffffffffffffffffffff\n              and\n                /* \"Project.sol\":3154:3195  payment.receiver.transfer(payment.amount) */\n              0x08fc\n                /* \"Project.sol\":3180:3187  payment */\n              dup3\n                /* \"Project.sol\":3180:3194  payment.amount */\n              0x01\n              add\n              sload\n                /* \"Project.sol\":3154:3195  payment.receiver.transfer(payment.amount) */\n              swap1\n              dup2\n              iszero\n              mul\n              swap1\n              mload(0x40)\n              0x00\n              mload(0x40)\n              dup1\n              dup4\n              sub\n              dup2\n              dup6\n              dup9\n              dup9\n              call\n              swap4\n              pop\n              pop\n              pop\n              pop\n              iszero\n              dup1\n              iszero\n              tag_221\n              jumpi\n              returndatasize\n              0x00\n              dup1\n              returndatacopy\n              revert(0x00, returndatasize)\n            tag_221:\n              pop\n                /* \"Project.sol\":3226:3230  true */\n              0x01\n                /* \"Project.sol\":3206:3213  payment */\n              dup2\n                /* \"Project.sol\":3206:3223  payment.completed */\n              0x03\n              add\n              0x14\n                /* \"Project.sol\":3206:3230  payment.completed = true */\n              0x0100\n              exp\n              dup2\n              sload\n              dup2\n              0xff\n              mul\n              not\n              and\n              swap1\n              dup4\n              iszero\n              iszero\n              mul\n              or\n              swap1\n              sstore\n              pop\n                /* \"Project.sol\":2931:3238  {\r... */\n              pop\n                /* \"Project.sol\":2880:3238  function doPayment(uint256 index) public ownerOnly {\r... */\n              pop\n              jump\t// out\n                /* \"Project.sol\":1059:1547  function contribute() public payable {\r... */\n            tag_100:\n                /* \"Project.sol\":1128:1137  minInvest */\n              sload(0x02)\n                /* \"Project.sol\":1115:1124  msg.value */\n              callvalue\n                /* \"Project.sol\":1115:1137  msg.value >= minInvest */\n              lt\n              iszero\n                /* \"Project.sol\":1107:1138  require(msg.value >= minInvest) */\n              tag_223\n              jumpi\n              0x00\n              dup1\n              revert\n            tag_223:\n                /* \"Project.sol\":1170:1179  maxInvest */\n              sload(0x03)\n                /* \"Project.sol\":1157:1166  msg.value */\n              callvalue\n                /* \"Project.sol\":1157:1179  msg.value <= maxInvest */\n              gt\n              iszero\n                /* \"Project.sol\":1149:1180  require(msg.value <= maxInvest) */\n              tag_224\n              jumpi\n              0x00\n              dup1\n              revert\n            tag_224:\n                /* \"Project.sol\":1193:1211  uint256 newBalance */\n              0x00\n                /* \"Project.sol\":1239:1275  address(this).balance.add(msg.value) */\n              tag_225\n                /* \"Project.sol\":1265:1274  msg.value */\n              callvalue\n                /* \"Project.sol\":1239:1260  address(this).balance */\n              selfbalance\n                /* \"Project.sol\":1239:1264  address(this).balance.add */\n              tag_226\n              swap1\n                /* \"Project.sol\":1239:1275  address(this).balance.add(msg.value) */\n              swap2\n              swap1\n              0xffffffff\n              and\n              jump\t// in\n            tag_225:\n                /* \"Project.sol\":1226:1275  newBalance = address(this).balance.add(msg.value) */\n              swap1\n              pop\n                /* \"Project.sol\":1308:1312  goal */\n              sload(0x04)\n                /* \"Project.sol\":1294:1304  newBalance */\n              dup2\n                /* \"Project.sol\":1294:1312  newBalance <= goal */\n              gt\n              iszero\n                /* \"Project.sol\":1286:1313  require(newBalance <= goal) */\n              tag_227\n              jumpi\n              0x00\n              dup1\n              revert\n            tag_227:\n                /* \"Project.sol\":1354:1355  0 */\n              0x00\n                /* \"Project.sol\":1330:1339  investors */\n              0x06\n                /* \"Project.sol\":1330:1351  investors[msg.sender] */\n              0x00\n                /* \"Project.sol\":1340:1350  msg.sender */\n              caller\n                /* \"Project.sol\":1330:1351  investors[msg.sender] */\n              0xffffffffffffffffffffffffffffffffffffffff\n              and\n              0xffffffffffffffffffffffffffffffffffffffff\n              and\n              dup2\n              mstore\n              0x20\n              add\n              swap1\n              dup2\n              mstore\n              0x20\n              add\n              0x00\n              keccak256\n              sload\n                /* \"Project.sol\":1330:1355  investors[msg.sender] > 0 */\n              gt\n                /* \"Project.sol\":1326:1540  if (investors[msg.sender] > 0) {\r... */\n              iszero\n              tag_228\n              jumpi\n                /* \"Project.sol\":1420:1429  msg.value */\n              callvalue\n                /* \"Project.sol\":1396:1405  investors */\n              0x06\n                /* \"Project.sol\":1396:1417  investors[msg.sender] */\n              0x00\n                /* \"Project.sol\":1406:1416  msg.sender */\n              caller\n                /* \"Project.sol\":1396:1417  investors[msg.sender] */\n              0xffffffffffffffffffffffffffffffffffffffff\n              and\n              0xffffffffffffffffffffffffffffffffffffffff\n              and\n              dup2\n              mstore\n              0x20\n              add\n              swap1\n              dup2\n              mstore\n              0x20\n              add\n              0x00\n              keccak256\n              sload\n                /* \"Project.sol\":1396:1429  investors[msg.sender] + msg.value */\n              tag_229\n              swap2\n              swap1\n              tag_138\n              jump\t// in\n            tag_229:\n                /* \"Project.sol\":1372:1381  investors */\n              0x06\n                /* \"Project.sol\":1372:1393  investors[msg.sender] */\n              0x00\n                /* \"Project.sol\":1382:1392  msg.sender */\n              caller\n                /* \"Project.sol\":1372:1393  investors[msg.sender] */\n              0xffffffffffffffffffffffffffffffffffffffff\n              and\n              0xffffffffffffffffffffffffffffffffffffffff\n              and\n              dup2\n              mstore\n              0x20\n              add\n              swap1\n              dup2\n              mstore\n              0x20\n              add\n              0x00\n              keccak256\n                /* \"Project.sol\":1372:1429  investors[msg.sender] = investors[msg.sender] + msg.value */\n              dup2\n              swap1\n              sstore\n              pop\n                /* \"Project.sol\":1326:1540  if (investors[msg.sender] > 0) {\r... */\n              jump(tag_230)\n            tag_228:\n                /* \"Project.sol\":1486:1495  msg.value */\n              callvalue\n                /* \"Project.sol\":1462:1471  investors */\n              0x06\n                /* \"Project.sol\":1462:1483  investors[msg.sender] */\n              0x00\n                /* \"Project.sol\":1472:1482  msg.sender */\n              caller\n                /* \"Project.sol\":1462:1483  investors[msg.sender] */\n              0xffffffffffffffffffffffffffffffffffffffff\n              and\n              0xffffffffffffffffffffffffffffffffffffffff\n              and\n              dup2\n              mstore\n              0x20\n              add\n              swap1\n              dup2\n              mstore\n              0x20\n              add\n              0x00\n              keccak256\n                /* \"Project.sol\":1462:1495  investors[msg.sender] = msg.value */\n              dup2\n              swap1\n              sstore\n              pop\n                /* \"Project.sol\":1527:1528  1 */\n              0x01\n                /* \"Project.sol\":1510:1523  investorCount */\n              0x05\n              0x00\n                /* \"Project.sol\":1510:1528  investorCount += 1 */\n              dup3\n              dup3\n              sload\n              tag_231\n              swap2\n              swap1\n              tag_138\n              jump\t// in\n            tag_231:\n              swap3\n              pop\n              pop\n              dup2\n              swap1\n              sstore\n              pop\n                /* \"Project.sol\":1326:1540  if (investors[msg.sender] > 0) {\r... */\n            tag_230:\n                /* \"Project.sol\":1096:1547  {\r... */\n              pop\n                /* \"Project.sol\":1059:1547  function contribute() public payable {\r... */\n              jump\t// out\n                /* \"Project.sol\":521:549  uint256 public investorCount */\n            tag_103:\n              sload(0x05)\n              dup2\n              jump\t// out\n                /* \"Project.sol\":2061:2475  function approvePayment(uint256 index) public {\r... */\n            tag_108:\n                /* \"Project.sol\":2118:2141  Payment storage payment */\n              0x00\n                /* \"Project.sol\":2144:2152  payments */\n              0x07\n                /* \"Project.sol\":2153:2158  index */\n              dup3\n                /* \"Project.sol\":2144:2159  payments[index] */\n              dup2\n              sload\n              dup2\n              lt\n              tag_233\n              jumpi\n              tag_234\n              tag_115\n              jump\t// in\n            tag_234:\n            tag_233:\n              swap1\n              0x00\n              mstore\n              keccak256(0x00, 0x20)\n              swap1\n              0x06\n              mul\n              add\n                /* \"Project.sol\":2118:2159  Payment storage payment = payments[index] */\n              swap1\n              pop\n                /* \"Project.sol\":2241:2242  0 */\n              0x00\n                /* \"Project.sol\":2217:2226  investors */\n              0x06\n                /* \"Project.sol\":2217:2238  investors[msg.sender] */\n              0x00\n                /* \"Project.sol\":2227:2237  msg.sender */\n              caller\n                /* \"Project.sol\":2217:2238  investors[msg.sender] */\n              0xffffffffffffffffffffffffffffffffffffffff\n              and\n              0xffffffffffffffffffffffffffffffffffffffff\n              and\n              dup2\n              mstore\n              0x20\n              add\n              swap1\n              dup2\n              mstore\n              0x20\n              add\n              0x00\n              keccak256\n              sload\n                /* \"Project.sol\":2217:2242  investors[msg.sender] > 0 */\n              gt\n                /* \"Project.sol\":2209:2243  require(investors[msg.sender] > 0) */\n              tag_236\n              jumpi\n              0x00\n              dup1\n              revert\n            tag_236:\n                /* \"Project.sol\":2313:2318  false */\n              0x00\n                /* \"Project.sol\":2292:2318  payment.completed == false */\n              iszero\n              iszero\n                /* \"Project.sol\":2292:2299  payment */\n              dup2\n                /* \"Project.sol\":2292:2309  payment.completed */\n              0x03\n              add\n              0x14\n              swap1\n              sload\n              swap1\n              0x0100\n              exp\n              swap1\n              div\n              0xff\n              and\n                /* \"Project.sol\":2292:2318  payment.completed == false */\n              iszero\n              iszero\n              eq\n                /* \"Project.sol\":2284:2319  require(payment.completed == false) */\n              tag_237\n              jumpi\n              0x00\n              dup1\n              revert\n            tag_237:\n                /* \"Project.sol\":2350:2354  true */\n              0x01\n                /* \"Project.sol\":2330:2337  payment */\n              dup2\n                /* \"Project.sol\":2330:2347  payment.completed */\n              0x03\n              add\n              0x14\n                /* \"Project.sol\":2330:2354  payment.completed = true */\n              0x0100\n              exp\n              dup2\n              sload\n              dup2\n              0xff\n              mul\n              not\n              and\n              swap1\n              dup4\n              iszero\n              iszero\n              mul\n              or\n              swap1\n              sstore\n              pop\n                /* \"Project.sol\":2387:2388  1 */\n              0x01\n                /* \"Project.sol\":2365:2372  payment */\n              dup2\n                /* \"Project.sol\":2365:2383  payment.voterCount */\n              0x02\n              add\n              0x00\n                /* \"Project.sol\":2365:2388  payment.voterCount += 1 */\n              dup3\n              dup3\n              sload\n              tag_238\n              swap2\n              swap1\n              tag_138\n              jump\t// in\n            tag_238:\n              swap3\n              pop\n              pop\n              dup2\n              swap1\n              sstore\n              pop\n                /* \"Project.sol\":2417:2467  append(payment.approve, \"-\", toString(msg.sender)) */\n              tag_239\n                /* \"Project.sol\":2424:2431  payment */\n              dup2\n                /* \"Project.sol\":2424:2439  payment.approve */\n              0x04\n              add\n                /* \"Project.sol\":2417:2467  append(payment.approve, \"-\", toString(msg.sender)) */\n              dup1\n              sload\n              tag_240\n              swap1\n              tag_121\n              jump\t// in\n            tag_240:\n              dup1\n              0x1f\n              add\n              0x20\n              dup1\n              swap2\n              div\n              mul\n              0x20\n              add\n              mload(0x40)\n              swap1\n              dup2\n              add\n              0x40\n              mstore\n              dup1\n              swap3\n              swap2\n              swap1\n              dup2\n              dup2\n              mstore\n              0x20\n              add\n              dup3\n              dup1\n              sload\n              tag_241\n              swap1\n              tag_121\n              jump\t// in\n            tag_241:\n              dup1\n              iszero\n              tag_242\n              jumpi\n              dup1\n              0x1f\n              lt\n              tag_243\n              jumpi\n              0x0100\n              dup1\n              dup4\n              sload\n              div\n              mul\n              dup4\n              mstore\n              swap2\n              0x20\n              add\n              swap2\n              jump(tag_242)\n            tag_243:\n              dup3\n              add\n              swap2\n              swap1\n              0x00\n              mstore\n              keccak256(0x00, 0x20)\n              swap1\n            tag_244:\n              dup2\n              sload\n              dup2\n              mstore\n              swap1\n              0x01\n              add\n              swap1\n              0x20\n              add\n              dup1\n              dup4\n              gt\n              tag_244\n              jumpi\n              dup3\n              swap1\n              sub\n              0x1f\n              and\n              dup3\n              add\n              swap2\n            tag_242:\n              pop\n              pop\n              pop\n              pop\n              pop\n              mload(0x40)\n              dup1\n              0x40\n              add\n              0x40\n              mstore\n              dup1\n              0x01\n              dup2\n              mstore\n              0x20\n              add\n              0x2d00000000000000000000000000000000000000000000000000000000000000\n              dup2\n              mstore\n              pop\n                /* \"Project.sol\":2446:2466  toString(msg.sender) */\n              tag_245\n                /* \"Project.sol\":2455:2465  msg.sender */\n              caller\n                /* \"Project.sol\":2446:2454  toString */\n              tag_46\n                /* \"Project.sol\":2446:2466  toString(msg.sender) */\n              jump\t// in\n            tag_245:\n                /* \"Project.sol\":2417:2423  append */\n              tag_186\n                /* \"Project.sol\":2417:2467  append(payment.approve, \"-\", toString(msg.sender)) */\n              jump\t// in\n            tag_239:\n                /* \"Project.sol\":2399:2406  payment */\n              dup2\n                /* \"Project.sol\":2399:2414  payment.approve */\n              0x04\n              add\n                /* \"Project.sol\":2399:2467  payment.approve = append(payment.approve, \"-\", toString(msg.sender)) */\n              swap1\n              dup1\n              mload\n              swap1\n              0x20\n              add\n              swap1\n              tag_246\n              swap3\n              swap2\n              swap1\n              tag_118\n              jump\t// in\n            tag_246:\n              pop\n                /* \"Project.sol\":2107:2475  {\r... */\n              pop\n                /* \"Project.sol\":2061:2475  function approvePayment(uint256 index) public {\r... */\n              pop\n              jump\t// out\n                /* \"Project.sol\":3651:3849  function append(\r... */\n            tag_186:\n                /* \"Project.sol\":3775:3788  string memory */\n              0x60\n                /* \"Project.sol\":3832:3833  a */\n              dup4\n                /* \"Project.sol\":3835:3836  b */\n              dup4\n                /* \"Project.sol\":3838:3839  c */\n              dup4\n                /* \"Project.sol\":3815:3840  abi.encodePacked(a, b, c) */\n              add(0x20, mload(0x40))\n              tag_248\n              swap4\n              swap3\n              swap2\n              swap1\n              tag_249\n              jump\t// in\n            tag_248:\n              mload(0x40)\n              0x20\n              dup2\n              dup4\n              sub\n              sub\n              dup2\n              mstore\n              swap1\n              0x40\n              mstore\n                /* \"Project.sol\":3801:3841  return string(abi.encodePacked(a, b, c)) */\n              swap1\n              pop\n                /* \"Project.sol\":3651:3849  function append(\r... */\n              swap4\n              swap3\n              pop\n              pop\n              pop\n              jump\t// out\n                /* \"SafeMath.sol\":682:829  function add(uint256 a, uint256 b) internal pure returns (uint256) {\r... */\n            tag_226:\n                /* \"SafeMath.sol\":740:747  uint256 */\n              0x00\n                /* \"SafeMath.sol\":760:769  uint256 c */\n              dup1\n                /* \"SafeMath.sol\":776:777  b */\n              dup3\n                /* \"SafeMath.sol\":772:773  a */\n              dup5\n                /* \"SafeMath.sol\":772:777  a + b */\n              tag_251\n              swap2\n              swap1\n              tag_138\n              jump\t// in\n            tag_251:\n                /* \"SafeMath.sol\":760:777  uint256 c = a + b */\n              swap1\n              pop\n                /* \"SafeMath.sol\":800:801  a */\n              dup4\n                /* \"SafeMath.sol\":795:796  c */\n              dup2\n                /* \"SafeMath.sol\":795:801  c >= a */\n              lt\n              iszero\n                /* \"SafeMath.sol\":788:802  assert(c >= a) */\n              tag_252\n              jumpi\n              tag_253\n              tag_254\n              jump\t// in\n            tag_253:\n            tag_252:\n                /* \"SafeMath.sol\":820:821  c */\n              dup1\n                /* \"SafeMath.sol\":813:821  return c */\n              swap2\n              pop\n              pop\n                /* \"SafeMath.sol\":682:829  function add(uint256 a, uint256 b) internal pure returns (uint256) {\r... */\n              swap3\n              swap2\n              pop\n              pop\n              jump\t// out\n            tag_118:\n              dup3\n              dup1\n              sload\n              tag_255\n              swap1\n              tag_121\n              jump\t// in\n            tag_255:\n              swap1\n              0x00\n              mstore\n              keccak256(0x00, 0x20)\n              swap1\n              0x1f\n              add\n              0x20\n              swap1\n              div\n              dup2\n              add\n              swap3\n              dup3\n              tag_257\n              jumpi\n              0x00\n              dup6\n              sstore\n              jump(tag_256)\n            tag_257:\n              dup3\n              0x1f\n              lt\n              tag_258\n              jumpi\n              dup1\n              mload\n              not(0xff)\n              and\n              dup4\n              dup1\n              add\n              or\n              dup6\n              sstore\n              jump(tag_256)\n            tag_258:\n              dup3\n              dup1\n              add\n              0x01\n              add\n              dup6\n              sstore\n              dup3\n              iszero\n              tag_256\n              jumpi\n              swap2\n              dup3\n              add\n            tag_259:\n              dup3\n              dup2\n              gt\n              iszero\n              tag_260\n              jumpi\n              dup3\n              mload\n              dup3\n              sstore\n              swap2\n              0x20\n              add\n              swap2\n              swap1\n              0x01\n              add\n              swap1\n              jump(tag_259)\n            tag_260:\n            tag_256:\n              pop\n              swap1\n              pop\n              tag_261\n              swap2\n              swap1\n              tag_262\n              jump\t// in\n            tag_261:\n              pop\n              swap1\n              jump\t// out\n            tag_262:\n            tag_263:\n              dup1\n              dup3\n              gt\n              iszero\n              tag_264\n              jumpi\n              0x00\n              dup2\n              0x00\n              swap1\n              sstore\n              pop\n              0x01\n              add\n              jump(tag_263)\n            tag_264:\n              pop\n              swap1\n              jump\t// out\n                /* \"#utility.yul\":7:417   */\n            tag_266:\n                /* \"#utility.yul\":84:89   */\n              0x00\n                /* \"#utility.yul\":109:174   */\n              tag_268\n                /* \"#utility.yul\":125:173   */\n              tag_269\n                /* \"#utility.yul\":166:172   */\n              dup5\n                /* \"#utility.yul\":125:173   */\n              tag_270\n              jump\t// in\n            tag_269:\n                /* \"#utility.yul\":109:174   */\n              tag_271\n              jump\t// in\n            tag_268:\n                /* \"#utility.yul\":100:174   */\n              swap1\n              pop\n                /* \"#utility.yul\":197:203   */\n              dup3\n                /* \"#utility.yul\":190:195   */\n              dup2\n                /* \"#utility.yul\":183:204   */\n              mstore\n                /* \"#utility.yul\":235:239   */\n              0x20\n                /* \"#utility.yul\":228:233   */\n              dup2\n                /* \"#utility.yul\":224:240   */\n              add\n                /* \"#utility.yul\":273:276   */\n              dup5\n                /* \"#utility.yul\":264:270   */\n              dup5\n                /* \"#utility.yul\":259:262   */\n              dup5\n                /* \"#utility.yul\":255:271   */\n              add\n                /* \"#utility.yul\":252:277   */\n              gt\n                /* \"#utility.yul\":249:251   */\n              iszero\n              tag_272\n              jumpi\n                /* \"#utility.yul\":280:359   */\n              tag_273\n              tag_274\n              jump\t// in\n            tag_273:\n                /* \"#utility.yul\":249:251   */\n            tag_272:\n                /* \"#utility.yul\":370:411   */\n              tag_275\n                /* \"#utility.yul\":404:410   */\n              dup5\n                /* \"#utility.yul\":399:402   */\n              dup3\n                /* \"#utility.yul\":394:397   */\n              dup6\n                /* \"#utility.yul\":370:411   */\n              tag_276\n              jump\t// in\n            tag_275:\n                /* \"#utility.yul\":90:417   */\n              pop\n              swap4\n              swap3\n              pop\n              pop\n              pop\n              jump\t// out\n                /* \"#utility.yul\":423:835   */\n            tag_277:\n                /* \"#utility.yul\":501:506   */\n              0x00\n                /* \"#utility.yul\":526:592   */\n              tag_279\n                /* \"#utility.yul\":542:591   */\n              tag_280\n                /* \"#utility.yul\":584:590   */\n              dup5\n                /* \"#utility.yul\":542:591   */\n              tag_281\n              jump\t// in\n            tag_280:\n                /* \"#utility.yul\":526:592   */\n              tag_271\n              jump\t// in\n            tag_279:\n                /* \"#utility.yul\":517:592   */\n              swap1\n              pop\n                /* \"#utility.yul\":615:621   */\n              dup3\n                /* \"#utility.yul\":608:613   */\n              dup2\n                /* \"#utility.yul\":601:622   */\n              mstore\n                /* \"#utility.yul\":653:657   */\n              0x20\n                /* \"#utility.yul\":646:651   */\n              dup2\n                /* \"#utility.yul\":642:658   */\n              add\n                /* \"#utility.yul\":691:694   */\n              dup5\n                /* \"#utility.yul\":682:688   */\n              dup5\n                /* \"#utility.yul\":677:680   */\n              dup5\n                /* \"#utility.yul\":673:689   */\n              add\n                /* \"#utility.yul\":670:695   */\n              gt\n                /* \"#utility.yul\":667:669   */\n              iszero\n              tag_282\n              jumpi\n                /* \"#utility.yul\":698:777   */\n              tag_283\n              tag_274\n              jump\t// in\n            tag_283:\n                /* \"#utility.yul\":667:669   */\n            tag_282:\n                /* \"#utility.yul\":788:829   */\n              tag_284\n                /* \"#utility.yul\":822:828   */\n              dup5\n                /* \"#utility.yul\":817:820   */\n              dup3\n                /* \"#utility.yul\":812:815   */\n              dup6\n                /* \"#utility.yul\":788:829   */\n              tag_276\n              jump\t// in\n            tag_284:\n                /* \"#utility.yul\":507:835   */\n              pop\n              swap4\n              swap3\n              pop\n              pop\n              pop\n              jump\t// out\n                /* \"#utility.yul\":841:980   */\n            tag_285:\n                /* \"#utility.yul\":887:892   */\n              0x00\n                /* \"#utility.yul\":925:931   */\n              dup2\n                /* \"#utility.yul\":912:932   */\n              calldataload\n                /* \"#utility.yul\":903:932   */\n              swap1\n              pop\n                /* \"#utility.yul\":941:974   */\n              tag_287\n                /* \"#utility.yul\":968:973   */\n              dup2\n                /* \"#utility.yul\":941:974   */\n              tag_288\n              jump\t// in\n            tag_287:\n                /* \"#utility.yul\":893:980   */\n              swap3\n              swap2\n              pop\n              pop\n              jump\t// out\n                /* \"#utility.yul\":986:1141   */\n            tag_289:\n                /* \"#utility.yul\":1040:1045   */\n              0x00\n                /* \"#utility.yul\":1078:1084   */\n              dup2\n                /* \"#utility.yul\":1065:1085   */\n              calldataload\n                /* \"#utility.yul\":1056:1085   */\n              swap1\n              pop\n                /* \"#utility.yul\":1094:1135   */\n              tag_291\n                /* \"#utility.yul\":1129:1134   */\n              dup2\n                /* \"#utility.yul\":1094:1135   */\n              tag_292\n              jump\t// in\n            tag_291:\n                /* \"#utility.yul\":1046:1141   */\n              swap3\n              swap2\n              pop\n              pop\n              jump\t// out\n                /* \"#utility.yul\":1147:1286   */\n            tag_293:\n                /* \"#utility.yul\":1193:1198   */\n              0x00\n                /* \"#utility.yul\":1231:1237   */\n              dup2\n                /* \"#utility.yul\":1218:1238   */\n              calldataload\n                /* \"#utility.yul\":1209:1238   */\n              swap1\n              pop\n                /* \"#utility.yul\":1247:1280   */\n              tag_295\n                /* \"#utility.yul\":1274:1279   */\n              dup2\n                /* \"#utility.yul\":1247:1280   */\n              tag_296\n              jump\t// in\n            tag_295:\n                /* \"#utility.yul\":1199:1286   */\n              swap3\n              swap2\n              pop\n              pop\n              jump\t// out\n                /* \"#utility.yul\":1305:1643   */\n            tag_297:\n                /* \"#utility.yul\":1360:1365   */\n              0x00\n                /* \"#utility.yul\":1409:1412   */\n              dup3\n                /* \"#utility.yul\":1402:1406   */\n              0x1f\n                /* \"#utility.yul\":1394:1400   */\n              dup4\n                /* \"#utility.yul\":1390:1407   */\n              add\n                /* \"#utility.yul\":1386:1413   */\n              slt\n                /* \"#utility.yul\":1376:1378   */\n              tag_299\n              jumpi\n                /* \"#utility.yul\":1417:1496   */\n              tag_300\n              tag_301\n              jump\t// in\n            tag_300:\n                /* \"#utility.yul\":1376:1378   */\n            tag_299:\n                /* \"#utility.yul\":1534:1540   */\n              dup2\n                /* \"#utility.yul\":1521:1541   */\n              calldataload\n                /* \"#utility.yul\":1559:1637   */\n              tag_302\n                /* \"#utility.yul\":1633:1636   */\n              dup5\n                /* \"#utility.yul\":1625:1631   */\n              dup3\n                /* \"#utility.yul\":1618:1622   */\n              0x20\n                /* \"#utility.yul\":1610:1616   */\n              dup7\n                /* \"#utility.yul\":1606:1623   */\n              add\n                /* \"#utility.yul\":1559:1637   */\n              tag_266\n              jump\t// in\n            tag_302:\n                /* \"#utility.yul\":1550:1637   */\n              swap2\n              pop\n                /* \"#utility.yul\":1366:1643   */\n              pop\n              swap3\n              swap2\n              pop\n              pop\n              jump\t// out\n                /* \"#utility.yul\":1663:2003   */\n            tag_303:\n                /* \"#utility.yul\":1719:1724   */\n              0x00\n                /* \"#utility.yul\":1768:1771   */\n              dup3\n                /* \"#utility.yul\":1761:1765   */\n              0x1f\n                /* \"#utility.yul\":1753:1759   */\n              dup4\n                /* \"#utility.yul\":1749:1766   */\n              add\n                /* \"#utility.yul\":1745:1772   */\n              slt\n                /* \"#utility.yul\":1735:1737   */\n              tag_305\n              jumpi\n                /* \"#utility.yul\":1776:1855   */\n              tag_306\n              tag_301\n              jump\t// in\n            tag_306:\n                /* \"#utility.yul\":1735:1737   */\n            tag_305:\n                /* \"#utility.yul\":1893:1899   */\n              dup2\n                /* \"#utility.yul\":1880:1900   */\n              calldataload\n                /* \"#utility.yul\":1918:1997   */\n              tag_307\n                /* \"#utility.yul\":1993:1996   */\n              dup5\n                /* \"#utility.yul\":1985:1991   */\n              dup3\n                /* \"#utility.yul\":1978:1982   */\n              0x20\n                /* \"#utility.yul\":1970:1976   */\n              dup7\n                /* \"#utility.yul\":1966:1983   */\n              add\n                /* \"#utility.yul\":1918:1997   */\n              tag_277\n              jump\t// in\n            tag_307:\n                /* \"#utility.yul\":1909:1997   */\n              swap2\n              pop\n                /* \"#utility.yul\":1725:2003   */\n              pop\n              swap3\n              swap2\n              pop\n              pop\n              jump\t// out\n                /* \"#utility.yul\":2009:2148   */\n            tag_308:\n                /* \"#utility.yul\":2055:2060   */\n              0x00\n                /* \"#utility.yul\":2093:2099   */\n              dup2\n                /* \"#utility.yul\":2080:2100   */\n              calldataload\n                /* \"#utility.yul\":2071:2100   */\n              swap1\n              pop\n                /* \"#utility.yul\":2109:2142   */\n              tag_310\n                /* \"#utility.yul\":2136:2141   */\n              dup2\n                /* \"#utility.yul\":2109:2142   */\n              tag_311\n              jump\t// in\n            tag_310:\n                /* \"#utility.yul\":2061:2148   */\n              swap3\n              swap2\n              pop\n              pop\n              jump\t// out\n                /* \"#utility.yul\":2154:2483   */\n            tag_45:\n                /* \"#utility.yul\":2213:2219   */\n              0x00\n                /* \"#utility.yul\":2262:2264   */\n              0x20\n                /* \"#utility.yul\":2250:2259   */\n              dup3\n                /* \"#utility.yul\":2241:2248   */\n              dup5\n                /* \"#utility.yul\":2237:2260   */\n              sub\n                /* \"#utility.yul\":2233:2265   */\n              slt\n                /* \"#utility.yul\":2230:2232   */\n              iszero\n              tag_313\n              jumpi\n                /* \"#utility.yul\":2268:2347   */\n              tag_314\n              tag_315\n              jump\t// in\n            tag_314:\n                /* \"#utility.yul\":2230:2232   */\n            tag_313:\n                /* \"#utility.yul\":2388:2389   */\n              0x00\n                /* \"#utility.yul\":2413:2466   */\n              tag_316\n                /* \"#utility.yul\":2458:2465   */\n              dup5\n                /* \"#utility.yul\":2449:2455   */\n              dup3\n                /* \"#utility.yul\":2438:2447   */\n              dup6\n                /* \"#utility.yul\":2434:2456   */\n              add\n                /* \"#utility.yul\":2413:2466   */\n              tag_285\n              jump\t// in\n            tag_316:\n                /* \"#utility.yul\":2403:2466   */\n              swap2\n              pop\n                /* \"#utility.yul\":2359:2476   */\n              pop\n                /* \"#utility.yul\":2220:2483   */\n              swap3\n              swap2\n              pop\n              pop\n              jump\t// out\n                /* \"#utility.yul\":2489:2818   */\n            tag_92:\n                /* \"#utility.yul\":2548:2554   */\n              0x00\n                /* \"#utility.yul\":2597:2599   */\n              0x20\n                /* \"#utility.yul\":2585:2594   */\n              dup3\n                /* \"#utility.yul\":2576:2583   */\n              dup5\n                /* \"#utility.yul\":2572:2595   */\n              sub\n                /* \"#utility.yul\":2568:2600   */\n              slt\n                /* \"#utility.yul\":2565:2567   */\n              iszero\n              tag_318\n              jumpi\n                /* \"#utility.yul\":2603:2682   */\n              tag_319\n              tag_315\n              jump\t// in\n            tag_319:\n                /* \"#utility.yul\":2565:2567   */\n            tag_318:\n                /* \"#utility.yul\":2723:2724   */\n              0x00\n                /* \"#utility.yul\":2748:2801   */\n              tag_320\n                /* \"#utility.yul\":2793:2800   */\n              dup5\n                /* \"#utility.yul\":2784:2790   */\n              dup3\n                /* \"#utility.yul\":2773:2782   */\n              dup6\n                /* \"#utility.yul\":2769:2791   */\n              add\n                /* \"#utility.yul\":2748:2801   */\n              tag_293\n              jump\t// in\n            tag_320:\n                /* \"#utility.yul\":2738:2801   */\n              swap2\n              pop\n                /* \"#utility.yul\":2694:2811   */\n              pop\n                /* \"#utility.yul\":2555:2818   */\n              swap3\n              swap2\n              pop\n              pop\n              jump\t// out\n                /* \"#utility.yul\":2824:3331   */\n            tag_67:\n                /* \"#utility.yul\":2892:2898   */\n              0x00\n                /* \"#utility.yul\":2941:2943   */\n              0x20\n                /* \"#utility.yul\":2929:2938   */\n              dup3\n                /* \"#utility.yul\":2920:2927   */\n              dup5\n                /* \"#utility.yul\":2916:2939   */\n              sub\n                /* \"#utility.yul\":2912:2944   */\n              slt\n                /* \"#utility.yul\":2909:2911   */\n              iszero\n              tag_322\n              jumpi\n                /* \"#utility.yul\":2947:3026   */\n              tag_323\n              tag_315\n              jump\t// in\n            tag_323:\n                /* \"#utility.yul\":2909:2911   */\n            tag_322:\n                /* \"#utility.yul\":3095:3096   */\n              0x00\n                /* \"#utility.yul\":3084:3093   */\n              dup3\n                /* \"#utility.yul\":3080:3097   */\n              add\n                /* \"#utility.yul\":3067:3098   */\n              calldataload\n                /* \"#utility.yul\":3125:3143   */\n              0xffffffffffffffff\n                /* \"#utility.yul\":3117:3123   */\n              dup2\n                /* \"#utility.yul\":3114:3144   */\n              gt\n                /* \"#utility.yul\":3111:3113   */\n              iszero\n              tag_324\n              jumpi\n                /* \"#utility.yul\":3147:3226   */\n              tag_325\n              tag_326\n              jump\t// in\n            tag_325:\n                /* \"#utility.yul\":3111:3113   */\n            tag_324:\n                /* \"#utility.yul\":3252:3314   */\n              tag_327\n                /* \"#utility.yul\":3306:3313   */\n              dup5\n                /* \"#utility.yul\":3297:3303   */\n              dup3\n                /* \"#utility.yul\":3286:3295   */\n              dup6\n                /* \"#utility.yul\":3282:3304   */\n              add\n                /* \"#utility.yul\":3252:3314   */\n              tag_297\n              jump\t// in\n            tag_327:\n                /* \"#utility.yul\":3242:3314   */\n              swap2\n              pop\n                /* \"#utility.yul\":3038:3324   */\n              pop\n                /* \"#utility.yul\":2899:3331   */\n              swap3\n              swap2\n              pop\n              pop\n              jump\t// out\n                /* \"#utility.yul\":3337:4152   */\n            tag_26:\n                /* \"#utility.yul\":3432:3438   */\n              0x00\n                /* \"#utility.yul\":3440:3446   */\n              dup1\n                /* \"#utility.yul\":3448:3454   */\n              0x00\n                /* \"#utility.yul\":3497:3499   */\n              0x60\n                /* \"#utility.yul\":3485:3494   */\n              dup5\n                /* \"#utility.yul\":3476:3483   */\n              dup7\n                /* \"#utility.yul\":3472:3495   */\n              sub\n                /* \"#utility.yul\":3468:3500   */\n              slt\n                /* \"#utility.yul\":3465:3467   */\n              iszero\n              tag_329\n              jumpi\n                /* \"#utility.yul\":3503:3582   */\n              tag_330\n              tag_315\n              jump\t// in\n            tag_330:\n                /* \"#utility.yul\":3465:3467   */\n            tag_329:\n                /* \"#utility.yul\":3651:3652   */\n              0x00\n                /* \"#utility.yul\":3640:3649   */\n              dup5\n                /* \"#utility.yul\":3636:3653   */\n              add\n                /* \"#utility.yul\":3623:3654   */\n              calldataload\n                /* \"#utility.yul\":3681:3699   */\n              0xffffffffffffffff\n                /* \"#utility.yul\":3673:3679   */\n              dup2\n                /* \"#utility.yul\":3670:3700   */\n              gt\n                /* \"#utility.yul\":3667:3669   */\n              iszero\n              tag_331\n              jumpi\n                /* \"#utility.yul\":3703:3782   */\n              tag_332\n              tag_326\n              jump\t// in\n            tag_332:\n                /* \"#utility.yul\":3667:3669   */\n            tag_331:\n                /* \"#utility.yul\":3808:3871   */\n              tag_333\n                /* \"#utility.yul\":3863:3870   */\n              dup7\n                /* \"#utility.yul\":3854:3860   */\n              dup3\n                /* \"#utility.yul\":3843:3852   */\n              dup8\n                /* \"#utility.yul\":3839:3861   */\n              add\n                /* \"#utility.yul\":3808:3871   */\n              tag_303\n              jump\t// in\n            tag_333:\n                /* \"#utility.yul\":3798:3871   */\n              swap4\n              pop\n                /* \"#utility.yul\":3594:3881   */\n              pop\n                /* \"#utility.yul\":3920:3922   */\n              0x20\n                /* \"#utility.yul\":3946:3999   */\n              tag_334\n                /* \"#utility.yul\":3991:3998   */\n              dup7\n                /* \"#utility.yul\":3982:3988   */\n              dup3\n                /* \"#utility.yul\":3971:3980   */\n              dup8\n                /* \"#utility.yul\":3967:3989   */\n              add\n                /* \"#utility.yul\":3946:3999   */\n              tag_308\n              jump\t// in\n            tag_334:\n                /* \"#utility.yul\":3936:3999   */\n              swap3\n              pop\n                /* \"#utility.yul\":3891:4009   */\n              pop\n                /* \"#utility.yul\":4048:4050   */\n              0x40\n                /* \"#utility.yul\":4074:4135   */\n              tag_335\n                /* \"#utility.yul\":4127:4134   */\n              dup7\n                /* \"#utility.yul\":4118:4124   */\n              dup3\n                /* \"#utility.yul\":4107:4116   */\n              dup8\n                /* \"#utility.yul\":4103:4125   */\n              add\n                /* \"#utility.yul\":4074:4135   */\n              tag_289\n              jump\t// in\n            tag_335:\n                /* \"#utility.yul\":4064:4135   */\n              swap2\n              pop\n                /* \"#utility.yul\":4019:4145   */\n              pop\n                /* \"#utility.yul\":3455:4152   */\n              swap3\n              pop\n              swap3\n              pop\n              swap3\n              jump\t// out\n                /* \"#utility.yul\":4158:4487   */\n            tag_56:\n                /* \"#utility.yul\":4217:4223   */\n              0x00\n                /* \"#utility.yul\":4266:4268   */\n              0x20\n                /* \"#utility.yul\":4254:4263   */\n              dup3\n                /* \"#utility.yul\":4245:4252   */\n              dup5\n                /* \"#utility.yul\":4241:4264   */\n              sub\n                /* \"#utility.yul\":4237:4269   */\n              slt\n                /* \"#utility.yul\":4234:4236   */\n              iszero\n              tag_337\n              jumpi\n                /* \"#utility.yul\":4272:4351   */\n              tag_338\n              tag_315\n              jump\t// in\n            tag_338:\n                /* \"#utility.yul\":4234:4236   */\n            tag_337:\n                /* \"#utility.yul\":4392:4393   */\n              0x00\n                /* \"#utility.yul\":4417:4470   */\n              tag_339\n                /* \"#utility.yul\":4462:4469   */\n              dup5\n                /* \"#utility.yul\":4453:4459   */\n              dup3\n                /* \"#utility.yul\":4442:4451   */\n              dup6\n                /* \"#utility.yul\":4438:4460   */\n              add\n                /* \"#utility.yul\":4417:4470   */\n              tag_308\n              jump\t// in\n            tag_339:\n                /* \"#utility.yul\":4407:4470   */\n              swap2\n              pop\n                /* \"#utility.yul\":4363:4480   */\n              pop\n                /* \"#utility.yul\":4224:4487   */\n              swap3\n              swap2\n              pop\n              pop\n              jump\t// out\n                /* \"#utility.yul\":4493:4635   */\n            tag_340:\n                /* \"#utility.yul\":4596:4628   */\n              tag_342\n                /* \"#utility.yul\":4622:4627   */\n              dup2\n                /* \"#utility.yul\":4596:4628   */\n              tag_343\n              jump\t// in\n            tag_342:\n                /* \"#utility.yul\":4591:4594   */\n              dup3\n                /* \"#utility.yul\":4584:4629   */\n              mstore\n                /* \"#utility.yul\":4574:4635   */\n              pop\n              pop\n              jump\t// out\n                /* \"#utility.yul\":4641:4759   */\n            tag_344:\n                /* \"#utility.yul\":4728:4752   */\n              tag_346\n                /* \"#utility.yul\":4746:4751   */\n              dup2\n                /* \"#utility.yul\":4728:4752   */\n              tag_347\n              jump\t// in\n            tag_346:\n                /* \"#utility.yul\":4723:4726   */\n              dup3\n                /* \"#utility.yul\":4716:4753   */\n              mstore\n                /* \"#utility.yul\":4706:4759   */\n              pop\n              pop\n              jump\t// out\n                /* \"#utility.yul\":4765:4922   */\n            tag_348:\n                /* \"#utility.yul\":4870:4915   */\n              tag_350\n                /* \"#utility.yul\":4890:4914   */\n              tag_351\n                /* \"#utility.yul\":4908:4913   */\n              dup3\n                /* \"#utility.yul\":4890:4914   */\n              tag_347\n              jump\t// in\n            tag_351:\n                /* \"#utility.yul\":4870:4915   */\n              tag_352\n              jump\t// in\n            tag_350:\n                /* \"#utility.yul\":4865:4868   */\n              dup3\n                /* \"#utility.yul\":4858:4916   */\n              mstore\n                /* \"#utility.yul\":4848:4922   */\n              pop\n              pop\n              jump\t// out\n                /* \"#utility.yul\":4928:5037   */\n            tag_353:\n                /* \"#utility.yul\":5009:5030   */\n              tag_355\n                /* \"#utility.yul\":5024:5029   */\n              dup2\n                /* \"#utility.yul\":5009:5030   */\n              tag_356\n              jump\t// in\n            tag_355:\n                /* \"#utility.yul\":5004:5007   */\n              dup3\n                /* \"#utility.yul\":4997:5031   */\n              mstore\n                /* \"#utility.yul\":4987:5037   */\n              pop\n              pop\n              jump\t// out\n                /* \"#utility.yul\":5043:5200   */\n            tag_357:\n                /* \"#utility.yul\":5148:5193   */\n              tag_359\n                /* \"#utility.yul\":5168:5192   */\n              tag_360\n                /* \"#utility.yul\":5186:5191   */\n              dup3\n                /* \"#utility.yul\":5168:5192   */\n              tag_361\n              jump\t// in\n            tag_360:\n                /* \"#utility.yul\":5148:5193   */\n              tag_362\n              jump\t// in\n            tag_359:\n                /* \"#utility.yul\":5143:5146   */\n              dup3\n                /* \"#utility.yul\":5136:5194   */\n              mstore\n                /* \"#utility.yul\":5126:5200   */\n              pop\n              pop\n              jump\t// out\n                /* \"#utility.yul\":5206:5570   */\n            tag_363:\n                /* \"#utility.yul\":5294:5297   */\n              0x00\n                /* \"#utility.yul\":5322:5361   */\n              tag_365\n                /* \"#utility.yul\":5355:5360   */\n              dup3\n                /* \"#utility.yul\":5322:5361   */\n              tag_366\n              jump\t// in\n            tag_365:\n                /* \"#utility.yul\":5377:5448   */\n              tag_367\n                /* \"#utility.yul\":5441:5447   */\n              dup2\n                /* \"#utility.yul\":5436:5439   */\n              dup6\n                /* \"#utility.yul\":5377:5448   */\n              tag_368\n              jump\t// in\n            tag_367:\n                /* \"#utility.yul\":5370:5448   */\n              swap4\n              pop\n                /* \"#utility.yul\":5457:5509   */\n              tag_369\n                /* \"#utility.yul\":5502:5508   */\n              dup2\n                /* \"#utility.yul\":5497:5500   */\n              dup6\n                /* \"#utility.yul\":5490:5494   */\n              0x20\n                /* \"#utility.yul\":5483:5488   */\n              dup7\n                /* \"#utility.yul\":5479:5495   */\n              add\n                /* \"#utility.yul\":5457:5509   */\n              tag_370\n              jump\t// in\n            tag_369:\n                /* \"#utility.yul\":5534:5563   */\n              tag_371\n                /* \"#utility.yul\":5556:5562   */\n              dup2\n                /* \"#utility.yul\":5534:5563   */\n              tag_372\n              jump\t// in\n            tag_371:\n                /* \"#utility.yul\":5529:5532   */\n              dup5\n                /* \"#utility.yul\":5525:5564   */\n              add\n                /* \"#utility.yul\":5518:5564   */\n              swap2\n              pop\n                /* \"#utility.yul\":5298:5570   */\n              pop\n              swap3\n              swap2\n              pop\n              pop\n              jump\t// out\n                /* \"#utility.yul\":5576:5953   */\n            tag_373:\n                /* \"#utility.yul\":5682:5685   */\n              0x00\n                /* \"#utility.yul\":5710:5749   */\n              tag_375\n                /* \"#utility.yul\":5743:5748   */\n              dup3\n                /* \"#utility.yul\":5710:5749   */\n              tag_366\n              jump\t// in\n            tag_375:\n                /* \"#utility.yul\":5765:5854   */\n              tag_376\n                /* \"#utility.yul\":5847:5853   */\n              dup2\n                /* \"#utility.yul\":5842:5845   */\n              dup6\n                /* \"#utility.yul\":5765:5854   */\n              tag_377\n              jump\t// in\n            tag_376:\n                /* \"#utility.yul\":5758:5854   */\n              swap4\n              pop\n                /* \"#utility.yul\":5863:5915   */\n              tag_378\n                /* \"#utility.yul\":5908:5914   */\n              dup2\n                /* \"#utility.yul\":5903:5906   */\n              dup6\n                /* \"#utility.yul\":5896:5900   */\n              0x20\n                /* \"#utility.yul\":5889:5894   */\n              dup7\n                /* \"#utility.yul\":5885:5901   */\n              add\n                /* \"#utility.yul\":5863:5915   */\n              tag_370\n              jump\t// in\n            tag_378:\n                /* \"#utility.yul\":5940:5946   */\n              dup1\n                /* \"#utility.yul\":5935:5938   */\n              dup5\n                /* \"#utility.yul\":5931:5947   */\n              add\n                /* \"#utility.yul\":5924:5947   */\n              swap2\n              pop\n                /* \"#utility.yul\":5686:5953   */\n              pop\n              swap3\n              swap2\n              pop\n              pop\n              jump\t// out\n                /* \"#utility.yul\":5959:6077   */\n            tag_379:\n                /* \"#utility.yul\":6046:6070   */\n              tag_381\n                /* \"#utility.yul\":6064:6069   */\n              dup2\n                /* \"#utility.yul\":6046:6070   */\n              tag_382\n              jump\t// in\n            tag_381:\n                /* \"#utility.yul\":6041:6044   */\n              dup3\n                /* \"#utility.yul\":6034:6071   */\n              mstore\n                /* \"#utility.yul\":6024:6077   */\n              pop\n              pop\n              jump\t// out\n                /* \"#utility.yul\":6083:6240   */\n            tag_383:\n                /* \"#utility.yul\":6188:6233   */\n              tag_385\n                /* \"#utility.yul\":6208:6232   */\n              tag_386\n                /* \"#utility.yul\":6226:6231   */\n              dup3\n                /* \"#utility.yul\":6208:6232   */\n              tag_382\n              jump\t// in\n            tag_386:\n                /* \"#utility.yul\":6188:6233   */\n              tag_387\n              jump\t// in\n            tag_385:\n                /* \"#utility.yul\":6183:6186   */\n              dup3\n                /* \"#utility.yul\":6176:6234   */\n              mstore\n                /* \"#utility.yul\":6166:6240   */\n              pop\n              pop\n              jump\t// out\n                /* \"#utility.yul\":6246:6502   */\n            tag_129:\n                /* \"#utility.yul\":6358:6361   */\n              0x00\n                /* \"#utility.yul\":6373:6448   */\n              tag_389\n                /* \"#utility.yul\":6444:6447   */\n              dup3\n                /* \"#utility.yul\":6435:6441   */\n              dup5\n                /* \"#utility.yul\":6373:6448   */\n              tag_348\n              jump\t// in\n            tag_389:\n                /* \"#utility.yul\":6473:6475   */\n              0x14\n                /* \"#utility.yul\":6468:6471   */\n              dup3\n                /* \"#utility.yul\":6464:6476   */\n              add\n                /* \"#utility.yul\":6457:6476   */\n              swap2\n              pop\n                /* \"#utility.yul\":6493:6496   */\n              dup2\n                /* \"#utility.yul\":6486:6496   */\n              swap1\n              pop\n                /* \"#utility.yul\":6362:6502   */\n              swap3\n              swap2\n              pop\n              pop\n              jump\t// out\n                /* \"#utility.yul\":6508:6764   */\n            tag_208:\n                /* \"#utility.yul\":6620:6623   */\n              0x00\n                /* \"#utility.yul\":6635:6710   */\n              tag_391\n                /* \"#utility.yul\":6706:6709   */\n              dup3\n                /* \"#utility.yul\":6697:6703   */\n              dup5\n                /* \"#utility.yul\":6635:6710   */\n              tag_357\n              jump\t// in\n            tag_391:\n                /* \"#utility.yul\":6735:6737   */\n              0x20\n                /* \"#utility.yul\":6730:6733   */\n              dup3\n                /* \"#utility.yul\":6726:6738   */\n              add\n                /* \"#utility.yul\":6719:6738   */\n              swap2\n              pop\n                /* \"#utility.yul\":6755:6758   */\n              dup2\n                /* \"#utility.yul\":6748:6758   */\n              swap1\n              pop\n                /* \"#utility.yul\":6624:6764   */\n              swap3\n              swap2\n              pop\n              pop\n              jump\t// out\n                /* \"#utility.yul\":6770:7365   */\n            tag_249:\n                /* \"#utility.yul\":6998:7001   */\n              0x00\n                /* \"#utility.yul\":7020:7115   */\n              tag_393\n                /* \"#utility.yul\":7111:7114   */\n              dup3\n                /* \"#utility.yul\":7102:7108   */\n              dup7\n                /* \"#utility.yul\":7020:7115   */\n              tag_373\n              jump\t// in\n            tag_393:\n                /* \"#utility.yul\":7013:7115   */\n              swap2\n              pop\n                /* \"#utility.yul\":7132:7227   */\n              tag_394\n                /* \"#utility.yul\":7223:7226   */\n              dup3\n                /* \"#utility.yul\":7214:7220   */\n              dup6\n                /* \"#utility.yul\":7132:7227   */\n              tag_373\n              jump\t// in\n            tag_394:\n                /* \"#utility.yul\":7125:7227   */\n              swap2\n              pop\n                /* \"#utility.yul\":7244:7339   */\n              tag_395\n                /* \"#utility.yul\":7335:7338   */\n              dup3\n                /* \"#utility.yul\":7326:7332   */\n              dup5\n                /* \"#utility.yul\":7244:7339   */\n              tag_373\n              jump\t// in\n            tag_395:\n                /* \"#utility.yul\":7237:7339   */\n              swap2\n              pop\n                /* \"#utility.yul\":7356:7359   */\n              dup2\n                /* \"#utility.yul\":7349:7359   */\n              swap1\n              pop\n                /* \"#utility.yul\":7002:7365   */\n              swap5\n              swap4\n              pop\n              pop\n              pop\n              pop\n              jump\t// out\n                /* \"#utility.yul\":7371:7627   */\n            tag_133:\n                /* \"#utility.yul\":7483:7486   */\n              0x00\n                /* \"#utility.yul\":7498:7573   */\n              tag_397\n                /* \"#utility.yul\":7569:7572   */\n              dup3\n                /* \"#utility.yul\":7560:7566   */\n              dup5\n                /* \"#utility.yul\":7498:7573   */\n              tag_383\n              jump\t// in\n            tag_397:\n                /* \"#utility.yul\":7598:7600   */\n              0x20\n                /* \"#utility.yul\":7593:7596   */\n              dup3\n                /* \"#utility.yul\":7589:7601   */\n              add\n                /* \"#utility.yul\":7582:7601   */\n              swap2\n              pop\n                /* \"#utility.yul\":7618:7621   */\n              dup2\n                /* \"#utility.yul\":7611:7621   */\n              swap1\n              pop\n                /* \"#utility.yul\":7487:7627   */\n              swap3\n              swap2\n              pop\n              pop\n              jump\t// out\n                /* \"#utility.yul\":7633:7855   */\n            tag_88:\n                /* \"#utility.yul\":7726:7730   */\n              0x00\n                /* \"#utility.yul\":7764:7766   */\n              0x20\n                /* \"#utility.yul\":7753:7762   */\n              dup3\n                /* \"#utility.yul\":7749:7767   */\n              add\n                /* \"#utility.yul\":7741:7767   */\n              swap1\n              pop\n                /* \"#utility.yul\":7777:7848   */\n              tag_399\n                /* \"#utility.yul\":7845:7846   */\n              0x00\n                /* \"#utility.yul\":7834:7843   */\n              dup4\n                /* \"#utility.yul\":7830:7847   */\n              add\n                /* \"#utility.yul\":7821:7827   */\n              dup5\n                /* \"#utility.yul\":7777:7848   */\n              tag_344\n              jump\t// in\n            tag_399:\n                /* \"#utility.yul\":7731:7855   */\n              swap3\n              swap2\n              pop\n              pop\n              jump\t// out\n                /* \"#utility.yul\":7861:8174   */\n            tag_48:\n                /* \"#utility.yul\":7974:7978   */\n              0x00\n                /* \"#utility.yul\":8012:8014   */\n              0x20\n                /* \"#utility.yul\":8001:8010   */\n              dup3\n                /* \"#utility.yul\":7997:8015   */\n              add\n                /* \"#utility.yul\":7989:8015   */\n              swap1\n              pop\n                /* \"#utility.yul\":8061:8070   */\n              dup2\n                /* \"#utility.yul\":8055:8059   */\n              dup2\n                /* \"#utility.yul\":8051:8071   */\n              sub\n                /* \"#utility.yul\":8047:8048   */\n              0x00\n                /* \"#utility.yul\":8036:8045   */\n              dup4\n                /* \"#utility.yul\":8032:8049   */\n              add\n                /* \"#utility.yul\":8025:8072   */\n              mstore\n                /* \"#utility.yul\":8089:8167   */\n              tag_401\n                /* \"#utility.yul\":8162:8166   */\n              dup2\n                /* \"#utility.yul\":8153:8159   */\n              dup5\n                /* \"#utility.yul\":8089:8167   */\n              tag_363\n              jump\t// in\n            tag_401:\n                /* \"#utility.yul\":8081:8167   */\n              swap1\n              pop\n                /* \"#utility.yul\":7979:8174   */\n              swap3\n              swap2\n              pop\n              pop\n              jump\t// out\n                /* \"#utility.yul\":8180:9359   */\n            tag_83:\n                /* \"#utility.yul\":8511:8515   */\n              0x00\n                /* \"#utility.yul\":8549:8552   */\n              0xe0\n                /* \"#utility.yul\":8538:8547   */\n              dup3\n                /* \"#utility.yul\":8534:8553   */\n              add\n                /* \"#utility.yul\":8526:8553   */\n              swap1\n              pop\n                /* \"#utility.yul\":8599:8608   */\n              dup2\n                /* \"#utility.yul\":8593:8597   */\n              dup2\n                /* \"#utility.yul\":8589:8609   */\n              sub\n                /* \"#utility.yul\":8585:8586   */\n              0x00\n                /* \"#utility.yul\":8574:8583   */\n              dup4\n                /* \"#utility.yul\":8570:8587   */\n              add\n                /* \"#utility.yul\":8563:8610   */\n              mstore\n                /* \"#utility.yul\":8627:8705   */\n              tag_403\n                /* \"#utility.yul\":8700:8704   */\n              dup2\n                /* \"#utility.yul\":8691:8697   */\n              dup11\n                /* \"#utility.yul\":8627:8705   */\n              tag_363\n              jump\t// in\n            tag_403:\n                /* \"#utility.yul\":8619:8705   */\n              swap1\n              pop\n                /* \"#utility.yul\":8715:8787   */\n              tag_404\n                /* \"#utility.yul\":8783:8785   */\n              0x20\n                /* \"#utility.yul\":8772:8781   */\n              dup4\n                /* \"#utility.yul\":8768:8786   */\n              add\n                /* \"#utility.yul\":8759:8765   */\n              dup10\n                /* \"#utility.yul\":8715:8787   */\n              tag_379\n              jump\t// in\n            tag_404:\n                /* \"#utility.yul\":8797:8869   */\n              tag_405\n                /* \"#utility.yul\":8865:8867   */\n              0x40\n                /* \"#utility.yul\":8854:8863   */\n              dup4\n                /* \"#utility.yul\":8850:8868   */\n              add\n                /* \"#utility.yul\":8841:8847   */\n              dup9\n                /* \"#utility.yul\":8797:8869   */\n              tag_379\n              jump\t// in\n            tag_405:\n                /* \"#utility.yul\":8879:8967   */\n              tag_406\n                /* \"#utility.yul\":8963:8965   */\n              0x60\n                /* \"#utility.yul\":8952:8961   */\n              dup4\n                /* \"#utility.yul\":8948:8966   */\n              add\n                /* \"#utility.yul\":8939:8945   */\n              dup8\n                /* \"#utility.yul\":8879:8967   */\n              tag_340\n              jump\t// in\n            tag_406:\n                /* \"#utility.yul\":8977:9044   */\n              tag_407\n                /* \"#utility.yul\":9039:9042   */\n              0x80\n                /* \"#utility.yul\":9028:9037   */\n              dup4\n                /* \"#utility.yul\":9024:9043   */\n              add\n                /* \"#utility.yul\":9015:9021   */\n              dup7\n                /* \"#utility.yul\":8977:9044   */\n              tag_353\n              jump\t// in\n            tag_407:\n                /* \"#utility.yul\":9092:9101   */\n              dup2\n                /* \"#utility.yul\":9086:9090   */\n              dup2\n                /* \"#utility.yul\":9082:9102   */\n              sub\n                /* \"#utility.yul\":9076:9079   */\n              0xa0\n                /* \"#utility.yul\":9065:9074   */\n              dup4\n                /* \"#utility.yul\":9061:9080   */\n              add\n                /* \"#utility.yul\":9054:9103   */\n              mstore\n                /* \"#utility.yul\":9120:9198   */\n              tag_408\n                /* \"#utility.yul\":9193:9197   */\n              dup2\n                /* \"#utility.yul\":9184:9190   */\n              dup6\n                /* \"#utility.yul\":9120:9198   */\n              tag_363\n              jump\t// in\n            tag_408:\n                /* \"#utility.yul\":9112:9198   */\n              swap1\n              pop\n                /* \"#utility.yul\":9246:9255   */\n              dup2\n                /* \"#utility.yul\":9240:9244   */\n              dup2\n                /* \"#utility.yul\":9236:9256   */\n              sub\n                /* \"#utility.yul\":9230:9233   */\n              0xc0\n                /* \"#utility.yul\":9219:9228   */\n              dup4\n                /* \"#utility.yul\":9215:9234   */\n              add\n                /* \"#utility.yul\":9208:9257   */\n              mstore\n                /* \"#utility.yul\":9274:9352   */\n              tag_409\n                /* \"#utility.yul\":9347:9351   */\n              dup2\n                /* \"#utility.yul\":9338:9344   */\n              dup5\n                /* \"#utility.yul\":9274:9352   */\n              tag_363\n              jump\t// in\n            tag_409:\n                /* \"#utility.yul\":9266:9352   */\n              swap1\n              pop\n                /* \"#utility.yul\":8516:9359   */\n              swap9\n              swap8\n              pop\n              pop\n              pop\n              pop\n              pop\n              pop\n              pop\n              pop\n              jump\t// out\n                /* \"#utility.yul\":9365:10453   */\n            tag_41:\n                /* \"#utility.yul\":9674:9678   */\n              0x00\n                /* \"#utility.yul\":9712:9715   */\n              0x0100\n                /* \"#utility.yul\":9701:9710   */\n              dup3\n                /* \"#utility.yul\":9697:9716   */\n              add\n                /* \"#utility.yul\":9689:9716   */\n              swap1\n              pop\n                /* \"#utility.yul\":9762:9771   */\n              dup2\n                /* \"#utility.yul\":9756:9760   */\n              dup2\n                /* \"#utility.yul\":9752:9772   */\n              sub\n                /* \"#utility.yul\":9748:9749   */\n              0x00\n                /* \"#utility.yul\":9737:9746   */\n              dup4\n                /* \"#utility.yul\":9733:9750   */\n              add\n                /* \"#utility.yul\":9726:9773   */\n              mstore\n                /* \"#utility.yul\":9790:9868   */\n              tag_411\n                /* \"#utility.yul\":9863:9867   */\n              dup2\n                /* \"#utility.yul\":9854:9860   */\n              dup12\n                /* \"#utility.yul\":9790:9868   */\n              tag_363\n              jump\t// in\n            tag_411:\n                /* \"#utility.yul\":9782:9868   */\n              swap1\n              pop\n                /* \"#utility.yul\":9878:9950   */\n              tag_412\n                /* \"#utility.yul\":9946:9948   */\n              0x20\n                /* \"#utility.yul\":9935:9944   */\n              dup4\n                /* \"#utility.yul\":9931:9949   */\n              add\n                /* \"#utility.yul\":9922:9928   */\n              dup11\n                /* \"#utility.yul\":9878:9950   */\n              tag_379\n              jump\t// in\n            tag_412:\n                /* \"#utility.yul\":9960:10032   */\n              tag_413\n                /* \"#utility.yul\":10028:10030   */\n              0x40\n                /* \"#utility.yul\":10017:10026   */\n              dup4\n                /* \"#utility.yul\":10013:10031   */\n              add\n                /* \"#utility.yul\":10004:10010   */\n              dup10\n                /* \"#utility.yul\":9960:10032   */\n              tag_379\n              jump\t// in\n            tag_413:\n                /* \"#utility.yul\":10042:10114   */\n              tag_414\n                /* \"#utility.yul\":10110:10112   */\n              0x60\n                /* \"#utility.yul\":10099:10108   */\n              dup4\n                /* \"#utility.yul\":10095:10113   */\n              add\n                /* \"#utility.yul\":10086:10092   */\n              dup9\n                /* \"#utility.yul\":10042:10114   */\n              tag_379\n              jump\t// in\n            tag_414:\n                /* \"#utility.yul\":10124:10197   */\n              tag_415\n                /* \"#utility.yul\":10192:10195   */\n              0x80\n                /* \"#utility.yul\":10181:10190   */\n              dup4\n                /* \"#utility.yul\":10177:10196   */\n              add\n                /* \"#utility.yul\":10168:10174   */\n              dup8\n                /* \"#utility.yul\":10124:10197   */\n              tag_379\n              jump\t// in\n            tag_415:\n                /* \"#utility.yul\":10207:10280   */\n              tag_416\n                /* \"#utility.yul\":10275:10278   */\n              0xa0\n                /* \"#utility.yul\":10264:10273   */\n              dup4\n                /* \"#utility.yul\":10260:10279   */\n              add\n                /* \"#utility.yul\":10251:10257   */\n              dup7\n                /* \"#utility.yul\":10207:10280   */\n              tag_379\n              jump\t// in\n            tag_416:\n                /* \"#utility.yul\":10290:10363   */\n              tag_417\n                /* \"#utility.yul\":10358:10361   */\n              0xc0\n                /* \"#utility.yul\":10347:10356   */\n              dup4\n                /* \"#utility.yul\":10343:10362   */\n              add\n                /* \"#utility.yul\":10334:10340   */\n              dup6\n                /* \"#utility.yul\":10290:10363   */\n              tag_379\n              jump\t// in\n            tag_417:\n                /* \"#utility.yul\":10373:10446   */\n              tag_418\n                /* \"#utility.yul\":10441:10444   */\n              0xe0\n                /* \"#utility.yul\":10430:10439   */\n              dup4\n                /* \"#utility.yul\":10426:10445   */\n              add\n                /* \"#utility.yul\":10417:10423   */\n              dup5\n                /* \"#utility.yul\":10373:10446   */\n              tag_344\n              jump\t// in\n            tag_418:\n                /* \"#utility.yul\":9679:10453   */\n              swap10\n              swap9\n              pop\n              pop\n              pop\n              pop\n              pop\n              pop\n              pop\n              pop\n              pop\n              jump\t// out\n                /* \"#utility.yul\":10459:10681   */\n            tag_32:\n                /* \"#utility.yul\":10552:10556   */\n              0x00\n                /* \"#utility.yul\":10590:10592   */\n              0x20\n                /* \"#utility.yul\":10579:10588   */\n              dup3\n                /* \"#utility.yul\":10575:10593   */\n              add\n                /* \"#utility.yul\":10567:10593   */\n              swap1\n              pop\n                /* \"#utility.yul\":10603:10674   */\n              tag_420\n                /* \"#utility.yul\":10671:10672   */\n              0x00\n                /* \"#utility.yul\":10660:10669   */\n              dup4\n                /* \"#utility.yul\":10656:10673   */\n              add\n                /* \"#utility.yul\":10647:10653   */\n              dup5\n                /* \"#utility.yul\":10603:10674   */\n              tag_379\n              jump\t// in\n            tag_420:\n                /* \"#utility.yul\":10557:10681   */\n              swap3\n              swap2\n              pop\n              pop\n              jump\t// out\n                /* \"#utility.yul\":10687:10816   */\n            tag_271:\n                /* \"#utility.yul\":10721:10727   */\n              0x00\n                /* \"#utility.yul\":10748:10768   */\n              tag_422\n              tag_423\n              jump\t// in\n            tag_422:\n                /* \"#utility.yul\":10738:10768   */\n              swap1\n              pop\n                /* \"#utility.yul\":10777:10810   */\n              tag_424\n                /* \"#utility.yul\":10805:10809   */\n              dup3\n                /* \"#utility.yul\":10797:10803   */\n              dup3\n                /* \"#utility.yul\":10777:10810   */\n              tag_425\n              jump\t// in\n            tag_424:\n                /* \"#utility.yul\":10728:10816   */\n              swap2\n              swap1\n              pop\n              jump\t// out\n                /* \"#utility.yul\":10822:10897   */\n            tag_423:\n                /* \"#utility.yul\":10855:10861   */\n              0x00\n                /* \"#utility.yul\":10888:10890   */\n              0x40\n                /* \"#utility.yul\":10882:10891   */\n              mload\n                /* \"#utility.yul\":10872:10891   */\n              swap1\n              pop\n                /* \"#utility.yul\":10862:10897   */\n              swap1\n              jump\t// out\n                /* \"#utility.yul\":10903:11210   */\n            tag_270:\n                /* \"#utility.yul\":10964:10968   */\n              0x00\n                /* \"#utility.yul\":11054:11072   */\n              0xffffffffffffffff\n                /* \"#utility.yul\":11046:11052   */\n              dup3\n                /* \"#utility.yul\":11043:11073   */\n              gt\n                /* \"#utility.yul\":11040:11042   */\n              iszero\n              tag_428\n              jumpi\n                /* \"#utility.yul\":11076:11094   */\n              tag_429\n              tag_141\n              jump\t// in\n            tag_429:\n                /* \"#utility.yul\":11040:11042   */\n            tag_428:\n                /* \"#utility.yul\":11114:11143   */\n              tag_430\n                /* \"#utility.yul\":11136:11142   */\n              dup3\n                /* \"#utility.yul\":11114:11143   */\n              tag_372\n              jump\t// in\n            tag_430:\n                /* \"#utility.yul\":11106:11143   */\n              swap1\n              pop\n                /* \"#utility.yul\":11198:11202   */\n              0x20\n                /* \"#utility.yul\":11192:11196   */\n              dup2\n                /* \"#utility.yul\":11188:11203   */\n              add\n                /* \"#utility.yul\":11180:11203   */\n              swap1\n              pop\n                /* \"#utility.yul\":10969:11210   */\n              swap2\n              swap1\n              pop\n              jump\t// out\n                /* \"#utility.yul\":11216:11524   */\n            tag_281:\n                /* \"#utility.yul\":11278:11282   */\n              0x00\n                /* \"#utility.yul\":11368:11386   */\n              0xffffffffffffffff\n                /* \"#utility.yul\":11360:11366   */\n              dup3\n                /* \"#utility.yul\":11357:11387   */\n              gt\n                /* \"#utility.yul\":11354:11356   */\n              iszero\n              tag_432\n              jumpi\n                /* \"#utility.yul\":11390:11408   */\n              tag_433\n              tag_141\n              jump\t// in\n            tag_433:\n                /* \"#utility.yul\":11354:11356   */\n            tag_432:\n                /* \"#utility.yul\":11428:11457   */\n              tag_434\n                /* \"#utility.yul\":11450:11456   */\n              dup3\n                /* \"#utility.yul\":11428:11457   */\n              tag_372\n              jump\t// in\n            tag_434:\n                /* \"#utility.yul\":11420:11457   */\n              swap1\n              pop\n                /* \"#utility.yul\":11512:11516   */\n              0x20\n                /* \"#utility.yul\":11506:11510   */\n              dup2\n                /* \"#utility.yul\":11502:11517   */\n              add\n                /* \"#utility.yul\":11494:11517   */\n              swap1\n              pop\n                /* \"#utility.yul\":11283:11524   */\n              swap2\n              swap1\n              pop\n              jump\t// out\n                /* \"#utility.yul\":11530:11629   */\n            tag_366:\n                /* \"#utility.yul\":11582:11588   */\n              0x00\n                /* \"#utility.yul\":11616:11621   */\n              dup2\n                /* \"#utility.yul\":11610:11622   */\n              mload\n                /* \"#utility.yul\":11600:11622   */\n              swap1\n              pop\n                /* \"#utility.yul\":11589:11629   */\n              swap2\n              swap1\n              pop\n              jump\t// out\n                /* \"#utility.yul\":11635:11804   */\n            tag_368:\n                /* \"#utility.yul\":11719:11730   */\n              0x00\n                /* \"#utility.yul\":11753:11759   */\n              dup3\n                /* \"#utility.yul\":11748:11751   */\n              dup3\n                /* \"#utility.yul\":11741:11760   */\n              mstore\n                /* \"#utility.yul\":11793:11797   */\n              0x20\n                /* \"#utility.yul\":11788:11791   */\n              dup3\n                /* \"#utility.yul\":11784:11798   */\n              add\n                /* \"#utility.yul\":11769:11798   */\n              swap1\n              pop\n                /* \"#utility.yul\":11731:11804   */\n              swap3\n              swap2\n              pop\n              pop\n              jump\t// out\n                /* \"#utility.yul\":11810:11958   */\n            tag_377:\n                /* \"#utility.yul\":11912:11923   */\n              0x00\n                /* \"#utility.yul\":11949:11952   */\n              dup2\n                /* \"#utility.yul\":11934:11952   */\n              swap1\n              pop\n                /* \"#utility.yul\":11924:11958   */\n              swap3\n              swap2\n              pop\n              pop\n              jump\t// out\n                /* \"#utility.yul\":11964:12269   */\n            tag_138:\n                /* \"#utility.yul\":12004:12007   */\n              0x00\n                /* \"#utility.yul\":12023:12043   */\n              tag_439\n                /* \"#utility.yul\":12041:12042   */\n              dup3\n                /* \"#utility.yul\":12023:12043   */\n              tag_382\n              jump\t// in\n            tag_439:\n                /* \"#utility.yul\":12018:12043   */\n              swap2\n              pop\n                /* \"#utility.yul\":12057:12077   */\n              tag_440\n                /* \"#utility.yul\":12075:12076   */\n              dup4\n                /* \"#utility.yul\":12057:12077   */\n              tag_382\n              jump\t// in\n            tag_440:\n                /* \"#utility.yul\":12052:12077   */\n              swap3\n              pop\n                /* \"#utility.yul\":12211:12212   */\n              dup3\n                /* \"#utility.yul\":12143:12209   */\n              0xffffffffffffffffffffffffffffffffffffffffffffffffffffffffffffffff\n                /* \"#utility.yul\":12139:12213   */\n              sub\n                /* \"#utility.yul\":12136:12137   */\n              dup3\n                /* \"#utility.yul\":12133:12214   */\n              gt\n                /* \"#utility.yul\":12130:12132   */\n              iszero\n              tag_441\n              jumpi\n                /* \"#utility.yul\":12217:12235   */\n              tag_442\n              tag_443\n              jump\t// in\n            tag_442:\n                /* \"#utility.yul\":12130:12132   */\n            tag_441:\n                /* \"#utility.yul\":12261:12262   */\n              dup3\n                /* \"#utility.yul\":12258:12259   */\n              dup3\n                /* \"#utility.yul\":12254:12263   */\n              add\n                /* \"#utility.yul\":12247:12263   */\n              swap1\n              pop\n                /* \"#utility.yul\":12008:12269   */\n              swap3\n              swap2\n              pop\n              pop\n              jump\t// out\n                /* \"#utility.yul\":12275:12460   */\n            tag_218:\n                /* \"#utility.yul\":12315:12316   */\n              0x00\n                /* \"#utility.yul\":12332:12352   */\n              tag_445\n                /* \"#utility.yul\":12350:12351   */\n              dup3\n                /* \"#utility.yul\":12332:12352   */\n              tag_382\n              jump\t// in\n            tag_445:\n                /* \"#utility.yul\":12327:12352   */\n              swap2\n              pop\n                /* \"#utility.yul\":12366:12386   */\n              tag_446\n                /* \"#utility.yul\":12384:12385   */\n              dup4\n                /* \"#utility.yul\":12366:12386   */\n              tag_382\n              jump\t// in\n            tag_446:\n                /* \"#utility.yul\":12361:12386   */\n              swap3\n              pop\n                /* \"#utility.yul\":12405:12406   */\n              dup3\n                /* \"#utility.yul\":12395:12397   */\n              tag_447\n              jumpi\n                /* \"#utility.yul\":12410:12428   */\n              tag_448\n              tag_449\n              jump\t// in\n            tag_448:\n                /* \"#utility.yul\":12395:12397   */\n            tag_447:\n                /* \"#utility.yul\":12452:12453   */\n              dup3\n                /* \"#utility.yul\":12449:12450   */\n              dup3\n                /* \"#utility.yul\":12445:12454   */\n              div\n                /* \"#utility.yul\":12440:12454   */\n              swap1\n              pop\n                /* \"#utility.yul\":12317:12460   */\n              swap3\n              swap2\n              pop\n              pop\n              jump\t// out\n                /* \"#utility.yul\":12466:12814   */\n            tag_136:\n                /* \"#utility.yul\":12506:12513   */\n              0x00\n                /* \"#utility.yul\":12529:12549   */\n              tag_451\n                /* \"#utility.yul\":12547:12548   */\n              dup3\n                /* \"#utility.yul\":12529:12549   */\n              tag_382\n              jump\t// in\n            tag_451:\n                /* \"#utility.yul\":12524:12549   */\n              swap2\n              pop\n                /* \"#utility.yul\":12563:12583   */\n              tag_452\n                /* \"#utility.yul\":12581:12582   */\n              dup4\n                /* \"#utility.yul\":12563:12583   */\n              tag_382\n              jump\t// in\n            tag_452:\n                /* \"#utility.yul\":12558:12583   */\n              swap3\n              pop\n                /* \"#utility.yul\":12751:12752   */\n              dup2\n                /* \"#utility.yul\":12683:12749   */\n              0xffffffffffffffffffffffffffffffffffffffffffffffffffffffffffffffff\n                /* \"#utility.yul\":12679:12753   */\n              div\n                /* \"#utility.yul\":12676:12677   */\n              dup4\n                /* \"#utility.yul\":12673:12754   */\n              gt\n                /* \"#utility.yul\":12668:12669   */\n              dup3\n                /* \"#utility.yul\":12661:12670   */\n              iszero\n                /* \"#utility.yul\":12654:12671   */\n              iszero\n                /* \"#utility.yul\":12650:12755   */\n              and\n                /* \"#utility.yul\":12647:12649   */\n              iszero\n              tag_453\n              jumpi\n                /* \"#utility.yul\":12758:12776   */\n              tag_454\n              tag_443\n              jump\t// in\n            tag_454:\n                /* \"#utility.yul\":12647:12649   */\n            tag_453:\n                /* \"#utility.yul\":12806:12807   */\n              dup3\n                /* \"#utility.yul\":12803:12804   */\n              dup3\n                /* \"#utility.yul\":12799:12808   */\n              mul\n                /* \"#utility.yul\":12788:12808   */\n              swap1\n              pop\n                /* \"#utility.yul\":12514:12814   */\n              swap3\n              swap2\n              pop\n              pop\n              jump\t// out\n                /* \"#utility.yul\":12820:12916   */\n            tag_347:\n                /* \"#utility.yul\":12857:12864   */\n              0x00\n                /* \"#utility.yul\":12886:12910   */\n              tag_456\n                /* \"#utility.yul\":12904:12909   */\n              dup3\n                /* \"#utility.yul\":12886:12910   */\n              tag_457\n              jump\t// in\n            tag_456:\n                /* \"#utility.yul\":12875:12910   */\n              swap1\n              pop\n                /* \"#utility.yul\":12865:12916   */\n              swap2\n              swap1\n              pop\n              jump\t// out\n                /* \"#utility.yul\":12922:13026   */\n            tag_343:\n                /* \"#utility.yul\":12967:12974   */\n              0x00\n                /* \"#utility.yul\":12996:13020   */\n              tag_459\n                /* \"#utility.yul\":13014:13019   */\n              dup3\n                /* \"#utility.yul\":12996:13020   */\n              tag_457\n              jump\t// in\n            tag_459:\n                /* \"#utility.yul\":12985:13020   */\n              swap1\n              pop\n                /* \"#utility.yul\":12975:13026   */\n              swap2\n              swap1\n              pop\n              jump\t// out\n                /* \"#utility.yul\":13032:13122   */\n            tag_356:\n                /* \"#utility.yul\":13066:13073   */\n              0x00\n                /* \"#utility.yul\":13109:13114   */\n              dup2\n                /* \"#utility.yul\":13102:13115   */\n              iszero\n                /* \"#utility.yul\":13095:13116   */\n              iszero\n                /* \"#utility.yul\":13084:13116   */\n              swap1\n              pop\n                /* \"#utility.yul\":13074:13122   */\n              swap2\n              swap1\n              pop\n              jump\t// out\n                /* \"#utility.yul\":13128:13205   */\n            tag_361:\n                /* \"#utility.yul\":13165:13172   */\n              0x00\n                /* \"#utility.yul\":13194:13199   */\n              dup2\n                /* \"#utility.yul\":13183:13199   */\n              swap1\n              pop\n                /* \"#utility.yul\":13173:13205   */\n              swap2\n              swap1\n              pop\n              jump\t// out\n                /* \"#utility.yul\":13211:13337   */\n            tag_457:\n                /* \"#utility.yul\":13248:13255   */\n              0x00\n                /* \"#utility.yul\":13288:13330   */\n              0xffffffffffffffffffffffffffffffffffffffff\n                /* \"#utility.yul\":13281:13286   */\n              dup3\n                /* \"#utility.yul\":13277:13331   */\n              and\n                /* \"#utility.yul\":13266:13331   */\n              swap1\n              pop\n                /* \"#utility.yul\":13256:13337   */\n              swap2\n              swap1\n              pop\n              jump\t// out\n                /* \"#utility.yul\":13343:13420   */\n            tag_382:\n                /* \"#utility.yul\":13380:13387   */\n              0x00\n                /* \"#utility.yul\":13409:13414   */\n              dup2\n                /* \"#utility.yul\":13398:13414   */\n              swap1\n              pop\n                /* \"#utility.yul\":13388:13420   */\n              swap2\n              swap1\n              pop\n              jump\t// out\n                /* \"#utility.yul\":13426:13580   */\n            tag_276:\n                /* \"#utility.yul\":13510:13516   */\n              dup3\n                /* \"#utility.yul\":13505:13508   */\n              dup2\n                /* \"#utility.yul\":13500:13503   */\n              dup4\n                /* \"#utility.yul\":13487:13517   */\n              calldatacopy\n                /* \"#utility.yul\":13572:13573   */\n              0x00\n                /* \"#utility.yul\":13563:13569   */\n              dup4\n                /* \"#utility.yul\":13558:13561   */\n              dup4\n                /* \"#utility.yul\":13554:13570   */\n              add\n                /* \"#utility.yul\":13547:13574   */\n              mstore\n                /* \"#utility.yul\":13477:13580   */\n              pop\n              pop\n              pop\n              jump\t// out\n                /* \"#utility.yul\":13586:13893   */\n            tag_370:\n                /* \"#utility.yul\":13654:13655   */\n              0x00\n                /* \"#utility.yul\":13664:13777   */\n            tag_466:\n                /* \"#utility.yul\":13678:13684   */\n              dup4\n                /* \"#utility.yul\":13675:13676   */\n              dup2\n                /* \"#utility.yul\":13672:13685   */\n              lt\n                /* \"#utility.yul\":13664:13777   */\n              iszero\n              tag_468\n              jumpi\n                /* \"#utility.yul\":13763:13764   */\n              dup1\n                /* \"#utility.yul\":13758:13761   */\n              dup3\n                /* \"#utility.yul\":13754:13765   */\n              add\n                /* \"#utility.yul\":13748:13766   */\n              mload\n                /* \"#utility.yul\":13744:13745   */\n              dup2\n                /* \"#utility.yul\":13739:13742   */\n              dup5\n                /* \"#utility.yul\":13735:13746   */\n              add\n                /* \"#utility.yul\":13728:13767   */\n              mstore\n                /* \"#utility.yul\":13700:13702   */\n              0x20\n                /* \"#utility.yul\":13697:13698   */\n              dup2\n                /* \"#utility.yul\":13693:13703   */\n              add\n                /* \"#utility.yul\":13688:13703   */\n              swap1\n              pop\n                /* \"#utility.yul\":13664:13777   */\n              jump(tag_466)\n            tag_468:\n                /* \"#utility.yul\":13795:13801   */\n              dup4\n                /* \"#utility.yul\":13792:13793   */\n              dup2\n                /* \"#utility.yul\":13789:13802   */\n              gt\n                /* \"#utility.yul\":13786:13788   */\n              iszero\n              tag_469\n              jumpi\n                /* \"#utility.yul\":13875:13876   */\n              0x00\n                /* \"#utility.yul\":13866:13872   */\n              dup5\n                /* \"#utility.yul\":13861:13864   */\n              dup5\n                /* \"#utility.yul\":13857:13873   */\n              add\n                /* \"#utility.yul\":13850:13877   */\n              mstore\n                /* \"#utility.yul\":13786:13788   */\n            tag_469:\n                /* \"#utility.yul\":13635:13893   */\n              pop\n              pop\n              pop\n              pop\n              jump\t// out\n                /* \"#utility.yul\":13899:14219   */\n            tag_121:\n                /* \"#utility.yul\":13943:13949   */\n              0x00\n                /* \"#utility.yul\":13980:13981   */\n              0x02\n                /* \"#utility.yul\":13974:13978   */\n              dup3\n                /* \"#utility.yul\":13970:13982   */\n              div\n                /* \"#utility.yul\":13960:13982   */\n              swap1\n              pop\n                /* \"#utility.yul\":14027:14028   */\n              0x01\n                /* \"#utility.yul\":14021:14025   */\n              dup3\n                /* \"#utility.yul\":14017:14029   */\n              and\n                /* \"#utility.yul\":14048:14066   */\n              dup1\n                /* \"#utility.yul\":14038:14040   */\n              tag_471\n              jumpi\n                /* \"#utility.yul\":14104:14108   */\n              0x7f\n                /* \"#utility.yul\":14096:14102   */\n              dup3\n                /* \"#utility.yul\":14092:14109   */\n              and\n                /* \"#utility.yul\":14082:14109   */\n              swap2\n              pop\n                /* \"#utility.yul\":14038:14040   */\n            tag_471:\n                /* \"#utility.yul\":14166:14168   */\n              0x20\n                /* \"#utility.yul\":14158:14164   */\n              dup3\n                /* \"#utility.yul\":14155:14169   */\n              lt\n                /* \"#utility.yul\":14135:14153   */\n              dup2\n                /* \"#utility.yul\":14132:14170   */\n              eq\n                /* \"#utility.yul\":14129:14131   */\n              iszero\n              tag_472\n              jumpi\n                /* \"#utility.yul\":14185:14203   */\n              tag_473\n              tag_474\n              jump\t// in\n            tag_473:\n                /* \"#utility.yul\":14129:14131   */\n            tag_472:\n                /* \"#utility.yul\":13950:14219   */\n              pop\n              swap2\n              swap1\n              pop\n              jump\t// out\n                /* \"#utility.yul\":14225:14506   */\n            tag_425:\n                /* \"#utility.yul\":14308:14335   */\n              tag_476\n                /* \"#utility.yul\":14330:14334   */\n              dup3\n                /* \"#utility.yul\":14308:14335   */\n              tag_372\n              jump\t// in\n            tag_476:\n                /* \"#utility.yul\":14300:14306   */\n              dup2\n                /* \"#utility.yul\":14296:14336   */\n              add\n                /* \"#utility.yul\":14438:14444   */\n              dup2\n                /* \"#utility.yul\":14426:14436   */\n              dup2\n                /* \"#utility.yul\":14423:14445   */\n              lt\n                /* \"#utility.yul\":14402:14420   */\n              0xffffffffffffffff\n                /* \"#utility.yul\":14390:14400   */\n              dup3\n                /* \"#utility.yul\":14387:14421   */\n              gt\n                /* \"#utility.yul\":14384:14446   */\n              or\n                /* \"#utility.yul\":14381:14383   */\n              iszero\n              tag_477\n              jumpi\n                /* \"#utility.yul\":14449:14467   */\n              tag_478\n              tag_141\n              jump\t// in\n            tag_478:\n                /* \"#utility.yul\":14381:14383   */\n            tag_477:\n                /* \"#utility.yul\":14489:14499   */\n              dup1\n                /* \"#utility.yul\":14485:14487   */\n              0x40\n                /* \"#utility.yul\":14478:14500   */\n              mstore\n                /* \"#utility.yul\":14268:14506   */\n              pop\n              pop\n              pop\n              jump\t// out\n                /* \"#utility.yul\":14512:14745   */\n            tag_167:\n                /* \"#utility.yul\":14551:14554   */\n              0x00\n                /* \"#utility.yul\":14574:14598   */\n              tag_480\n                /* \"#utility.yul\":14592:14597   */\n              dup3\n                /* \"#utility.yul\":14574:14598   */\n              tag_382\n              jump\t// in\n            tag_480:\n                /* \"#utility.yul\":14565:14598   */\n              swap2\n              pop\n                /* \"#utility.yul\":14620:14686   */\n              0xffffffffffffffffffffffffffffffffffffffffffffffffffffffffffffffff\n                /* \"#utility.yul\":14613:14618   */\n              dup3\n                /* \"#utility.yul\":14610:14687   */\n              eq\n                /* \"#utility.yul\":14607:14609   */\n              iszero\n              tag_481\n              jumpi\n                /* \"#utility.yul\":14690:14708   */\n              tag_482\n              tag_443\n              jump\t// in\n            tag_482:\n                /* \"#utility.yul\":14607:14609   */\n            tag_481:\n                /* \"#utility.yul\":14737:14738   */\n              0x01\n                /* \"#utility.yul\":14730:14735   */\n              dup3\n                /* \"#utility.yul\":14726:14739   */\n              add\n                /* \"#utility.yul\":14719:14739   */\n              swap1\n              pop\n                /* \"#utility.yul\":14555:14745   */\n              swap2\n              swap1\n              pop\n              jump\t// out\n                /* \"#utility.yul\":14751:14851   */\n            tag_352:\n                /* \"#utility.yul\":14790:14797   */\n              0x00\n                /* \"#utility.yul\":14819:14845   */\n              tag_484\n                /* \"#utility.yul\":14839:14844   */\n              dup3\n                /* \"#utility.yul\":14819:14845   */\n              tag_485\n              jump\t// in\n            tag_484:\n                /* \"#utility.yul\":14808:14845   */\n              swap1\n              pop\n                /* \"#utility.yul\":14798:14851   */\n              swap2\n              swap1\n              pop\n              jump\t// out\n                /* \"#utility.yul\":14857:14936   */\n            tag_362:\n                /* \"#utility.yul\":14896:14903   */\n              0x00\n                /* \"#utility.yul\":14925:14930   */\n              dup2\n                /* \"#utility.yul\":14914:14930   */\n              swap1\n              pop\n                /* \"#utility.yul\":14904:14936   */\n              swap2\n              swap1\n              pop\n              jump\t// out\n                /* \"#utility.yul\":14942:15036   */\n            tag_485:\n                /* \"#utility.yul\":14981:14988   */\n              0x00\n                /* \"#utility.yul\":15010:15030   */\n              tag_488\n                /* \"#utility.yul\":15024:15029   */\n              dup3\n                /* \"#utility.yul\":15010:15030   */\n              tag_489\n              jump\t// in\n            tag_488:\n                /* \"#utility.yul\":14999:15030   */\n              swap1\n              pop\n                /* \"#utility.yul\":14989:15036   */\n              swap2\n              swap1\n              pop\n              jump\t// out\n                /* \"#utility.yul\":15042:15121   */\n            tag_387:\n                /* \"#utility.yul\":15081:15088   */\n              0x00\n                /* \"#utility.yul\":15110:15115   */\n              dup2\n                /* \"#utility.yul\":15099:15115   */\n              swap1\n              pop\n                /* \"#utility.yul\":15089:15121   */\n              swap2\n              swap1\n              pop\n              jump\t// out\n                /* \"#utility.yul\":15127:15307   */\n            tag_254:\n                /* \"#utility.yul\":15175:15252   */\n              0x4e487b7100000000000000000000000000000000000000000000000000000000\n                /* \"#utility.yul\":15172:15173   */\n              0x00\n                /* \"#utility.yul\":15165:15253   */\n              mstore\n                /* \"#utility.yul\":15272:15276   */\n              0x01\n                /* \"#utility.yul\":15269:15270   */\n              0x04\n                /* \"#utility.yul\":15262:15277   */\n              mstore\n                /* \"#utility.yul\":15296:15300   */\n              0x24\n                /* \"#utility.yul\":15293:15294   */\n              0x00\n                /* \"#utility.yul\":15286:15301   */\n              revert\n                /* \"#utility.yul\":15313:15493   */\n            tag_443:\n                /* \"#utility.yul\":15361:15438   */\n              0x4e487b7100000000000000000000000000000000000000000000000000000000\n                /* \"#utility.yul\":15358:15359   */\n              0x00\n                /* \"#utility.yul\":15351:15439   */\n              mstore\n                /* \"#utility.yul\":15458:15462   */\n              0x11\n                /* \"#utility.yul\":15455:15456   */\n              0x04\n                /* \"#utility.yul\":15448:15463   */\n              mstore\n                /* \"#utility.yul\":15482:15486   */\n              0x24\n                /* \"#utility.yul\":15479:15480   */\n              0x00\n                /* \"#utility.yul\":15472:15487   */\n              revert\n                /* \"#utility.yul\":15499:15679   */\n            tag_449:\n                /* \"#utility.yul\":15547:15624   */\n              0x4e487b7100000000000000000000000000000000000000000000000000000000\n                /* \"#utility.yul\":15544:15545   */\n              0x00\n                /* \"#utility.yul\":15537:15625   */\n              mstore\n                /* \"#utility.yul\":15644:15648   */\n              0x12\n                /* \"#utility.yul\":15641:15642   */\n              0x04\n                /* \"#utility.yul\":15634:15649   */\n              mstore\n                /* \"#utility.yul\":15668:15672   */\n              0x24\n                /* \"#utility.yul\":15665:15666   */\n              0x00\n                /* \"#utility.yul\":15658:15673   */\n              revert\n                /* \"#utility.yul\":15685:15865   */\n            tag_474:\n                /* \"#utility.yul\":15733:15810   */\n              0x4e487b7100000000000000000000000000000000000000000000000000000000\n                /* \"#utility.yul\":15730:15731   */\n              0x00\n                /* \"#utility.yul\":15723:15811   */\n              mstore\n                /* \"#utility.yul\":15830:15834   */\n              0x22\n                /* \"#utility.yul\":15827:15828   */\n              0x04\n                /* \"#utility.yul\":15820:15835   */\n              mstore\n                /* \"#utility.yul\":15854:15858   */\n              0x24\n                /* \"#utility.yul\":15851:15852   */\n              0x00\n                /* \"#utility.yul\":15844:15859   */\n              revert\n                /* \"#utility.yul\":15871:16051   */\n            tag_115:\n                /* \"#utility.yul\":15919:15996   */\n              0x4e487b7100000000000000000000000000000000000000000000000000000000\n                /* \"#utility.yul\":15916:15917   */\n              0x00\n                /* \"#utility.yul\":15909:15997   */\n              mstore\n                /* \"#utility.yul\":16016:16020   */\n              0x32\n                /* \"#utility.yul\":16013:16014   */\n              0x04\n                /* \"#utility.yul\":16006:16021   */\n              mstore\n                /* \"#utility.yul\":16040:16044   */\n              0x24\n                /* \"#utility.yul\":16037:16038   */\n              0x00\n                /* \"#utility.yul\":16030:16045   */\n              revert\n                /* \"#utility.yul\":16057:16237   */\n            tag_141:\n                /* \"#utility.yul\":16105:16182   */\n              0x4e487b7100000000000000000000000000000000000000000000000000000000\n                /* \"#utility.yul\":16102:16103   */\n              0x00\n                /* \"#utility.yul\":16095:16183   */\n              mstore\n                /* \"#utility.yul\":16202:16206   */\n              0x41\n                /* \"#utility.yul\":16199:16200   */\n              0x04\n                /* \"#utility.yul\":16192:16207   */\n              mstore\n                /* \"#utility.yul\":16226:16230   */\n              0x24\n                /* \"#utility.yul\":16223:16224   */\n              0x00\n                /* \"#utility.yul\":16216:16231   */\n              revert\n                /* \"#utility.yul\":16243:16360   */\n            tag_301:\n                /* \"#utility.yul\":16352:16353   */\n              0x00\n                /* \"#utility.yul\":16349:16350   */\n              dup1\n                /* \"#utility.yul\":16342:16354   */\n              revert\n                /* \"#utility.yul\":16366:16483   */\n            tag_274:\n                /* \"#utility.yul\":16475:16476   */\n              0x00\n                /* \"#utility.yul\":16472:16473   */\n              dup1\n                /* \"#utility.yul\":16465:16477   */\n              revert\n                /* \"#utility.yul\":16489:16606   */\n            tag_326:\n                /* \"#utility.yul\":16598:16599   */\n              0x00\n                /* \"#utility.yul\":16595:16596   */\n              dup1\n                /* \"#utility.yul\":16588:16600   */\n              revert\n                /* \"#utility.yul\":16612:16729   */\n            tag_315:\n                /* \"#utility.yul\":16721:16722   */\n              0x00\n                /* \"#utility.yul\":16718:16719   */\n              dup1\n                /* \"#utility.yul\":16711:16723   */\n              revert\n                /* \"#utility.yul\":16735:16837   */\n            tag_372:\n                /* \"#utility.yul\":16776:16782   */\n              0x00\n                /* \"#utility.yul\":16827:16829   */\n              0x1f\n                /* \"#utility.yul\":16823:16830   */\n              not\n                /* \"#utility.yul\":16818:16820   */\n              0x1f\n                /* \"#utility.yul\":16811:16816   */\n              dup4\n                /* \"#utility.yul\":16807:16821   */\n              add\n                /* \"#utility.yul\":16803:16831   */\n              and\n                /* \"#utility.yul\":16793:16831   */\n              swap1\n              pop\n                /* \"#utility.yul\":16783:16837   */\n              swap2\n              swap1\n              pop\n              jump\t// out\n                /* \"#utility.yul\":16843:16937   */\n            tag_489:\n                /* \"#utility.yul\":16876:16884   */\n              0x00\n                /* \"#utility.yul\":16924:16929   */\n              dup2\n                /* \"#utility.yul\":16920:16922   */\n              0x60\n                /* \"#utility.yul\":16916:16930   */\n              shl\n                /* \"#utility.yul\":16895:16930   */\n              swap1\n              pop\n                /* \"#utility.yul\":16885:16937   */\n              swap2\n              swap1\n              pop\n              jump\t// out\n                /* \"#utility.yul\":16943:17065   */\n            tag_288:\n                /* \"#utility.yul\":17016:17040   */\n              tag_504\n                /* \"#utility.yul\":17034:17039   */\n              dup2\n                /* \"#utility.yul\":17016:17040   */\n              tag_347\n              jump\t// in\n            tag_504:\n                /* \"#utility.yul\":17009:17014   */\n              dup2\n                /* \"#utility.yul\":17006:17041   */\n              eq\n                /* \"#utility.yul\":16996:16998   */\n              tag_505\n              jumpi\n                /* \"#utility.yul\":17055:17056   */\n              0x00\n                /* \"#utility.yul\":17052:17053   */\n              dup1\n                /* \"#utility.yul\":17045:17057   */\n              revert\n                /* \"#utility.yul\":16996:16998   */\n            tag_505:\n                /* \"#utility.yul\":16986:17065   */\n              pop\n              jump\t// out\n                /* \"#utility.yul\":17071:17209   */\n            tag_292:\n                /* \"#utility.yul\":17152:17184   */\n              tag_507\n                /* \"#utility.yul\":17178:17183   */\n              dup2\n                /* \"#utility.yul\":17152:17184   */\n              tag_343\n              jump\t// in\n            tag_507:\n                /* \"#utility.yul\":17145:17150   */\n              dup2\n                /* \"#utility.yul\":17142:17185   */\n              eq\n                /* \"#utility.yul\":17132:17134   */\n              tag_508\n              jumpi\n                /* \"#utility.yul\":17199:17200   */\n              0x00\n                /* \"#utility.yul\":17196:17197   */\n              dup1\n                /* \"#utility.yul\":17189:17201   */\n              revert\n                /* \"#utility.yul\":17132:17134   */\n            tag_508:\n                /* \"#utility.yul\":17122:17209   */\n              pop\n              jump\t// out\n                /* \"#utility.yul\":17215:17337   */\n            tag_296:\n                /* \"#utility.yul\":17288:17312   */\n              tag_510\n                /* \"#utility.yul\":17306:17311   */\n              dup2\n                /* \"#utility.yul\":17288:17312   */\n              tag_361\n              jump\t// in\n            tag_510:\n                /* \"#utility.yul\":17281:17286   */\n              dup2\n                /* \"#utility.yul\":17278:17313   */\n              eq\n                /* \"#utility.yul\":17268:17270   */\n              tag_511\n              jumpi\n                /* \"#utility.yul\":17327:17328   */\n              0x00\n                /* \"#utility.yul\":17324:17325   */\n              dup1\n                /* \"#utility.yul\":17317:17329   */\n              revert\n                /* \"#utility.yul\":17268:17270   */\n            tag_511:\n                /* \"#utility.yul\":17258:17337   */\n              pop\n              jump\t// out\n                /* \"#utility.yul\":17343:17465   */\n            tag_311:\n                /* \"#utility.yul\":17416:17440   */\n              tag_513\n                /* \"#utility.yul\":17434:17439   */\n              dup2\n                /* \"#utility.yul\":17416:17440   */\n              tag_382\n              jump\t// in\n            tag_513:\n                /* \"#utility.yul\":17409:17414   */\n              dup2\n                /* \"#utility.yul\":17406:17441   */\n              eq\n                /* \"#utility.yul\":17396:17398   */\n              tag_514\n              jumpi\n                /* \"#utility.yul\":17455:17456   */\n              0x00\n                /* \"#utility.yul\":17452:17453   */\n              dup1\n                /* \"#utility.yul\":17445:17457   */\n              revert\n                /* \"#utility.yul\":17396:17398   */\n            tag_514:\n                /* \"#utility.yul\":17386:17465   */\n              pop\n              jump\t// out\n\n            auxdata: 0xa26469706673582212207ccbdcb2f3efdfe5f103ddc7c378d2a773342b150516e2a67eba4db0f95ff14164736f6c63430008050033\n        }\n    }\n\n    auxdata: 0xa2646970667358221220f4c87f3069a8a69503723f9971294de73baf939e26e90cc6c1956ce3b96c67de64736f6c63430008050033\n}\n","bytecode":{"linkReferences":{},"object":"608060405234801561001057600080fd5b50612b75806100206000396000f3fe60806040523480156200001157600080fd5b50600436106200005e5760003560e01c8063107046bd1462000063578063610a6a2a146200009957806391c6540314620000b9578063dcc6012814620000db578063ead1256d14620000fd575b600080fd5b6200008160048036038101906200007b919062000463565b6200011f565b6040516200009091906200058d565b60405180910390f35b620000b76004803603810190620000b19190620003d2565b6200015f565b005b620000c36200024f565b604051620000d291906200058d565b60405180910390f35b620000e562000275565b604051620000f49190620005aa565b60405180910390f35b6200010762000305565b6040516200011691906200058d565b60405180910390f35b600081815481106200013057600080fd5b906000526020600020016000915054906101000a900473ffffffffffffffffffffffffffffffffffffffff1681565b6000848484843360405162000174906200032f565b62000184959493929190620005ce565b604051809103906000f080158015620001a1573d6000803e3d6000fd5b5090506000819080600181540180825580915050600190039060005260206000200160009091909190916101000a81548173ffffffffffffffffffffffffffffffffffffffff021916908373ffffffffffffffffffffffffffffffffffffffff16021790555080600160006101000a81548173ffffffffffffffffffffffffffffffffffffffff021916908373ffffffffffffffffffffffffffffffffffffffff1602179055505050505050565b600160009054906101000a900473ffffffffffffffffffffffffffffffffffffffff1681565b60606000805480602002602001604051908101604052809291908181526020018280548015620002fb57602002820191906000526020600020905b8160009054906101000a900473ffffffffffffffffffffffffffffffffffffffff1673ffffffffffffffffffffffffffffffffffffffff1681526020019060010190808311620002b0575b5050505050905090565b6000600160009054906101000a900473ffffffffffffffffffffffffffffffffffffffff16905090565b612332806200080e83390190565b6000620003546200034e846200065b565b62000632565b905082815260208101848484011115620003735762000372620007d3565b5b6200038084828562000724565b509392505050565b600082601f830112620003a0576200039f620007ce565b5b8135620003b28482602086016200033d565b91505092915050565b600081359050620003cc81620007f3565b92915050565b60008060008060808587031215620003ef57620003ee620007dd565b5b600085013567ffffffffffffffff81111562000410576200040f620007d8565b5b6200041e8782880162000388565b94505060206200043187828801620003bb565b93505060406200044487828801620003bb565b92505060606200045787828801620003bb565b91505092959194509250565b6000602082840312156200047c576200047b620007dd565b5b60006200048c84828501620003bb565b91505092915050565b6000620004a38383620004af565b60208301905092915050565b620004ba81620006e6565b82525050565b620004cb81620006e6565b82525050565b6000620004de82620006a1565b620004ea8185620006c4565b9350620004f78362000691565b8060005b838110156200052e57815162000512888262000495565b97506200051f83620006b7565b925050600181019050620004fb565b5085935050505092915050565b60006200054882620006ac565b620005548185620006d5565b93506200056681856020860162000733565b6200057181620007e2565b840191505092915050565b62000587816200071a565b82525050565b6000602082019050620005a46000830184620004c0565b92915050565b60006020820190508181036000830152620005c68184620004d1565b905092915050565b600060a0820190508181036000830152620005ea81886200053b565b9050620005fb60208301876200057c565b6200060a60408301866200057c565b6200061960608301856200057c565b620006286080830184620004c0565b9695505050505050565b60006200063e62000651565b90506200064c828262000769565b919050565b6000604051905090565b600067ffffffffffffffff8211156200067957620006786200079f565b5b6200068482620007e2565b9050602081019050919050565b6000819050602082019050919050565b600081519050919050565b600081519050919050565b6000602082019050919050565b600082825260208201905092915050565b600082825260208201905092915050565b6000620006f382620006fa565b9050919050565b600073ffffffffffffffffffffffffffffffffffffffff82169050919050565b6000819050919050565b82818337600083830152505050565b60005b838110156200075357808201518184015260208101905062000736565b8381111562000763576000848401525b50505050565b6200077482620007e2565b810181811067ffffffffffffffff821117156200079657620007956200079f565b5b80604052505050565b7f4e487b7100000000000000000000000000000000000000000000000000000000600052604160045260246000fd5b600080fd5b600080fd5b600080fd5b600080fd5b6000601f19601f8301169050919050565b620007fe816200071a565b81146200080a57600080fd5b5056fe60806040523480156200001157600080fd5b50604051620023323803806200233283398181016040528101906200003791906200020c565b806000806101000a81548173ffffffffffffffffffffffffffffffffffffffff021916908373ffffffffffffffffffffffffffffffffffffffff16021790555084600190805190602001906200008f929190620000b0565b508360028190555082600381905550816004819055505050505050620004a9565b828054620000be9062000386565b90600052602060002090601f016020900481019282620000e257600085556200012e565b82601f10620000fd57805160ff19168380011785556200012e565b828001600101855582156200012e579182015b828111156200012d57825182559160200191906001019062000110565b5b5090506200013d919062000141565b5090565b5b808211156200015c57600081600090555060010162000142565b5090565b6000620001776200017184620002dc565b620002b3565b90508281526020810184848401111562000196576200019562000455565b5b620001a384828562000350565b509392505050565b600081519050620001bc8162000475565b92915050565b600082601f830112620001da57620001d962000450565b5b8151620001ec84826020860162000160565b91505092915050565b60008151905062000206816200048f565b92915050565b600080600080600060a086880312156200022b576200022a6200045f565b5b600086015167ffffffffffffffff8111156200024c576200024b6200045a565b5b6200025a88828901620001c2565b95505060206200026d88828901620001f5565b94505060406200028088828901620001f5565b93505060606200029388828901620001f5565b9250506080620002a688828901620001ab565b9150509295509295909350565b6000620002bf620002d2565b9050620002cd8282620003bc565b919050565b6000604051905090565b600067ffffffffffffffff821115620002fa57620002f962000421565b5b620003058262000464565b9050602081019050919050565b60006200031f8262000326565b9050919050565b600073ffffffffffffffffffffffffffffffffffffffff82169050919050565b6000819050919050565b60005b838110156200037057808201518184015260208101905062000353565b8381111562000380576000848401525b50505050565b600060028204905060018216806200039f57607f821691505b60208210811415620003b657620003b5620003f2565b5b50919050565b620003c78262000464565b810181811067ffffffffffffffff82111715620003e957620003e862000421565b5b80604052505050565b7f4e487b7100000000000000000000000000000000000000000000000000000000600052602260045260246000fd5b7f4e487b7100000000000000000000000000000000000000000000000000000000600052604160045260246000fd5b600080fd5b600080fd5b600080fd5b600080fd5b6000601f19601f8301169050919050565b620004808162000312565b81146200048c57600080fd5b50565b6200049a8162000346565b8114620004a657600080fd5b50565b611e7980620004b96000396000f3fe6080604052600436106101095760003560e01c80637284e41611610095578063b11a19e811610064578063b11a19e8146103a0578063d2b8b867146103dd578063d7bb99ba14610406578063d7e64c0014610410578063de14c8181461043b57610109565b80637284e416146102de5780638323406b1461030957806387d81789146103325780638da5cb5b1461037557610109565b806356ca623e116100dc57806356ca623e146101bf57806363fd9e38146101fc5780636900a3ae146102275780636f7bc9be1461026457806371aad10d146102a157610109565b806303120d461461010e5780633110235a1461013757806340193883146101625780634051ddac1461018d575b600080fd5b34801561011a57600080fd5b5061013560048036038101906101309190611618565b610464565b005b34801561014357600080fd5b5061014c61059d565b6040516101599190611967565b60405180910390f35b34801561016e57600080fd5b506101776105a3565b6040516101849190611967565b60405180910390f35b34801561019957600080fd5b506101a26105a9565b6040516101b69897969594939291906118e2565b60405180910390f35b3480156101cb57600080fd5b506101e660048036038101906101e19190611575565b610692565b6040516101f3919061183c565b60405180910390f35b34801561020857600080fd5b506102116106c3565b60405161021e9190611967565b60405180910390f35b34801561023357600080fd5b5061024e60048036038101906102499190611687565b6106c9565b60405161025b919061183c565b60405180910390f35b34801561027057600080fd5b5061028b60048036038101906102869190611575565b6106fa565b6040516102989190611967565b60405180910390f35b3480156102ad57600080fd5b506102c860048036038101906102c391906115cf565b610712565b6040516102d5919061183c565b60405180910390f35b3480156102ea57600080fd5b506102f3610a0c565b604051610300919061183c565b60405180910390f35b34801561031557600080fd5b50610330600480360381019061032b9190611687565b610a9a565b005b34801561033e57600080fd5b5061035960048036038101906103549190611687565b610c3b565b60405161036c979695949392919061185e565b60405180910390f35b34801561038157600080fd5b5061038a610e52565b6040516103979190611821565b60405180910390f35b3480156103ac57600080fd5b506103c760048036038101906103c291906115a2565b610e76565b6040516103d4919061183c565b60405180910390f35b3480156103e957600080fd5b5061040460048036038101906103ff9190611687565b610ea7565b005b61040e610fff565b005b34801561041c57600080fd5b50610425611180565b6040516104329190611967565b60405180910390f35b34801561044757600080fd5b50610462600480360381019061045d9190611687565b611186565b005b60008054906101000a900473ffffffffffffffffffffffffffffffffffffffff1673ffffffffffffffffffffffffffffffffffffffff163373ffffffffffffffffffffffffffffffffffffffff16146104bc57600080fd5b600060078054905090506007600181600181540180825580915050039060005260206000209050506000600782815481106104fa576104f9611d57565b5b906000526020600020906006020190508481600001908051906020019061052292919061139e565b50838160010181905550828160030160006101000a81548173ffffffffffffffffffffffffffffffffffffffff021916908373ffffffffffffffffffffffffffffffffffffffff16021790555060008160030160146101000a81548160ff021916908315150217905550600081600201819055505050505050565b60035481565b60045481565b6060600080600080600080600060016002546003546004544760055460078054905060008054906101000a900473ffffffffffffffffffffffffffffffffffffffff168780546105f890611bb7565b80601f016020809104026020016040519081016040528092919081815260200182805461062490611bb7565b80156106715780601f1061064657610100808354040283529160200191610671565b820191906000526020600020905b81548152906001019060200180831161065457829003601f168201915b50505050509750975097509750975097509750975097509091929394959697565b60606106bc826040516020016106a8919061179f565b604051602081830303815290604052610712565b9050919050565b60025481565b60606106f3826040516020016106df9190611806565b604051602081830303815290604052610712565b9050919050565b60066020528060005260406000206000915090505481565b606060006040518060400160405280601081526020017f3031323334353637383961626364656600000000000000000000000000000000815250905060006002845161075e9190611ab7565b600261076a9190611a30565b67ffffffffffffffff81111561078357610782611d86565b5b6040519080825280601f01601f1916602001820160405280156107b55781602001600182028036833780820191505090505b5090507f3000000000000000000000000000000000000000000000000000000000000000816000815181106107ed576107ec611d57565b5b60200101907effffffffffffffffffffffffffffffffffffffffffffffffffffffffffffff1916908160001a9053507f78000000000000000000000000000000000000000000000000000000000000008160018151811061085157610850611d57565b5b60200101907effffffffffffffffffffffffffffffffffffffffffffffffffffffffffffff1916908160001a90535060005b8451811015610a01578260048683815181106108a2576108a1611d57565b5b602001015160f81c60f81b7effffffffffffffffffffffffffffffffffffffffffffffffffffffffffffff1916901c60f81c60ff16815181106108e8576108e7611d57565b5b602001015160f81c60f81b826002836109019190611ab7565b600261090d9190611a30565b8151811061091e5761091d611d57565b5b60200101907effffffffffffffffffffffffffffffffffffffffffffffffffffffffffffff1916908160001a90535082600f60f81b86838151811061096657610965611d57565b5b602001015160f81c60f81b1660f81c60ff168151811061098957610988611d57565b5b602001015160f81c60f81b826002836109a29190611ab7565b60036109ae9190611a30565b815181106109bf576109be611d57565b5b60200101907effffffffffffffffffffffffffffffffffffffffffffffffffffffffffffff1916908160001a90535080806109f990611c1a565b915050610883565b508092505050919050565b60018054610a1990611bb7565b80601f0160208091040260200160405190810160405280929190818152602001828054610a4590611bb7565b8015610a925780601f10610a6757610100808354040283529160200191610a92565b820191906000526020600020905b815481529060010190602001808311610a7557829003601f168201915b505050505081565b600060078281548110610ab057610aaf611d57565b5b906000526020600020906006020190506000600660003373ffffffffffffffffffffffffffffffffffffffff1673ffffffffffffffffffffffffffffffffffffffff1681526020019081526020016000205411610b0c57600080fd5b600015158160030160149054906101000a900460ff16151514610b2e57600080fd5b60018160030160146101000a81548160ff021916908315150217905550610c1f816005018054610b5d90611bb7565b80601f0160208091040260200160405190810160405280929190818152602001828054610b8990611bb7565b8015610bd65780601f10610bab57610100808354040283529160200191610bd6565b820191906000526020600020905b815481529060010190602001808311610bb957829003601f168201915b50505050506040518060400160405280600181526020017f2d00000000000000000000000000000000000000000000000000000000000000815250610c1a33610692565b611343565b816005019080519060200190610c3692919061139e565b505050565b60078181548110610c4b57600080fd5b9060005260206000209060060201600091509050806000018054610c6e90611bb7565b80601f0160208091040260200160405190810160405280929190818152602001828054610c9a90611bb7565b8015610ce75780601f10610cbc57610100808354040283529160200191610ce7565b820191906000526020600020905b815481529060010190602001808311610cca57829003601f168201915b5050505050908060010154908060020154908060030160009054906101000a900473ffffffffffffffffffffffffffffffffffffffff16908060030160149054906101000a900460ff1690806004018054610d4190611bb7565b80601f0160208091040260200160405190810160405280929190818152602001828054610d6d90611bb7565b8015610dba5780601f10610d8f57610100808354040283529160200191610dba565b820191906000526020600020905b815481529060010190602001808311610d9d57829003601f168201915b505050505090806005018054610dcf90611bb7565b80601f0160208091040260200160405190810160405280929190818152602001828054610dfb90611bb7565b8015610e485780601f10610e1d57610100808354040283529160200191610e48565b820191906000526020600020905b815481529060010190602001808311610e2b57829003601f168201915b5050505050905087565b60008054906101000a900473ffffffffffffffffffffffffffffffffffffffff1681565b6060610ea082604051602001610e8c91906117ba565b604051602081830303815290604052610712565b9050919050565b60008054906101000a900473ffffffffffffffffffffffffffffffffffffffff1673ffffffffffffffffffffffffffffffffffffffff163373ffffffffffffffffffffffffffffffffffffffff1614610eff57600080fd5b600060078281548110610f1557610f14611d57565b5b906000526020600020906006020190508060030160149054906101000a900460ff16610f4057600080fd5b8060010154471015610f5157600080fd5b6002600554610f609190611a86565b816002015411610f6f57600080fd5b8060030160009054906101000a900473ffffffffffffffffffffffffffffffffffffffff1673ffffffffffffffffffffffffffffffffffffffff166108fc82600101549081150290604051600060405180830381858888f19350505050158015610fdd573d6000803e3d6000fd5b5060018160030160146101000a81548160ff0219169083151502179055505050565b60025434101561100e57600080fd5b60035434111561101d57600080fd5b6000611032344761137290919063ffffffff16565b905060045481111561104357600080fd5b6000600660003373ffffffffffffffffffffffffffffffffffffffff1673ffffffffffffffffffffffffffffffffffffffff16815260200190815260200160002054111561111e5734600660003373ffffffffffffffffffffffffffffffffffffffff1673ffffffffffffffffffffffffffffffffffffffff168152602001908152602001600020546110d69190611a30565b600660003373ffffffffffffffffffffffffffffffffffffffff1673ffffffffffffffffffffffffffffffffffffffff1681526020019081526020016000208190555061117d565b34600660003373ffffffffffffffffffffffffffffffffffffffff1673ffffffffffffffffffffffffffffffffffffffff168152602001908152602001600020819055506001600560008282546111759190611a30565b925050819055505b50565b60055481565b60006007828154811061119c5761119b611d57565b5b906000526020600020906006020190506000600660003373ffffffffffffffffffffffffffffffffffffffff1673ffffffffffffffffffffffffffffffffffffffff16815260200190815260200160002054116111f857600080fd5b600015158160030160149054906101000a900460ff1615151461121a57600080fd5b60018160030160146101000a81548160ff021916908315150217905550600181600201600082825461124c9190611a30565b9250508190555061132781600401805461126590611bb7565b80601f016020809104026020016040519081016040528092919081815260200182805461129190611bb7565b80156112de5780601f106112b3576101008083540402835291602001916112de565b820191906000526020600020905b8154815290600101906020018083116112c157829003601f168201915b50505050506040518060400160405280600181526020017f2d0000000000000000000000000000000000000000000000000000000000000081525061132233610692565b611343565b81600401908051906020019061133e92919061139e565b505050565b606083838360405160200161135a939291906117d5565b60405160208183030381529060405290509392505050565b60008082846113819190611a30565b90508381101561139457611393611c9b565b5b8091505092915050565b8280546113aa90611bb7565b90600052602060002090601f0160209004810192826113cc5760008555611413565b82601f106113e557805160ff1916838001178555611413565b82800160010185558215611413579182015b828111156114125782518255916020019190600101906113f7565b5b5090506114209190611424565b5090565b5b8082111561143d576000816000905550600101611425565b5090565b600061145461144f846119a7565b611982565b9050828152602081018484840111156114705761146f611dba565b5b61147b848285611b75565b509392505050565b6000611496611491846119d8565b611982565b9050828152602081018484840111156114b2576114b1611dba565b5b6114bd848285611b75565b509392505050565b6000813590506114d481611de7565b92915050565b6000813590506114e981611dfe565b92915050565b6000813590506114fe81611e15565b92915050565b600082601f83011261151957611518611db5565b5b8135611529848260208601611441565b91505092915050565b600082601f83011261154757611546611db5565b5b8135611557848260208601611483565b91505092915050565b60008135905061156f81611e2c565b92915050565b60006020828403121561158b5761158a611dc4565b5b6000611599848285016114c5565b91505092915050565b6000602082840312156115b8576115b7611dc4565b5b60006115c6848285016114ef565b91505092915050565b6000602082840312156115e5576115e4611dc4565b5b600082013567ffffffffffffffff81111561160357611602611dbf565b5b61160f84828501611504565b91505092915050565b60008060006060848603121561163157611630611dc4565b5b600084013567ffffffffffffffff81111561164f5761164e611dbf565b5b61165b86828701611532565b935050602061166c86828701611560565b925050604061167d868287016114da565b9150509250925092565b60006020828403121561169d5761169c611dc4565b5b60006116ab84828501611560565b91505092915050565b6116bd81611b23565b82525050565b6116cc81611b11565b82525050565b6116e36116de82611b11565b611c63565b82525050565b6116f281611b35565b82525050565b61170961170482611b41565b611c75565b82525050565b600061171a82611a09565b6117248185611a14565b9350611734818560208601611b84565b61173d81611dc9565b840191505092915050565b600061175382611a09565b61175d8185611a25565b935061176d818560208601611b84565b80840191505092915050565b61178281611b6b565b82525050565b61179961179482611b6b565b611c91565b82525050565b60006117ab82846116d2565b60148201915081905092915050565b60006117c682846116f8565b60208201915081905092915050565b60006117e18286611748565b91506117ed8285611748565b91506117f98284611748565b9150819050949350505050565b60006118128284611788565b60208201915081905092915050565b600060208201905061183660008301846116c3565b92915050565b60006020820190508181036000830152611856818461170f565b905092915050565b600060e0820190508181036000830152611878818a61170f565b90506118876020830189611779565b6118946040830188611779565b6118a160608301876116b4565b6118ae60808301866116e9565b81810360a08301526118c0818561170f565b905081810360c08301526118d4818461170f565b905098975050505050505050565b60006101008201905081810360008301526118fd818b61170f565b905061190c602083018a611779565b6119196040830189611779565b6119266060830188611779565b6119336080830187611779565b61194060a0830186611779565b61194d60c0830185611779565b61195a60e08301846116c3565b9998505050505050505050565b600060208201905061197c6000830184611779565b92915050565b600061198c61199d565b90506119988282611be9565b919050565b6000604051905090565b600067ffffffffffffffff8211156119c2576119c1611d86565b5b6119cb82611dc9565b9050602081019050919050565b600067ffffffffffffffff8211156119f3576119f2611d86565b5b6119fc82611dc9565b9050602081019050919050565b600081519050919050565b600082825260208201905092915050565b600081905092915050565b6000611a3b82611b6b565b9150611a4683611b6b565b9250827fffffffffffffffffffffffffffffffffffffffffffffffffffffffffffffffff03821115611a7b57611a7a611cca565b5b828201905092915050565b6000611a9182611b6b565b9150611a9c83611b6b565b925082611aac57611aab611cf9565b5b828204905092915050565b6000611ac282611b6b565b9150611acd83611b6b565b9250817fffffffffffffffffffffffffffffffffffffffffffffffffffffffffffffffff0483118215151615611b0657611b05611cca565b5b828202905092915050565b6000611b1c82611b4b565b9050919050565b6000611b2e82611b4b565b9050919050565b60008115159050919050565b6000819050919050565b600073ffffffffffffffffffffffffffffffffffffffff82169050919050565b6000819050919050565b82818337600083830152505050565b60005b83811015611ba2578082015181840152602081019050611b87565b83811115611bb1576000848401525b50505050565b60006002820490506001821680611bcf57607f821691505b60208210811415611be357611be2611d28565b5b50919050565b611bf282611dc9565b810181811067ffffffffffffffff82111715611c1157611c10611d86565b5b80604052505050565b6000611c2582611b6b565b91507fffffffffffffffffffffffffffffffffffffffffffffffffffffffffffffffff821415611c5857611c57611cca565b5b600182019050919050565b6000611c6e82611c7f565b9050919050565b6000819050919050565b6000611c8a82611dda565b9050919050565b6000819050919050565b7f4e487b7100000000000000000000000000000000000000000000000000000000600052600160045260246000fd5b7f4e487b7100000000000000000000000000000000000000000000000000000000600052601160045260246000fd5b7f4e487b7100000000000000000000000000000000000000000000000000000000600052601260045260246000fd5b7f4e487b7100000000000000000000000000000000000000000000000000000000600052602260045260246000fd5b7f4e487b7100000000000000000000000000000000000000000000000000000000600052603260045260246000fd5b7f4e487b7100000000000000000000000000000000000000000000000000000000600052604160045260246000fd5b600080fd5b600080fd5b600080fd5b600080fd5b6000601f19601f8301169050919050565b60008160601b9050919050565b611df081611b11565b8114611dfb57600080fd5b50565b611e0781611b23565b8114611e1257600080fd5b50565b611e1e81611b41565b8114611e2957600080fd5b50565b611e3581611b6b565b8114611e4057600080fd5b5056fea26469706673582212207ccbdcb2f3efdfe5f103ddc7c378d2a773342b150516e2a67eba4db0f95ff14164736f6c63430008050033a2646970667358221220f4c87f3069a8a69503723f9971294de73baf939e26e90cc6c1956ce3b96c67de64736f6c63430008050033","opcodes":"PUSH1 0x80 PUSH1 0x40 MSTORE CALLVALUE DUP1 ISZERO PUSH2 0x10 JUMPI PUSH1 0x0 DUP1 REVERT JUMPDEST POP PUSH2 0x2B75 DUP1 PUSH2 0x20 PUSH1 0x0 CODECOPY PUSH1 0x0 RETURN INVALID PUSH1 0x80 PUSH1 0x40 MSTORE CALLVALUE DUP1 ISZERO PUSH3 0x11 JUMPI PUSH1 0x0 DUP1 REVERT JUMPDEST POP PUSH1 0x4 CALLDATASIZE LT PUSH3 0x5E JUMPI PUSH1 0x0 CALLDATALOAD PUSH1 0xE0 SHR DUP1 PUSH4 0x107046BD EQ PUSH3 0x63 JUMPI DUP1 PUSH4 0x610A6A2A EQ PUSH3 0x99 JUMPI DUP1 PUSH4 0x91C65403 EQ PUSH3 0xB9 JUMPI DUP1 PUSH4 0xDCC60128 EQ PUSH3 0xDB JUMPI DUP1 PUSH4 0xEAD1256D EQ PUSH3 0xFD JUMPI JUMPDEST PUSH1 0x0 DUP1 REVERT JUMPDEST PUSH3 0x81 PUSH1 0x4 DUP1 CALLDATASIZE SUB DUP2 ADD SWAP1 PUSH3 0x7B SWAP2 SWAP1 PUSH3 0x463 JUMP JUMPDEST PUSH3 0x11F JUMP JUMPDEST PUSH1 0x40 MLOAD PUSH3 0x90 SWAP2 SWAP1 PUSH3 0x58D JUMP JUMPDEST PUSH1 0x40 MLOAD DUP1 SWAP2 SUB SWAP1 RETURN JUMPDEST PUSH3 0xB7 PUSH1 0x4 DUP1 CALLDATASIZE SUB DUP2 ADD SWAP1 PUSH3 0xB1 SWAP2 SWAP1 PUSH3 0x3D2 JUMP JUMPDEST PUSH3 0x15F JUMP JUMPDEST STOP JUMPDEST PUSH3 0xC3 PUSH3 0x24F JUMP JUMPDEST PUSH1 0x40 MLOAD PUSH3 0xD2 SWAP2 SWAP1 PUSH3 0x58D JUMP JUMPDEST PUSH1 0x40 MLOAD DUP1 SWAP2 SUB SWAP1 RETURN JUMPDEST PUSH3 0xE5 PUSH3 0x275 JUMP JUMPDEST PUSH1 0x40 MLOAD PUSH3 0xF4 SWAP2 SWAP1 PUSH3 0x5AA JUMP JUMPDEST PUSH1 0x40 MLOAD DUP1 SWAP2 SUB SWAP1 RETURN JUMPDEST PUSH3 0x107 PUSH3 0x305 JUMP JUMPDEST PUSH1 0x40 MLOAD PUSH3 0x116 SWAP2 SWAP1 PUSH3 0x58D JUMP JUMPDEST PUSH1 0x40 MLOAD DUP1 SWAP2 SUB SWAP1 RETURN JUMPDEST PUSH1 0x0 DUP2 DUP2 SLOAD DUP2 LT PUSH3 0x130 JUMPI PUSH1 0x0 DUP1 REVERT JUMPDEST SWAP1 PUSH1 0x0 MSTORE PUSH1 0x20 PUSH1 0x0 KECCAK256 ADD PUSH1 0x0 SWAP2 POP SLOAD SWAP1 PUSH2 0x100 EXP SWAP1 DIV PUSH20 0xFFFFFFFFFFFFFFFFFFFFFFFFFFFFFFFFFFFFFFFF AND DUP2 JUMP JUMPDEST PUSH1 0x0 DUP5 DUP5 DUP5 DUP5 CALLER PUSH1 0x40 MLOAD PUSH3 0x174 SWAP1 PUSH3 0x32F JUMP JUMPDEST PUSH3 0x184 SWAP6 SWAP5 SWAP4 SWAP3 SWAP2 SWAP1 PUSH3 0x5CE JUMP JUMPDEST PUSH1 0x40 MLOAD DUP1 SWAP2 SUB SWAP1 PUSH1 0x0 CREATE DUP1 ISZERO DUP1 ISZERO PUSH3 0x1A1 JUMPI RETURNDATASIZE PUSH1 0x0 DUP1 RETURNDATACOPY RETURNDATASIZE PUSH1 0x0 REVERT JUMPDEST POP SWAP1 POP PUSH1 0x0 DUP2 SWAP1 DUP1 PUSH1 0x1 DUP2 SLOAD ADD DUP1 DUP3 SSTORE DUP1 SWAP2 POP POP PUSH1 0x1 SWAP1 SUB SWAP1 PUSH1 0x0 MSTORE PUSH1 0x20 PUSH1 0x0 KECCAK256 ADD PUSH1 0x0 SWAP1 SWAP2 SWAP1 SWAP2 SWAP1 SWAP2 PUSH2 0x100 EXP DUP2 SLOAD DUP2 PUSH20 0xFFFFFFFFFFFFFFFFFFFFFFFFFFFFFFFFFFFFFFFF MUL NOT AND SWAP1 DUP4 PUSH20 0xFFFFFFFFFFFFFFFFFFFFFFFFFFFFFFFFFFFFFFFF AND MUL OR SWAP1 SSTORE POP DUP1 PUSH1 0x1 PUSH1 0x0 PUSH2 0x100 EXP DUP2 SLOAD DUP2 PUSH20 0xFFFFFFFFFFFFFFFFFFFFFFFFFFFFFFFFFFFFFFFF MUL NOT AND SWAP1 DUP4 PUSH20 0xFFFFFFFFFFFFFFFFFFFFFFFFFFFFFFFFFFFFFFFF AND MUL OR SWAP1 SSTORE POP POP POP POP POP POP JUMP JUMPDEST PUSH1 0x1 PUSH1 0x0 SWAP1 SLOAD SWAP1 PUSH2 0x100 EXP SWAP1 DIV PUSH20 0xFFFFFFFFFFFFFFFFFFFFFFFFFFFFFFFFFFFFFFFF AND DUP2 JUMP JUMPDEST PUSH1 0x60 PUSH1 0x0 DUP1 SLOAD DUP1 PUSH1 0x20 MUL PUSH1 0x20 ADD PUSH1 0x40 MLOAD SWAP1 DUP2 ADD PUSH1 0x40 MSTORE DUP1 SWAP3 SWAP2 SWAP1 DUP2 DUP2 MSTORE PUSH1 0x20 ADD DUP3 DUP1 SLOAD DUP1 ISZERO PUSH3 0x2FB JUMPI PUSH1 0x20 MUL DUP3 ADD SWAP2 SWAP1 PUSH1 0x0 MSTORE PUSH1 0x20 PUSH1 0x0 KECCAK256 SWAP1 JUMPDEST DUP2 PUSH1 0x0 SWAP1 SLOAD SWAP1 PUSH2 0x100 EXP SWAP1 DIV PUSH20 0xFFFFFFFFFFFFFFFFFFFFFFFFFFFFFFFFFFFFFFFF AND PUSH20 0xFFFFFFFFFFFFFFFFFFFFFFFFFFFFFFFFFFFFFFFF AND DUP2 MSTORE PUSH1 0x20 ADD SWAP1 PUSH1 0x1 ADD SWAP1 DUP1 DUP4 GT PUSH3 0x2B0 JUMPI JUMPDEST POP POP POP POP POP SWAP1 POP SWAP1 JUMP JUMPDEST PUSH1 0x0 PUSH1 0x1 PUSH1 0x0 SWAP1 SLOAD SWAP1 PUSH2 0x100 EXP SWAP1 DIV PUSH20 0xFFFFFFFFFFFFFFFFFFFFFFFFFFFFFFFFFFFFFFFF AND SWAP1 POP SWAP1 JUMP JUMPDEST PUSH2 0x2332 DUP1 PUSH3 0x80E DUP4 CODECOPY ADD SWAP1 JUMP JUMPDEST PUSH1 0x0 PUSH3 0x354 PUSH3 0x34E DUP5 PUSH3 0x65B JUMP JUMPDEST PUSH3 0x632 JUMP JUMPDEST SWAP1 POP DUP3 DUP2 MSTORE PUSH1 0x20 DUP2 ADD DUP5 DUP5 DUP5 ADD GT ISZERO PUSH3 0x373 JUMPI PUSH3 0x372 PUSH3 0x7D3 JUMP JUMPDEST JUMPDEST PUSH3 0x380 DUP5 DUP3 DUP6 PUSH3 0x724 JUMP JUMPDEST POP SWAP4 SWAP3 POP POP POP JUMP JUMPDEST PUSH1 0x0 DUP3 PUSH1 0x1F DUP4 ADD SLT PUSH3 0x3A0 JUMPI PUSH3 0x39F PUSH3 0x7CE JUMP JUMPDEST JUMPDEST DUP2 CALLDATALOAD PUSH3 0x3B2 DUP5 DUP3 PUSH1 0x20 DUP7 ADD PUSH3 0x33D JUMP JUMPDEST SWAP2 POP POP SWAP3 SWAP2 POP POP JUMP JUMPDEST PUSH1 0x0 DUP2 CALLDATALOAD SWAP1 POP PUSH3 0x3CC DUP2 PUSH3 0x7F3 JUMP JUMPDEST SWAP3 SWAP2 POP POP JUMP JUMPDEST PUSH1 0x0 DUP1 PUSH1 0x0 DUP1 PUSH1 0x80 DUP6 DUP8 SUB SLT ISZERO PUSH3 0x3EF JUMPI PUSH3 0x3EE PUSH3 0x7DD JUMP JUMPDEST JUMPDEST PUSH1 0x0 DUP6 ADD CALLDATALOAD PUSH8 0xFFFFFFFFFFFFFFFF DUP2 GT ISZERO PUSH3 0x410 JUMPI PUSH3 0x40F PUSH3 0x7D8 JUMP JUMPDEST JUMPDEST PUSH3 0x41E DUP8 DUP3 DUP9 ADD PUSH3 0x388 JUMP JUMPDEST SWAP5 POP POP PUSH1 0x20 PUSH3 0x431 DUP8 DUP3 DUP9 ADD PUSH3 0x3BB JUMP JUMPDEST SWAP4 POP POP PUSH1 0x40 PUSH3 0x444 DUP8 DUP3 DUP9 ADD PUSH3 0x3BB JUMP JUMPDEST SWAP3 POP POP PUSH1 0x60 PUSH3 0x457 DUP8 DUP3 DUP9 ADD PUSH3 0x3BB JUMP JUMPDEST SWAP2 POP POP SWAP3 SWAP6 SWAP2 SWAP5 POP SWAP3 POP JUMP JUMPDEST PUSH1 0x0 PUSH1 0x20 DUP3 DUP5 SUB SLT ISZERO PUSH3 0x47C JUMPI PUSH3 0x47B PUSH3 0x7DD JUMP JUMPDEST JUMPDEST PUSH1 0x0 PUSH3 0x48C DUP5 DUP3 DUP6 ADD PUSH3 0x3BB JUMP JUMPDEST SWAP2 POP POP SWAP3 SWAP2 POP POP JUMP JUMPDEST PUSH1 0x0 PUSH3 0x4A3 DUP4 DUP4 PUSH3 0x4AF JUMP JUMPDEST PUSH1 0x20 DUP4 ADD SWAP1 POP SWAP3 SWAP2 POP POP JUMP JUMPDEST PUSH3 0x4BA DUP2 PUSH3 0x6E6 JUMP JUMPDEST DUP3 MSTORE POP POP JUMP JUMPDEST PUSH3 0x4CB DUP2 PUSH3 0x6E6 JUMP JUMPDEST DUP3 MSTORE POP POP JUMP JUMPDEST PUSH1 0x0 PUSH3 0x4DE DUP3 PUSH3 0x6A1 JUMP JUMPDEST PUSH3 0x4EA DUP2 DUP6 PUSH3 0x6C4 JUMP JUMPDEST SWAP4 POP PUSH3 0x4F7 DUP4 PUSH3 0x691 JUMP JUMPDEST DUP1 PUSH1 0x0 JUMPDEST DUP4 DUP2 LT ISZERO PUSH3 0x52E JUMPI DUP2 MLOAD PUSH3 0x512 DUP9 DUP3 PUSH3 0x495 JUMP JUMPDEST SWAP8 POP PUSH3 0x51F DUP4 PUSH3 0x6B7 JUMP JUMPDEST SWAP3 POP POP PUSH1 0x1 DUP2 ADD SWAP1 POP PUSH3 0x4FB JUMP JUMPDEST POP DUP6 SWAP4 POP POP POP POP SWAP3 SWAP2 POP POP JUMP JUMPDEST PUSH1 0x0 PUSH3 0x548 DUP3 PUSH3 0x6AC JUMP JUMPDEST PUSH3 0x554 DUP2 DUP6 PUSH3 0x6D5 JUMP JUMPDEST SWAP4 POP PUSH3 0x566 DUP2 DUP6 PUSH1 0x20 DUP7 ADD PUSH3 0x733 JUMP JUMPDEST PUSH3 0x571 DUP2 PUSH3 0x7E2 JUMP JUMPDEST DUP5 ADD SWAP2 POP POP SWAP3 SWAP2 POP POP JUMP JUMPDEST PUSH3 0x587 DUP2 PUSH3 0x71A JUMP JUMPDEST DUP3 MSTORE POP POP JUMP JUMPDEST PUSH1 0x0 PUSH1 0x20 DUP3 ADD SWAP1 POP PUSH3 0x5A4 PUSH1 0x0 DUP4 ADD DUP5 PUSH3 0x4C0 JUMP JUMPDEST SWAP3 SWAP2 POP POP JUMP JUMPDEST PUSH1 0x0 PUSH1 0x20 DUP3 ADD SWAP1 POP DUP2 DUP2 SUB PUSH1 0x0 DUP4 ADD MSTORE PUSH3 0x5C6 DUP2 DUP5 PUSH3 0x4D1 JUMP JUMPDEST SWAP1 POP SWAP3 SWAP2 POP POP JUMP JUMPDEST PUSH1 0x0 PUSH1 0xA0 DUP3 ADD SWAP1 POP DUP2 DUP2 SUB PUSH1 0x0 DUP4 ADD MSTORE PUSH3 0x5EA DUP2 DUP9 PUSH3 0x53B JUMP JUMPDEST SWAP1 POP PUSH3 0x5FB PUSH1 0x20 DUP4 ADD DUP8 PUSH3 0x57C JUMP JUMPDEST PUSH3 0x60A PUSH1 0x40 DUP4 ADD DUP7 PUSH3 0x57C JUMP JUMPDEST PUSH3 0x619 PUSH1 0x60 DUP4 ADD DUP6 PUSH3 0x57C JUMP JUMPDEST PUSH3 0x628 PUSH1 0x80 DUP4 ADD DUP5 PUSH3 0x4C0 JUMP JUMPDEST SWAP7 SWAP6 POP POP POP POP POP POP JUMP JUMPDEST PUSH1 0x0 PUSH3 0x63E PUSH3 0x651 JUMP JUMPDEST SWAP1 POP PUSH3 0x64C DUP3 DUP3 PUSH3 0x769 JUMP JUMPDEST SWAP2 SWAP1 POP JUMP JUMPDEST PUSH1 0x0 PUSH1 0x40 MLOAD SWAP1 POP SWAP1 JUMP JUMPDEST PUSH1 0x0 PUSH8 0xFFFFFFFFFFFFFFFF DUP3 GT ISZERO PUSH3 0x679 JUMPI PUSH3 0x678 PUSH3 0x79F JUMP JUMPDEST JUMPDEST PUSH3 0x684 DUP3 PUSH3 0x7E2 JUMP JUMPDEST SWAP1 POP PUSH1 0x20 DUP2 ADD SWAP1 POP SWAP2 SWAP1 POP JUMP JUMPDEST PUSH1 0x0 DUP2 SWAP1 POP PUSH1 0x20 DUP3 ADD SWAP1 POP SWAP2 SWAP1 POP JUMP JUMPDEST PUSH1 0x0 DUP2 MLOAD SWAP1 POP SWAP2 SWAP1 POP JUMP JUMPDEST PUSH1 0x0 DUP2 MLOAD SWAP1 POP SWAP2 SWAP1 POP JUMP JUMPDEST PUSH1 0x0 PUSH1 0x20 DUP3 ADD SWAP1 POP SWAP2 SWAP1 POP JUMP JUMPDEST PUSH1 0x0 DUP3 DUP3 MSTORE PUSH1 0x20 DUP3 ADD SWAP1 POP SWAP3 SWAP2 POP POP JUMP JUMPDEST PUSH1 0x0 DUP3 DUP3 MSTORE PUSH1 0x20 DUP3 ADD SWAP1 POP SWAP3 SWAP2 POP POP JUMP JUMPDEST PUSH1 0x0 PUSH3 0x6F3 DUP3 PUSH3 0x6FA JUMP JUMPDEST SWAP1 POP SWAP2 SWAP1 POP JUMP JUMPDEST PUSH1 0x0 PUSH20 0xFFFFFFFFFFFFFFFFFFFFFFFFFFFFFFFFFFFFFFFF DUP3 AND SWAP1 POP SWAP2 SWAP1 POP JUMP JUMPDEST PUSH1 0x0 DUP2 SWAP1 POP SWAP2 SWAP1 POP JUMP JUMPDEST DUP3 DUP2 DUP4 CALLDATACOPY PUSH1 0x0 DUP4 DUP4 ADD MSTORE POP POP POP JUMP JUMPDEST PUSH1 0x0 JUMPDEST DUP4 DUP2 LT ISZERO PUSH3 0x753 JUMPI DUP1 DUP3 ADD MLOAD DUP2 DUP5 ADD MSTORE PUSH1 0x20 DUP2 ADD SWAP1 POP PUSH3 0x736 JUMP JUMPDEST DUP4 DUP2 GT ISZERO PUSH3 0x763 JUMPI PUSH1 0x0 DUP5 DUP5 ADD MSTORE JUMPDEST POP POP POP POP JUMP JUMPDEST PUSH3 0x774 DUP3 PUSH3 0x7E2 JUMP JUMPDEST DUP2 ADD DUP2 DUP2 LT PUSH8 0xFFFFFFFFFFFFFFFF DUP3 GT OR ISZERO PUSH3 0x796 JUMPI PUSH3 0x795 PUSH3 0x79F JUMP JUMPDEST JUMPDEST DUP1 PUSH1 0x40 MSTORE POP POP POP JUMP JUMPDEST PUSH32 0x4E487B7100000000000000000000000000000000000000000000000000000000 PUSH1 0x0 MSTORE PUSH1 0x41 PUSH1 0x4 MSTORE PUSH1 0x24 PUSH1 0x0 REVERT JUMPDEST PUSH1 0x0 DUP1 REVERT JUMPDEST PUSH1 0x0 DUP1 REVERT JUMPDEST PUSH1 0x0 DUP1 REVERT JUMPDEST PUSH1 0x0 DUP1 REVERT JUMPDEST PUSH1 0x0 PUSH1 0x1F NOT PUSH1 0x1F DUP4 ADD AND SWAP1 POP SWAP2 SWAP1 POP JUMP JUMPDEST PUSH3 0x7FE DUP2 PUSH3 0x71A JUMP JUMPDEST DUP2 EQ PUSH3 0x80A JUMPI PUSH1 0x0 DUP1 REVERT JUMPDEST POP JUMP INVALID PUSH1 0x80 PUSH1 0x40 MSTORE CALLVALUE DUP1 ISZERO PUSH3 0x11 JUMPI PUSH1 0x0 DUP1 REVERT JUMPDEST POP PUSH1 0x40 MLOAD PUSH3 0x2332 CODESIZE SUB DUP1 PUSH3 0x2332 DUP4 CODECOPY DUP2 DUP2 ADD PUSH1 0x40 MSTORE DUP2 ADD SWAP1 PUSH3 0x37 SWAP2 SWAP1 PUSH3 0x20C JUMP JUMPDEST DUP1 PUSH1 0x0 DUP1 PUSH2 0x100 EXP DUP2 SLOAD DUP2 PUSH20 0xFFFFFFFFFFFFFFFFFFFFFFFFFFFFFFFFFFFFFFFF MUL NOT AND SWAP1 DUP4 PUSH20 0xFFFFFFFFFFFFFFFFFFFFFFFFFFFFFFFFFFFFFFFF AND MUL OR SWAP1 SSTORE POP DUP5 PUSH1 0x1 SWAP1 DUP1 MLOAD SWAP1 PUSH1 0x20 ADD SWAP1 PUSH3 0x8F SWAP3 SWAP2 SWAP1 PUSH3 0xB0 JUMP JUMPDEST POP DUP4 PUSH1 0x2 DUP2 SWAP1 SSTORE POP DUP3 PUSH1 0x3 DUP2 SWAP1 SSTORE POP DUP2 PUSH1 0x4 DUP2 SWAP1 SSTORE POP POP POP POP POP POP PUSH3 0x4A9 JUMP JUMPDEST DUP3 DUP1 SLOAD PUSH3 0xBE SWAP1 PUSH3 0x386 JUMP JUMPDEST SWAP1 PUSH1 0x0 MSTORE PUSH1 0x20 PUSH1 0x0 KECCAK256 SWAP1 PUSH1 0x1F ADD PUSH1 0x20 SWAP1 DIV DUP2 ADD SWAP3 DUP3 PUSH3 0xE2 JUMPI PUSH1 0x0 DUP6 SSTORE PUSH3 0x12E JUMP JUMPDEST DUP3 PUSH1 0x1F LT PUSH3 0xFD JUMPI DUP1 MLOAD PUSH1 0xFF NOT AND DUP4 DUP1 ADD OR DUP6 SSTORE PUSH3 0x12E JUMP JUMPDEST DUP3 DUP1 ADD PUSH1 0x1 ADD DUP6 SSTORE DUP3 ISZERO PUSH3 0x12E JUMPI SWAP2 DUP3 ADD JUMPDEST DUP3 DUP2 GT ISZERO PUSH3 0x12D JUMPI DUP3 MLOAD DUP3 SSTORE SWAP2 PUSH1 0x20 ADD SWAP2 SWAP1 PUSH1 0x1 ADD SWAP1 PUSH3 0x110 JUMP JUMPDEST JUMPDEST POP SWAP1 POP PUSH3 0x13D SWAP2 SWAP1 PUSH3 0x141 JUMP JUMPDEST POP SWAP1 JUMP JUMPDEST JUMPDEST DUP1 DUP3 GT ISZERO PUSH3 0x15C JUMPI PUSH1 0x0 DUP2 PUSH1 0x0 SWAP1 SSTORE POP PUSH1 0x1 ADD PUSH3 0x142 JUMP JUMPDEST POP SWAP1 JUMP JUMPDEST PUSH1 0x0 PUSH3 0x177 PUSH3 0x171 DUP5 PUSH3 0x2DC JUMP JUMPDEST PUSH3 0x2B3 JUMP JUMPDEST SWAP1 POP DUP3 DUP2 MSTORE PUSH1 0x20 DUP2 ADD DUP5 DUP5 DUP5 ADD GT ISZERO PUSH3 0x196 JUMPI PUSH3 0x195 PUSH3 0x455 JUMP JUMPDEST JUMPDEST PUSH3 0x1A3 DUP5 DUP3 DUP6 PUSH3 0x350 JUMP JUMPDEST POP SWAP4 SWAP3 POP POP POP JUMP JUMPDEST PUSH1 0x0 DUP2 MLOAD SWAP1 POP PUSH3 0x1BC DUP2 PUSH3 0x475 JUMP JUMPDEST SWAP3 SWAP2 POP POP JUMP JUMPDEST PUSH1 0x0 DUP3 PUSH1 0x1F DUP4 ADD SLT PUSH3 0x1DA JUMPI PUSH3 0x1D9 PUSH3 0x450 JUMP JUMPDEST JUMPDEST DUP2 MLOAD PUSH3 0x1EC DUP5 DUP3 PUSH1 0x20 DUP7 ADD PUSH3 0x160 JUMP JUMPDEST SWAP2 POP POP SWAP3 SWAP2 POP POP JUMP JUMPDEST PUSH1 0x0 DUP2 MLOAD SWAP1 POP PUSH3 0x206 DUP2 PUSH3 0x48F JUMP JUMPDEST SWAP3 SWAP2 POP POP JUMP JUMPDEST PUSH1 0x0 DUP1 PUSH1 0x0 DUP1 PUSH1 0x0 PUSH1 0xA0 DUP7 DUP9 SUB SLT ISZERO PUSH3 0x22B JUMPI PUSH3 0x22A PUSH3 0x45F JUMP JUMPDEST JUMPDEST PUSH1 0x0 DUP7 ADD MLOAD PUSH8 0xFFFFFFFFFFFFFFFF DUP2 GT ISZERO PUSH3 0x24C JUMPI PUSH3 0x24B PUSH3 0x45A JUMP JUMPDEST JUMPDEST PUSH3 0x25A DUP9 DUP3 DUP10 ADD PUSH3 0x1C2 JUMP JUMPDEST SWAP6 POP POP PUSH1 0x20 PUSH3 0x26D DUP9 DUP3 DUP10 ADD PUSH3 0x1F5 JUMP JUMPDEST SWAP5 POP POP PUSH1 0x40 PUSH3 0x280 DUP9 DUP3 DUP10 ADD PUSH3 0x1F5 JUMP JUMPDEST SWAP4 POP POP PUSH1 0x60 PUSH3 0x293 DUP9 DUP3 DUP10 ADD PUSH3 0x1F5 JUMP JUMPDEST SWAP3 POP POP PUSH1 0x80 PUSH3 0x2A6 DUP9 DUP3 DUP10 ADD PUSH3 0x1AB JUMP JUMPDEST SWAP2 POP POP SWAP3 SWAP6 POP SWAP3 SWAP6 SWAP1 SWAP4 POP JUMP JUMPDEST PUSH1 0x0 PUSH3 0x2BF PUSH3 0x2D2 JUMP JUMPDEST SWAP1 POP PUSH3 0x2CD DUP3 DUP3 PUSH3 0x3BC JUMP JUMPDEST SWAP2 SWAP1 POP JUMP JUMPDEST PUSH1 0x0 PUSH1 0x40 MLOAD SWAP1 POP SWAP1 JUMP JUMPDEST PUSH1 0x0 PUSH8 0xFFFFFFFFFFFFFFFF DUP3 GT ISZERO PUSH3 0x2FA JUMPI PUSH3 0x2F9 PUSH3 0x421 JUMP JUMPDEST JUMPDEST PUSH3 0x305 DUP3 PUSH3 0x464 JUMP JUMPDEST SWAP1 POP PUSH1 0x20 DUP2 ADD SWAP1 POP SWAP2 SWAP1 POP JUMP JUMPDEST PUSH1 0x0 PUSH3 0x31F DUP3 PUSH3 0x326 JUMP JUMPDEST SWAP1 POP SWAP2 SWAP1 POP JUMP JUMPDEST PUSH1 0x0 PUSH20 0xFFFFFFFFFFFFFFFFFFFFFFFFFFFFFFFFFFFFFFFF DUP3 AND SWAP1 POP SWAP2 SWAP1 POP JUMP JUMPDEST PUSH1 0x0 DUP2 SWAP1 POP SWAP2 SWAP1 POP JUMP JUMPDEST PUSH1 0x0 JUMPDEST DUP4 DUP2 LT ISZERO PUSH3 0x370 JUMPI DUP1 DUP3 ADD MLOAD DUP2 DUP5 ADD MSTORE PUSH1 0x20 DUP2 ADD SWAP1 POP PUSH3 0x353 JUMP JUMPDEST DUP4 DUP2 GT ISZERO PUSH3 0x380 JUMPI PUSH1 0x0 DUP5 DUP5 ADD MSTORE JUMPDEST POP POP POP POP JUMP JUMPDEST PUSH1 0x0 PUSH1 0x2 DUP3 DIV SWAP1 POP PUSH1 0x1 DUP3 AND DUP1 PUSH3 0x39F JUMPI PUSH1 0x7F DUP3 AND SWAP2 POP JUMPDEST PUSH1 0x20 DUP3 LT DUP2 EQ ISZERO PUSH3 0x3B6 JUMPI PUSH3 0x3B5 PUSH3 0x3F2 JUMP JUMPDEST JUMPDEST POP SWAP2 SWAP1 POP JUMP JUMPDEST PUSH3 0x3C7 DUP3 PUSH3 0x464 JUMP JUMPDEST DUP2 ADD DUP2 DUP2 LT PUSH8 0xFFFFFFFFFFFFFFFF DUP3 GT OR ISZERO PUSH3 0x3E9 JUMPI PUSH3 0x3E8 PUSH3 0x421 JUMP JUMPDEST JUMPDEST DUP1 PUSH1 0x40 MSTORE POP POP POP JUMP JUMPDEST PUSH32 0x4E487B7100000000000000000000000000000000000000000000000000000000 PUSH1 0x0 MSTORE PUSH1 0x22 PUSH1 0x4 MSTORE PUSH1 0x24 PUSH1 0x0 REVERT JUMPDEST PUSH32 0x4E487B7100000000000000000000000000000000000000000000000000000000 PUSH1 0x0 MSTORE PUSH1 0x41 PUSH1 0x4 MSTORE PUSH1 0x24 PUSH1 0x0 REVERT JUMPDEST PUSH1 0x0 DUP1 REVERT JUMPDEST PUSH1 0x0 DUP1 REVERT JUMPDEST PUSH1 0x0 DUP1 REVERT JUMPDEST PUSH1 0x0 DUP1 REVERT JUMPDEST PUSH1 0x0 PUSH1 0x1F NOT PUSH1 0x1F DUP4 ADD AND SWAP1 POP SWAP2 SWAP1 POP JUMP JUMPDEST PUSH3 0x480 DUP2 PUSH3 0x312 JUMP JUMPDEST DUP2 EQ PUSH3 0x48C JUMPI PUSH1 0x0 DUP1 REVERT JUMPDEST POP JUMP JUMPDEST PUSH3 0x49A DUP2 PUSH3 0x346 JUMP JUMPDEST DUP2 EQ PUSH3 0x4A6 JUMPI PUSH1 0x0 DUP1 REVERT JUMPDEST POP JUMP JUMPDEST PUSH2 0x1E79 DUP1 PUSH3 0x4B9 PUSH1 0x0 CODECOPY PUSH1 0x0 RETURN INVALID PUSH1 0x80 PUSH1 0x40 MSTORE PUSH1 0x4 CALLDATASIZE LT PUSH2 0x109 JUMPI PUSH1 0x0 CALLDATALOAD PUSH1 0xE0 SHR DUP1 PUSH4 0x7284E416 GT PUSH2 0x95 JUMPI DUP1 PUSH4 0xB11A19E8 GT PUSH2 0x64 JUMPI DUP1 PUSH4 0xB11A19E8 EQ PUSH2 0x3A0 JUMPI DUP1 PUSH4 0xD2B8B867 EQ PUSH2 0x3DD JUMPI DUP1 PUSH4 0xD7BB99BA EQ PUSH2 0x406 JUMPI DUP1 PUSH4 0xD7E64C00 EQ PUSH2 0x410 JUMPI DUP1 PUSH4 0xDE14C818 EQ PUSH2 0x43B JUMPI PUSH2 0x109 JUMP JUMPDEST DUP1 PUSH4 0x7284E416 EQ PUSH2 0x2DE JUMPI DUP1 PUSH4 0x8323406B EQ PUSH2 0x309 JUMPI DUP1 PUSH4 0x87D81789 EQ PUSH2 0x332 JUMPI DUP1 PUSH4 0x8DA5CB5B EQ PUSH2 0x375 JUMPI PUSH2 0x109 JUMP JUMPDEST DUP1 PUSH4 0x56CA623E GT PUSH2 0xDC JUMPI DUP1 PUSH4 0x56CA623E EQ PUSH2 0x1BF JUMPI DUP1 PUSH4 0x63FD9E38 EQ PUSH2 0x1FC JUMPI DUP1 PUSH4 0x6900A3AE EQ PUSH2 0x227 JUMPI DUP1 PUSH4 0x6F7BC9BE EQ PUSH2 0x264 JUMPI DUP1 PUSH4 0x71AAD10D EQ PUSH2 0x2A1 JUMPI PUSH2 0x109 JUMP JUMPDEST DUP1 PUSH4 0x3120D46 EQ PUSH2 0x10E JUMPI DUP1 PUSH4 0x3110235A EQ PUSH2 0x137 JUMPI DUP1 PUSH4 0x40193883 EQ PUSH2 0x162 JUMPI DUP1 PUSH4 0x4051DDAC EQ PUSH2 0x18D JUMPI JUMPDEST PUSH1 0x0 DUP1 REVERT JUMPDEST CALLVALUE DUP1 ISZERO PUSH2 0x11A JUMPI PUSH1 0x0 DUP1 REVERT JUMPDEST POP PUSH2 0x135 PUSH1 0x4 DUP1 CALLDATASIZE SUB DUP2 ADD SWAP1 PUSH2 0x130 SWAP2 SWAP1 PUSH2 0x1618 JUMP JUMPDEST PUSH2 0x464 JUMP JUMPDEST STOP JUMPDEST CALLVALUE DUP1 ISZERO PUSH2 0x143 JUMPI PUSH1 0x0 DUP1 REVERT JUMPDEST POP PUSH2 0x14C PUSH2 0x59D JUMP JUMPDEST PUSH1 0x40 MLOAD PUSH2 0x159 SWAP2 SWAP1 PUSH2 0x1967 JUMP JUMPDEST PUSH1 0x40 MLOAD DUP1 SWAP2 SUB SWAP1 RETURN JUMPDEST CALLVALUE DUP1 ISZERO PUSH2 0x16E JUMPI PUSH1 0x0 DUP1 REVERT JUMPDEST POP PUSH2 0x177 PUSH2 0x5A3 JUMP JUMPDEST PUSH1 0x40 MLOAD PUSH2 0x184 SWAP2 SWAP1 PUSH2 0x1967 JUMP JUMPDEST PUSH1 0x40 MLOAD DUP1 SWAP2 SUB SWAP1 RETURN JUMPDEST CALLVALUE DUP1 ISZERO PUSH2 0x199 JUMPI PUSH1 0x0 DUP1 REVERT JUMPDEST POP PUSH2 0x1A2 PUSH2 0x5A9 JUMP JUMPDEST PUSH1 0x40 MLOAD PUSH2 0x1B6 SWAP9 SWAP8 SWAP7 SWAP6 SWAP5 SWAP4 SWAP3 SWAP2 SWAP1 PUSH2 0x18E2 JUMP JUMPDEST PUSH1 0x40 MLOAD DUP1 SWAP2 SUB SWAP1 RETURN JUMPDEST CALLVALUE DUP1 ISZERO PUSH2 0x1CB JUMPI PUSH1 0x0 DUP1 REVERT JUMPDEST POP PUSH2 0x1E6 PUSH1 0x4 DUP1 CALLDATASIZE SUB DUP2 ADD SWAP1 PUSH2 0x1E1 SWAP2 SWAP1 PUSH2 0x1575 JUMP JUMPDEST PUSH2 0x692 JUMP JUMPDEST PUSH1 0x40 MLOAD PUSH2 0x1F3 SWAP2 SWAP1 PUSH2 0x183C JUMP JUMPDEST PUSH1 0x40 MLOAD DUP1 SWAP2 SUB SWAP1 RETURN JUMPDEST CALLVALUE DUP1 ISZERO PUSH2 0x208 JUMPI PUSH1 0x0 DUP1 REVERT JUMPDEST POP PUSH2 0x211 PUSH2 0x6C3 JUMP JUMPDEST PUSH1 0x40 MLOAD PUSH2 0x21E SWAP2 SWAP1 PUSH2 0x1967 JUMP JUMPDEST PUSH1 0x40 MLOAD DUP1 SWAP2 SUB SWAP1 RETURN JUMPDEST CALLVALUE DUP1 ISZERO PUSH2 0x233 JUMPI PUSH1 0x0 DUP1 REVERT JUMPDEST POP PUSH2 0x24E PUSH1 0x4 DUP1 CALLDATASIZE SUB DUP2 ADD SWAP1 PUSH2 0x249 SWAP2 SWAP1 PUSH2 0x1687 JUMP JUMPDEST PUSH2 0x6C9 JUMP JUMPDEST PUSH1 0x40 MLOAD PUSH2 0x25B SWAP2 SWAP1 PUSH2 0x183C JUMP JUMPDEST PUSH1 0x40 MLOAD DUP1 SWAP2 SUB SWAP1 RETURN JUMPDEST CALLVALUE DUP1 ISZERO PUSH2 0x270 JUMPI PUSH1 0x0 DUP1 REVERT JUMPDEST POP PUSH2 0x28B PUSH1 0x4 DUP1 CALLDATASIZE SUB DUP2 ADD SWAP1 PUSH2 0x286 SWAP2 SWAP1 PUSH2 0x1575 JUMP JUMPDEST PUSH2 0x6FA JUMP JUMPDEST PUSH1 0x40 MLOAD PUSH2 0x298 SWAP2 SWAP1 PUSH2 0x1967 JUMP JUMPDEST PUSH1 0x40 MLOAD DUP1 SWAP2 SUB SWAP1 RETURN JUMPDEST CALLVALUE DUP1 ISZERO PUSH2 0x2AD JUMPI PUSH1 0x0 DUP1 REVERT JUMPDEST POP PUSH2 0x2C8 PUSH1 0x4 DUP1 CALLDATASIZE SUB DUP2 ADD SWAP1 PUSH2 0x2C3 SWAP2 SWAP1 PUSH2 0x15CF JUMP JUMPDEST PUSH2 0x712 JUMP JUMPDEST PUSH1 0x40 MLOAD PUSH2 0x2D5 SWAP2 SWAP1 PUSH2 0x183C JUMP JUMPDEST PUSH1 0x40 MLOAD DUP1 SWAP2 SUB SWAP1 RETURN JUMPDEST CALLVALUE DUP1 ISZERO PUSH2 0x2EA JUMPI PUSH1 0x0 DUP1 REVERT JUMPDEST POP PUSH2 0x2F3 PUSH2 0xA0C JUMP JUMPDEST PUSH1 0x40 MLOAD PUSH2 0x300 SWAP2 SWAP1 PUSH2 0x183C JUMP JUMPDEST PUSH1 0x40 MLOAD DUP1 SWAP2 SUB SWAP1 RETURN JUMPDEST CALLVALUE DUP1 ISZERO PUSH2 0x315 JUMPI PUSH1 0x0 DUP1 REVERT JUMPDEST POP PUSH2 0x330 PUSH1 0x4 DUP1 CALLDATASIZE SUB DUP2 ADD SWAP1 PUSH2 0x32B SWAP2 SWAP1 PUSH2 0x1687 JUMP JUMPDEST PUSH2 0xA9A JUMP JUMPDEST STOP JUMPDEST CALLVALUE DUP1 ISZERO PUSH2 0x33E JUMPI PUSH1 0x0 DUP1 REVERT JUMPDEST POP PUSH2 0x359 PUSH1 0x4 DUP1 CALLDATASIZE SUB DUP2 ADD SWAP1 PUSH2 0x354 SWAP2 SWAP1 PUSH2 0x1687 JUMP JUMPDEST PUSH2 0xC3B JUMP JUMPDEST PUSH1 0x40 MLOAD PUSH2 0x36C SWAP8 SWAP7 SWAP6 SWAP5 SWAP4 SWAP3 SWAP2 SWAP1 PUSH2 0x185E JUMP JUMPDEST PUSH1 0x40 MLOAD DUP1 SWAP2 SUB SWAP1 RETURN JUMPDEST CALLVALUE DUP1 ISZERO PUSH2 0x381 JUMPI PUSH1 0x0 DUP1 REVERT JUMPDEST POP PUSH2 0x38A PUSH2 0xE52 JUMP JUMPDEST PUSH1 0x40 MLOAD PUSH2 0x397 SWAP2 SWAP1 PUSH2 0x1821 JUMP JUMPDEST PUSH1 0x40 MLOAD DUP1 SWAP2 SUB SWAP1 RETURN JUMPDEST CALLVALUE DUP1 ISZERO PUSH2 0x3AC JUMPI PUSH1 0x0 DUP1 REVERT JUMPDEST POP PUSH2 0x3C7 PUSH1 0x4 DUP1 CALLDATASIZE SUB DUP2 ADD SWAP1 PUSH2 0x3C2 SWAP2 SWAP1 PUSH2 0x15A2 JUMP JUMPDEST PUSH2 0xE76 JUMP JUMPDEST PUSH1 0x40 MLOAD PUSH2 0x3D4 SWAP2 SWAP1 PUSH2 0x183C JUMP JUMPDEST PUSH1 0x40 MLOAD DUP1 SWAP2 SUB SWAP1 RETURN JUMPDEST CALLVALUE DUP1 ISZERO PUSH2 0x3E9 JUMPI PUSH1 0x0 DUP1 REVERT JUMPDEST POP PUSH2 0x404 PUSH1 0x4 DUP1 CALLDATASIZE SUB DUP2 ADD SWAP1 PUSH2 0x3FF SWAP2 SWAP1 PUSH2 0x1687 JUMP JUMPDEST PUSH2 0xEA7 JUMP JUMPDEST STOP JUMPDEST PUSH2 0x40E PUSH2 0xFFF JUMP JUMPDEST STOP JUMPDEST CALLVALUE DUP1 ISZERO PUSH2 0x41C JUMPI PUSH1 0x0 DUP1 REVERT JUMPDEST POP PUSH2 0x425 PUSH2 0x1180 JUMP JUMPDEST PUSH1 0x40 MLOAD PUSH2 0x432 SWAP2 SWAP1 PUSH2 0x1967 JUMP JUMPDEST PUSH1 0x40 MLOAD DUP1 SWAP2 SUB SWAP1 RETURN JUMPDEST CALLVALUE DUP1 ISZERO PUSH2 0x447 JUMPI PUSH1 0x0 DUP1 REVERT JUMPDEST POP PUSH2 0x462 PUSH1 0x4 DUP1 CALLDATASIZE SUB DUP2 ADD SWAP1 PUSH2 0x45D SWAP2 SWAP1 PUSH2 0x1687 JUMP JUMPDEST PUSH2 0x1186 JUMP JUMPDEST STOP JUMPDEST PUSH1 0x0 DUP1 SLOAD SWAP1 PUSH2 0x100 EXP SWAP1 DIV PUSH20 0xFFFFFFFFFFFFFFFFFFFFFFFFFFFFFFFFFFFFFFFF AND PUSH20 0xFFFFFFFFFFFFFFFFFFFFFFFFFFFFFFFFFFFFFFFF AND CALLER PUSH20 0xFFFFFFFFFFFFFFFFFFFFFFFFFFFFFFFFFFFFFFFF AND EQ PUSH2 0x4BC JUMPI PUSH1 0x0 DUP1 REVERT JUMPDEST PUSH1 0x0 PUSH1 0x7 DUP1 SLOAD SWAP1 POP SWAP1 POP PUSH1 0x7 PUSH1 0x1 DUP2 PUSH1 0x1 DUP2 SLOAD ADD DUP1 DUP3 SSTORE DUP1 SWAP2 POP POP SUB SWAP1 PUSH1 0x0 MSTORE PUSH1 0x20 PUSH1 0x0 KECCAK256 SWAP1 POP POP PUSH1 0x0 PUSH1 0x7 DUP3 DUP2 SLOAD DUP2 LT PUSH2 0x4FA JUMPI PUSH2 0x4F9 PUSH2 0x1D57 JUMP JUMPDEST JUMPDEST SWAP1 PUSH1 0x0 MSTORE PUSH1 0x20 PUSH1 0x0 KECCAK256 SWAP1 PUSH1 0x6 MUL ADD SWAP1 POP DUP5 DUP2 PUSH1 0x0 ADD SWAP1 DUP1 MLOAD SWAP1 PUSH1 0x20 ADD SWAP1 PUSH2 0x522 SWAP3 SWAP2 SWAP1 PUSH2 0x139E JUMP JUMPDEST POP DUP4 DUP2 PUSH1 0x1 ADD DUP2 SWAP1 SSTORE POP DUP3 DUP2 PUSH1 0x3 ADD PUSH1 0x0 PUSH2 0x100 EXP DUP2 SLOAD DUP2 PUSH20 0xFFFFFFFFFFFFFFFFFFFFFFFFFFFFFFFFFFFFFFFF MUL NOT AND SWAP1 DUP4 PUSH20 0xFFFFFFFFFFFFFFFFFFFFFFFFFFFFFFFFFFFFFFFF AND MUL OR SWAP1 SSTORE POP PUSH1 0x0 DUP2 PUSH1 0x3 ADD PUSH1 0x14 PUSH2 0x100 EXP DUP2 SLOAD DUP2 PUSH1 0xFF MUL NOT AND SWAP1 DUP4 ISZERO ISZERO MUL OR SWAP1 SSTORE POP PUSH1 0x0 DUP2 PUSH1 0x2 ADD DUP2 SWAP1 SSTORE POP POP POP POP POP POP JUMP JUMPDEST PUSH1 0x3 SLOAD DUP2 JUMP JUMPDEST PUSH1 0x4 SLOAD DUP2 JUMP JUMPDEST PUSH1 0x60 PUSH1 0x0 DUP1 PUSH1 0x0 DUP1 PUSH1 0x0 DUP1 PUSH1 0x0 PUSH1 0x1 PUSH1 0x2 SLOAD PUSH1 0x3 SLOAD PUSH1 0x4 SLOAD SELFBALANCE PUSH1 0x5 SLOAD PUSH1 0x7 DUP1 SLOAD SWAP1 POP PUSH1 0x0 DUP1 SLOAD SWAP1 PUSH2 0x100 EXP SWAP1 DIV PUSH20 0xFFFFFFFFFFFFFFFFFFFFFFFFFFFFFFFFFFFFFFFF AND DUP8 DUP1 SLOAD PUSH2 0x5F8 SWAP1 PUSH2 0x1BB7 JUMP JUMPDEST DUP1 PUSH1 0x1F ADD PUSH1 0x20 DUP1 SWAP2 DIV MUL PUSH1 0x20 ADD PUSH1 0x40 MLOAD SWAP1 DUP2 ADD PUSH1 0x40 MSTORE DUP1 SWAP3 SWAP2 SWAP1 DUP2 DUP2 MSTORE PUSH1 0x20 ADD DUP3 DUP1 SLOAD PUSH2 0x624 SWAP1 PUSH2 0x1BB7 JUMP JUMPDEST DUP1 ISZERO PUSH2 0x671 JUMPI DUP1 PUSH1 0x1F LT PUSH2 0x646 JUMPI PUSH2 0x100 DUP1 DUP4 SLOAD DIV MUL DUP4 MSTORE SWAP2 PUSH1 0x20 ADD SWAP2 PUSH2 0x671 JUMP JUMPDEST DUP3 ADD SWAP2 SWAP1 PUSH1 0x0 MSTORE PUSH1 0x20 PUSH1 0x0 KECCAK256 SWAP1 JUMPDEST DUP2 SLOAD DUP2 MSTORE SWAP1 PUSH1 0x1 ADD SWAP1 PUSH1 0x20 ADD DUP1 DUP4 GT PUSH2 0x654 JUMPI DUP3 SWAP1 SUB PUSH1 0x1F AND DUP3 ADD SWAP2 JUMPDEST POP POP POP POP POP SWAP8 POP SWAP8 POP SWAP8 POP SWAP8 POP SWAP8 POP SWAP8 POP SWAP8 POP SWAP8 POP SWAP8 POP SWAP1 SWAP2 SWAP3 SWAP4 SWAP5 SWAP6 SWAP7 SWAP8 JUMP JUMPDEST PUSH1 0x60 PUSH2 0x6BC DUP3 PUSH1 0x40 MLOAD PUSH1 0x20 ADD PUSH2 0x6A8 SWAP2 SWAP1 PUSH2 0x179F JUMP JUMPDEST PUSH1 0x40 MLOAD PUSH1 0x20 DUP2 DUP4 SUB SUB DUP2 MSTORE SWAP1 PUSH1 0x40 MSTORE PUSH2 0x712 JUMP JUMPDEST SWAP1 POP SWAP2 SWAP1 POP JUMP JUMPDEST PUSH1 0x2 SLOAD DUP2 JUMP JUMPDEST PUSH1 0x60 PUSH2 0x6F3 DUP3 PUSH1 0x40 MLOAD PUSH1 0x20 ADD PUSH2 0x6DF SWAP2 SWAP1 PUSH2 0x1806 JUMP JUMPDEST PUSH1 0x40 MLOAD PUSH1 0x20 DUP2 DUP4 SUB SUB DUP2 MSTORE SWAP1 PUSH1 0x40 MSTORE PUSH2 0x712 JUMP JUMPDEST SWAP1 POP SWAP2 SWAP1 POP JUMP JUMPDEST PUSH1 0x6 PUSH1 0x20 MSTORE DUP1 PUSH1 0x0 MSTORE PUSH1 0x40 PUSH1 0x0 KECCAK256 PUSH1 0x0 SWAP2 POP SWAP1 POP SLOAD DUP2 JUMP JUMPDEST PUSH1 0x60 PUSH1 0x0 PUSH1 0x40 MLOAD DUP1 PUSH1 0x40 ADD PUSH1 0x40 MSTORE DUP1 PUSH1 0x10 DUP2 MSTORE PUSH1 0x20 ADD PUSH32 0x3031323334353637383961626364656600000000000000000000000000000000 DUP2 MSTORE POP SWAP1 POP PUSH1 0x0 PUSH1 0x2 DUP5 MLOAD PUSH2 0x75E SWAP2 SWAP1 PUSH2 0x1AB7 JUMP JUMPDEST PUSH1 0x2 PUSH2 0x76A SWAP2 SWAP1 PUSH2 0x1A30 JUMP JUMPDEST PUSH8 0xFFFFFFFFFFFFFFFF DUP2 GT ISZERO PUSH2 0x783 JUMPI PUSH2 0x782 PUSH2 0x1D86 JUMP JUMPDEST JUMPDEST PUSH1 0x40 MLOAD SWAP1 DUP1 DUP3 MSTORE DUP1 PUSH1 0x1F ADD PUSH1 0x1F NOT AND PUSH1 0x20 ADD DUP3 ADD PUSH1 0x40 MSTORE DUP1 ISZERO PUSH2 0x7B5 JUMPI DUP2 PUSH1 0x20 ADD PUSH1 0x1 DUP3 MUL DUP1 CALLDATASIZE DUP4 CALLDATACOPY DUP1 DUP3 ADD SWAP2 POP POP SWAP1 POP JUMPDEST POP SWAP1 POP PUSH32 0x3000000000000000000000000000000000000000000000000000000000000000 DUP2 PUSH1 0x0 DUP2 MLOAD DUP2 LT PUSH2 0x7ED JUMPI PUSH2 0x7EC PUSH2 0x1D57 JUMP JUMPDEST JUMPDEST PUSH1 0x20 ADD ADD SWAP1 PUSH31 0xFFFFFFFFFFFFFFFFFFFFFFFFFFFFFFFFFFFFFFFFFFFFFFFFFFFFFFFFFFFFFF NOT AND SWAP1 DUP2 PUSH1 0x0 BYTE SWAP1 MSTORE8 POP PUSH32 0x7800000000000000000000000000000000000000000000000000000000000000 DUP2 PUSH1 0x1 DUP2 MLOAD DUP2 LT PUSH2 0x851 JUMPI PUSH2 0x850 PUSH2 0x1D57 JUMP JUMPDEST JUMPDEST PUSH1 0x20 ADD ADD SWAP1 PUSH31 0xFFFFFFFFFFFFFFFFFFFFFFFFFFFFFFFFFFFFFFFFFFFFFFFFFFFFFFFFFFFFFF NOT AND SWAP1 DUP2 PUSH1 0x0 BYTE SWAP1 MSTORE8 POP PUSH1 0x0 JUMPDEST DUP5 MLOAD DUP2 LT ISZERO PUSH2 0xA01 JUMPI DUP3 PUSH1 0x4 DUP7 DUP4 DUP2 MLOAD DUP2 LT PUSH2 0x8A2 JUMPI PUSH2 0x8A1 PUSH2 0x1D57 JUMP JUMPDEST JUMPDEST PUSH1 0x20 ADD ADD MLOAD PUSH1 0xF8 SHR PUSH1 0xF8 SHL PUSH31 0xFFFFFFFFFFFFFFFFFFFFFFFFFFFFFFFFFFFFFFFFFFFFFFFFFFFFFFFFFFFFFF NOT AND SWAP1 SHR PUSH1 0xF8 SHR PUSH1 0xFF AND DUP2 MLOAD DUP2 LT PUSH2 0x8E8 JUMPI PUSH2 0x8E7 PUSH2 0x1D57 JUMP JUMPDEST JUMPDEST PUSH1 0x20 ADD ADD MLOAD PUSH1 0xF8 SHR PUSH1 0xF8 SHL DUP3 PUSH1 0x2 DUP4 PUSH2 0x901 SWAP2 SWAP1 PUSH2 0x1AB7 JUMP JUMPDEST PUSH1 0x2 PUSH2 0x90D SWAP2 SWAP1 PUSH2 0x1A30 JUMP JUMPDEST DUP2 MLOAD DUP2 LT PUSH2 0x91E JUMPI PUSH2 0x91D PUSH2 0x1D57 JUMP JUMPDEST JUMPDEST PUSH1 0x20 ADD ADD SWAP1 PUSH31 0xFFFFFFFFFFFFFFFFFFFFFFFFFFFFFFFFFFFFFFFFFFFFFFFFFFFFFFFFFFFFFF NOT AND SWAP1 DUP2 PUSH1 0x0 BYTE SWAP1 MSTORE8 POP DUP3 PUSH1 0xF PUSH1 0xF8 SHL DUP7 DUP4 DUP2 MLOAD DUP2 LT PUSH2 0x966 JUMPI PUSH2 0x965 PUSH2 0x1D57 JUMP JUMPDEST JUMPDEST PUSH1 0x20 ADD ADD MLOAD PUSH1 0xF8 SHR PUSH1 0xF8 SHL AND PUSH1 0xF8 SHR PUSH1 0xFF AND DUP2 MLOAD DUP2 LT PUSH2 0x989 JUMPI PUSH2 0x988 PUSH2 0x1D57 JUMP JUMPDEST JUMPDEST PUSH1 0x20 ADD ADD MLOAD PUSH1 0xF8 SHR PUSH1 0xF8 SHL DUP3 PUSH1 0x2 DUP4 PUSH2 0x9A2 SWAP2 SWAP1 PUSH2 0x1AB7 JUMP JUMPDEST PUSH1 0x3 PUSH2 0x9AE SWAP2 SWAP1 PUSH2 0x1A30 JUMP JUMPDEST DUP2 MLOAD DUP2 LT PUSH2 0x9BF JUMPI PUSH2 0x9BE PUSH2 0x1D57 JUMP JUMPDEST JUMPDEST PUSH1 0x20 ADD ADD SWAP1 PUSH31 0xFFFFFFFFFFFFFFFFFFFFFFFFFFFFFFFFFFFFFFFFFFFFFFFFFFFFFFFFFFFFFF NOT AND SWAP1 DUP2 PUSH1 0x0 BYTE SWAP1 MSTORE8 POP DUP1 DUP1 PUSH2 0x9F9 SWAP1 PUSH2 0x1C1A JUMP JUMPDEST SWAP2 POP POP PUSH2 0x883 JUMP JUMPDEST POP DUP1 SWAP3 POP POP POP SWAP2 SWAP1 POP JUMP JUMPDEST PUSH1 0x1 DUP1 SLOAD PUSH2 0xA19 SWAP1 PUSH2 0x1BB7 JUMP JUMPDEST DUP1 PUSH1 0x1F ADD PUSH1 0x20 DUP1 SWAP2 DIV MUL PUSH1 0x20 ADD PUSH1 0x40 MLOAD SWAP1 DUP2 ADD PUSH1 0x40 MSTORE DUP1 SWAP3 SWAP2 SWAP1 DUP2 DUP2 MSTORE PUSH1 0x20 ADD DUP3 DUP1 SLOAD PUSH2 0xA45 SWAP1 PUSH2 0x1BB7 JUMP JUMPDEST DUP1 ISZERO PUSH2 0xA92 JUMPI DUP1 PUSH1 0x1F LT PUSH2 0xA67 JUMPI PUSH2 0x100 DUP1 DUP4 SLOAD DIV MUL DUP4 MSTORE SWAP2 PUSH1 0x20 ADD SWAP2 PUSH2 0xA92 JUMP JUMPDEST DUP3 ADD SWAP2 SWAP1 PUSH1 0x0 MSTORE PUSH1 0x20 PUSH1 0x0 KECCAK256 SWAP1 JUMPDEST DUP2 SLOAD DUP2 MSTORE SWAP1 PUSH1 0x1 ADD SWAP1 PUSH1 0x20 ADD DUP1 DUP4 GT PUSH2 0xA75 JUMPI DUP3 SWAP1 SUB PUSH1 0x1F AND DUP3 ADD SWAP2 JUMPDEST POP POP POP POP POP DUP2 JUMP JUMPDEST PUSH1 0x0 PUSH1 0x7 DUP3 DUP2 SLOAD DUP2 LT PUSH2 0xAB0 JUMPI PUSH2 0xAAF PUSH2 0x1D57 JUMP JUMPDEST JUMPDEST SWAP1 PUSH1 0x0 MSTORE PUSH1 0x20 PUSH1 0x0 KECCAK256 SWAP1 PUSH1 0x6 MUL ADD SWAP1 POP PUSH1 0x0 PUSH1 0x6 PUSH1 0x0 CALLER PUSH20 0xFFFFFFFFFFFFFFFFFFFFFFFFFFFFFFFFFFFFFFFF AND PUSH20 0xFFFFFFFFFFFFFFFFFFFFFFFFFFFFFFFFFFFFFFFF AND DUP2 MSTORE PUSH1 0x20 ADD SWAP1 DUP2 MSTORE PUSH1 0x20 ADD PUSH1 0x0 KECCAK256 SLOAD GT PUSH2 0xB0C JUMPI PUSH1 0x0 DUP1 REVERT JUMPDEST PUSH1 0x0 ISZERO ISZERO DUP2 PUSH1 0x3 ADD PUSH1 0x14 SWAP1 SLOAD SWAP1 PUSH2 0x100 EXP SWAP1 DIV PUSH1 0xFF AND ISZERO ISZERO EQ PUSH2 0xB2E JUMPI PUSH1 0x0 DUP1 REVERT JUMPDEST PUSH1 0x1 DUP2 PUSH1 0x3 ADD PUSH1 0x14 PUSH2 0x100 EXP DUP2 SLOAD DUP2 PUSH1 0xFF MUL NOT AND SWAP1 DUP4 ISZERO ISZERO MUL OR SWAP1 SSTORE POP PUSH2 0xC1F DUP2 PUSH1 0x5 ADD DUP1 SLOAD PUSH2 0xB5D SWAP1 PUSH2 0x1BB7 JUMP JUMPDEST DUP1 PUSH1 0x1F ADD PUSH1 0x20 DUP1 SWAP2 DIV MUL PUSH1 0x20 ADD PUSH1 0x40 MLOAD SWAP1 DUP2 ADD PUSH1 0x40 MSTORE DUP1 SWAP3 SWAP2 SWAP1 DUP2 DUP2 MSTORE PUSH1 0x20 ADD DUP3 DUP1 SLOAD PUSH2 0xB89 SWAP1 PUSH2 0x1BB7 JUMP JUMPDEST DUP1 ISZERO PUSH2 0xBD6 JUMPI DUP1 PUSH1 0x1F LT PUSH2 0xBAB JUMPI PUSH2 0x100 DUP1 DUP4 SLOAD DIV MUL DUP4 MSTORE SWAP2 PUSH1 0x20 ADD SWAP2 PUSH2 0xBD6 JUMP JUMPDEST DUP3 ADD SWAP2 SWAP1 PUSH1 0x0 MSTORE PUSH1 0x20 PUSH1 0x0 KECCAK256 SWAP1 JUMPDEST DUP2 SLOAD DUP2 MSTORE SWAP1 PUSH1 0x1 ADD SWAP1 PUSH1 0x20 ADD DUP1 DUP4 GT PUSH2 0xBB9 JUMPI DUP3 SWAP1 SUB PUSH1 0x1F AND DUP3 ADD SWAP2 JUMPDEST POP POP POP POP POP PUSH1 0x40 MLOAD DUP1 PUSH1 0x40 ADD PUSH1 0x40 MSTORE DUP1 PUSH1 0x1 DUP2 MSTORE PUSH1 0x20 ADD PUSH32 0x2D00000000000000000000000000000000000000000000000000000000000000 DUP2 MSTORE POP PUSH2 0xC1A CALLER PUSH2 0x692 JUMP JUMPDEST PUSH2 0x1343 JUMP JUMPDEST DUP2 PUSH1 0x5 ADD SWAP1 DUP1 MLOAD SWAP1 PUSH1 0x20 ADD SWAP1 PUSH2 0xC36 SWAP3 SWAP2 SWAP1 PUSH2 0x139E JUMP JUMPDEST POP POP POP JUMP JUMPDEST PUSH1 0x7 DUP2 DUP2 SLOAD DUP2 LT PUSH2 0xC4B JUMPI PUSH1 0x0 DUP1 REVERT JUMPDEST SWAP1 PUSH1 0x0 MSTORE PUSH1 0x20 PUSH1 0x0 KECCAK256 SWAP1 PUSH1 0x6 MUL ADD PUSH1 0x0 SWAP2 POP SWAP1 POP DUP1 PUSH1 0x0 ADD DUP1 SLOAD PUSH2 0xC6E SWAP1 PUSH2 0x1BB7 JUMP JUMPDEST DUP1 PUSH1 0x1F ADD PUSH1 0x20 DUP1 SWAP2 DIV MUL PUSH1 0x20 ADD PUSH1 0x40 MLOAD SWAP1 DUP2 ADD PUSH1 0x40 MSTORE DUP1 SWAP3 SWAP2 SWAP1 DUP2 DUP2 MSTORE PUSH1 0x20 ADD DUP3 DUP1 SLOAD PUSH2 0xC9A SWAP1 PUSH2 0x1BB7 JUMP JUMPDEST DUP1 ISZERO PUSH2 0xCE7 JUMPI DUP1 PUSH1 0x1F LT PUSH2 0xCBC JUMPI PUSH2 0x100 DUP1 DUP4 SLOAD DIV MUL DUP4 MSTORE SWAP2 PUSH1 0x20 ADD SWAP2 PUSH2 0xCE7 JUMP JUMPDEST DUP3 ADD SWAP2 SWAP1 PUSH1 0x0 MSTORE PUSH1 0x20 PUSH1 0x0 KECCAK256 SWAP1 JUMPDEST DUP2 SLOAD DUP2 MSTORE SWAP1 PUSH1 0x1 ADD SWAP1 PUSH1 0x20 ADD DUP1 DUP4 GT PUSH2 0xCCA JUMPI DUP3 SWAP1 SUB PUSH1 0x1F AND DUP3 ADD SWAP2 JUMPDEST POP POP POP POP POP SWAP1 DUP1 PUSH1 0x1 ADD SLOAD SWAP1 DUP1 PUSH1 0x2 ADD SLOAD SWAP1 DUP1 PUSH1 0x3 ADD PUSH1 0x0 SWAP1 SLOAD SWAP1 PUSH2 0x100 EXP SWAP1 DIV PUSH20 0xFFFFFFFFFFFFFFFFFFFFFFFFFFFFFFFFFFFFFFFF AND SWAP1 DUP1 PUSH1 0x3 ADD PUSH1 0x14 SWAP1 SLOAD SWAP1 PUSH2 0x100 EXP SWAP1 DIV PUSH1 0xFF AND SWAP1 DUP1 PUSH1 0x4 ADD DUP1 SLOAD PUSH2 0xD41 SWAP1 PUSH2 0x1BB7 JUMP JUMPDEST DUP1 PUSH1 0x1F ADD PUSH1 0x20 DUP1 SWAP2 DIV MUL PUSH1 0x20 ADD PUSH1 0x40 MLOAD SWAP1 DUP2 ADD PUSH1 0x40 MSTORE DUP1 SWAP3 SWAP2 SWAP1 DUP2 DUP2 MSTORE PUSH1 0x20 ADD DUP3 DUP1 SLOAD PUSH2 0xD6D SWAP1 PUSH2 0x1BB7 JUMP JUMPDEST DUP1 ISZERO PUSH2 0xDBA JUMPI DUP1 PUSH1 0x1F LT PUSH2 0xD8F JUMPI PUSH2 0x100 DUP1 DUP4 SLOAD DIV MUL DUP4 MSTORE SWAP2 PUSH1 0x20 ADD SWAP2 PUSH2 0xDBA JUMP JUMPDEST DUP3 ADD SWAP2 SWAP1 PUSH1 0x0 MSTORE PUSH1 0x20 PUSH1 0x0 KECCAK256 SWAP1 JUMPDEST DUP2 SLOAD DUP2 MSTORE SWAP1 PUSH1 0x1 ADD SWAP1 PUSH1 0x20 ADD DUP1 DUP4 GT PUSH2 0xD9D JUMPI DUP3 SWAP1 SUB PUSH1 0x1F AND DUP3 ADD SWAP2 JUMPDEST POP POP POP POP POP SWAP1 DUP1 PUSH1 0x5 ADD DUP1 SLOAD PUSH2 0xDCF SWAP1 PUSH2 0x1BB7 JUMP JUMPDEST DUP1 PUSH1 0x1F ADD PUSH1 0x20 DUP1 SWAP2 DIV MUL PUSH1 0x20 ADD PUSH1 0x40 MLOAD SWAP1 DUP2 ADD PUSH1 0x40 MSTORE DUP1 SWAP3 SWAP2 SWAP1 DUP2 DUP2 MSTORE PUSH1 0x20 ADD DUP3 DUP1 SLOAD PUSH2 0xDFB SWAP1 PUSH2 0x1BB7 JUMP JUMPDEST DUP1 ISZERO PUSH2 0xE48 JUMPI DUP1 PUSH1 0x1F LT PUSH2 0xE1D JUMPI PUSH2 0x100 DUP1 DUP4 SLOAD DIV MUL DUP4 MSTORE SWAP2 PUSH1 0x20 ADD SWAP2 PUSH2 0xE48 JUMP JUMPDEST DUP3 ADD SWAP2 SWAP1 PUSH1 0x0 MSTORE PUSH1 0x20 PUSH1 0x0 KECCAK256 SWAP1 JUMPDEST DUP2 SLOAD DUP2 MSTORE SWAP1 PUSH1 0x1 ADD SWAP1 PUSH1 0x20 ADD DUP1 DUP4 GT PUSH2 0xE2B JUMPI DUP3 SWAP1 SUB PUSH1 0x1F AND DUP3 ADD SWAP2 JUMPDEST POP POP POP POP POP SWAP1 POP DUP8 JUMP JUMPDEST PUSH1 0x0 DUP1 SLOAD SWAP1 PUSH2 0x100 EXP SWAP1 DIV PUSH20 0xFFFFFFFFFFFFFFFFFFFFFFFFFFFFFFFFFFFFFFFF AND DUP2 JUMP JUMPDEST PUSH1 0x60 PUSH2 0xEA0 DUP3 PUSH1 0x40 MLOAD PUSH1 0x20 ADD PUSH2 0xE8C SWAP2 SWAP1 PUSH2 0x17BA JUMP JUMPDEST PUSH1 0x40 MLOAD PUSH1 0x20 DUP2 DUP4 SUB SUB DUP2 MSTORE SWAP1 PUSH1 0x40 MSTORE PUSH2 0x712 JUMP JUMPDEST SWAP1 POP SWAP2 SWAP1 POP JUMP JUMPDEST PUSH1 0x0 DUP1 SLOAD SWAP1 PUSH2 0x100 EXP SWAP1 DIV PUSH20 0xFFFFFFFFFFFFFFFFFFFFFFFFFFFFFFFFFFFFFFFF AND PUSH20 0xFFFFFFFFFFFFFFFFFFFFFFFFFFFFFFFFFFFFFFFF AND CALLER PUSH20 0xFFFFFFFFFFFFFFFFFFFFFFFFFFFFFFFFFFFFFFFF AND EQ PUSH2 0xEFF JUMPI PUSH1 0x0 DUP1 REVERT JUMPDEST PUSH1 0x0 PUSH1 0x7 DUP3 DUP2 SLOAD DUP2 LT PUSH2 0xF15 JUMPI PUSH2 0xF14 PUSH2 0x1D57 JUMP JUMPDEST JUMPDEST SWAP1 PUSH1 0x0 MSTORE PUSH1 0x20 PUSH1 0x0 KECCAK256 SWAP1 PUSH1 0x6 MUL ADD SWAP1 POP DUP1 PUSH1 0x3 ADD PUSH1 0x14 SWAP1 SLOAD SWAP1 PUSH2 0x100 EXP SWAP1 DIV PUSH1 0xFF AND PUSH2 0xF40 JUMPI PUSH1 0x0 DUP1 REVERT JUMPDEST DUP1 PUSH1 0x1 ADD SLOAD SELFBALANCE LT ISZERO PUSH2 0xF51 JUMPI PUSH1 0x0 DUP1 REVERT JUMPDEST PUSH1 0x2 PUSH1 0x5 SLOAD PUSH2 0xF60 SWAP2 SWAP1 PUSH2 0x1A86 JUMP JUMPDEST DUP2 PUSH1 0x2 ADD SLOAD GT PUSH2 0xF6F JUMPI PUSH1 0x0 DUP1 REVERT JUMPDEST DUP1 PUSH1 0x3 ADD PUSH1 0x0 SWAP1 SLOAD SWAP1 PUSH2 0x100 EXP SWAP1 DIV PUSH20 0xFFFFFFFFFFFFFFFFFFFFFFFFFFFFFFFFFFFFFFFF AND PUSH20 0xFFFFFFFFFFFFFFFFFFFFFFFFFFFFFFFFFFFFFFFF AND PUSH2 0x8FC DUP3 PUSH1 0x1 ADD SLOAD SWAP1 DUP2 ISZERO MUL SWAP1 PUSH1 0x40 MLOAD PUSH1 0x0 PUSH1 0x40 MLOAD DUP1 DUP4 SUB DUP2 DUP6 DUP9 DUP9 CALL SWAP4 POP POP POP POP ISZERO DUP1 ISZERO PUSH2 0xFDD JUMPI RETURNDATASIZE PUSH1 0x0 DUP1 RETURNDATACOPY RETURNDATASIZE PUSH1 0x0 REVERT JUMPDEST POP PUSH1 0x1 DUP2 PUSH1 0x3 ADD PUSH1 0x14 PUSH2 0x100 EXP DUP2 SLOAD DUP2 PUSH1 0xFF MUL NOT AND SWAP1 DUP4 ISZERO ISZERO MUL OR SWAP1 SSTORE POP POP POP JUMP JUMPDEST PUSH1 0x2 SLOAD CALLVALUE LT ISZERO PUSH2 0x100E JUMPI PUSH1 0x0 DUP1 REVERT JUMPDEST PUSH1 0x3 SLOAD CALLVALUE GT ISZERO PUSH2 0x101D JUMPI PUSH1 0x0 DUP1 REVERT JUMPDEST PUSH1 0x0 PUSH2 0x1032 CALLVALUE SELFBALANCE PUSH2 0x1372 SWAP1 SWAP2 SWAP1 PUSH4 0xFFFFFFFF AND JUMP JUMPDEST SWAP1 POP PUSH1 0x4 SLOAD DUP2 GT ISZERO PUSH2 0x1043 JUMPI PUSH1 0x0 DUP1 REVERT JUMPDEST PUSH1 0x0 PUSH1 0x6 PUSH1 0x0 CALLER PUSH20 0xFFFFFFFFFFFFFFFFFFFFFFFFFFFFFFFFFFFFFFFF AND PUSH20 0xFFFFFFFFFFFFFFFFFFFFFFFFFFFFFFFFFFFFFFFF AND DUP2 MSTORE PUSH1 0x20 ADD SWAP1 DUP2 MSTORE PUSH1 0x20 ADD PUSH1 0x0 KECCAK256 SLOAD GT ISZERO PUSH2 0x111E JUMPI CALLVALUE PUSH1 0x6 PUSH1 0x0 CALLER PUSH20 0xFFFFFFFFFFFFFFFFFFFFFFFFFFFFFFFFFFFFFFFF AND PUSH20 0xFFFFFFFFFFFFFFFFFFFFFFFFFFFFFFFFFFFFFFFF AND DUP2 MSTORE PUSH1 0x20 ADD SWAP1 DUP2 MSTORE PUSH1 0x20 ADD PUSH1 0x0 KECCAK256 SLOAD PUSH2 0x10D6 SWAP2 SWAP1 PUSH2 0x1A30 JUMP JUMPDEST PUSH1 0x6 PUSH1 0x0 CALLER PUSH20 0xFFFFFFFFFFFFFFFFFFFFFFFFFFFFFFFFFFFFFFFF AND PUSH20 0xFFFFFFFFFFFFFFFFFFFFFFFFFFFFFFFFFFFFFFFF AND DUP2 MSTORE PUSH1 0x20 ADD SWAP1 DUP2 MSTORE PUSH1 0x20 ADD PUSH1 0x0 KECCAK256 DUP2 SWAP1 SSTORE POP PUSH2 0x117D JUMP JUMPDEST CALLVALUE PUSH1 0x6 PUSH1 0x0 CALLER PUSH20 0xFFFFFFFFFFFFFFFFFFFFFFFFFFFFFFFFFFFFFFFF AND PUSH20 0xFFFFFFFFFFFFFFFFFFFFFFFFFFFFFFFFFFFFFFFF AND DUP2 MSTORE PUSH1 0x20 ADD SWAP1 DUP2 MSTORE PUSH1 0x20 ADD PUSH1 0x0 KECCAK256 DUP2 SWAP1 SSTORE POP PUSH1 0x1 PUSH1 0x5 PUSH1 0x0 DUP3 DUP3 SLOAD PUSH2 0x1175 SWAP2 SWAP1 PUSH2 0x1A30 JUMP JUMPDEST SWAP3 POP POP DUP2 SWAP1 SSTORE POP JUMPDEST POP JUMP JUMPDEST PUSH1 0x5 SLOAD DUP2 JUMP JUMPDEST PUSH1 0x0 PUSH1 0x7 DUP3 DUP2 SLOAD DUP2 LT PUSH2 0x119C JUMPI PUSH2 0x119B PUSH2 0x1D57 JUMP JUMPDEST JUMPDEST SWAP1 PUSH1 0x0 MSTORE PUSH1 0x20 PUSH1 0x0 KECCAK256 SWAP1 PUSH1 0x6 MUL ADD SWAP1 POP PUSH1 0x0 PUSH1 0x6 PUSH1 0x0 CALLER PUSH20 0xFFFFFFFFFFFFFFFFFFFFFFFFFFFFFFFFFFFFFFFF AND PUSH20 0xFFFFFFFFFFFFFFFFFFFFFFFFFFFFFFFFFFFFFFFF AND DUP2 MSTORE PUSH1 0x20 ADD SWAP1 DUP2 MSTORE PUSH1 0x20 ADD PUSH1 0x0 KECCAK256 SLOAD GT PUSH2 0x11F8 JUMPI PUSH1 0x0 DUP1 REVERT JUMPDEST PUSH1 0x0 ISZERO ISZERO DUP2 PUSH1 0x3 ADD PUSH1 0x14 SWAP1 SLOAD SWAP1 PUSH2 0x100 EXP SWAP1 DIV PUSH1 0xFF AND ISZERO ISZERO EQ PUSH2 0x121A JUMPI PUSH1 0x0 DUP1 REVERT JUMPDEST PUSH1 0x1 DUP2 PUSH1 0x3 ADD PUSH1 0x14 PUSH2 0x100 EXP DUP2 SLOAD DUP2 PUSH1 0xFF MUL NOT AND SWAP1 DUP4 ISZERO ISZERO MUL OR SWAP1 SSTORE POP PUSH1 0x1 DUP2 PUSH1 0x2 ADD PUSH1 0x0 DUP3 DUP3 SLOAD PUSH2 0x124C SWAP2 SWAP1 PUSH2 0x1A30 JUMP JUMPDEST SWAP3 POP POP DUP2 SWAP1 SSTORE POP PUSH2 0x1327 DUP2 PUSH1 0x4 ADD DUP1 SLOAD PUSH2 0x1265 SWAP1 PUSH2 0x1BB7 JUMP JUMPDEST DUP1 PUSH1 0x1F ADD PUSH1 0x20 DUP1 SWAP2 DIV MUL PUSH1 0x20 ADD PUSH1 0x40 MLOAD SWAP1 DUP2 ADD PUSH1 0x40 MSTORE DUP1 SWAP3 SWAP2 SWAP1 DUP2 DUP2 MSTORE PUSH1 0x20 ADD DUP3 DUP1 SLOAD PUSH2 0x1291 SWAP1 PUSH2 0x1BB7 JUMP JUMPDEST DUP1 ISZERO PUSH2 0x12DE JUMPI DUP1 PUSH1 0x1F LT PUSH2 0x12B3 JUMPI PUSH2 0x100 DUP1 DUP4 SLOAD DIV MUL DUP4 MSTORE SWAP2 PUSH1 0x20 ADD SWAP2 PUSH2 0x12DE JUMP JUMPDEST DUP3 ADD SWAP2 SWAP1 PUSH1 0x0 MSTORE PUSH1 0x20 PUSH1 0x0 KECCAK256 SWAP1 JUMPDEST DUP2 SLOAD DUP2 MSTORE SWAP1 PUSH1 0x1 ADD SWAP1 PUSH1 0x20 ADD DUP1 DUP4 GT PUSH2 0x12C1 JUMPI DUP3 SWAP1 SUB PUSH1 0x1F AND DUP3 ADD SWAP2 JUMPDEST POP POP POP POP POP PUSH1 0x40 MLOAD DUP1 PUSH1 0x40 ADD PUSH1 0x40 MSTORE DUP1 PUSH1 0x1 DUP2 MSTORE PUSH1 0x20 ADD PUSH32 0x2D00000000000000000000000000000000000000000000000000000000000000 DUP2 MSTORE POP PUSH2 0x1322 CALLER PUSH2 0x692 JUMP JUMPDEST PUSH2 0x1343 JUMP JUMPDEST DUP2 PUSH1 0x4 ADD SWAP1 DUP1 MLOAD SWAP1 PUSH1 0x20 ADD SWAP1 PUSH2 0x133E SWAP3 SWAP2 SWAP1 PUSH2 0x139E JUMP JUMPDEST POP POP POP JUMP JUMPDEST PUSH1 0x60 DUP4 DUP4 DUP4 PUSH1 0x40 MLOAD PUSH1 0x20 ADD PUSH2 0x135A SWAP4 SWAP3 SWAP2 SWAP1 PUSH2 0x17D5 JUMP JUMPDEST PUSH1 0x40 MLOAD PUSH1 0x20 DUP2 DUP4 SUB SUB DUP2 MSTORE SWAP1 PUSH1 0x40 MSTORE SWAP1 POP SWAP4 SWAP3 POP POP POP JUMP JUMPDEST PUSH1 0x0 DUP1 DUP3 DUP5 PUSH2 0x1381 SWAP2 SWAP1 PUSH2 0x1A30 JUMP JUMPDEST SWAP1 POP DUP4 DUP2 LT ISZERO PUSH2 0x1394 JUMPI PUSH2 0x1393 PUSH2 0x1C9B JUMP JUMPDEST JUMPDEST DUP1 SWAP2 POP POP SWAP3 SWAP2 POP POP JUMP JUMPDEST DUP3 DUP1 SLOAD PUSH2 0x13AA SWAP1 PUSH2 0x1BB7 JUMP JUMPDEST SWAP1 PUSH1 0x0 MSTORE PUSH1 0x20 PUSH1 0x0 KECCAK256 SWAP1 PUSH1 0x1F ADD PUSH1 0x20 SWAP1 DIV DUP2 ADD SWAP3 DUP3 PUSH2 0x13CC JUMPI PUSH1 0x0 DUP6 SSTORE PUSH2 0x1413 JUMP JUMPDEST DUP3 PUSH1 0x1F LT PUSH2 0x13E5 JUMPI DUP1 MLOAD PUSH1 0xFF NOT AND DUP4 DUP1 ADD OR DUP6 SSTORE PUSH2 0x1413 JUMP JUMPDEST DUP3 DUP1 ADD PUSH1 0x1 ADD DUP6 SSTORE DUP3 ISZERO PUSH2 0x1413 JUMPI SWAP2 DUP3 ADD JUMPDEST DUP3 DUP2 GT ISZERO PUSH2 0x1412 JUMPI DUP3 MLOAD DUP3 SSTORE SWAP2 PUSH1 0x20 ADD SWAP2 SWAP1 PUSH1 0x1 ADD SWAP1 PUSH2 0x13F7 JUMP JUMPDEST JUMPDEST POP SWAP1 POP PUSH2 0x1420 SWAP2 SWAP1 PUSH2 0x1424 JUMP JUMPDEST POP SWAP1 JUMP JUMPDEST JUMPDEST DUP1 DUP3 GT ISZERO PUSH2 0x143D JUMPI PUSH1 0x0 DUP2 PUSH1 0x0 SWAP1 SSTORE POP PUSH1 0x1 ADD PUSH2 0x1425 JUMP JUMPDEST POP SWAP1 JUMP JUMPDEST PUSH1 0x0 PUSH2 0x1454 PUSH2 0x144F DUP5 PUSH2 0x19A7 JUMP JUMPDEST PUSH2 0x1982 JUMP JUMPDEST SWAP1 POP DUP3 DUP2 MSTORE PUSH1 0x20 DUP2 ADD DUP5 DUP5 DUP5 ADD GT ISZERO PUSH2 0x1470 JUMPI PUSH2 0x146F PUSH2 0x1DBA JUMP JUMPDEST JUMPDEST PUSH2 0x147B DUP5 DUP3 DUP6 PUSH2 0x1B75 JUMP JUMPDEST POP SWAP4 SWAP3 POP POP POP JUMP JUMPDEST PUSH1 0x0 PUSH2 0x1496 PUSH2 0x1491 DUP5 PUSH2 0x19D8 JUMP JUMPDEST PUSH2 0x1982 JUMP JUMPDEST SWAP1 POP DUP3 DUP2 MSTORE PUSH1 0x20 DUP2 ADD DUP5 DUP5 DUP5 ADD GT ISZERO PUSH2 0x14B2 JUMPI PUSH2 0x14B1 PUSH2 0x1DBA JUMP JUMPDEST JUMPDEST PUSH2 0x14BD DUP5 DUP3 DUP6 PUSH2 0x1B75 JUMP JUMPDEST POP SWAP4 SWAP3 POP POP POP JUMP JUMPDEST PUSH1 0x0 DUP2 CALLDATALOAD SWAP1 POP PUSH2 0x14D4 DUP2 PUSH2 0x1DE7 JUMP JUMPDEST SWAP3 SWAP2 POP POP JUMP JUMPDEST PUSH1 0x0 DUP2 CALLDATALOAD SWAP1 POP PUSH2 0x14E9 DUP2 PUSH2 0x1DFE JUMP JUMPDEST SWAP3 SWAP2 POP POP JUMP JUMPDEST PUSH1 0x0 DUP2 CALLDATALOAD SWAP1 POP PUSH2 0x14FE DUP2 PUSH2 0x1E15 JUMP JUMPDEST SWAP3 SWAP2 POP POP JUMP JUMPDEST PUSH1 0x0 DUP3 PUSH1 0x1F DUP4 ADD SLT PUSH2 0x1519 JUMPI PUSH2 0x1518 PUSH2 0x1DB5 JUMP JUMPDEST JUMPDEST DUP2 CALLDATALOAD PUSH2 0x1529 DUP5 DUP3 PUSH1 0x20 DUP7 ADD PUSH2 0x1441 JUMP JUMPDEST SWAP2 POP POP SWAP3 SWAP2 POP POP JUMP JUMPDEST PUSH1 0x0 DUP3 PUSH1 0x1F DUP4 ADD SLT PUSH2 0x1547 JUMPI PUSH2 0x1546 PUSH2 0x1DB5 JUMP JUMPDEST JUMPDEST DUP2 CALLDATALOAD PUSH2 0x1557 DUP5 DUP3 PUSH1 0x20 DUP7 ADD PUSH2 0x1483 JUMP JUMPDEST SWAP2 POP POP SWAP3 SWAP2 POP POP JUMP JUMPDEST PUSH1 0x0 DUP2 CALLDATALOAD SWAP1 POP PUSH2 0x156F DUP2 PUSH2 0x1E2C JUMP JUMPDEST SWAP3 SWAP2 POP POP JUMP JUMPDEST PUSH1 0x0 PUSH1 0x20 DUP3 DUP5 SUB SLT ISZERO PUSH2 0x158B JUMPI PUSH2 0x158A PUSH2 0x1DC4 JUMP JUMPDEST JUMPDEST PUSH1 0x0 PUSH2 0x1599 DUP5 DUP3 DUP6 ADD PUSH2 0x14C5 JUMP JUMPDEST SWAP2 POP POP SWAP3 SWAP2 POP POP JUMP JUMPDEST PUSH1 0x0 PUSH1 0x20 DUP3 DUP5 SUB SLT ISZERO PUSH2 0x15B8 JUMPI PUSH2 0x15B7 PUSH2 0x1DC4 JUMP JUMPDEST JUMPDEST PUSH1 0x0 PUSH2 0x15C6 DUP5 DUP3 DUP6 ADD PUSH2 0x14EF JUMP JUMPDEST SWAP2 POP POP SWAP3 SWAP2 POP POP JUMP JUMPDEST PUSH1 0x0 PUSH1 0x20 DUP3 DUP5 SUB SLT ISZERO PUSH2 0x15E5 JUMPI PUSH2 0x15E4 PUSH2 0x1DC4 JUMP JUMPDEST JUMPDEST PUSH1 0x0 DUP3 ADD CALLDATALOAD PUSH8 0xFFFFFFFFFFFFFFFF DUP2 GT ISZERO PUSH2 0x1603 JUMPI PUSH2 0x1602 PUSH2 0x1DBF JUMP JUMPDEST JUMPDEST PUSH2 0x160F DUP5 DUP3 DUP6 ADD PUSH2 0x1504 JUMP JUMPDEST SWAP2 POP POP SWAP3 SWAP2 POP POP JUMP JUMPDEST PUSH1 0x0 DUP1 PUSH1 0x0 PUSH1 0x60 DUP5 DUP7 SUB SLT ISZERO PUSH2 0x1631 JUMPI PUSH2 0x1630 PUSH2 0x1DC4 JUMP JUMPDEST JUMPDEST PUSH1 0x0 DUP5 ADD CALLDATALOAD PUSH8 0xFFFFFFFFFFFFFFFF DUP2 GT ISZERO PUSH2 0x164F JUMPI PUSH2 0x164E PUSH2 0x1DBF JUMP JUMPDEST JUMPDEST PUSH2 0x165B DUP7 DUP3 DUP8 ADD PUSH2 0x1532 JUMP JUMPDEST SWAP4 POP POP PUSH1 0x20 PUSH2 0x166C DUP7 DUP3 DUP8 ADD PUSH2 0x1560 JUMP JUMPDEST SWAP3 POP POP PUSH1 0x40 PUSH2 0x167D DUP7 DUP3 DUP8 ADD PUSH2 0x14DA JUMP JUMPDEST SWAP2 POP POP SWAP3 POP SWAP3 POP SWAP3 JUMP JUMPDEST PUSH1 0x0 PUSH1 0x20 DUP3 DUP5 SUB SLT ISZERO PUSH2 0x169D JUMPI PUSH2 0x169C PUSH2 0x1DC4 JUMP JUMPDEST JUMPDEST PUSH1 0x0 PUSH2 0x16AB DUP5 DUP3 DUP6 ADD PUSH2 0x1560 JUMP JUMPDEST SWAP2 POP POP SWAP3 SWAP2 POP POP JUMP JUMPDEST PUSH2 0x16BD DUP2 PUSH2 0x1B23 JUMP JUMPDEST DUP3 MSTORE POP POP JUMP JUMPDEST PUSH2 0x16CC DUP2 PUSH2 0x1B11 JUMP JUMPDEST DUP3 MSTORE POP POP JUMP JUMPDEST PUSH2 0x16E3 PUSH2 0x16DE DUP3 PUSH2 0x1B11 JUMP JUMPDEST PUSH2 0x1C63 JUMP JUMPDEST DUP3 MSTORE POP POP JUMP JUMPDEST PUSH2 0x16F2 DUP2 PUSH2 0x1B35 JUMP JUMPDEST DUP3 MSTORE POP POP JUMP JUMPDEST PUSH2 0x1709 PUSH2 0x1704 DUP3 PUSH2 0x1B41 JUMP JUMPDEST PUSH2 0x1C75 JUMP JUMPDEST DUP3 MSTORE POP POP JUMP JUMPDEST PUSH1 0x0 PUSH2 0x171A DUP3 PUSH2 0x1A09 JUMP JUMPDEST PUSH2 0x1724 DUP2 DUP6 PUSH2 0x1A14 JUMP JUMPDEST SWAP4 POP PUSH2 0x1734 DUP2 DUP6 PUSH1 0x20 DUP7 ADD PUSH2 0x1B84 JUMP JUMPDEST PUSH2 0x173D DUP2 PUSH2 0x1DC9 JUMP JUMPDEST DUP5 ADD SWAP2 POP POP SWAP3 SWAP2 POP POP JUMP JUMPDEST PUSH1 0x0 PUSH2 0x1753 DUP3 PUSH2 0x1A09 JUMP JUMPDEST PUSH2 0x175D DUP2 DUP6 PUSH2 0x1A25 JUMP JUMPDEST SWAP4 POP PUSH2 0x176D DUP2 DUP6 PUSH1 0x20 DUP7 ADD PUSH2 0x1B84 JUMP JUMPDEST DUP1 DUP5 ADD SWAP2 POP POP SWAP3 SWAP2 POP POP JUMP JUMPDEST PUSH2 0x1782 DUP2 PUSH2 0x1B6B JUMP JUMPDEST DUP3 MSTORE POP POP JUMP JUMPDEST PUSH2 0x1799 PUSH2 0x1794 DUP3 PUSH2 0x1B6B JUMP JUMPDEST PUSH2 0x1C91 JUMP JUMPDEST DUP3 MSTORE POP POP JUMP JUMPDEST PUSH1 0x0 PUSH2 0x17AB DUP3 DUP5 PUSH2 0x16D2 JUMP JUMPDEST PUSH1 0x14 DUP3 ADD SWAP2 POP DUP2 SWAP1 POP SWAP3 SWAP2 POP POP JUMP JUMPDEST PUSH1 0x0 PUSH2 0x17C6 DUP3 DUP5 PUSH2 0x16F8 JUMP JUMPDEST PUSH1 0x20 DUP3 ADD SWAP2 POP DUP2 SWAP1 POP SWAP3 SWAP2 POP POP JUMP JUMPDEST PUSH1 0x0 PUSH2 0x17E1 DUP3 DUP7 PUSH2 0x1748 JUMP JUMPDEST SWAP2 POP PUSH2 0x17ED DUP3 DUP6 PUSH2 0x1748 JUMP JUMPDEST SWAP2 POP PUSH2 0x17F9 DUP3 DUP5 PUSH2 0x1748 JUMP JUMPDEST SWAP2 POP DUP2 SWAP1 POP SWAP5 SWAP4 POP POP POP POP JUMP JUMPDEST PUSH1 0x0 PUSH2 0x1812 DUP3 DUP5 PUSH2 0x1788 JUMP JUMPDEST PUSH1 0x20 DUP3 ADD SWAP2 POP DUP2 SWAP1 POP SWAP3 SWAP2 POP POP JUMP JUMPDEST PUSH1 0x0 PUSH1 0x20 DUP3 ADD SWAP1 POP PUSH2 0x1836 PUSH1 0x0 DUP4 ADD DUP5 PUSH2 0x16C3 JUMP JUMPDEST SWAP3 SWAP2 POP POP JUMP JUMPDEST PUSH1 0x0 PUSH1 0x20 DUP3 ADD SWAP1 POP DUP2 DUP2 SUB PUSH1 0x0 DUP4 ADD MSTORE PUSH2 0x1856 DUP2 DUP5 PUSH2 0x170F JUMP JUMPDEST SWAP1 POP SWAP3 SWAP2 POP POP JUMP JUMPDEST PUSH1 0x0 PUSH1 0xE0 DUP3 ADD SWAP1 POP DUP2 DUP2 SUB PUSH1 0x0 DUP4 ADD MSTORE PUSH2 0x1878 DUP2 DUP11 PUSH2 0x170F JUMP JUMPDEST SWAP1 POP PUSH2 0x1887 PUSH1 0x20 DUP4 ADD DUP10 PUSH2 0x1779 JUMP JUMPDEST PUSH2 0x1894 PUSH1 0x40 DUP4 ADD DUP9 PUSH2 0x1779 JUMP JUMPDEST PUSH2 0x18A1 PUSH1 0x60 DUP4 ADD DUP8 PUSH2 0x16B4 JUMP JUMPDEST PUSH2 0x18AE PUSH1 0x80 DUP4 ADD DUP7 PUSH2 0x16E9 JUMP JUMPDEST DUP2 DUP2 SUB PUSH1 0xA0 DUP4 ADD MSTORE PUSH2 0x18C0 DUP2 DUP6 PUSH2 0x170F JUMP JUMPDEST SWAP1 POP DUP2 DUP2 SUB PUSH1 0xC0 DUP4 ADD MSTORE PUSH2 0x18D4 DUP2 DUP5 PUSH2 0x170F JUMP JUMPDEST SWAP1 POP SWAP9 SWAP8 POP POP POP POP POP POP POP POP JUMP JUMPDEST PUSH1 0x0 PUSH2 0x100 DUP3 ADD SWAP1 POP DUP2 DUP2 SUB PUSH1 0x0 DUP4 ADD MSTORE PUSH2 0x18FD DUP2 DUP12 PUSH2 0x170F JUMP JUMPDEST SWAP1 POP PUSH2 0x190C PUSH1 0x20 DUP4 ADD DUP11 PUSH2 0x1779 JUMP JUMPDEST PUSH2 0x1919 PUSH1 0x40 DUP4 ADD DUP10 PUSH2 0x1779 JUMP JUMPDEST PUSH2 0x1926 PUSH1 0x60 DUP4 ADD DUP9 PUSH2 0x1779 JUMP JUMPDEST PUSH2 0x1933 PUSH1 0x80 DUP4 ADD DUP8 PUSH2 0x1779 JUMP JUMPDEST PUSH2 0x1940 PUSH1 0xA0 DUP4 ADD DUP7 PUSH2 0x1779 JUMP JUMPDEST PUSH2 0x194D PUSH1 0xC0 DUP4 ADD DUP6 PUSH2 0x1779 JUMP JUMPDEST PUSH2 0x195A PUSH1 0xE0 DUP4 ADD DUP5 PUSH2 0x16C3 JUMP JUMPDEST SWAP10 SWAP9 POP POP POP POP POP POP POP POP POP JUMP JUMPDEST PUSH1 0x0 PUSH1 0x20 DUP3 ADD SWAP1 POP PUSH2 0x197C PUSH1 0x0 DUP4 ADD DUP5 PUSH2 0x1779 JUMP JUMPDEST SWAP3 SWAP2 POP POP JUMP JUMPDEST PUSH1 0x0 PUSH2 0x198C PUSH2 0x199D JUMP JUMPDEST SWAP1 POP PUSH2 0x1998 DUP3 DUP3 PUSH2 0x1BE9 JUMP JUMPDEST SWAP2 SWAP1 POP JUMP JUMPDEST PUSH1 0x0 PUSH1 0x40 MLOAD SWAP1 POP SWAP1 JUMP JUMPDEST PUSH1 0x0 PUSH8 0xFFFFFFFFFFFFFFFF DUP3 GT ISZERO PUSH2 0x19C2 JUMPI PUSH2 0x19C1 PUSH2 0x1D86 JUMP JUMPDEST JUMPDEST PUSH2 0x19CB DUP3 PUSH2 0x1DC9 JUMP JUMPDEST SWAP1 POP PUSH1 0x20 DUP2 ADD SWAP1 POP SWAP2 SWAP1 POP JUMP JUMPDEST PUSH1 0x0 PUSH8 0xFFFFFFFFFFFFFFFF DUP3 GT ISZERO PUSH2 0x19F3 JUMPI PUSH2 0x19F2 PUSH2 0x1D86 JUMP JUMPDEST JUMPDEST PUSH2 0x19FC DUP3 PUSH2 0x1DC9 JUMP JUMPDEST SWAP1 POP PUSH1 0x20 DUP2 ADD SWAP1 POP SWAP2 SWAP1 POP JUMP JUMPDEST PUSH1 0x0 DUP2 MLOAD SWAP1 POP SWAP2 SWAP1 POP JUMP JUMPDEST PUSH1 0x0 DUP3 DUP3 MSTORE PUSH1 0x20 DUP3 ADD SWAP1 POP SWAP3 SWAP2 POP POP JUMP JUMPDEST PUSH1 0x0 DUP2 SWAP1 POP SWAP3 SWAP2 POP POP JUMP JUMPDEST PUSH1 0x0 PUSH2 0x1A3B DUP3 PUSH2 0x1B6B JUMP JUMPDEST SWAP2 POP PUSH2 0x1A46 DUP4 PUSH2 0x1B6B JUMP JUMPDEST SWAP3 POP DUP3 PUSH32 0xFFFFFFFFFFFFFFFFFFFFFFFFFFFFFFFFFFFFFFFFFFFFFFFFFFFFFFFFFFFFFFFF SUB DUP3 GT ISZERO PUSH2 0x1A7B JUMPI PUSH2 0x1A7A PUSH2 0x1CCA JUMP JUMPDEST JUMPDEST DUP3 DUP3 ADD SWAP1 POP SWAP3 SWAP2 POP POP JUMP JUMPDEST PUSH1 0x0 PUSH2 0x1A91 DUP3 PUSH2 0x1B6B JUMP JUMPDEST SWAP2 POP PUSH2 0x1A9C DUP4 PUSH2 0x1B6B JUMP JUMPDEST SWAP3 POP DUP3 PUSH2 0x1AAC JUMPI PUSH2 0x1AAB PUSH2 0x1CF9 JUMP JUMPDEST JUMPDEST DUP3 DUP3 DIV SWAP1 POP SWAP3 SWAP2 POP POP JUMP JUMPDEST PUSH1 0x0 PUSH2 0x1AC2 DUP3 PUSH2 0x1B6B JUMP JUMPDEST SWAP2 POP PUSH2 0x1ACD DUP4 PUSH2 0x1B6B JUMP JUMPDEST SWAP3 POP DUP2 PUSH32 0xFFFFFFFFFFFFFFFFFFFFFFFFFFFFFFFFFFFFFFFFFFFFFFFFFFFFFFFFFFFFFFFF DIV DUP4 GT DUP3 ISZERO ISZERO AND ISZERO PUSH2 0x1B06 JUMPI PUSH2 0x1B05 PUSH2 0x1CCA JUMP JUMPDEST JUMPDEST DUP3 DUP3 MUL SWAP1 POP SWAP3 SWAP2 POP POP JUMP JUMPDEST PUSH1 0x0 PUSH2 0x1B1C DUP3 PUSH2 0x1B4B JUMP JUMPDEST SWAP1 POP SWAP2 SWAP1 POP JUMP JUMPDEST PUSH1 0x0 PUSH2 0x1B2E DUP3 PUSH2 0x1B4B JUMP JUMPDEST SWAP1 POP SWAP2 SWAP1 POP JUMP JUMPDEST PUSH1 0x0 DUP2 ISZERO ISZERO SWAP1 POP SWAP2 SWAP1 POP JUMP JUMPDEST PUSH1 0x0 DUP2 SWAP1 POP SWAP2 SWAP1 POP JUMP JUMPDEST PUSH1 0x0 PUSH20 0xFFFFFFFFFFFFFFFFFFFFFFFFFFFFFFFFFFFFFFFF DUP3 AND SWAP1 POP SWAP2 SWAP1 POP JUMP JUMPDEST PUSH1 0x0 DUP2 SWAP1 POP SWAP2 SWAP1 POP JUMP JUMPDEST DUP3 DUP2 DUP4 CALLDATACOPY PUSH1 0x0 DUP4 DUP4 ADD MSTORE POP POP POP JUMP JUMPDEST PUSH1 0x0 JUMPDEST DUP4 DUP2 LT ISZERO PUSH2 0x1BA2 JUMPI DUP1 DUP3 ADD MLOAD DUP2 DUP5 ADD MSTORE PUSH1 0x20 DUP2 ADD SWAP1 POP PUSH2 0x1B87 JUMP JUMPDEST DUP4 DUP2 GT ISZERO PUSH2 0x1BB1 JUMPI PUSH1 0x0 DUP5 DUP5 ADD MSTORE JUMPDEST POP POP POP POP JUMP JUMPDEST PUSH1 0x0 PUSH1 0x2 DUP3 DIV SWAP1 POP PUSH1 0x1 DUP3 AND DUP1 PUSH2 0x1BCF JUMPI PUSH1 0x7F DUP3 AND SWAP2 POP JUMPDEST PUSH1 0x20 DUP3 LT DUP2 EQ ISZERO PUSH2 0x1BE3 JUMPI PUSH2 0x1BE2 PUSH2 0x1D28 JUMP JUMPDEST JUMPDEST POP SWAP2 SWAP1 POP JUMP JUMPDEST PUSH2 0x1BF2 DUP3 PUSH2 0x1DC9 JUMP JUMPDEST DUP2 ADD DUP2 DUP2 LT PUSH8 0xFFFFFFFFFFFFFFFF DUP3 GT OR ISZERO PUSH2 0x1C11 JUMPI PUSH2 0x1C10 PUSH2 0x1D86 JUMP JUMPDEST JUMPDEST DUP1 PUSH1 0x40 MSTORE POP POP POP JUMP JUMPDEST PUSH1 0x0 PUSH2 0x1C25 DUP3 PUSH2 0x1B6B JUMP JUMPDEST SWAP2 POP PUSH32 0xFFFFFFFFFFFFFFFFFFFFFFFFFFFFFFFFFFFFFFFFFFFFFFFFFFFFFFFFFFFFFFFF DUP3 EQ ISZERO PUSH2 0x1C58 JUMPI PUSH2 0x1C57 PUSH2 0x1CCA JUMP JUMPDEST JUMPDEST PUSH1 0x1 DUP3 ADD SWAP1 POP SWAP2 SWAP1 POP JUMP JUMPDEST PUSH1 0x0 PUSH2 0x1C6E DUP3 PUSH2 0x1C7F JUMP JUMPDEST SWAP1 POP SWAP2 SWAP1 POP JUMP JUMPDEST PUSH1 0x0 DUP2 SWAP1 POP SWAP2 SWAP1 POP JUMP JUMPDEST PUSH1 0x0 PUSH2 0x1C8A DUP3 PUSH2 0x1DDA JUMP JUMPDEST SWAP1 POP SWAP2 SWAP1 POP JUMP JUMPDEST PUSH1 0x0 DUP2 SWAP1 POP SWAP2 SWAP1 POP JUMP JUMPDEST PUSH32 0x4E487B7100000000000000000000000000000000000000000000000000000000 PUSH1 0x0 MSTORE PUSH1 0x1 PUSH1 0x4 MSTORE PUSH1 0x24 PUSH1 0x0 REVERT JUMPDEST PUSH32 0x4E487B7100000000000000000000000000000000000000000000000000000000 PUSH1 0x0 MSTORE PUSH1 0x11 PUSH1 0x4 MSTORE PUSH1 0x24 PUSH1 0x0 REVERT JUMPDEST PUSH32 0x4E487B7100000000000000000000000000000000000000000000000000000000 PUSH1 0x0 MSTORE PUSH1 0x12 PUSH1 0x4 MSTORE PUSH1 0x24 PUSH1 0x0 REVERT JUMPDEST PUSH32 0x4E487B7100000000000000000000000000000000000000000000000000000000 PUSH1 0x0 MSTORE PUSH1 0x22 PUSH1 0x4 MSTORE PUSH1 0x24 PUSH1 0x0 REVERT JUMPDEST PUSH32 0x4E487B7100000000000000000000000000000000000000000000000000000000 PUSH1 0x0 MSTORE PUSH1 0x32 PUSH1 0x4 MSTORE PUSH1 0x24 PUSH1 0x0 REVERT JUMPDEST PUSH32 0x4E487B7100000000000000000000000000000000000000000000000000000000 PUSH1 0x0 MSTORE PUSH1 0x41 PUSH1 0x4 MSTORE PUSH1 0x24 PUSH1 0x0 REVERT JUMPDEST PUSH1 0x0 DUP1 REVERT JUMPDEST PUSH1 0x0 DUP1 REVERT JUMPDEST PUSH1 0x0 DUP1 REVERT JUMPDEST PUSH1 0x0 DUP1 REVERT JUMPDEST PUSH1 0x0 PUSH1 0x1F NOT PUSH1 0x1F DUP4 ADD AND SWAP1 POP SWAP2 SWAP1 POP JUMP JUMPDEST PUSH1 0x0 DUP2 PUSH1 0x60 SHL SWAP1 POP SWAP2 SWAP1 POP JUMP JUMPDEST PUSH2 0x1DF0 DUP2 PUSH2 0x1B11 JUMP JUMPDEST DUP2 EQ PUSH2 0x1DFB JUMPI PUSH1 0x0 DUP1 REVERT JUMPDEST POP JUMP JUMPDEST PUSH2 0x1E07 DUP2 PUSH2 0x1B23 JUMP JUMPDEST DUP2 EQ PUSH2 0x1E12 JUMPI PUSH1 0x0 DUP1 REVERT JUMPDEST POP JUMP JUMPDEST PUSH2 0x1E1E DUP2 PUSH2 0x1B41 JUMP JUMPDEST DUP2 EQ PUSH2 0x1E29 JUMPI PUSH1 0x0 DUP1 REVERT JUMPDEST POP JUMP JUMPDEST PUSH2 0x1E35 DUP2 PUSH2 0x1B6B JUMP JUMPDEST DUP2 EQ PUSH2 0x1E40 JUMPI PUSH1 0x0 DUP1 REVERT JUMPDEST POP JUMP INVALID LOG2 PUSH5 0x6970667358 0x22 SLT KECCAK256 PUSH29 0xCBDCB2F3EFDFE5F103DDC7C378D2A773342B150516E2A67EBA4DB0F95F CALL COINBASE PUSH5 0x736F6C6343 STOP ADDMOD SDIV STOP CALLER LOG2 PUSH5 0x6970667358 0x22 SLT KECCAK256 DELEGATECALL 0xC8 PUSH32 0x3069A8A69503723F9971294DE73BAF939E26E90CC6C1956CE3B96C67DE64736F PUSH13 0x63430008050033000000000000 "},"gasEstimates":{"creation":{"codeDepositCost":"2225000","executionCost":"2375","totalCost":"2227375"},"external":{"CreatedProject()":"2536","createProject(string,uint256,uint256,uint256)":"infinite","getCreatedProject()":"2588","getProjects()":"infinite","projects(uint256)":"4934"}},"methodIdentifiers":{"CreatedProject()":"91c65403","createProject(string,uint256,uint256,uint256)":"610a6a2a","getCreatedProject()":"ead1256d","getProjects()":"dcc60128","projects(uint256)":"107046bd"}},"storageLayout":{"storage":[{"astId":622,"contract":"ProjectList.sol:ProjectList","label":"projects","offset":0,"slot":"0","type":"t_array(t_address)dyn_storage"},{"astId":624,"contract":"ProjectList.sol:ProjectList","label":"CreatedProject","offset":0,"slot":"1","type":"t_address"}],"types":{"t_address":{"encoding":"inplace","label":"address","numberOfBytes":"20"},"t_array(t_address)dyn_storage":{"base":"t_address","encoding":"dynamic_array","label":"address[]","numberOfBytes":"32"}}},"userdoc":{"kind":"user","methods":{},"version":1}}