{"abi":[{"inputs":[{"internalType":"string","name":"_description","type":"string"},{"internalType":"uint256","name":"_minInvest","type":"uint256"},{"internalType":"uint256","name":"_maxInvest","type":"uint256"},{"internalType":"uint256","name":"_goal","type":"uint256"}],"name":"createProject","outputs":[],"stateMutability":"nonpayable","type":"function"},{"inputs":[],"name":"getProjects","outputs":[{"internalType":"address[]","name":"","type":"address[]"}],"stateMutability":"view","type":"function"},{"inputs":[{"internalType":"uint256","name":"","type":"uint256"}],"name":"projects","outputs":[{"internalType":"address","name":"","type":"address"}],"stateMutability":"view","type":"function"}],"devdoc":{"kind":"dev","methods":{},"version":1},"evm":{"assembly":"    /* \"ProjectList.sol\":107:601  contract ProjectList {... */\n  mstore(0x40, 0x80)\n  callvalue\n  dup1\n  iszero\n  tag_1\n  jumpi\n  0x00\n  dup1\n  revert\ntag_1:\n  pop\n  dataSize(sub_0)\n  dup1\n  dataOffset(sub_0)\n  0x00\n  codecopy\n  0x00\n  return\nstop\n\nsub_0: assembly {\n        /* \"ProjectList.sol\":107:601  contract ProjectList {... */\n      mstore(0x40, 0x80)\n      callvalue\n      dup1\n      iszero\n      tag_1\n      jumpi\n      0x00\n      dup1\n      revert\n    tag_1:\n      pop\n      jumpi(tag_2, lt(calldatasize, 0x04))\n      shr(0xe0, calldataload(0x00))\n      dup1\n      0x107046bd\n      eq\n      tag_3\n      jumpi\n      dup1\n      0x610a6a2a\n      eq\n      tag_4\n      jumpi\n      dup1\n      0xdcc60128\n      eq\n      tag_5\n      jumpi\n    tag_2:\n      0x00\n      dup1\n      revert\n        /* \"ProjectList.sol\":166:191  address[] public projects */\n    tag_3:\n      tag_6\n      0x04\n      dup1\n      calldatasize\n      sub\n      dup2\n      add\n      swap1\n      tag_7\n      swap2\n      swap1\n      tag_8\n      jump\t// in\n    tag_7:\n      tag_9\n      jump\t// in\n    tag_6:\n      mload(0x40)\n      tag_10\n      swap2\n      swap1\n      tag_11\n      jump\t// in\n    tag_10:\n      mload(0x40)\n      dup1\n      swap2\n      sub\n      swap1\n      return\n        /* \"ProjectList.sol\":198:499  function createProject(... */\n    tag_4:\n      tag_12\n      0x04\n      dup1\n      calldatasize\n      sub\n      dup2\n      add\n      swap1\n      tag_13\n      swap2\n      swap1\n      tag_14\n      jump\t// in\n    tag_13:\n      tag_15\n      jump\t// in\n    tag_12:\n      stop\n        /* \"ProjectList.sol\":505:599  function getProjects() public view returns (address[] memory) {... */\n    tag_5:\n      tag_16\n      tag_17\n      jump\t// in\n    tag_16:\n      mload(0x40)\n      tag_18\n      swap2\n      swap1\n      tag_19\n      jump\t// in\n    tag_18:\n      mload(0x40)\n      dup1\n      swap2\n      sub\n      swap1\n      return\n        /* \"ProjectList.sol\":166:191  address[] public projects */\n    tag_9:\n      0x00\n      dup2\n      dup2\n      sload\n      dup2\n      lt\n      tag_20\n      jumpi\n      0x00\n      dup1\n      revert\n    tag_20:\n      swap1\n      0x00\n      mstore\n      keccak256(0x00, 0x20)\n      add\n      0x00\n      swap2\n      pop\n      sload\n      swap1\n      0x0100\n      exp\n      swap1\n      div\n      0xffffffffffffffffffffffffffffffffffffffff\n      and\n      dup2\n      jump\t// out\n        /* \"ProjectList.sol\":198:499  function createProject(... */\n    tag_15:\n        /* \"ProjectList.sol\":359:377  address newProject */\n      0x00\n        /* \"ProjectList.sol\":400:412  _description */\n      dup5\n        /* \"ProjectList.sol\":414:424  _minInvest */\n      dup5\n        /* \"ProjectList.sol\":426:436  _maxInvest */\n      dup5\n        /* \"ProjectList.sol\":438:443  _goal */\n      dup5\n        /* \"ProjectList.sol\":445:455  msg.sender */\n      caller\n        /* \"ProjectList.sol\":388:456  new Project(_description, _minInvest, _maxInvest, _goal, msg.sender) */\n      mload(0x40)\n      tag_23\n      swap1\n      tag_24\n      jump\t// in\n    tag_23:\n      tag_25\n      swap6\n      swap5\n      swap4\n      swap3\n      swap2\n      swap1\n      tag_26\n      jump\t// in\n    tag_25:\n      mload(0x40)\n      dup1\n      swap2\n      sub\n      swap1\n      0x00\n      create\n      dup1\n      iszero\n      dup1\n      iszero\n      tag_27\n      jumpi\n      returndatasize\n      0x00\n      dup1\n      returndatacopy\n      revert(0x00, returndatasize)\n    tag_27:\n      pop\n        /* \"ProjectList.sol\":359:457  address newProject = address(new Project(_description, _minInvest, _maxInvest, _goal, msg.sender)) */\n      swap1\n      pop\n        /* \"ProjectList.sol\":467:475  projects */\n      0x00\n        /* \"ProjectList.sol\":481:491  newProject */\n      dup2\n        /* \"ProjectList.sol\":467:492  projects.push(newProject) */\n      swap1\n      dup1\n      0x01\n      dup2\n      sload\n      add\n      dup1\n      dup3\n      sstore\n      dup1\n      swap2\n      pop\n      pop\n      0x01\n      swap1\n      sub\n      swap1\n      0x00\n      mstore\n      keccak256(0x00, 0x20)\n      add\n      0x00\n      swap1\n      swap2\n      swap1\n      swap2\n      swap1\n      swap2\n      0x0100\n      exp\n      dup2\n      sload\n      dup2\n      0xffffffffffffffffffffffffffffffffffffffff\n      mul\n      not\n      and\n      swap1\n      dup4\n      0xffffffffffffffffffffffffffffffffffffffff\n      and\n      mul\n      or\n      swap1\n      sstore\n      pop\n        /* \"ProjectList.sol\":349:499  {... */\n      pop\n        /* \"ProjectList.sol\":198:499  function createProject(... */\n      pop\n      pop\n      pop\n      pop\n      jump\t// out\n        /* \"ProjectList.sol\":505:599  function getProjects() public view returns (address[] memory) {... */\n    tag_17:\n        /* \"ProjectList.sol\":549:565  address[] memory */\n      0x60\n        /* \"ProjectList.sol\":584:592  projects */\n      0x00\n        /* \"ProjectList.sol\":577:592  return projects */\n      dup1\n      sload\n      dup1\n      0x20\n      mul\n      0x20\n      add\n      mload(0x40)\n      swap1\n      dup2\n      add\n      0x40\n      mstore\n      dup1\n      swap3\n      swap2\n      swap1\n      dup2\n      dup2\n      mstore\n      0x20\n      add\n      dup3\n      dup1\n      sload\n      dup1\n      iszero\n      tag_30\n      jumpi\n      0x20\n      mul\n      dup3\n      add\n      swap2\n      swap1\n      0x00\n      mstore\n      keccak256(0x00, 0x20)\n      swap1\n    tag_31:\n      dup2\n      0x00\n      swap1\n      sload\n      swap1\n      0x0100\n      exp\n      swap1\n      div\n      0xffffffffffffffffffffffffffffffffffffffff\n      and\n      0xffffffffffffffffffffffffffffffffffffffff\n      and\n      dup2\n      mstore\n      0x20\n      add\n      swap1\n      0x01\n      add\n      swap1\n      dup1\n      dup4\n      gt\n      tag_31\n      jumpi\n    tag_30:\n      pop\n      pop\n      pop\n      pop\n      pop\n      swap1\n      pop\n        /* \"ProjectList.sol\":505:599  function getProjects() public view returns (address[] memory) {... */\n      swap1\n      jump\t// out\n    tag_24:\n      dataSize(sub_0)\n      dup1\n      dataOffset(sub_0)\n      dup4\n      codecopy\n      add\n      swap1\n      jump\t// out\n        /* \"#utility.yul\":7:419   */\n    tag_33:\n        /* \"#utility.yul\":85:90   */\n      0x00\n        /* \"#utility.yul\":110:176   */\n      tag_35\n        /* \"#utility.yul\":126:175   */\n      tag_36\n        /* \"#utility.yul\":168:174   */\n      dup5\n        /* \"#utility.yul\":126:175   */\n      tag_37\n      jump\t// in\n    tag_36:\n        /* \"#utility.yul\":110:176   */\n      tag_38\n      jump\t// in\n    tag_35:\n        /* \"#utility.yul\":101:176   */\n      swap1\n      pop\n        /* \"#utility.yul\":199:205   */\n      dup3\n        /* \"#utility.yul\":192:197   */\n      dup2\n        /* \"#utility.yul\":185:206   */\n      mstore\n        /* \"#utility.yul\":237:241   */\n      0x20\n        /* \"#utility.yul\":230:235   */\n      dup2\n        /* \"#utility.yul\":226:242   */\n      add\n        /* \"#utility.yul\":275:278   */\n      dup5\n        /* \"#utility.yul\":266:272   */\n      dup5\n        /* \"#utility.yul\":261:264   */\n      dup5\n        /* \"#utility.yul\":257:273   */\n      add\n        /* \"#utility.yul\":254:279   */\n      gt\n        /* \"#utility.yul\":251:253   */\n      iszero\n      tag_39\n      jumpi\n        /* \"#utility.yul\":282:361   */\n      tag_40\n      tag_41\n      jump\t// in\n    tag_40:\n        /* \"#utility.yul\":251:253   */\n    tag_39:\n        /* \"#utility.yul\":372:413   */\n      tag_42\n        /* \"#utility.yul\":406:412   */\n      dup5\n        /* \"#utility.yul\":401:404   */\n      dup3\n        /* \"#utility.yul\":396:399   */\n      dup6\n        /* \"#utility.yul\":372:413   */\n      tag_43\n      jump\t// in\n    tag_42:\n        /* \"#utility.yul\":91:419   */\n      pop\n      swap4\n      swap3\n      pop\n      pop\n      pop\n      jump\t// out\n        /* \"#utility.yul\":439:779   */\n    tag_44:\n        /* \"#utility.yul\":495:500   */\n      0x00\n        /* \"#utility.yul\":544:547   */\n      dup3\n        /* \"#utility.yul\":537:541   */\n      0x1f\n        /* \"#utility.yul\":529:535   */\n      dup4\n        /* \"#utility.yul\":525:542   */\n      add\n        /* \"#utility.yul\":521:548   */\n      slt\n        /* \"#utility.yul\":511:513   */\n      tag_46\n      jumpi\n        /* \"#utility.yul\":552:631   */\n      tag_47\n      tag_48\n      jump\t// in\n    tag_47:\n        /* \"#utility.yul\":511:513   */\n    tag_46:\n        /* \"#utility.yul\":669:675   */\n      dup2\n        /* \"#utility.yul\":656:676   */\n      calldataload\n        /* \"#utility.yul\":694:773   */\n      tag_49\n        /* \"#utility.yul\":769:772   */\n      dup5\n        /* \"#utility.yul\":761:767   */\n      dup3\n        /* \"#utility.yul\":754:758   */\n      0x20\n        /* \"#utility.yul\":746:752   */\n      dup7\n        /* \"#utility.yul\":742:759   */\n      add\n        /* \"#utility.yul\":694:773   */\n      tag_33\n      jump\t// in\n    tag_49:\n        /* \"#utility.yul\":685:773   */\n      swap2\n      pop\n        /* \"#utility.yul\":501:779   */\n      pop\n      swap3\n      swap2\n      pop\n      pop\n      jump\t// out\n        /* \"#utility.yul\":785:924   */\n    tag_50:\n        /* \"#utility.yul\":831:836   */\n      0x00\n        /* \"#utility.yul\":869:875   */\n      dup2\n        /* \"#utility.yul\":856:876   */\n      calldataload\n        /* \"#utility.yul\":847:876   */\n      swap1\n      pop\n        /* \"#utility.yul\":885:918   */\n      tag_52\n        /* \"#utility.yul\":912:917   */\n      dup2\n        /* \"#utility.yul\":885:918   */\n      tag_53\n      jump\t// in\n    tag_52:\n        /* \"#utility.yul\":837:924   */\n      swap3\n      swap2\n      pop\n      pop\n      jump\t// out\n        /* \"#utility.yul\":930:1875   */\n    tag_14:\n        /* \"#utility.yul\":1026:1032   */\n      0x00\n        /* \"#utility.yul\":1034:1040   */\n      dup1\n        /* \"#utility.yul\":1042:1048   */\n      0x00\n        /* \"#utility.yul\":1050:1056   */\n      dup1\n        /* \"#utility.yul\":1099:1102   */\n      0x80\n        /* \"#utility.yul\":1087:1096   */\n      dup6\n        /* \"#utility.yul\":1078:1085   */\n      dup8\n        /* \"#utility.yul\":1074:1097   */\n      sub\n        /* \"#utility.yul\":1070:1103   */\n      slt\n        /* \"#utility.yul\":1067:1069   */\n      iszero\n      tag_55\n      jumpi\n        /* \"#utility.yul\":1106:1185   */\n      tag_56\n      tag_57\n      jump\t// in\n    tag_56:\n        /* \"#utility.yul\":1067:1069   */\n    tag_55:\n        /* \"#utility.yul\":1254:1255   */\n      0x00\n        /* \"#utility.yul\":1243:1252   */\n      dup6\n        /* \"#utility.yul\":1239:1256   */\n      add\n        /* \"#utility.yul\":1226:1257   */\n      calldataload\n        /* \"#utility.yul\":1284:1302   */\n      0xffffffffffffffff\n        /* \"#utility.yul\":1276:1282   */\n      dup2\n        /* \"#utility.yul\":1273:1303   */\n      gt\n        /* \"#utility.yul\":1270:1272   */\n      iszero\n      tag_58\n      jumpi\n        /* \"#utility.yul\":1306:1385   */\n      tag_59\n      tag_60\n      jump\t// in\n    tag_59:\n        /* \"#utility.yul\":1270:1272   */\n    tag_58:\n        /* \"#utility.yul\":1411:1474   */\n      tag_61\n        /* \"#utility.yul\":1466:1473   */\n      dup8\n        /* \"#utility.yul\":1457:1463   */\n      dup3\n        /* \"#utility.yul\":1446:1455   */\n      dup9\n        /* \"#utility.yul\":1442:1464   */\n      add\n        /* \"#utility.yul\":1411:1474   */\n      tag_44\n      jump\t// in\n    tag_61:\n        /* \"#utility.yul\":1401:1474   */\n      swap5\n      pop\n        /* \"#utility.yul\":1197:1484   */\n      pop\n        /* \"#utility.yul\":1523:1525   */\n      0x20\n        /* \"#utility.yul\":1549:1602   */\n      tag_62\n        /* \"#utility.yul\":1594:1601   */\n      dup8\n        /* \"#utility.yul\":1585:1591   */\n      dup3\n        /* \"#utility.yul\":1574:1583   */\n      dup9\n        /* \"#utility.yul\":1570:1592   */\n      add\n        /* \"#utility.yul\":1549:1602   */\n      tag_50\n      jump\t// in\n    tag_62:\n        /* \"#utility.yul\":1539:1602   */\n      swap4\n      pop\n        /* \"#utility.yul\":1494:1612   */\n      pop\n        /* \"#utility.yul\":1651:1653   */\n      0x40\n        /* \"#utility.yul\":1677:1730   */\n      tag_63\n        /* \"#utility.yul\":1722:1729   */\n      dup8\n        /* \"#utility.yul\":1713:1719   */\n      dup3\n        /* \"#utility.yul\":1702:1711   */\n      dup9\n        /* \"#utility.yul\":1698:1720   */\n      add\n        /* \"#utility.yul\":1677:1730   */\n      tag_50\n      jump\t// in\n    tag_63:\n        /* \"#utility.yul\":1667:1730   */\n      swap3\n      pop\n        /* \"#utility.yul\":1622:1740   */\n      pop\n        /* \"#utility.yul\":1779:1781   */\n      0x60\n        /* \"#utility.yul\":1805:1858   */\n      tag_64\n        /* \"#utility.yul\":1850:1857   */\n      dup8\n        /* \"#utility.yul\":1841:1847   */\n      dup3\n        /* \"#utility.yul\":1830:1839   */\n      dup9\n        /* \"#utility.yul\":1826:1848   */\n      add\n        /* \"#utility.yul\":1805:1858   */\n      tag_50\n      jump\t// in\n    tag_64:\n        /* \"#utility.yul\":1795:1858   */\n      swap2\n      pop\n        /* \"#utility.yul\":1750:1868   */\n      pop\n        /* \"#utility.yul\":1057:1875   */\n      swap3\n      swap6\n      swap2\n      swap5\n      pop\n      swap3\n      pop\n      jump\t// out\n        /* \"#utility.yul\":1881:2210   */\n    tag_8:\n        /* \"#utility.yul\":1940:1946   */\n      0x00\n        /* \"#utility.yul\":1989:1991   */\n      0x20\n        /* \"#utility.yul\":1977:1986   */\n      dup3\n        /* \"#utility.yul\":1968:1975   */\n      dup5\n        /* \"#utility.yul\":1964:1987   */\n      sub\n        /* \"#utility.yul\":1960:1992   */\n      slt\n        /* \"#utility.yul\":1957:1959   */\n      iszero\n      tag_66\n      jumpi\n        /* \"#utility.yul\":1995:2074   */\n      tag_67\n      tag_57\n      jump\t// in\n    tag_67:\n        /* \"#utility.yul\":1957:1959   */\n    tag_66:\n        /* \"#utility.yul\":2115:2116   */\n      0x00\n        /* \"#utility.yul\":2140:2193   */\n      tag_68\n        /* \"#utility.yul\":2185:2192   */\n      dup5\n        /* \"#utility.yul\":2176:2182   */\n      dup3\n        /* \"#utility.yul\":2165:2174   */\n      dup6\n        /* \"#utility.yul\":2161:2183   */\n      add\n        /* \"#utility.yul\":2140:2193   */\n      tag_50\n      jump\t// in\n    tag_68:\n        /* \"#utility.yul\":2130:2193   */\n      swap2\n      pop\n        /* \"#utility.yul\":2086:2203   */\n      pop\n        /* \"#utility.yul\":1947:2210   */\n      swap3\n      swap2\n      pop\n      pop\n      jump\t// out\n        /* \"#utility.yul\":2216:2395   */\n    tag_69:\n        /* \"#utility.yul\":2285:2295   */\n      0x00\n        /* \"#utility.yul\":2306:2352   */\n      tag_71\n        /* \"#utility.yul\":2348:2351   */\n      dup4\n        /* \"#utility.yul\":2340:2346   */\n      dup4\n        /* \"#utility.yul\":2306:2352   */\n      tag_72\n      jump\t// in\n    tag_71:\n        /* \"#utility.yul\":2384:2388   */\n      0x20\n        /* \"#utility.yul\":2379:2382   */\n      dup4\n        /* \"#utility.yul\":2375:2389   */\n      add\n        /* \"#utility.yul\":2361:2389   */\n      swap1\n      pop\n        /* \"#utility.yul\":2296:2395   */\n      swap3\n      swap2\n      pop\n      pop\n      jump\t// out\n        /* \"#utility.yul\":2401:2509   */\n    tag_72:\n        /* \"#utility.yul\":2478:2502   */\n      tag_74\n        /* \"#utility.yul\":2496:2501   */\n      dup2\n        /* \"#utility.yul\":2478:2502   */\n      tag_75\n      jump\t// in\n    tag_74:\n        /* \"#utility.yul\":2473:2476   */\n      dup3\n        /* \"#utility.yul\":2466:2503   */\n      mstore\n        /* \"#utility.yul\":2456:2509   */\n      pop\n      pop\n      jump\t// out\n        /* \"#utility.yul\":2515:2633   */\n    tag_76:\n        /* \"#utility.yul\":2602:2626   */\n      tag_78\n        /* \"#utility.yul\":2620:2625   */\n      dup2\n        /* \"#utility.yul\":2602:2626   */\n      tag_75\n      jump\t// in\n    tag_78:\n        /* \"#utility.yul\":2597:2600   */\n      dup3\n        /* \"#utility.yul\":2590:2627   */\n      mstore\n        /* \"#utility.yul\":2580:2633   */\n      pop\n      pop\n      jump\t// out\n        /* \"#utility.yul\":2669:3401   */\n    tag_79:\n        /* \"#utility.yul\":2788:2791   */\n      0x00\n        /* \"#utility.yul\":2817:2871   */\n      tag_81\n        /* \"#utility.yul\":2865:2870   */\n      dup3\n        /* \"#utility.yul\":2817:2871   */\n      tag_82\n      jump\t// in\n    tag_81:\n        /* \"#utility.yul\":2887:2973   */\n      tag_83\n        /* \"#utility.yul\":2966:2972   */\n      dup2\n        /* \"#utility.yul\":2961:2964   */\n      dup6\n        /* \"#utility.yul\":2887:2973   */\n      tag_84\n      jump\t// in\n    tag_83:\n        /* \"#utility.yul\":2880:2973   */\n      swap4\n      pop\n        /* \"#utility.yul\":2997:3053   */\n      tag_85\n        /* \"#utility.yul\":3047:3052   */\n      dup4\n        /* \"#utility.yul\":2997:3053   */\n      tag_86\n      jump\t// in\n    tag_85:\n        /* \"#utility.yul\":3076:3083   */\n      dup1\n        /* \"#utility.yul\":3107:3108   */\n      0x00\n        /* \"#utility.yul\":3092:3376   */\n    tag_87:\n        /* \"#utility.yul\":3117:3123   */\n      dup4\n        /* \"#utility.yul\":3114:3115   */\n      dup2\n        /* \"#utility.yul\":3111:3124   */\n      lt\n        /* \"#utility.yul\":3092:3376   */\n      iszero\n      tag_89\n      jumpi\n        /* \"#utility.yul\":3193:3199   */\n      dup2\n        /* \"#utility.yul\":3187:3200   */\n      mload\n        /* \"#utility.yul\":3220:3283   */\n      tag_90\n        /* \"#utility.yul\":3279:3282   */\n      dup9\n        /* \"#utility.yul\":3264:3277   */\n      dup3\n        /* \"#utility.yul\":3220:3283   */\n      tag_69\n      jump\t// in\n    tag_90:\n        /* \"#utility.yul\":3213:3283   */\n      swap8\n      pop\n        /* \"#utility.yul\":3306:3366   */\n      tag_91\n        /* \"#utility.yul\":3359:3365   */\n      dup4\n        /* \"#utility.yul\":3306:3366   */\n      tag_92\n      jump\t// in\n    tag_91:\n        /* \"#utility.yul\":3296:3366   */\n      swap3\n      pop\n        /* \"#utility.yul\":3152:3376   */\n      pop\n        /* \"#utility.yul\":3139:3140   */\n      0x01\n        /* \"#utility.yul\":3136:3137   */\n      dup2\n        /* \"#utility.yul\":3132:3141   */\n      add\n        /* \"#utility.yul\":3127:3141   */\n      swap1\n      pop\n        /* \"#utility.yul\":3092:3376   */\n      jump(tag_87)\n    tag_89:\n        /* \"#utility.yul\":3096:3110   */\n      pop\n        /* \"#utility.yul\":3392:3395   */\n      dup6\n        /* \"#utility.yul\":3385:3395   */\n      swap4\n      pop\n        /* \"#utility.yul\":2793:3401   */\n      pop\n      pop\n      pop\n      swap3\n      swap2\n      pop\n      pop\n      jump\t// out\n        /* \"#utility.yul\":3407:3771   */\n    tag_93:\n        /* \"#utility.yul\":3495:3498   */\n      0x00\n        /* \"#utility.yul\":3523:3562   */\n      tag_95\n        /* \"#utility.yul\":3556:3561   */\n      dup3\n        /* \"#utility.yul\":3523:3562   */\n      tag_96\n      jump\t// in\n    tag_95:\n        /* \"#utility.yul\":3578:3649   */\n      tag_97\n        /* \"#utility.yul\":3642:3648   */\n      dup2\n        /* \"#utility.yul\":3637:3640   */\n      dup6\n        /* \"#utility.yul\":3578:3649   */\n      tag_98\n      jump\t// in\n    tag_97:\n        /* \"#utility.yul\":3571:3649   */\n      swap4\n      pop\n        /* \"#utility.yul\":3658:3710   */\n      tag_99\n        /* \"#utility.yul\":3703:3709   */\n      dup2\n        /* \"#utility.yul\":3698:3701   */\n      dup6\n        /* \"#utility.yul\":3691:3695   */\n      0x20\n        /* \"#utility.yul\":3684:3689   */\n      dup7\n        /* \"#utility.yul\":3680:3696   */\n      add\n        /* \"#utility.yul\":3658:3710   */\n      tag_100\n      jump\t// in\n    tag_99:\n        /* \"#utility.yul\":3735:3764   */\n      tag_101\n        /* \"#utility.yul\":3757:3763   */\n      dup2\n        /* \"#utility.yul\":3735:3764   */\n      tag_102\n      jump\t// in\n    tag_101:\n        /* \"#utility.yul\":3730:3733   */\n      dup5\n        /* \"#utility.yul\":3726:3765   */\n      add\n        /* \"#utility.yul\":3719:3765   */\n      swap2\n      pop\n        /* \"#utility.yul\":3499:3771   */\n      pop\n      swap3\n      swap2\n      pop\n      pop\n      jump\t// out\n        /* \"#utility.yul\":3777:3895   */\n    tag_103:\n        /* \"#utility.yul\":3864:3888   */\n      tag_105\n        /* \"#utility.yul\":3882:3887   */\n      dup2\n        /* \"#utility.yul\":3864:3888   */\n      tag_106\n      jump\t// in\n    tag_105:\n        /* \"#utility.yul\":3859:3862   */\n      dup3\n        /* \"#utility.yul\":3852:3889   */\n      mstore\n        /* \"#utility.yul\":3842:3895   */\n      pop\n      pop\n      jump\t// out\n        /* \"#utility.yul\":3901:4123   */\n    tag_11:\n        /* \"#utility.yul\":3994:3998   */\n      0x00\n        /* \"#utility.yul\":4032:4034   */\n      0x20\n        /* \"#utility.yul\":4021:4030   */\n      dup3\n        /* \"#utility.yul\":4017:4035   */\n      add\n        /* \"#utility.yul\":4009:4035   */\n      swap1\n      pop\n        /* \"#utility.yul\":4045:4116   */\n      tag_108\n        /* \"#utility.yul\":4113:4114   */\n      0x00\n        /* \"#utility.yul\":4102:4111   */\n      dup4\n        /* \"#utility.yul\":4098:4115   */\n      add\n        /* \"#utility.yul\":4089:4095   */\n      dup5\n        /* \"#utility.yul\":4045:4116   */\n      tag_76\n      jump\t// in\n    tag_108:\n        /* \"#utility.yul\":3999:4123   */\n      swap3\n      swap2\n      pop\n      pop\n      jump\t// out\n        /* \"#utility.yul\":4129:4502   */\n    tag_19:\n        /* \"#utility.yul\":4272:4276   */\n      0x00\n        /* \"#utility.yul\":4310:4312   */\n      0x20\n        /* \"#utility.yul\":4299:4308   */\n      dup3\n        /* \"#utility.yul\":4295:4313   */\n      add\n        /* \"#utility.yul\":4287:4313   */\n      swap1\n      pop\n        /* \"#utility.yul\":4359:4368   */\n      dup2\n        /* \"#utility.yul\":4353:4357   */\n      dup2\n        /* \"#utility.yul\":4349:4369   */\n      sub\n        /* \"#utility.yul\":4345:4346   */\n      0x00\n        /* \"#utility.yul\":4334:4343   */\n      dup4\n        /* \"#utility.yul\":4330:4347   */\n      add\n        /* \"#utility.yul\":4323:4370   */\n      mstore\n        /* \"#utility.yul\":4387:4495   */\n      tag_110\n        /* \"#utility.yul\":4490:4494   */\n      dup2\n        /* \"#utility.yul\":4481:4487   */\n      dup5\n        /* \"#utility.yul\":4387:4495   */\n      tag_79\n      jump\t// in\n    tag_110:\n        /* \"#utility.yul\":4379:4495   */\n      swap1\n      pop\n        /* \"#utility.yul\":4277:4502   */\n      swap3\n      swap2\n      pop\n      pop\n      jump\t// out\n        /* \"#utility.yul\":4508:5263   */\n    tag_26:\n        /* \"#utility.yul\":4733:4737   */\n      0x00\n        /* \"#utility.yul\":4771:4774   */\n      0xa0\n        /* \"#utility.yul\":4760:4769   */\n      dup3\n        /* \"#utility.yul\":4756:4775   */\n      add\n        /* \"#utility.yul\":4748:4775   */\n      swap1\n      pop\n        /* \"#utility.yul\":4821:4830   */\n      dup2\n        /* \"#utility.yul\":4815:4819   */\n      dup2\n        /* \"#utility.yul\":4811:4831   */\n      sub\n        /* \"#utility.yul\":4807:4808   */\n      0x00\n        /* \"#utility.yul\":4796:4805   */\n      dup4\n        /* \"#utility.yul\":4792:4809   */\n      add\n        /* \"#utility.yul\":4785:4832   */\n      mstore\n        /* \"#utility.yul\":4849:4927   */\n      tag_112\n        /* \"#utility.yul\":4922:4926   */\n      dup2\n        /* \"#utility.yul\":4913:4919   */\n      dup9\n        /* \"#utility.yul\":4849:4927   */\n      tag_93\n      jump\t// in\n    tag_112:\n        /* \"#utility.yul\":4841:4927   */\n      swap1\n      pop\n        /* \"#utility.yul\":4937:5009   */\n      tag_113\n        /* \"#utility.yul\":5005:5007   */\n      0x20\n        /* \"#utility.yul\":4994:5003   */\n      dup4\n        /* \"#utility.yul\":4990:5008   */\n      add\n        /* \"#utility.yul\":4981:4987   */\n      dup8\n        /* \"#utility.yul\":4937:5009   */\n      tag_103\n      jump\t// in\n    tag_113:\n        /* \"#utility.yul\":5019:5091   */\n      tag_114\n        /* \"#utility.yul\":5087:5089   */\n      0x40\n        /* \"#utility.yul\":5076:5085   */\n      dup4\n        /* \"#utility.yul\":5072:5090   */\n      add\n        /* \"#utility.yul\":5063:5069   */\n      dup7\n        /* \"#utility.yul\":5019:5091   */\n      tag_103\n      jump\t// in\n    tag_114:\n        /* \"#utility.yul\":5101:5173   */\n      tag_115\n        /* \"#utility.yul\":5169:5171   */\n      0x60\n        /* \"#utility.yul\":5158:5167   */\n      dup4\n        /* \"#utility.yul\":5154:5172   */\n      add\n        /* \"#utility.yul\":5145:5151   */\n      dup6\n        /* \"#utility.yul\":5101:5173   */\n      tag_103\n      jump\t// in\n    tag_115:\n        /* \"#utility.yul\":5183:5256   */\n      tag_116\n        /* \"#utility.yul\":5251:5254   */\n      0x80\n        /* \"#utility.yul\":5240:5249   */\n      dup4\n        /* \"#utility.yul\":5236:5255   */\n      add\n        /* \"#utility.yul\":5227:5233   */\n      dup5\n        /* \"#utility.yul\":5183:5256   */\n      tag_76\n      jump\t// in\n    tag_116:\n        /* \"#utility.yul\":4738:5263   */\n      swap7\n      swap6\n      pop\n      pop\n      pop\n      pop\n      pop\n      pop\n      jump\t// out\n        /* \"#utility.yul\":5269:5398   */\n    tag_38:\n        /* \"#utility.yul\":5303:5309   */\n      0x00\n        /* \"#utility.yul\":5330:5350   */\n      tag_118\n      tag_119\n      jump\t// in\n    tag_118:\n        /* \"#utility.yul\":5320:5350   */\n      swap1\n      pop\n        /* \"#utility.yul\":5359:5392   */\n      tag_120\n        /* \"#utility.yul\":5387:5391   */\n      dup3\n        /* \"#utility.yul\":5379:5385   */\n      dup3\n        /* \"#utility.yul\":5359:5392   */\n      tag_121\n      jump\t// in\n    tag_120:\n        /* \"#utility.yul\":5310:5398   */\n      swap2\n      swap1\n      pop\n      jump\t// out\n        /* \"#utility.yul\":5404:5479   */\n    tag_119:\n        /* \"#utility.yul\":5437:5443   */\n      0x00\n        /* \"#utility.yul\":5470:5472   */\n      0x40\n        /* \"#utility.yul\":5464:5473   */\n      mload\n        /* \"#utility.yul\":5454:5473   */\n      swap1\n      pop\n        /* \"#utility.yul\":5444:5479   */\n      swap1\n      jump\t// out\n        /* \"#utility.yul\":5485:5793   */\n    tag_37:\n        /* \"#utility.yul\":5547:5551   */\n      0x00\n        /* \"#utility.yul\":5637:5655   */\n      0xffffffffffffffff\n        /* \"#utility.yul\":5629:5635   */\n      dup3\n        /* \"#utility.yul\":5626:5656   */\n      gt\n        /* \"#utility.yul\":5623:5625   */\n      iszero\n      tag_124\n      jumpi\n        /* \"#utility.yul\":5659:5677   */\n      tag_125\n      tag_126\n      jump\t// in\n    tag_125:\n        /* \"#utility.yul\":5623:5625   */\n    tag_124:\n        /* \"#utility.yul\":5697:5726   */\n      tag_127\n        /* \"#utility.yul\":5719:5725   */\n      dup3\n        /* \"#utility.yul\":5697:5726   */\n      tag_102\n      jump\t// in\n    tag_127:\n        /* \"#utility.yul\":5689:5726   */\n      swap1\n      pop\n        /* \"#utility.yul\":5781:5785   */\n      0x20\n        /* \"#utility.yul\":5775:5779   */\n      dup2\n        /* \"#utility.yul\":5771:5786   */\n      add\n        /* \"#utility.yul\":5763:5786   */\n      swap1\n      pop\n        /* \"#utility.yul\":5552:5793   */\n      swap2\n      swap1\n      pop\n      jump\t// out\n        /* \"#utility.yul\":5799:5931   */\n    tag_86:\n        /* \"#utility.yul\":5866:5870   */\n      0x00\n        /* \"#utility.yul\":5889:5892   */\n      dup2\n        /* \"#utility.yul\":5881:5892   */\n      swap1\n      pop\n        /* \"#utility.yul\":5919:5923   */\n      0x20\n        /* \"#utility.yul\":5914:5917   */\n      dup3\n        /* \"#utility.yul\":5910:5924   */\n      add\n        /* \"#utility.yul\":5902:5924   */\n      swap1\n      pop\n        /* \"#utility.yul\":5871:5931   */\n      swap2\n      swap1\n      pop\n      jump\t// out\n        /* \"#utility.yul\":5937:6051   */\n    tag_82:\n        /* \"#utility.yul\":6004:6010   */\n      0x00\n        /* \"#utility.yul\":6038:6043   */\n      dup2\n        /* \"#utility.yul\":6032:6044   */\n      mload\n        /* \"#utility.yul\":6022:6044   */\n      swap1\n      pop\n        /* \"#utility.yul\":6011:6051   */\n      swap2\n      swap1\n      pop\n      jump\t// out\n        /* \"#utility.yul\":6057:6156   */\n    tag_96:\n        /* \"#utility.yul\":6109:6115   */\n      0x00\n        /* \"#utility.yul\":6143:6148   */\n      dup2\n        /* \"#utility.yul\":6137:6149   */\n      mload\n        /* \"#utility.yul\":6127:6149   */\n      swap1\n      pop\n        /* \"#utility.yul\":6116:6156   */\n      swap2\n      swap1\n      pop\n      jump\t// out\n        /* \"#utility.yul\":6162:6275   */\n    tag_92:\n        /* \"#utility.yul\":6232:6236   */\n      0x00\n        /* \"#utility.yul\":6264:6268   */\n      0x20\n        /* \"#utility.yul\":6259:6262   */\n      dup3\n        /* \"#utility.yul\":6255:6269   */\n      add\n        /* \"#utility.yul\":6247:6269   */\n      swap1\n      pop\n        /* \"#utility.yul\":6237:6275   */\n      swap2\n      swap1\n      pop\n      jump\t// out\n        /* \"#utility.yul\":6281:6465   */\n    tag_84:\n        /* \"#utility.yul\":6380:6391   */\n      0x00\n        /* \"#utility.yul\":6414:6420   */\n      dup3\n        /* \"#utility.yul\":6409:6412   */\n      dup3\n        /* \"#utility.yul\":6402:6421   */\n      mstore\n        /* \"#utility.yul\":6454:6458   */\n      0x20\n        /* \"#utility.yul\":6449:6452   */\n      dup3\n        /* \"#utility.yul\":6445:6459   */\n      add\n        /* \"#utility.yul\":6430:6459   */\n      swap1\n      pop\n        /* \"#utility.yul\":6392:6465   */\n      swap3\n      swap2\n      pop\n      pop\n      jump\t// out\n        /* \"#utility.yul\":6471:6640   */\n    tag_98:\n        /* \"#utility.yul\":6555:6566   */\n      0x00\n        /* \"#utility.yul\":6589:6595   */\n      dup3\n        /* \"#utility.yul\":6584:6587   */\n      dup3\n        /* \"#utility.yul\":6577:6596   */\n      mstore\n        /* \"#utility.yul\":6629:6633   */\n      0x20\n        /* \"#utility.yul\":6624:6627   */\n      dup3\n        /* \"#utility.yul\":6620:6634   */\n      add\n        /* \"#utility.yul\":6605:6634   */\n      swap1\n      pop\n        /* \"#utility.yul\":6567:6640   */\n      swap3\n      swap2\n      pop\n      pop\n      jump\t// out\n        /* \"#utility.yul\":6646:6742   */\n    tag_75:\n        /* \"#utility.yul\":6683:6690   */\n      0x00\n        /* \"#utility.yul\":6712:6736   */\n      tag_135\n        /* \"#utility.yul\":6730:6735   */\n      dup3\n        /* \"#utility.yul\":6712:6736   */\n      tag_136\n      jump\t// in\n    tag_135:\n        /* \"#utility.yul\":6701:6736   */\n      swap1\n      pop\n        /* \"#utility.yul\":6691:6742   */\n      swap2\n      swap1\n      pop\n      jump\t// out\n        /* \"#utility.yul\":6748:6874   */\n    tag_136:\n        /* \"#utility.yul\":6785:6792   */\n      0x00\n        /* \"#utility.yul\":6825:6867   */\n      0xffffffffffffffffffffffffffffffffffffffff\n        /* \"#utility.yul\":6818:6823   */\n      dup3\n        /* \"#utility.yul\":6814:6868   */\n      and\n        /* \"#utility.yul\":6803:6868   */\n      swap1\n      pop\n        /* \"#utility.yul\":6793:6874   */\n      swap2\n      swap1\n      pop\n      jump\t// out\n        /* \"#utility.yul\":6880:6957   */\n    tag_106:\n        /* \"#utility.yul\":6917:6924   */\n      0x00\n        /* \"#utility.yul\":6946:6951   */\n      dup2\n        /* \"#utility.yul\":6935:6951   */\n      swap1\n      pop\n        /* \"#utility.yul\":6925:6957   */\n      swap2\n      swap1\n      pop\n      jump\t// out\n        /* \"#utility.yul\":6963:7117   */\n    tag_43:\n        /* \"#utility.yul\":7047:7053   */\n      dup3\n        /* \"#utility.yul\":7042:7045   */\n      dup2\n        /* \"#utility.yul\":7037:7040   */\n      dup4\n        /* \"#utility.yul\":7024:7054   */\n      calldatacopy\n        /* \"#utility.yul\":7109:7110   */\n      0x00\n        /* \"#utility.yul\":7100:7106   */\n      dup4\n        /* \"#utility.yul\":7095:7098   */\n      dup4\n        /* \"#utility.yul\":7091:7107   */\n      add\n        /* \"#utility.yul\":7084:7111   */\n      mstore\n        /* \"#utility.yul\":7014:7117   */\n      pop\n      pop\n      pop\n      jump\t// out\n        /* \"#utility.yul\":7123:7430   */\n    tag_100:\n        /* \"#utility.yul\":7191:7192   */\n      0x00\n        /* \"#utility.yul\":7201:7314   */\n    tag_141:\n        /* \"#utility.yul\":7215:7221   */\n      dup4\n        /* \"#utility.yul\":7212:7213   */\n      dup2\n        /* \"#utility.yul\":7209:7222   */\n      lt\n        /* \"#utility.yul\":7201:7314   */\n      iszero\n      tag_143\n      jumpi\n        /* \"#utility.yul\":7300:7301   */\n      dup1\n        /* \"#utility.yul\":7295:7298   */\n      dup3\n        /* \"#utility.yul\":7291:7302   */\n      add\n        /* \"#utility.yul\":7285:7303   */\n      mload\n        /* \"#utility.yul\":7281:7282   */\n      dup2\n        /* \"#utility.yul\":7276:7279   */\n      dup5\n        /* \"#utility.yul\":7272:7283   */\n      add\n        /* \"#utility.yul\":7265:7304   */\n      mstore\n        /* \"#utility.yul\":7237:7239   */\n      0x20\n        /* \"#utility.yul\":7234:7235   */\n      dup2\n        /* \"#utility.yul\":7230:7240   */\n      add\n        /* \"#utility.yul\":7225:7240   */\n      swap1\n      pop\n        /* \"#utility.yul\":7201:7314   */\n      jump(tag_141)\n    tag_143:\n        /* \"#utility.yul\":7332:7338   */\n      dup4\n        /* \"#utility.yul\":7329:7330   */\n      dup2\n        /* \"#utility.yul\":7326:7339   */\n      gt\n        /* \"#utility.yul\":7323:7325   */\n      iszero\n      tag_144\n      jumpi\n        /* \"#utility.yul\":7412:7413   */\n      0x00\n        /* \"#utility.yul\":7403:7409   */\n      dup5\n        /* \"#utility.yul\":7398:7401   */\n      dup5\n        /* \"#utility.yul\":7394:7410   */\n      add\n        /* \"#utility.yul\":7387:7414   */\n      mstore\n        /* \"#utility.yul\":7323:7325   */\n    tag_144:\n        /* \"#utility.yul\":7172:7430   */\n      pop\n      pop\n      pop\n      pop\n      jump\t// out\n        /* \"#utility.yul\":7436:7717   */\n    tag_121:\n        /* \"#utility.yul\":7519:7546   */\n      tag_146\n        /* \"#utility.yul\":7541:7545   */\n      dup3\n        /* \"#utility.yul\":7519:7546   */\n      tag_102\n      jump\t// in\n    tag_146:\n        /* \"#utility.yul\":7511:7517   */\n      dup2\n        /* \"#utility.yul\":7507:7547   */\n      add\n        /* \"#utility.yul\":7649:7655   */\n      dup2\n        /* \"#utility.yul\":7637:7647   */\n      dup2\n        /* \"#utility.yul\":7634:7656   */\n      lt\n        /* \"#utility.yul\":7613:7631   */\n      0xffffffffffffffff\n        /* \"#utility.yul\":7601:7611   */\n      dup3\n        /* \"#utility.yul\":7598:7632   */\n      gt\n        /* \"#utility.yul\":7595:7657   */\n      or\n        /* \"#utility.yul\":7592:7594   */\n      iszero\n      tag_147\n      jumpi\n        /* \"#utility.yul\":7660:7678   */\n      tag_148\n      tag_126\n      jump\t// in\n    tag_148:\n        /* \"#utility.yul\":7592:7594   */\n    tag_147:\n        /* \"#utility.yul\":7700:7710   */\n      dup1\n        /* \"#utility.yul\":7696:7698   */\n      0x40\n        /* \"#utility.yul\":7689:7711   */\n      mstore\n        /* \"#utility.yul\":7479:7717   */\n      pop\n      pop\n      pop\n      jump\t// out\n        /* \"#utility.yul\":7723:7903   */\n    tag_126:\n        /* \"#utility.yul\":7771:7848   */\n      0x4e487b7100000000000000000000000000000000000000000000000000000000\n        /* \"#utility.yul\":7768:7769   */\n      0x00\n        /* \"#utility.yul\":7761:7849   */\n      mstore\n        /* \"#utility.yul\":7868:7872   */\n      0x41\n        /* \"#utility.yul\":7865:7866   */\n      0x04\n        /* \"#utility.yul\":7858:7873   */\n      mstore\n        /* \"#utility.yul\":7892:7896   */\n      0x24\n        /* \"#utility.yul\":7889:7890   */\n      0x00\n        /* \"#utility.yul\":7882:7897   */\n      revert\n        /* \"#utility.yul\":7909:8026   */\n    tag_48:\n        /* \"#utility.yul\":8018:8019   */\n      0x00\n        /* \"#utility.yul\":8015:8016   */\n      dup1\n        /* \"#utility.yul\":8008:8020   */\n      revert\n        /* \"#utility.yul\":8032:8149   */\n    tag_41:\n        /* \"#utility.yul\":8141:8142   */\n      0x00\n        /* \"#utility.yul\":8138:8139   */\n      dup1\n        /* \"#utility.yul\":8131:8143   */\n      revert\n        /* \"#utility.yul\":8155:8272   */\n    tag_60:\n        /* \"#utility.yul\":8264:8265   */\n      0x00\n        /* \"#utility.yul\":8261:8262   */\n      dup1\n        /* \"#utility.yul\":8254:8266   */\n      revert\n        /* \"#utility.yul\":8278:8395   */\n    tag_57:\n        /* \"#utility.yul\":8387:8388   */\n      0x00\n        /* \"#utility.yul\":8384:8385   */\n      dup1\n        /* \"#utility.yul\":8377:8389   */\n      revert\n        /* \"#utility.yul\":8401:8503   */\n    tag_102:\n        /* \"#utility.yul\":8442:8448   */\n      0x00\n        /* \"#utility.yul\":8493:8495   */\n      0x1f\n        /* \"#utility.yul\":8489:8496   */\n      not\n        /* \"#utility.yul\":8484:8486   */\n      0x1f\n        /* \"#utility.yul\":8477:8482   */\n      dup4\n        /* \"#utility.yul\":8473:8487   */\n      add\n        /* \"#utility.yul\":8469:8497   */\n      and\n        /* \"#utility.yul\":8459:8497   */\n      swap1\n      pop\n        /* \"#utility.yul\":8449:8503   */\n      swap2\n      swap1\n      pop\n      jump\t// out\n        /* \"#utility.yul\":8509:8631   */\n    tag_53:\n        /* \"#utility.yul\":8582:8606   */\n      tag_156\n        /* \"#utility.yul\":8600:8605   */\n      dup2\n        /* \"#utility.yul\":8582:8606   */\n      tag_106\n      jump\t// in\n    tag_156:\n        /* \"#utility.yul\":8575:8580   */\n      dup2\n        /* \"#utility.yul\":8572:8607   */\n      eq\n        /* \"#utility.yul\":8562:8564   */\n      tag_157\n      jumpi\n        /* \"#utility.yul\":8621:8622   */\n      0x00\n        /* \"#utility.yul\":8618:8619   */\n      dup1\n        /* \"#utility.yul\":8611:8623   */\n      revert\n        /* \"#utility.yul\":8562:8564   */\n    tag_157:\n        /* \"#utility.yul\":8552:8631   */\n      pop\n      jump\t// out\n    stop\n\n    sub_0: assembly {\n            /* \"Project.sol\":83:2910  contract Project {... */\n          mstore(0x40, 0x80)\n            /* \"Project.sol\":687:997  constructor(... */\n          callvalue\n          dup1\n          iszero\n          tag_1\n          jumpi\n          0x00\n          dup1\n          revert\n        tag_1:\n          pop\n          mload(0x40)\n          sub(codesize, bytecodeSize)\n          dup1\n          bytecodeSize\n          dup4\n          codecopy\n          dup2\n          dup2\n          add\n          0x40\n          mstore\n          dup2\n          add\n          swap1\n          tag_2\n          swap2\n          swap1\n          tag_3\n          jump\t// in\n        tag_2:\n            /* \"Project.sol\":862:868  _owner */\n          dup1\n            /* \"Project.sol\":854:859  owner */\n          0x00\n          dup1\n            /* \"Project.sol\":854:868  owner = _owner */\n          0x0100\n          exp\n          dup2\n          sload\n          dup2\n          0xffffffffffffffffffffffffffffffffffffffff\n          mul\n          not\n          and\n          swap1\n          dup4\n          0xffffffffffffffffffffffffffffffffffffffff\n          and\n          mul\n          or\n          swap1\n          sstore\n          pop\n            /* \"Project.sol\":892:904  _description */\n          dup5\n            /* \"Project.sol\":878:889  description */\n          0x01\n            /* \"Project.sol\":878:904  description = _description */\n          swap1\n          dup1\n          mload\n          swap1\n          0x20\n          add\n          swap1\n          tag_6\n          swap3\n          swap2\n          swap1\n          tag_7\n          jump\t// in\n        tag_6:\n          pop\n            /* \"Project.sol\":926:936  _minInvest */\n          dup4\n            /* \"Project.sol\":914:923  minInvest */\n          0x02\n            /* \"Project.sol\":914:936  minInvest = _minInvest */\n          dup2\n          swap1\n          sstore\n          pop\n            /* \"Project.sol\":958:968  _maxInvest */\n          dup3\n            /* \"Project.sol\":946:955  maxInvest */\n          0x03\n            /* \"Project.sol\":946:968  maxInvest = _maxInvest */\n          dup2\n          swap1\n          sstore\n          pop\n            /* \"Project.sol\":985:990  _goal */\n          dup2\n            /* \"Project.sol\":978:982  goal */\n          0x04\n            /* \"Project.sol\":978:990  goal = _goal */\n          dup2\n          swap1\n          sstore\n          pop\n            /* \"Project.sol\":687:997  constructor(... */\n          pop\n          pop\n          pop\n          pop\n          pop\n            /* \"Project.sol\":83:2910  contract Project {... */\n          jump(tag_8)\n        tag_7:\n          dup3\n          dup1\n          sload\n          tag_9\n          swap1\n          tag_10\n          jump\t// in\n        tag_9:\n          swap1\n          0x00\n          mstore\n          keccak256(0x00, 0x20)\n          swap1\n          0x1f\n          add\n          0x20\n          swap1\n          div\n          dup2\n          add\n          swap3\n          dup3\n          tag_12\n          jumpi\n          0x00\n          dup6\n          sstore\n          jump(tag_11)\n        tag_12:\n          dup3\n          0x1f\n          lt\n          tag_13\n          jumpi\n          dup1\n          mload\n          not(0xff)\n          and\n          dup4\n          dup1\n          add\n          or\n          dup6\n          sstore\n          jump(tag_11)\n        tag_13:\n          dup3\n          dup1\n          add\n          0x01\n          add\n          dup6\n          sstore\n          dup3\n          iszero\n          tag_11\n          jumpi\n          swap2\n          dup3\n          add\n        tag_14:\n          dup3\n          dup2\n          gt\n          iszero\n          tag_15\n          jumpi\n          dup3\n          mload\n          dup3\n          sstore\n          swap2\n          0x20\n          add\n          swap2\n          swap1\n          0x01\n          add\n          swap1\n          jump(tag_14)\n        tag_15:\n        tag_11:\n          pop\n          swap1\n          pop\n          tag_16\n          swap2\n          swap1\n          tag_17\n          jump\t// in\n        tag_16:\n          pop\n          swap1\n          jump\t// out\n        tag_17:\n        tag_18:\n          dup1\n          dup3\n          gt\n          iszero\n          tag_19\n          jumpi\n          0x00\n          dup2\n          0x00\n          swap1\n          sstore\n          pop\n          0x01\n          add\n          jump(tag_18)\n        tag_19:\n          pop\n          swap1\n          jump\t// out\n            /* \"#utility.yul\":7:428   */\n        tag_21:\n            /* \"#utility.yul\":96:101   */\n          0x00\n            /* \"#utility.yul\":121:187   */\n          tag_23\n            /* \"#utility.yul\":137:186   */\n          tag_24\n            /* \"#utility.yul\":179:185   */\n          dup5\n            /* \"#utility.yul\":137:186   */\n          tag_25\n          jump\t// in\n        tag_24:\n            /* \"#utility.yul\":121:187   */\n          tag_26\n          jump\t// in\n        tag_23:\n            /* \"#utility.yul\":112:187   */\n          swap1\n          pop\n            /* \"#utility.yul\":210:216   */\n          dup3\n            /* \"#utility.yul\":203:208   */\n          dup2\n            /* \"#utility.yul\":196:217   */\n          mstore\n            /* \"#utility.yul\":248:252   */\n          0x20\n            /* \"#utility.yul\":241:246   */\n          dup2\n            /* \"#utility.yul\":237:253   */\n          add\n            /* \"#utility.yul\":286:289   */\n          dup5\n            /* \"#utility.yul\":277:283   */\n          dup5\n            /* \"#utility.yul\":272:275   */\n          dup5\n            /* \"#utility.yul\":268:284   */\n          add\n            /* \"#utility.yul\":265:290   */\n          gt\n            /* \"#utility.yul\":262:264   */\n          iszero\n          tag_27\n          jumpi\n            /* \"#utility.yul\":293:372   */\n          tag_28\n          tag_29\n          jump\t// in\n        tag_28:\n            /* \"#utility.yul\":262:264   */\n        tag_27:\n            /* \"#utility.yul\":383:422   */\n          tag_30\n            /* \"#utility.yul\":415:421   */\n          dup5\n            /* \"#utility.yul\":410:413   */\n          dup3\n            /* \"#utility.yul\":405:408   */\n          dup6\n            /* \"#utility.yul\":383:422   */\n          tag_31\n          jump\t// in\n        tag_30:\n            /* \"#utility.yul\":102:428   */\n          pop\n          swap4\n          swap3\n          pop\n          pop\n          pop\n          jump\t// out\n            /* \"#utility.yul\":434:577   */\n        tag_32:\n            /* \"#utility.yul\":491:496   */\n          0x00\n            /* \"#utility.yul\":522:528   */\n          dup2\n            /* \"#utility.yul\":516:529   */\n          mload\n            /* \"#utility.yul\":507:529   */\n          swap1\n          pop\n            /* \"#utility.yul\":538:571   */\n          tag_34\n            /* \"#utility.yul\":565:570   */\n          dup2\n            /* \"#utility.yul\":538:571   */\n          tag_35\n          jump\t// in\n        tag_34:\n            /* \"#utility.yul\":497:577   */\n          swap3\n          swap2\n          pop\n          pop\n          jump\t// out\n            /* \"#utility.yul\":597:952   */\n        tag_36:\n            /* \"#utility.yul\":664:669   */\n          0x00\n            /* \"#utility.yul\":713:716   */\n          dup3\n            /* \"#utility.yul\":706:710   */\n          0x1f\n            /* \"#utility.yul\":698:704   */\n          dup4\n            /* \"#utility.yul\":694:711   */\n          add\n            /* \"#utility.yul\":690:717   */\n          slt\n            /* \"#utility.yul\":680:682   */\n          tag_38\n          jumpi\n            /* \"#utility.yul\":721:800   */\n          tag_39\n          tag_40\n          jump\t// in\n        tag_39:\n            /* \"#utility.yul\":680:682   */\n        tag_38:\n            /* \"#utility.yul\":831:837   */\n          dup2\n            /* \"#utility.yul\":825:838   */\n          mload\n            /* \"#utility.yul\":856:946   */\n          tag_41\n            /* \"#utility.yul\":942:945   */\n          dup5\n            /* \"#utility.yul\":934:940   */\n          dup3\n            /* \"#utility.yul\":927:931   */\n          0x20\n            /* \"#utility.yul\":919:925   */\n          dup7\n            /* \"#utility.yul\":915:932   */\n          add\n            /* \"#utility.yul\":856:946   */\n          tag_21\n          jump\t// in\n        tag_41:\n            /* \"#utility.yul\":847:946   */\n          swap2\n          pop\n            /* \"#utility.yul\":670:952   */\n          pop\n          swap3\n          swap2\n          pop\n          pop\n          jump\t// out\n            /* \"#utility.yul\":958:1101   */\n        tag_42:\n            /* \"#utility.yul\":1015:1020   */\n          0x00\n            /* \"#utility.yul\":1046:1052   */\n          dup2\n            /* \"#utility.yul\":1040:1053   */\n          mload\n            /* \"#utility.yul\":1031:1053   */\n          swap1\n          pop\n            /* \"#utility.yul\":1062:1095   */\n          tag_44\n            /* \"#utility.yul\":1089:1094   */\n          dup2\n            /* \"#utility.yul\":1062:1095   */\n          tag_45\n          jump\t// in\n        tag_44:\n            /* \"#utility.yul\":1021:1101   */\n          swap3\n          swap2\n          pop\n          pop\n          jump\t// out\n            /* \"#utility.yul\":1107:2257   */\n        tag_3:\n            /* \"#utility.yul\":1223:1229   */\n          0x00\n            /* \"#utility.yul\":1231:1237   */\n          dup1\n            /* \"#utility.yul\":1239:1245   */\n          0x00\n            /* \"#utility.yul\":1247:1253   */\n          dup1\n            /* \"#utility.yul\":1255:1261   */\n          0x00\n            /* \"#utility.yul\":1304:1307   */\n          0xa0\n            /* \"#utility.yul\":1292:1301   */\n          dup7\n            /* \"#utility.yul\":1283:1290   */\n          dup9\n            /* \"#utility.yul\":1279:1302   */\n          sub\n            /* \"#utility.yul\":1275:1308   */\n          slt\n            /* \"#utility.yul\":1272:1274   */\n          iszero\n          tag_47\n          jumpi\n            /* \"#utility.yul\":1311:1390   */\n          tag_48\n          tag_49\n          jump\t// in\n        tag_48:\n            /* \"#utility.yul\":1272:1274   */\n        tag_47:\n            /* \"#utility.yul\":1452:1453   */\n          0x00\n            /* \"#utility.yul\":1441:1450   */\n          dup7\n            /* \"#utility.yul\":1437:1454   */\n          add\n            /* \"#utility.yul\":1431:1455   */\n          mload\n            /* \"#utility.yul\":1482:1500   */\n          0xffffffffffffffff\n            /* \"#utility.yul\":1474:1480   */\n          dup2\n            /* \"#utility.yul\":1471:1501   */\n          gt\n            /* \"#utility.yul\":1468:1470   */\n          iszero\n          tag_50\n          jumpi\n            /* \"#utility.yul\":1504:1583   */\n          tag_51\n          tag_52\n          jump\t// in\n        tag_51:\n            /* \"#utility.yul\":1468:1470   */\n        tag_50:\n            /* \"#utility.yul\":1609:1683   */\n          tag_53\n            /* \"#utility.yul\":1675:1682   */\n          dup9\n            /* \"#utility.yul\":1666:1672   */\n          dup3\n            /* \"#utility.yul\":1655:1664   */\n          dup10\n            /* \"#utility.yul\":1651:1673   */\n          add\n            /* \"#utility.yul\":1609:1683   */\n          tag_36\n          jump\t// in\n        tag_53:\n            /* \"#utility.yul\":1599:1683   */\n          swap6\n          pop\n            /* \"#utility.yul\":1402:1693   */\n          pop\n            /* \"#utility.yul\":1732:1734   */\n          0x20\n            /* \"#utility.yul\":1758:1822   */\n          tag_54\n            /* \"#utility.yul\":1814:1821   */\n          dup9\n            /* \"#utility.yul\":1805:1811   */\n          dup3\n            /* \"#utility.yul\":1794:1803   */\n          dup10\n            /* \"#utility.yul\":1790:1812   */\n          add\n            /* \"#utility.yul\":1758:1822   */\n          tag_42\n          jump\t// in\n        tag_54:\n            /* \"#utility.yul\":1748:1822   */\n          swap5\n          pop\n            /* \"#utility.yul\":1703:1832   */\n          pop\n            /* \"#utility.yul\":1871:1873   */\n          0x40\n            /* \"#utility.yul\":1897:1961   */\n          tag_55\n            /* \"#utility.yul\":1953:1960   */\n          dup9\n            /* \"#utility.yul\":1944:1950   */\n          dup3\n            /* \"#utility.yul\":1933:1942   */\n          dup10\n            /* \"#utility.yul\":1929:1951   */\n          add\n            /* \"#utility.yul\":1897:1961   */\n          tag_42\n          jump\t// in\n        tag_55:\n            /* \"#utility.yul\":1887:1961   */\n          swap4\n          pop\n            /* \"#utility.yul\":1842:1971   */\n          pop\n            /* \"#utility.yul\":2010:2012   */\n          0x60\n            /* \"#utility.yul\":2036:2100   */\n          tag_56\n            /* \"#utility.yul\":2092:2099   */\n          dup9\n            /* \"#utility.yul\":2083:2089   */\n          dup3\n            /* \"#utility.yul\":2072:2081   */\n          dup10\n            /* \"#utility.yul\":2068:2090   */\n          add\n            /* \"#utility.yul\":2036:2100   */\n          tag_42\n          jump\t// in\n        tag_56:\n            /* \"#utility.yul\":2026:2100   */\n          swap3\n          pop\n            /* \"#utility.yul\":1981:2110   */\n          pop\n            /* \"#utility.yul\":2149:2152   */\n          0x80\n            /* \"#utility.yul\":2176:2240   */\n          tag_57\n            /* \"#utility.yul\":2232:2239   */\n          dup9\n            /* \"#utility.yul\":2223:2229   */\n          dup3\n            /* \"#utility.yul\":2212:2221   */\n          dup10\n            /* \"#utility.yul\":2208:2230   */\n          add\n            /* \"#utility.yul\":2176:2240   */\n          tag_32\n          jump\t// in\n        tag_57:\n            /* \"#utility.yul\":2166:2240   */\n          swap2\n          pop\n            /* \"#utility.yul\":2120:2250   */\n          pop\n            /* \"#utility.yul\":1262:2257   */\n          swap3\n          swap6\n          pop\n          swap3\n          swap6\n          swap1\n          swap4\n          pop\n          jump\t// out\n            /* \"#utility.yul\":2263:2392   */\n        tag_26:\n            /* \"#utility.yul\":2297:2303   */\n          0x00\n            /* \"#utility.yul\":2324:2344   */\n          tag_59\n          tag_60\n          jump\t// in\n        tag_59:\n            /* \"#utility.yul\":2314:2344   */\n          swap1\n          pop\n            /* \"#utility.yul\":2353:2386   */\n          tag_61\n            /* \"#utility.yul\":2381:2385   */\n          dup3\n            /* \"#utility.yul\":2373:2379   */\n          dup3\n            /* \"#utility.yul\":2353:2386   */\n          tag_62\n          jump\t// in\n        tag_61:\n            /* \"#utility.yul\":2304:2392   */\n          swap2\n          swap1\n          pop\n          jump\t// out\n            /* \"#utility.yul\":2398:2473   */\n        tag_60:\n            /* \"#utility.yul\":2431:2437   */\n          0x00\n            /* \"#utility.yul\":2464:2466   */\n          0x40\n            /* \"#utility.yul\":2458:2467   */\n          mload\n            /* \"#utility.yul\":2448:2467   */\n          swap1\n          pop\n            /* \"#utility.yul\":2438:2473   */\n          swap1\n          jump\t// out\n            /* \"#utility.yul\":2479:2787   */\n        tag_25:\n            /* \"#utility.yul\":2541:2545   */\n          0x00\n            /* \"#utility.yul\":2631:2649   */\n          0xffffffffffffffff\n            /* \"#utility.yul\":2623:2629   */\n          dup3\n            /* \"#utility.yul\":2620:2650   */\n          gt\n            /* \"#utility.yul\":2617:2619   */\n          iszero\n          tag_65\n          jumpi\n            /* \"#utility.yul\":2653:2671   */\n          tag_66\n          tag_67\n          jump\t// in\n        tag_66:\n            /* \"#utility.yul\":2617:2619   */\n        tag_65:\n            /* \"#utility.yul\":2691:2720   */\n          tag_68\n            /* \"#utility.yul\":2713:2719   */\n          dup3\n            /* \"#utility.yul\":2691:2720   */\n          tag_69\n          jump\t// in\n        tag_68:\n            /* \"#utility.yul\":2683:2720   */\n          swap1\n          pop\n            /* \"#utility.yul\":2775:2779   */\n          0x20\n            /* \"#utility.yul\":2769:2773   */\n          dup2\n            /* \"#utility.yul\":2765:2780   */\n          add\n            /* \"#utility.yul\":2757:2780   */\n          swap1\n          pop\n            /* \"#utility.yul\":2546:2787   */\n          swap2\n          swap1\n          pop\n          jump\t// out\n            /* \"#utility.yul\":2793:2889   */\n        tag_70:\n            /* \"#utility.yul\":2830:2837   */\n          0x00\n            /* \"#utility.yul\":2859:2883   */\n          tag_72\n            /* \"#utility.yul\":2877:2882   */\n          dup3\n            /* \"#utility.yul\":2859:2883   */\n          tag_73\n          jump\t// in\n        tag_72:\n            /* \"#utility.yul\":2848:2883   */\n          swap1\n          pop\n            /* \"#utility.yul\":2838:2889   */\n          swap2\n          swap1\n          pop\n          jump\t// out\n            /* \"#utility.yul\":2895:3021   */\n        tag_73:\n            /* \"#utility.yul\":2932:2939   */\n          0x00\n            /* \"#utility.yul\":2972:3014   */\n          0xffffffffffffffffffffffffffffffffffffffff\n            /* \"#utility.yul\":2965:2970   */\n          dup3\n            /* \"#utility.yul\":2961:3015   */\n          and\n            /* \"#utility.yul\":2950:3015   */\n          swap1\n          pop\n            /* \"#utility.yul\":2940:3021   */\n          swap2\n          swap1\n          pop\n          jump\t// out\n            /* \"#utility.yul\":3027:3104   */\n        tag_75:\n            /* \"#utility.yul\":3064:3071   */\n          0x00\n            /* \"#utility.yul\":3093:3098   */\n          dup2\n            /* \"#utility.yul\":3082:3098   */\n          swap1\n          pop\n            /* \"#utility.yul\":3072:3104   */\n          swap2\n          swap1\n          pop\n          jump\t// out\n            /* \"#utility.yul\":3110:3417   */\n        tag_31:\n            /* \"#utility.yul\":3178:3179   */\n          0x00\n            /* \"#utility.yul\":3188:3301   */\n        tag_78:\n            /* \"#utility.yul\":3202:3208   */\n          dup4\n            /* \"#utility.yul\":3199:3200   */\n          dup2\n            /* \"#utility.yul\":3196:3209   */\n          lt\n            /* \"#utility.yul\":3188:3301   */\n          iszero\n          tag_80\n          jumpi\n            /* \"#utility.yul\":3287:3288   */\n          dup1\n            /* \"#utility.yul\":3282:3285   */\n          dup3\n            /* \"#utility.yul\":3278:3289   */\n          add\n            /* \"#utility.yul\":3272:3290   */\n          mload\n            /* \"#utility.yul\":3268:3269   */\n          dup2\n            /* \"#utility.yul\":3263:3266   */\n          dup5\n            /* \"#utility.yul\":3259:3270   */\n          add\n            /* \"#utility.yul\":3252:3291   */\n          mstore\n            /* \"#utility.yul\":3224:3226   */\n          0x20\n            /* \"#utility.yul\":3221:3222   */\n          dup2\n            /* \"#utility.yul\":3217:3227   */\n          add\n            /* \"#utility.yul\":3212:3227   */\n          swap1\n          pop\n            /* \"#utility.yul\":3188:3301   */\n          jump(tag_78)\n        tag_80:\n            /* \"#utility.yul\":3319:3325   */\n          dup4\n            /* \"#utility.yul\":3316:3317   */\n          dup2\n            /* \"#utility.yul\":3313:3326   */\n          gt\n            /* \"#utility.yul\":3310:3312   */\n          iszero\n          tag_81\n          jumpi\n            /* \"#utility.yul\":3399:3400   */\n          0x00\n            /* \"#utility.yul\":3390:3396   */\n          dup5\n            /* \"#utility.yul\":3385:3388   */\n          dup5\n            /* \"#utility.yul\":3381:3397   */\n          add\n            /* \"#utility.yul\":3374:3401   */\n          mstore\n            /* \"#utility.yul\":3310:3312   */\n        tag_81:\n            /* \"#utility.yul\":3159:3417   */\n          pop\n          pop\n          pop\n          pop\n          jump\t// out\n            /* \"#utility.yul\":3423:3743   */\n        tag_10:\n            /* \"#utility.yul\":3467:3473   */\n          0x00\n            /* \"#utility.yul\":3504:3505   */\n          0x02\n            /* \"#utility.yul\":3498:3502   */\n          dup3\n            /* \"#utility.yul\":3494:3506   */\n          div\n            /* \"#utility.yul\":3484:3506   */\n          swap1\n          pop\n            /* \"#utility.yul\":3551:3552   */\n          0x01\n            /* \"#utility.yul\":3545:3549   */\n          dup3\n            /* \"#utility.yul\":3541:3553   */\n          and\n            /* \"#utility.yul\":3572:3590   */\n          dup1\n            /* \"#utility.yul\":3562:3564   */\n          tag_83\n          jumpi\n            /* \"#utility.yul\":3628:3632   */\n          0x7f\n            /* \"#utility.yul\":3620:3626   */\n          dup3\n            /* \"#utility.yul\":3616:3633   */\n          and\n            /* \"#utility.yul\":3606:3633   */\n          swap2\n          pop\n            /* \"#utility.yul\":3562:3564   */\n        tag_83:\n            /* \"#utility.yul\":3690:3692   */\n          0x20\n            /* \"#utility.yul\":3682:3688   */\n          dup3\n            /* \"#utility.yul\":3679:3693   */\n          lt\n            /* \"#utility.yul\":3659:3677   */\n          dup2\n            /* \"#utility.yul\":3656:3694   */\n          eq\n            /* \"#utility.yul\":3653:3655   */\n          iszero\n          tag_84\n          jumpi\n            /* \"#utility.yul\":3709:3727   */\n          tag_85\n          tag_86\n          jump\t// in\n        tag_85:\n            /* \"#utility.yul\":3653:3655   */\n        tag_84:\n            /* \"#utility.yul\":3474:3743   */\n          pop\n          swap2\n          swap1\n          pop\n          jump\t// out\n            /* \"#utility.yul\":3749:4030   */\n        tag_62:\n            /* \"#utility.yul\":3832:3859   */\n          tag_88\n            /* \"#utility.yul\":3854:3858   */\n          dup3\n            /* \"#utility.yul\":3832:3859   */\n          tag_69\n          jump\t// in\n        tag_88:\n            /* \"#utility.yul\":3824:3830   */\n          dup2\n            /* \"#utility.yul\":3820:3860   */\n          add\n            /* \"#utility.yul\":3962:3968   */\n          dup2\n            /* \"#utility.yul\":3950:3960   */\n          dup2\n            /* \"#utility.yul\":3947:3969   */\n          lt\n            /* \"#utility.yul\":3926:3944   */\n          0xffffffffffffffff\n            /* \"#utility.yul\":3914:3924   */\n          dup3\n            /* \"#utility.yul\":3911:3945   */\n          gt\n            /* \"#utility.yul\":3908:3970   */\n          or\n            /* \"#utility.yul\":3905:3907   */\n          iszero\n          tag_89\n          jumpi\n            /* \"#utility.yul\":3973:3991   */\n          tag_90\n          tag_67\n          jump\t// in\n        tag_90:\n            /* \"#utility.yul\":3905:3907   */\n        tag_89:\n            /* \"#utility.yul\":4013:4023   */\n          dup1\n            /* \"#utility.yul\":4009:4011   */\n          0x40\n            /* \"#utility.yul\":4002:4024   */\n          mstore\n            /* \"#utility.yul\":3792:4030   */\n          pop\n          pop\n          pop\n          jump\t// out\n            /* \"#utility.yul\":4036:4216   */\n        tag_86:\n            /* \"#utility.yul\":4084:4161   */\n          0x4e487b7100000000000000000000000000000000000000000000000000000000\n            /* \"#utility.yul\":4081:4082   */\n          0x00\n            /* \"#utility.yul\":4074:4162   */\n          mstore\n            /* \"#utility.yul\":4181:4185   */\n          0x22\n            /* \"#utility.yul\":4178:4179   */\n          0x04\n            /* \"#utility.yul\":4171:4186   */\n          mstore\n            /* \"#utility.yul\":4205:4209   */\n          0x24\n            /* \"#utility.yul\":4202:4203   */\n          0x00\n            /* \"#utility.yul\":4195:4210   */\n          revert\n            /* \"#utility.yul\":4222:4402   */\n        tag_67:\n            /* \"#utility.yul\":4270:4347   */\n          0x4e487b7100000000000000000000000000000000000000000000000000000000\n            /* \"#utility.yul\":4267:4268   */\n          0x00\n            /* \"#utility.yul\":4260:4348   */\n          mstore\n            /* \"#utility.yul\":4367:4371   */\n          0x41\n            /* \"#utility.yul\":4364:4365   */\n          0x04\n            /* \"#utility.yul\":4357:4372   */\n          mstore\n            /* \"#utility.yul\":4391:4395   */\n          0x24\n            /* \"#utility.yul\":4388:4389   */\n          0x00\n            /* \"#utility.yul\":4381:4396   */\n          revert\n            /* \"#utility.yul\":4408:4525   */\n        tag_40:\n            /* \"#utility.yul\":4517:4518   */\n          0x00\n            /* \"#utility.yul\":4514:4515   */\n          dup1\n            /* \"#utility.yul\":4507:4519   */\n          revert\n            /* \"#utility.yul\":4531:4648   */\n        tag_29:\n            /* \"#utility.yul\":4640:4641   */\n          0x00\n            /* \"#utility.yul\":4637:4638   */\n          dup1\n            /* \"#utility.yul\":4630:4642   */\n          revert\n            /* \"#utility.yul\":4654:4771   */\n        tag_52:\n            /* \"#utility.yul\":4763:4764   */\n          0x00\n            /* \"#utility.yul\":4760:4761   */\n          dup1\n            /* \"#utility.yul\":4753:4765   */\n          revert\n            /* \"#utility.yul\":4777:4894   */\n        tag_49:\n            /* \"#utility.yul\":4886:4887   */\n          0x00\n            /* \"#utility.yul\":4883:4884   */\n          dup1\n            /* \"#utility.yul\":4876:4888   */\n          revert\n            /* \"#utility.yul\":4900:5002   */\n        tag_69:\n            /* \"#utility.yul\":4941:4947   */\n          0x00\n            /* \"#utility.yul\":4992:4994   */\n          0x1f\n            /* \"#utility.yul\":4988:4995   */\n          not\n            /* \"#utility.yul\":4983:4985   */\n          0x1f\n            /* \"#utility.yul\":4976:4981   */\n          dup4\n            /* \"#utility.yul\":4972:4986   */\n          add\n            /* \"#utility.yul\":4968:4996   */\n          and\n            /* \"#utility.yul\":4958:4996   */\n          swap1\n          pop\n            /* \"#utility.yul\":4948:5002   */\n          swap2\n          swap1\n          pop\n          jump\t// out\n            /* \"#utility.yul\":5008:5130   */\n        tag_35:\n            /* \"#utility.yul\":5081:5105   */\n          tag_99\n            /* \"#utility.yul\":5099:5104   */\n          dup2\n            /* \"#utility.yul\":5081:5105   */\n          tag_70\n          jump\t// in\n        tag_99:\n            /* \"#utility.yul\":5074:5079   */\n          dup2\n            /* \"#utility.yul\":5071:5106   */\n          eq\n            /* \"#utility.yul\":5061:5063   */\n          tag_100\n          jumpi\n            /* \"#utility.yul\":5120:5121   */\n          0x00\n            /* \"#utility.yul\":5117:5118   */\n          dup1\n            /* \"#utility.yul\":5110:5122   */\n          revert\n            /* \"#utility.yul\":5061:5063   */\n        tag_100:\n            /* \"#utility.yul\":5051:5130   */\n          pop\n          jump\t// out\n            /* \"#utility.yul\":5136:5258   */\n        tag_45:\n            /* \"#utility.yul\":5209:5233   */\n          tag_102\n            /* \"#utility.yul\":5227:5232   */\n          dup2\n            /* \"#utility.yul\":5209:5233   */\n          tag_75\n          jump\t// in\n        tag_102:\n            /* \"#utility.yul\":5202:5207   */\n          dup2\n            /* \"#utility.yul\":5199:5234   */\n          eq\n            /* \"#utility.yul\":5189:5191   */\n          tag_103\n          jumpi\n            /* \"#utility.yul\":5248:5249   */\n          0x00\n            /* \"#utility.yul\":5245:5246   */\n          dup1\n            /* \"#utility.yul\":5238:5250   */\n          revert\n            /* \"#utility.yul\":5189:5191   */\n        tag_103:\n            /* \"#utility.yul\":5179:5258   */\n          pop\n          jump\t// out\n            /* \"Project.sol\":83:2910  contract Project {... */\n        tag_8:\n          dataSize(sub_0)\n          dup1\n          dataOffset(sub_0)\n          0x00\n          codecopy\n          0x00\n          return\n        stop\n\n        sub_0: assembly {\n                /* \"Project.sol\":83:2910  contract Project {... */\n              mstore(0x40, 0x80)\n              jumpi(tag_1, lt(calldatasize, 0x04))\n              shr(0xe0, calldataload(0x00))\n              dup1\n              0x7284e416\n              gt\n              tag_15\n              jumpi\n              dup1\n              0xd2b8b867\n              gt\n              tag_16\n              jumpi\n              dup1\n              0xd2b8b867\n              eq\n              tag_11\n              jumpi\n              dup1\n              0xd7bb99ba\n              eq\n              tag_12\n              jumpi\n              dup1\n              0xd7e64c00\n              eq\n              tag_13\n              jumpi\n              dup1\n              0xde14c818\n              eq\n              tag_14\n              jumpi\n              jump(tag_1)\n            tag_16:\n              dup1\n              0x7284e416\n              eq\n              tag_8\n              jumpi\n              dup1\n              0x87d81789\n              eq\n              tag_9\n              jumpi\n              dup1\n              0x8da5cb5b\n              eq\n              tag_10\n              jumpi\n              jump(tag_1)\n            tag_15:\n              dup1\n              0x03120d46\n              eq\n              tag_2\n              jumpi\n              dup1\n              0x3110235a\n              eq\n              tag_3\n              jumpi\n              dup1\n              0x40193883\n              eq\n              tag_4\n              jumpi\n              dup1\n              0x4051ddac\n              eq\n              tag_5\n              jumpi\n              dup1\n              0x63fd9e38\n              eq\n              tag_6\n              jumpi\n              dup1\n              0x6f7bc9be\n              eq\n              tag_7\n              jumpi\n            tag_1:\n              0x00\n              dup1\n              revert\n                /* \"Project.sol\":1336:1820  function createPayment(... */\n            tag_2:\n              callvalue\n              dup1\n              iszero\n              tag_17\n              jumpi\n              0x00\n              dup1\n              revert\n            tag_17:\n              pop\n              tag_18\n              0x04\n              dup1\n              calldatasize\n              sub\n              dup2\n              add\n              swap1\n              tag_19\n              swap2\n              swap1\n              tag_20\n              jump\t// in\n            tag_19:\n              tag_21\n              jump\t// in\n            tag_18:\n              stop\n                /* \"Project.sol\":433:457  uint256 public maxInvest */\n            tag_3:\n              callvalue\n              dup1\n              iszero\n              tag_22\n              jumpi\n              0x00\n              dup1\n              revert\n            tag_22:\n              pop\n              tag_23\n              tag_24\n              jump\t// in\n            tag_23:\n              mload(0x40)\n              tag_25\n              swap2\n              swap1\n              tag_26\n              jump\t// in\n            tag_25:\n              mload(0x40)\n              dup1\n              swap2\n              sub\n              swap1\n              return\n                /* \"Project.sol\":463:482  uint256 public goal */\n            tag_4:\n              callvalue\n              dup1\n              iszero\n              tag_27\n              jumpi\n              0x00\n              dup1\n              revert\n            tag_27:\n              pop\n              tag_28\n              tag_29\n              jump\t// in\n            tag_28:\n              mload(0x40)\n              tag_30\n              swap2\n              swap1\n              tag_26\n              jump\t// in\n            tag_30:\n              mload(0x40)\n              dup1\n              swap2\n              sub\n              swap1\n              return\n                /* \"Project.sol\":2526:2908  function getSummary()... */\n            tag_5:\n              callvalue\n              dup1\n              iszero\n              tag_31\n              jumpi\n              0x00\n              dup1\n              revert\n            tag_31:\n              pop\n              tag_32\n              tag_33\n              jump\t// in\n            tag_32:\n              mload(0x40)\n              tag_34\n              swap9\n              swap8\n              swap7\n              swap6\n              swap5\n              swap4\n              swap3\n              swap2\n              swap1\n              tag_35\n              jump\t// in\n            tag_34:\n              mload(0x40)\n              dup1\n              swap2\n              sub\n              swap1\n              return\n                /* \"Project.sol\":403:427  uint256 public minInvest */\n            tag_6:\n              callvalue\n              dup1\n              iszero\n              tag_36\n              jumpi\n              0x00\n              dup1\n              revert\n            tag_36:\n              pop\n              tag_37\n              tag_38\n              jump\t// in\n            tag_37:\n              mload(0x40)\n              tag_39\n              swap2\n              swap1\n              tag_26\n              jump\t// in\n            tag_39:\n              mload(0x40)\n              dup1\n              swap2\n              sub\n              swap1\n              return\n                /* \"Project.sol\":522:566  mapping(address => uint256) public investors */\n            tag_7:\n              callvalue\n              dup1\n              iszero\n              tag_40\n              jumpi\n              0x00\n              dup1\n              revert\n            tag_40:\n              pop\n              tag_41\n              0x04\n              dup1\n              calldatasize\n              sub\n              dup2\n              add\n              swap1\n              tag_42\n              swap2\n              swap1\n              tag_43\n              jump\t// in\n            tag_42:\n              tag_44\n              jump\t// in\n            tag_41:\n              mload(0x40)\n              tag_45\n              swap2\n              swap1\n              tag_26\n              jump\t// in\n            tag_45:\n              mload(0x40)\n              dup1\n              swap2\n              sub\n              swap1\n              return\n                /* \"Project.sol\":372:397  string public description */\n            tag_8:\n              callvalue\n              dup1\n              iszero\n              tag_46\n              jumpi\n              0x00\n              dup1\n              revert\n            tag_46:\n              pop\n              tag_47\n              tag_48\n              jump\t// in\n            tag_47:\n              mload(0x40)\n              tag_49\n              swap2\n              swap1\n              tag_50\n              jump\t// in\n            tag_49:\n              mload(0x40)\n              dup1\n              swap2\n              sub\n              swap1\n              return\n                /* \"Project.sol\":572:597  Payment[] public payments */\n            tag_9:\n              callvalue\n              dup1\n              iszero\n              tag_51\n              jumpi\n              0x00\n              dup1\n              revert\n            tag_51:\n              pop\n              tag_52\n              0x04\n              dup1\n              calldatasize\n              sub\n              dup2\n              add\n              swap1\n              tag_53\n              swap2\n              swap1\n              tag_54\n              jump\t// in\n            tag_53:\n              tag_55\n              jump\t// in\n            tag_52:\n              mload(0x40)\n              tag_56\n              swap6\n              swap5\n              swap4\n              swap3\n              swap2\n              swap1\n              tag_57\n              jump\t// in\n            tag_56:\n              mload(0x40)\n              dup1\n              swap2\n              sub\n              swap1\n              return\n                /* \"Project.sol\":346:366  address public owner */\n            tag_10:\n              callvalue\n              dup1\n              iszero\n              tag_58\n              jumpi\n              0x00\n              dup1\n              revert\n            tag_58:\n              pop\n              tag_59\n              tag_60\n              jump\t// in\n            tag_59:\n              mload(0x40)\n              tag_61\n              swap2\n              swap1\n              tag_62\n              jump\t// in\n            tag_61:\n              mload(0x40)\n              dup1\n              swap2\n              sub\n              swap1\n              return\n                /* \"Project.sol\":2170:2520  function doPayment(uint256 index) public ownerOnly {... */\n            tag_11:\n              callvalue\n              dup1\n              iszero\n              tag_63\n              jumpi\n              0x00\n              dup1\n              revert\n            tag_63:\n              pop\n              tag_64\n              0x04\n              dup1\n              calldatasize\n              sub\n              dup2\n              add\n              swap1\n              tag_65\n              swap2\n              swap1\n              tag_54\n              jump\t// in\n            tag_65:\n              tag_66\n              jump\t// in\n            tag_64:\n              stop\n                /* \"Project.sol\":1003:1330  function contribute() public payable {... */\n            tag_12:\n              tag_67\n              tag_68\n              jump\t// in\n            tag_67:\n              stop\n                /* \"Project.sol\":488:516  uint256 public investorCount */\n            tag_13:\n              callvalue\n              dup1\n              iszero\n              tag_69\n              jumpi\n              0x00\n              dup1\n              revert\n            tag_69:\n              pop\n              tag_70\n              tag_71\n              jump\t// in\n            tag_70:\n              mload(0x40)\n              tag_72\n              swap2\n              swap1\n              tag_26\n              jump\t// in\n            tag_72:\n              mload(0x40)\n              dup1\n              swap2\n              sub\n              swap1\n              return\n                /* \"Project.sol\":1826:2164  function approvePayment(uint256 index) public {... */\n            tag_14:\n              callvalue\n              dup1\n              iszero\n              tag_73\n              jumpi\n              0x00\n              dup1\n              revert\n            tag_73:\n              pop\n              tag_74\n              0x04\n              dup1\n              calldatasize\n              sub\n              dup2\n              add\n              swap1\n              tag_75\n              swap2\n              swap1\n              tag_54\n              jump\t// in\n            tag_75:\n              tag_76\n              jump\t// in\n            tag_74:\n              stop\n                /* \"Project.sol\":1336:1820  function createPayment(... */\n            tag_21:\n                /* \"Project.sol\":657:662  owner */\n              0x00\n              dup1\n              sload\n              swap1\n              0x0100\n              exp\n              swap1\n              div\n              0xffffffffffffffffffffffffffffffffffffffff\n              and\n                /* \"Project.sol\":643:662  msg.sender == owner */\n              0xffffffffffffffffffffffffffffffffffffffff\n              and\n                /* \"Project.sol\":643:653  msg.sender */\n              caller\n                /* \"Project.sol\":643:662  msg.sender == owner */\n              0xffffffffffffffffffffffffffffffffffffffff\n              and\n              eq\n                /* \"Project.sol\":635:663  require(msg.sender == owner) */\n              tag_78\n              jumpi\n              0x00\n              dup1\n              revert\n            tag_78:\n                /* \"Project.sol\":1488:1509  uint256 paymentsCount */\n              0x00\n                /* \"Project.sol\":1512:1520  payments */\n              0x07\n                /* \"Project.sol\":1512:1527  payments.length */\n              dup1\n              sload\n              swap1\n              pop\n                /* \"Project.sol\":1488:1527  uint256 paymentsCount = payments.length */\n              swap1\n              pop\n                /* \"Project.sol\":1537:1545  payments */\n              0x07\n                /* \"Project.sol\":1537:1552  payments.push() */\n              0x01\n              dup2\n              0x01\n              dup2\n              sload\n              add\n              dup1\n              dup3\n              sstore\n              dup1\n              swap2\n              pop\n              pop\n              sub\n              swap1\n              0x00\n              mstore\n              keccak256(0x00, 0x20)\n              swap1\n              pop\n              pop\n                /* \"Project.sol\":1563:1589  Payment storage newPayment */\n              0x00\n                /* \"Project.sol\":1592:1600  payments */\n              0x07\n                /* \"Project.sol\":1601:1614  paymentsCount */\n              dup3\n                /* \"Project.sol\":1592:1615  payments[paymentsCount] */\n              dup2\n              sload\n              dup2\n              lt\n              tag_81\n              jumpi\n              tag_82\n              tag_83\n              jump\t// in\n            tag_82:\n            tag_81:\n              swap1\n              0x00\n              mstore\n              keccak256(0x00, 0x20)\n              swap1\n              0x05\n              mul\n              add\n                /* \"Project.sol\":1563:1615  Payment storage newPayment = payments[paymentsCount] */\n              swap1\n              pop\n                /* \"Project.sol\":1650:1662  _description */\n              dup5\n                /* \"Project.sol\":1625:1635  newPayment */\n              dup2\n                /* \"Project.sol\":1625:1647  newPayment.description */\n              0x00\n              add\n                /* \"Project.sol\":1625:1662  newPayment.description = _description */\n              swap1\n              dup1\n              mload\n              swap1\n              0x20\n              add\n              swap1\n              tag_85\n              swap3\n              swap2\n              swap1\n              tag_86\n              jump\t// in\n            tag_85:\n              pop\n                /* \"Project.sol\":1692:1699  _amount */\n              dup4\n                /* \"Project.sol\":1672:1682  newPayment */\n              dup2\n                /* \"Project.sol\":1672:1689  newPayment.amount */\n              0x01\n              add\n                /* \"Project.sol\":1672:1699  newPayment.amount = _amount */\n              dup2\n              swap1\n              sstore\n              pop\n                /* \"Project.sol\":1731:1740  _receiver */\n              dup3\n                /* \"Project.sol\":1709:1719  newPayment */\n              dup2\n                /* \"Project.sol\":1709:1728  newPayment.receiver */\n              0x02\n              add\n              0x00\n                /* \"Project.sol\":1709:1740  newPayment.receiver = _receiver */\n              0x0100\n              exp\n              dup2\n              sload\n              dup2\n              0xffffffffffffffffffffffffffffffffffffffff\n              mul\n              not\n              and\n              swap1\n              dup4\n              0xffffffffffffffffffffffffffffffffffffffff\n              and\n              mul\n              or\n              swap1\n              sstore\n              pop\n                /* \"Project.sol\":1773:1778  false */\n              0x00\n                /* \"Project.sol\":1750:1760  newPayment */\n              dup2\n                /* \"Project.sol\":1750:1770  newPayment.completed */\n              0x02\n              add\n              0x14\n                /* \"Project.sol\":1750:1778  newPayment.completed = false */\n              0x0100\n              exp\n              dup2\n              sload\n              dup2\n              0xff\n              mul\n              not\n              and\n              swap1\n              dup4\n              iszero\n              iszero\n              mul\n              or\n              swap1\n              sstore\n              pop\n                /* \"Project.sol\":1812:1813  0 */\n              0x00\n                /* \"Project.sol\":1788:1798  newPayment */\n              dup2\n                /* \"Project.sol\":1788:1809  newPayment.voterCount */\n              0x04\n              add\n                /* \"Project.sol\":1788:1813  newPayment.voterCount = 0 */\n              dup2\n              swap1\n              sstore\n              pop\n                /* \"Project.sol\":1478:1820  {... */\n              pop\n              pop\n                /* \"Project.sol\":1336:1820  function createPayment(... */\n              pop\n              pop\n              pop\n              jump\t// out\n                /* \"Project.sol\":433:457  uint256 public maxInvest */\n            tag_24:\n              sload(0x03)\n              dup2\n              jump\t// out\n                /* \"Project.sol\":463:482  uint256 public goal */\n            tag_29:\n              sload(0x04)\n              dup2\n              jump\t// out\n                /* \"Project.sol\":2526:2908  function getSummary()... */\n            tag_33:\n                /* \"Project.sol\":2606:2619  string memory */\n              0x60\n                /* \"Project.sol\":2633:2640  uint256 */\n              0x00\n                /* \"Project.sol\":2654:2661  uint256 */\n              dup1\n                /* \"Project.sol\":2675:2682  uint256 */\n              0x00\n                /* \"Project.sol\":2696:2703  uint256 */\n              dup1\n                /* \"Project.sol\":2717:2724  uint256 */\n              0x00\n                /* \"Project.sol\":2738:2745  uint256 */\n              dup1\n                /* \"Project.sol\":2759:2766  address */\n              0x00\n                /* \"Project.sol\":2799:2810  description */\n              0x01\n                /* \"Project.sol\":2812:2821  minInvest */\n              sload(0x02)\n                /* \"Project.sol\":2823:2832  maxInvest */\n              sload(0x03)\n                /* \"Project.sol\":2834:2838  goal */\n              sload(0x04)\n                /* \"Project.sol\":2840:2861  address(this).balance */\n              selfbalance\n                /* \"Project.sol\":2863:2876  investorCount */\n              sload(0x05)\n                /* \"Project.sol\":2878:2886  payments */\n              0x07\n                /* \"Project.sol\":2878:2893  payments.length */\n              dup1\n              sload\n              swap1\n              pop\n                /* \"Project.sol\":2895:2900  owner */\n              0x00\n              dup1\n              sload\n              swap1\n              0x0100\n              exp\n              swap1\n              div\n              0xffffffffffffffffffffffffffffffffffffffff\n              and\n                /* \"Project.sol\":2791:2901  return (description, minInvest, maxInvest, goal, address(this).balance, investorCount, payments.length, owner) */\n              dup8\n              dup1\n              sload\n              tag_88\n              swap1\n              tag_89\n              jump\t// in\n            tag_88:\n              dup1\n              0x1f\n              add\n              0x20\n              dup1\n              swap2\n              div\n              mul\n              0x20\n              add\n              mload(0x40)\n              swap1\n              dup2\n              add\n              0x40\n              mstore\n              dup1\n              swap3\n              swap2\n              swap1\n              dup2\n              dup2\n              mstore\n              0x20\n              add\n              dup3\n              dup1\n              sload\n              tag_90\n              swap1\n              tag_89\n              jump\t// in\n            tag_90:\n              dup1\n              iszero\n              tag_91\n              jumpi\n              dup1\n              0x1f\n              lt\n              tag_92\n              jumpi\n              0x0100\n              dup1\n              dup4\n              sload\n              div\n              mul\n              dup4\n              mstore\n              swap2\n              0x20\n              add\n              swap2\n              jump(tag_91)\n            tag_92:\n              dup3\n              add\n              swap2\n              swap1\n              0x00\n              mstore\n              keccak256(0x00, 0x20)\n              swap1\n            tag_93:\n              dup2\n              sload\n              dup2\n              mstore\n              swap1\n              0x01\n              add\n              swap1\n              0x20\n              add\n              dup1\n              dup4\n              gt\n              tag_93\n              jumpi\n              dup3\n              swap1\n              sub\n              0x1f\n              and\n              dup3\n              add\n              swap2\n            tag_91:\n              pop\n              pop\n              pop\n              pop\n              pop\n              swap8\n              pop\n              swap8\n              pop\n              swap8\n              pop\n              swap8\n              pop\n              swap8\n              pop\n              swap8\n              pop\n              swap8\n              pop\n              swap8\n              pop\n              swap8\n              pop\n                /* \"Project.sol\":2526:2908  function getSummary()... */\n              swap1\n              swap2\n              swap3\n              swap4\n              swap5\n              swap6\n              swap7\n              swap8\n              jump\t// out\n                /* \"Project.sol\":403:427  uint256 public minInvest */\n            tag_38:\n              sload(0x02)\n              dup2\n              jump\t// out\n                /* \"Project.sol\":522:566  mapping(address => uint256) public investors */\n            tag_44:\n              mstore(0x20, 0x06)\n              dup1\n              0x00\n              mstore\n              keccak256(0x00, 0x40)\n              0x00\n              swap2\n              pop\n              swap1\n              pop\n              sload\n              dup2\n              jump\t// out\n                /* \"Project.sol\":372:397  string public description */\n            tag_48:\n              0x01\n              dup1\n              sload\n              tag_94\n              swap1\n              tag_89\n              jump\t// in\n            tag_94:\n              dup1\n              0x1f\n              add\n              0x20\n              dup1\n              swap2\n              div\n              mul\n              0x20\n              add\n              mload(0x40)\n              swap1\n              dup2\n              add\n              0x40\n              mstore\n              dup1\n              swap3\n              swap2\n              swap1\n              dup2\n              dup2\n              mstore\n              0x20\n              add\n              dup3\n              dup1\n              sload\n              tag_95\n              swap1\n              tag_89\n              jump\t// in\n            tag_95:\n              dup1\n              iszero\n              tag_96\n              jumpi\n              dup1\n              0x1f\n              lt\n              tag_97\n              jumpi\n              0x0100\n              dup1\n              dup4\n              sload\n              div\n              mul\n              dup4\n              mstore\n              swap2\n              0x20\n              add\n              swap2\n              jump(tag_96)\n            tag_97:\n              dup3\n              add\n              swap2\n              swap1\n              0x00\n              mstore\n              keccak256(0x00, 0x20)\n              swap1\n            tag_98:\n              dup2\n              sload\n              dup2\n              mstore\n              swap1\n              0x01\n              add\n              swap1\n              0x20\n              add\n              dup1\n              dup4\n              gt\n              tag_98\n              jumpi\n              dup3\n              swap1\n              sub\n              0x1f\n              and\n              dup3\n              add\n              swap2\n            tag_96:\n              pop\n              pop\n              pop\n              pop\n              pop\n              dup2\n              jump\t// out\n                /* \"Project.sol\":572:597  Payment[] public payments */\n            tag_55:\n              0x07\n              dup2\n              dup2\n              sload\n              dup2\n              lt\n              tag_99\n              jumpi\n              0x00\n              dup1\n              revert\n            tag_99:\n              swap1\n              0x00\n              mstore\n              keccak256(0x00, 0x20)\n              swap1\n              0x05\n              mul\n              add\n              0x00\n              swap2\n              pop\n              swap1\n              pop\n              dup1\n              0x00\n              add\n              dup1\n              sload\n              tag_101\n              swap1\n              tag_89\n              jump\t// in\n            tag_101:\n              dup1\n              0x1f\n              add\n              0x20\n              dup1\n              swap2\n              div\n              mul\n              0x20\n              add\n              mload(0x40)\n              swap1\n              dup2\n              add\n              0x40\n              mstore\n              dup1\n              swap3\n              swap2\n              swap1\n              dup2\n              dup2\n              mstore\n              0x20\n              add\n              dup3\n              dup1\n              sload\n              tag_102\n              swap1\n              tag_89\n              jump\t// in\n            tag_102:\n              dup1\n              iszero\n              tag_103\n              jumpi\n              dup1\n              0x1f\n              lt\n              tag_104\n              jumpi\n              0x0100\n              dup1\n              dup4\n              sload\n              div\n              mul\n              dup4\n              mstore\n              swap2\n              0x20\n              add\n              swap2\n              jump(tag_103)\n            tag_104:\n              dup3\n              add\n              swap2\n              swap1\n              0x00\n              mstore\n              keccak256(0x00, 0x20)\n              swap1\n            tag_105:\n              dup2\n              sload\n              dup2\n              mstore\n              swap1\n              0x01\n              add\n              swap1\n              0x20\n              add\n              dup1\n              dup4\n              gt\n              tag_105\n              jumpi\n              dup3\n              swap1\n              sub\n              0x1f\n              and\n              dup3\n              add\n              swap2\n            tag_103:\n              pop\n              pop\n              pop\n              pop\n              pop\n              swap1\n              dup1\n              0x01\n              add\n              sload\n              swap1\n              dup1\n              0x02\n              add\n              0x00\n              swap1\n              sload\n              swap1\n              0x0100\n              exp\n              swap1\n              div\n              0xffffffffffffffffffffffffffffffffffffffff\n              and\n              swap1\n              dup1\n              0x02\n              add\n              0x14\n              swap1\n              sload\n              swap1\n              0x0100\n              exp\n              swap1\n              div\n              0xff\n              and\n              swap1\n              dup1\n              0x04\n              add\n              sload\n              swap1\n              pop\n              dup6\n              jump\t// out\n                /* \"Project.sol\":346:366  address public owner */\n            tag_60:\n              0x00\n              dup1\n              sload\n              swap1\n              0x0100\n              exp\n              swap1\n              div\n              0xffffffffffffffffffffffffffffffffffffffff\n              and\n              dup2\n              jump\t// out\n                /* \"Project.sol\":2170:2520  function doPayment(uint256 index) public ownerOnly {... */\n            tag_66:\n                /* \"Project.sol\":657:662  owner */\n              0x00\n              dup1\n              sload\n              swap1\n              0x0100\n              exp\n              swap1\n              div\n              0xffffffffffffffffffffffffffffffffffffffff\n              and\n                /* \"Project.sol\":643:662  msg.sender == owner */\n              0xffffffffffffffffffffffffffffffffffffffff\n              and\n                /* \"Project.sol\":643:653  msg.sender */\n              caller\n                /* \"Project.sol\":643:662  msg.sender == owner */\n              0xffffffffffffffffffffffffffffffffffffffff\n              and\n              eq\n                /* \"Project.sol\":635:663  require(msg.sender == owner) */\n              tag_107\n              jumpi\n              0x00\n              dup1\n              revert\n            tag_107:\n                /* \"Project.sol\":2231:2254  Payment storage payment */\n              0x00\n                /* \"Project.sol\":2257:2265  payments */\n              0x07\n                /* \"Project.sol\":2266:2271  index */\n              dup3\n                /* \"Project.sol\":2257:2272  payments[index] */\n              dup2\n              sload\n              dup2\n              lt\n              tag_109\n              jumpi\n              tag_110\n              tag_83\n              jump\t// in\n            tag_110:\n            tag_109:\n              swap1\n              0x00\n              mstore\n              keccak256(0x00, 0x20)\n              swap1\n              0x05\n              mul\n              add\n                /* \"Project.sol\":2231:2272  Payment storage payment = payments[index] */\n              swap1\n              pop\n                /* \"Project.sol\":2292:2299  payment */\n              dup1\n                /* \"Project.sol\":2292:2309  payment.completed */\n              0x02\n              add\n              0x14\n              swap1\n              sload\n              swap1\n              0x0100\n              exp\n              swap1\n              div\n              0xff\n              and\n                /* \"Project.sol\":2291:2309  !payment.completed */\n              iszero\n                /* \"Project.sol\":2283:2310  require(!payment.completed) */\n              tag_112\n              jumpi\n              0x00\n              dup1\n              revert\n            tag_112:\n                /* \"Project.sol\":2353:2360  payment */\n              dup1\n                /* \"Project.sol\":2353:2367  payment.amount */\n              0x01\n              add\n              sload\n                /* \"Project.sol\":2328:2349  address(this).balance */\n              selfbalance\n                /* \"Project.sol\":2328:2367  address(this).balance >= payment.amount */\n              lt\n              iszero\n                /* \"Project.sol\":2320:2368  require(address(this).balance >= payment.amount) */\n              tag_113\n              jumpi\n              0x00\n              dup1\n              revert\n            tag_113:\n                /* \"Project.sol\":2424:2425  2 */\n              0x02\n                /* \"Project.sol\":2408:2421  investorCount */\n              sload(0x05)\n                /* \"Project.sol\":2408:2425  investorCount / 2 */\n              tag_114\n              swap2\n              swap1\n              tag_115\n              jump\t// in\n            tag_114:\n                /* \"Project.sol\":2386:2393  payment */\n              dup2\n                /* \"Project.sol\":2386:2404  payment.voterCount */\n              0x04\n              add\n              sload\n                /* \"Project.sol\":2386:2426  payment.voterCount > (investorCount / 2) */\n              gt\n                /* \"Project.sol\":2378:2427  require(payment.voterCount > (investorCount / 2)) */\n              tag_116\n              jumpi\n              0x00\n              dup1\n              revert\n            tag_116:\n                /* \"Project.sol\":2438:2445  payment */\n              dup1\n                /* \"Project.sol\":2438:2454  payment.receiver */\n              0x02\n              add\n              0x00\n              swap1\n              sload\n              swap1\n              0x0100\n              exp\n              swap1\n              div\n              0xffffffffffffffffffffffffffffffffffffffff\n              and\n                /* \"Project.sol\":2438:2463  payment.receiver.transfer */\n              0xffffffffffffffffffffffffffffffffffffffff\n              and\n                /* \"Project.sol\":2438:2479  payment.receiver.transfer(payment.amount) */\n              0x08fc\n                /* \"Project.sol\":2464:2471  payment */\n              dup3\n                /* \"Project.sol\":2464:2478  payment.amount */\n              0x01\n              add\n              sload\n                /* \"Project.sol\":2438:2479  payment.receiver.transfer(payment.amount) */\n              swap1\n              dup2\n              iszero\n              mul\n              swap1\n              mload(0x40)\n              0x00\n              mload(0x40)\n              dup1\n              dup4\n              sub\n              dup2\n              dup6\n              dup9\n              dup9\n              call\n              swap4\n              pop\n              pop\n              pop\n              pop\n              iszero\n              dup1\n              iszero\n              tag_118\n              jumpi\n              returndatasize\n              0x00\n              dup1\n              returndatacopy\n              revert(0x00, returndatasize)\n            tag_118:\n              pop\n                /* \"Project.sol\":2509:2513  true */\n              0x01\n                /* \"Project.sol\":2489:2496  payment */\n              dup2\n                /* \"Project.sol\":2489:2506  payment.completed */\n              0x02\n              add\n              0x14\n                /* \"Project.sol\":2489:2513  payment.completed = true */\n              0x0100\n              exp\n              dup2\n              sload\n              dup2\n              0xff\n              mul\n              not\n              and\n              swap1\n              dup4\n              iszero\n              iszero\n              mul\n              or\n              swap1\n              sstore\n              pop\n                /* \"Project.sol\":2221:2520  {... */\n              pop\n                /* \"Project.sol\":2170:2520  function doPayment(uint256 index) public ownerOnly {... */\n              pop\n              jump\t// out\n                /* \"Project.sol\":1003:1330  function contribute() public payable {... */\n            tag_68:\n                /* \"Project.sol\":1071:1080  minInvest */\n              sload(0x02)\n                /* \"Project.sol\":1058:1067  msg.value */\n              callvalue\n                /* \"Project.sol\":1058:1080  msg.value >= minInvest */\n              lt\n              iszero\n                /* \"Project.sol\":1050:1081  require(msg.value >= minInvest) */\n              tag_120\n              jumpi\n              0x00\n              dup1\n              revert\n            tag_120:\n                /* \"Project.sol\":1112:1121  maxInvest */\n              sload(0x03)\n                /* \"Project.sol\":1099:1108  msg.value */\n              callvalue\n                /* \"Project.sol\":1099:1121  msg.value <= maxInvest */\n              gt\n              iszero\n                /* \"Project.sol\":1091:1122  require(msg.value <= maxInvest) */\n              tag_121\n              jumpi\n              0x00\n              dup1\n              revert\n            tag_121:\n                /* \"Project.sol\":1133:1151  uint256 newBalance */\n              0x00\n                /* \"Project.sol\":1178:1214  address(this).balance.add(msg.value) */\n              tag_122\n                /* \"Project.sol\":1204:1213  msg.value */\n              callvalue\n                /* \"Project.sol\":1178:1199  address(this).balance */\n              selfbalance\n                /* \"Project.sol\":1178:1203  address(this).balance.add */\n              tag_123\n              swap1\n                /* \"Project.sol\":1178:1214  address(this).balance.add(msg.value) */\n              swap2\n              swap1\n              0xffffffff\n              and\n              jump\t// in\n            tag_122:\n                /* \"Project.sol\":1165:1214  newBalance = address(this).balance.add(msg.value) */\n              swap1\n              pop\n                /* \"Project.sol\":1246:1250  goal */\n              sload(0x04)\n                /* \"Project.sol\":1232:1242  newBalance */\n              dup2\n                /* \"Project.sol\":1232:1250  newBalance <= goal */\n              gt\n              iszero\n                /* \"Project.sol\":1224:1251  require(newBalance <= goal) */\n              tag_124\n              jumpi\n              0x00\n              dup1\n              revert\n            tag_124:\n                /* \"Project.sol\":1286:1295  msg.value */\n              callvalue\n                /* \"Project.sol\":1262:1271  investors */\n              0x06\n                /* \"Project.sol\":1262:1283  investors[msg.sender] */\n              0x00\n                /* \"Project.sol\":1272:1282  msg.sender */\n              caller\n                /* \"Project.sol\":1262:1283  investors[msg.sender] */\n              0xffffffffffffffffffffffffffffffffffffffff\n              and\n              0xffffffffffffffffffffffffffffffffffffffff\n              and\n              dup2\n              mstore\n              0x20\n              add\n              swap1\n              dup2\n              mstore\n              0x20\n              add\n              0x00\n              keccak256\n                /* \"Project.sol\":1262:1295  investors[msg.sender] = msg.value */\n              dup2\n              swap1\n              sstore\n              pop\n                /* \"Project.sol\":1322:1323  1 */\n              0x01\n                /* \"Project.sol\":1305:1318  investorCount */\n              0x05\n              0x00\n                /* \"Project.sol\":1305:1323  investorCount += 1 */\n              dup3\n              dup3\n              sload\n              tag_125\n              swap2\n              swap1\n              tag_126\n              jump\t// in\n            tag_125:\n              swap3\n              pop\n              pop\n              dup2\n              swap1\n              sstore\n              pop\n                /* \"Project.sol\":1040:1330  {... */\n              pop\n                /* \"Project.sol\":1003:1330  function contribute() public payable {... */\n              jump\t// out\n                /* \"Project.sol\":488:516  uint256 public investorCount */\n            tag_71:\n              sload(0x05)\n              dup2\n              jump\t// out\n                /* \"Project.sol\":1826:2164  function approvePayment(uint256 index) public {... */\n            tag_76:\n                /* \"Project.sol\":1882:1905  Payment storage payment */\n              0x00\n                /* \"Project.sol\":1908:1916  payments */\n              0x07\n                /* \"Project.sol\":1917:1922  index */\n              dup3\n                /* \"Project.sol\":1908:1923  payments[index] */\n              dup2\n              sload\n              dup2\n              lt\n              tag_128\n              jumpi\n              tag_129\n              tag_83\n              jump\t// in\n            tag_129:\n            tag_128:\n              swap1\n              0x00\n              mstore\n              keccak256(0x00, 0x20)\n              swap1\n              0x05\n              mul\n              add\n                /* \"Project.sol\":1882:1923  Payment storage payment = payments[index] */\n              swap1\n              pop\n                /* \"Project.sol\":2002:2003  0 */\n              0x00\n                /* \"Project.sol\":1978:1987  investors */\n              0x06\n                /* \"Project.sol\":1978:1999  investors[msg.sender] */\n              0x00\n                /* \"Project.sol\":1988:1998  msg.sender */\n              caller\n                /* \"Project.sol\":1978:1999  investors[msg.sender] */\n              0xffffffffffffffffffffffffffffffffffffffff\n              and\n              0xffffffffffffffffffffffffffffffffffffffff\n              and\n              dup2\n              mstore\n              0x20\n              add\n              swap1\n              dup2\n              mstore\n              0x20\n              add\n              0x00\n              keccak256\n              sload\n                /* \"Project.sol\":1978:2003  investors[msg.sender] > 0 */\n              gt\n                /* \"Project.sol\":1970:2004  require(investors[msg.sender] > 0) */\n              tag_131\n              jumpi\n              0x00\n              dup1\n              revert\n            tag_131:\n                /* \"Project.sol\":2054:2061  payment */\n              dup1\n                /* \"Project.sol\":2054:2068  payment.voters */\n              0x03\n              add\n                /* \"Project.sol\":2054:2080  payment.voters[msg.sender] */\n              0x00\n                /* \"Project.sol\":2069:2079  msg.sender */\n              caller\n                /* \"Project.sol\":2054:2080  payment.voters[msg.sender] */\n              0xffffffffffffffffffffffffffffffffffffffff\n              and\n              0xffffffffffffffffffffffffffffffffffffffff\n              and\n              dup2\n              mstore\n              0x20\n              add\n              swap1\n              dup2\n              mstore\n              0x20\n              add\n              0x00\n              keccak256\n              0x00\n              swap1\n              sload\n              swap1\n              0x0100\n              exp\n              swap1\n              div\n              0xff\n              and\n                /* \"Project.sol\":2053:2080  !payment.voters[msg.sender] */\n              iszero\n                /* \"Project.sol\":2045:2081  require(!payment.voters[msg.sender]) */\n              tag_132\n              jumpi\n              0x00\n              dup1\n              revert\n            tag_132:\n                /* \"Project.sol\":2120:2124  true */\n              0x01\n                /* \"Project.sol\":2091:2098  payment */\n              dup2\n                /* \"Project.sol\":2091:2105  payment.voters */\n              0x03\n              add\n                /* \"Project.sol\":2091:2117  payment.voters[msg.sender] */\n              0x00\n                /* \"Project.sol\":2106:2116  msg.sender */\n              caller\n                /* \"Project.sol\":2091:2117  payment.voters[msg.sender] */\n              0xffffffffffffffffffffffffffffffffffffffff\n              and\n              0xffffffffffffffffffffffffffffffffffffffff\n              and\n              dup2\n              mstore\n              0x20\n              add\n              swap1\n              dup2\n              mstore\n              0x20\n              add\n              0x00\n              keccak256\n              0x00\n                /* \"Project.sol\":2091:2124  payment.voters[msg.sender] = true */\n              0x0100\n              exp\n              dup2\n              sload\n              dup2\n              0xff\n              mul\n              not\n              and\n              swap1\n              dup4\n              iszero\n              iszero\n              mul\n              or\n              swap1\n              sstore\n              pop\n                /* \"Project.sol\":2156:2157  1 */\n              0x01\n                /* \"Project.sol\":2134:2141  payment */\n              dup2\n                /* \"Project.sol\":2134:2152  payment.voterCount */\n              0x04\n              add\n              0x00\n                /* \"Project.sol\":2134:2157  payment.voterCount += 1 */\n              dup3\n              dup3\n              sload\n              tag_133\n              swap2\n              swap1\n              tag_126\n              jump\t// in\n            tag_133:\n              swap3\n              pop\n              pop\n              dup2\n              swap1\n              sstore\n              pop\n                /* \"Project.sol\":1872:2164  {... */\n              pop\n                /* \"Project.sol\":1826:2164  function approvePayment(uint256 index) public {... */\n              pop\n              jump\t// out\n                /* \"SafeMath.sol\":659:802  function add(uint256 a, uint256 b) internal pure returns (uint256) {... */\n            tag_123:\n                /* \"SafeMath.sol\":717:724  uint256 */\n              0x00\n                /* \"SafeMath.sol\":736:745  uint256 c */\n              dup1\n                /* \"SafeMath.sol\":752:753  b */\n              dup3\n                /* \"SafeMath.sol\":748:749  a */\n              dup5\n                /* \"SafeMath.sol\":748:753  a + b */\n              tag_135\n              swap2\n              swap1\n              tag_126\n              jump\t// in\n            tag_135:\n                /* \"SafeMath.sol\":736:753  uint256 c = a + b */\n              swap1\n              pop\n                /* \"SafeMath.sol\":775:776  a */\n              dup4\n                /* \"SafeMath.sol\":770:771  c */\n              dup2\n                /* \"SafeMath.sol\":770:776  c >= a */\n              lt\n              iszero\n                /* \"SafeMath.sol\":763:777  assert(c >= a) */\n              tag_136\n              jumpi\n              tag_137\n              tag_138\n              jump\t// in\n            tag_137:\n            tag_136:\n                /* \"SafeMath.sol\":794:795  c */\n              dup1\n                /* \"SafeMath.sol\":787:795  return c */\n              swap2\n              pop\n              pop\n                /* \"SafeMath.sol\":659:802  function add(uint256 a, uint256 b) internal pure returns (uint256) {... */\n              swap3\n              swap2\n              pop\n              pop\n              jump\t// out\n            tag_86:\n              dup3\n              dup1\n              sload\n              tag_139\n              swap1\n              tag_89\n              jump\t// in\n            tag_139:\n              swap1\n              0x00\n              mstore\n              keccak256(0x00, 0x20)\n              swap1\n              0x1f\n              add\n              0x20\n              swap1\n              div\n              dup2\n              add\n              swap3\n              dup3\n              tag_141\n              jumpi\n              0x00\n              dup6\n              sstore\n              jump(tag_140)\n            tag_141:\n              dup3\n              0x1f\n              lt\n              tag_142\n              jumpi\n              dup1\n              mload\n              not(0xff)\n              and\n              dup4\n              dup1\n              add\n              or\n              dup6\n              sstore\n              jump(tag_140)\n            tag_142:\n              dup3\n              dup1\n              add\n              0x01\n              add\n              dup6\n              sstore\n              dup3\n              iszero\n              tag_140\n              jumpi\n              swap2\n              dup3\n              add\n            tag_143:\n              dup3\n              dup2\n              gt\n              iszero\n              tag_144\n              jumpi\n              dup3\n              mload\n              dup3\n              sstore\n              swap2\n              0x20\n              add\n              swap2\n              swap1\n              0x01\n              add\n              swap1\n              jump(tag_143)\n            tag_144:\n            tag_140:\n              pop\n              swap1\n              pop\n              tag_145\n              swap2\n              swap1\n              tag_146\n              jump\t// in\n            tag_145:\n              pop\n              swap1\n              jump\t// out\n            tag_146:\n            tag_147:\n              dup1\n              dup3\n              gt\n              iszero\n              tag_148\n              jumpi\n              0x00\n              dup2\n              0x00\n              swap1\n              sstore\n              pop\n              0x01\n              add\n              jump(tag_147)\n            tag_148:\n              pop\n              swap1\n              jump\t// out\n                /* \"#utility.yul\":7:419   */\n            tag_150:\n                /* \"#utility.yul\":85:90   */\n              0x00\n                /* \"#utility.yul\":110:176   */\n              tag_152\n                /* \"#utility.yul\":126:175   */\n              tag_153\n                /* \"#utility.yul\":168:174   */\n              dup5\n                /* \"#utility.yul\":126:175   */\n              tag_154\n              jump\t// in\n            tag_153:\n                /* \"#utility.yul\":110:176   */\n              tag_155\n              jump\t// in\n            tag_152:\n                /* \"#utility.yul\":101:176   */\n              swap1\n              pop\n                /* \"#utility.yul\":199:205   */\n              dup3\n                /* \"#utility.yul\":192:197   */\n              dup2\n                /* \"#utility.yul\":185:206   */\n              mstore\n                /* \"#utility.yul\":237:241   */\n              0x20\n                /* \"#utility.yul\":230:235   */\n              dup2\n                /* \"#utility.yul\":226:242   */\n              add\n                /* \"#utility.yul\":275:278   */\n              dup5\n                /* \"#utility.yul\":266:272   */\n              dup5\n                /* \"#utility.yul\":261:264   */\n              dup5\n                /* \"#utility.yul\":257:273   */\n              add\n                /* \"#utility.yul\":254:279   */\n              gt\n                /* \"#utility.yul\":251:253   */\n              iszero\n              tag_156\n              jumpi\n                /* \"#utility.yul\":282:361   */\n              tag_157\n              tag_158\n              jump\t// in\n            tag_157:\n                /* \"#utility.yul\":251:253   */\n            tag_156:\n                /* \"#utility.yul\":372:413   */\n              tag_159\n                /* \"#utility.yul\":406:412   */\n              dup5\n                /* \"#utility.yul\":401:404   */\n              dup3\n                /* \"#utility.yul\":396:399   */\n              dup6\n                /* \"#utility.yul\":372:413   */\n              tag_160\n              jump\t// in\n            tag_159:\n                /* \"#utility.yul\":91:419   */\n              pop\n              swap4\n              swap3\n              pop\n              pop\n              pop\n              jump\t// out\n                /* \"#utility.yul\":425:564   */\n            tag_161:\n                /* \"#utility.yul\":471:476   */\n              0x00\n                /* \"#utility.yul\":509:515   */\n              dup2\n                /* \"#utility.yul\":496:516   */\n              calldataload\n                /* \"#utility.yul\":487:516   */\n              swap1\n              pop\n                /* \"#utility.yul\":525:558   */\n              tag_163\n                /* \"#utility.yul\":552:557   */\n              dup2\n                /* \"#utility.yul\":525:558   */\n              tag_164\n              jump\t// in\n            tag_163:\n                /* \"#utility.yul\":477:564   */\n              swap3\n              swap2\n              pop\n              pop\n              jump\t// out\n                /* \"#utility.yul\":570:725   */\n            tag_165:\n                /* \"#utility.yul\":624:629   */\n              0x00\n                /* \"#utility.yul\":662:668   */\n              dup2\n                /* \"#utility.yul\":649:669   */\n              calldataload\n                /* \"#utility.yul\":640:669   */\n              swap1\n              pop\n                /* \"#utility.yul\":678:719   */\n              tag_167\n                /* \"#utility.yul\":713:718   */\n              dup2\n                /* \"#utility.yul\":678:719   */\n              tag_168\n              jump\t// in\n            tag_167:\n                /* \"#utility.yul\":630:725   */\n              swap3\n              swap2\n              pop\n              pop\n              jump\t// out\n                /* \"#utility.yul\":745:1085   */\n            tag_169:\n                /* \"#utility.yul\":801:806   */\n              0x00\n                /* \"#utility.yul\":850:853   */\n              dup3\n                /* \"#utility.yul\":843:847   */\n              0x1f\n                /* \"#utility.yul\":835:841   */\n              dup4\n                /* \"#utility.yul\":831:848   */\n              add\n                /* \"#utility.yul\":827:854   */\n              slt\n                /* \"#utility.yul\":817:819   */\n              tag_171\n              jumpi\n                /* \"#utility.yul\":858:937   */\n              tag_172\n              tag_173\n              jump\t// in\n            tag_172:\n                /* \"#utility.yul\":817:819   */\n            tag_171:\n                /* \"#utility.yul\":975:981   */\n              dup2\n                /* \"#utility.yul\":962:982   */\n              calldataload\n                /* \"#utility.yul\":1000:1079   */\n              tag_174\n                /* \"#utility.yul\":1075:1078   */\n              dup5\n                /* \"#utility.yul\":1067:1073   */\n              dup3\n                /* \"#utility.yul\":1060:1064   */\n              0x20\n                /* \"#utility.yul\":1052:1058   */\n              dup7\n                /* \"#utility.yul\":1048:1065   */\n              add\n                /* \"#utility.yul\":1000:1079   */\n              tag_150\n              jump\t// in\n            tag_174:\n                /* \"#utility.yul\":991:1079   */\n              swap2\n              pop\n                /* \"#utility.yul\":807:1085   */\n              pop\n              swap3\n              swap2\n              pop\n              pop\n              jump\t// out\n                /* \"#utility.yul\":1091:1230   */\n            tag_175:\n                /* \"#utility.yul\":1137:1142   */\n              0x00\n                /* \"#utility.yul\":1175:1181   */\n              dup2\n                /* \"#utility.yul\":1162:1182   */\n              calldataload\n                /* \"#utility.yul\":1153:1182   */\n              swap1\n              pop\n                /* \"#utility.yul\":1191:1224   */\n              tag_177\n                /* \"#utility.yul\":1218:1223   */\n              dup2\n                /* \"#utility.yul\":1191:1224   */\n              tag_178\n              jump\t// in\n            tag_177:\n                /* \"#utility.yul\":1143:1230   */\n              swap3\n              swap2\n              pop\n              pop\n              jump\t// out\n                /* \"#utility.yul\":1236:1565   */\n            tag_43:\n                /* \"#utility.yul\":1295:1301   */\n              0x00\n                /* \"#utility.yul\":1344:1346   */\n              0x20\n                /* \"#utility.yul\":1332:1341   */\n              dup3\n                /* \"#utility.yul\":1323:1330   */\n              dup5\n                /* \"#utility.yul\":1319:1342   */\n              sub\n                /* \"#utility.yul\":1315:1347   */\n              slt\n                /* \"#utility.yul\":1312:1314   */\n              iszero\n              tag_180\n              jumpi\n                /* \"#utility.yul\":1350:1429   */\n              tag_181\n              tag_182\n              jump\t// in\n            tag_181:\n                /* \"#utility.yul\":1312:1314   */\n            tag_180:\n                /* \"#utility.yul\":1470:1471   */\n              0x00\n                /* \"#utility.yul\":1495:1548   */\n              tag_183\n                /* \"#utility.yul\":1540:1547   */\n              dup5\n                /* \"#utility.yul\":1531:1537   */\n              dup3\n                /* \"#utility.yul\":1520:1529   */\n              dup6\n                /* \"#utility.yul\":1516:1538   */\n              add\n                /* \"#utility.yul\":1495:1548   */\n              tag_161\n              jump\t// in\n            tag_183:\n                /* \"#utility.yul\":1485:1548   */\n              swap2\n              pop\n                /* \"#utility.yul\":1441:1558   */\n              pop\n                /* \"#utility.yul\":1302:1565   */\n              swap3\n              swap2\n              pop\n              pop\n              jump\t// out\n                /* \"#utility.yul\":1571:2386   */\n            tag_20:\n                /* \"#utility.yul\":1666:1672   */\n              0x00\n                /* \"#utility.yul\":1674:1680   */\n              dup1\n                /* \"#utility.yul\":1682:1688   */\n              0x00\n                /* \"#utility.yul\":1731:1733   */\n              0x60\n                /* \"#utility.yul\":1719:1728   */\n              dup5\n                /* \"#utility.yul\":1710:1717   */\n              dup7\n                /* \"#utility.yul\":1706:1729   */\n              sub\n                /* \"#utility.yul\":1702:1734   */\n              slt\n                /* \"#utility.yul\":1699:1701   */\n              iszero\n              tag_185\n              jumpi\n                /* \"#utility.yul\":1737:1816   */\n              tag_186\n              tag_182\n              jump\t// in\n            tag_186:\n                /* \"#utility.yul\":1699:1701   */\n            tag_185:\n                /* \"#utility.yul\":1885:1886   */\n              0x00\n                /* \"#utility.yul\":1874:1883   */\n              dup5\n                /* \"#utility.yul\":1870:1887   */\n              add\n                /* \"#utility.yul\":1857:1888   */\n              calldataload\n                /* \"#utility.yul\":1915:1933   */\n              0xffffffffffffffff\n                /* \"#utility.yul\":1907:1913   */\n              dup2\n                /* \"#utility.yul\":1904:1934   */\n              gt\n                /* \"#utility.yul\":1901:1903   */\n              iszero\n              tag_187\n              jumpi\n                /* \"#utility.yul\":1937:2016   */\n              tag_188\n              tag_189\n              jump\t// in\n            tag_188:\n                /* \"#utility.yul\":1901:1903   */\n            tag_187:\n                /* \"#utility.yul\":2042:2105   */\n              tag_190\n                /* \"#utility.yul\":2097:2104   */\n              dup7\n                /* \"#utility.yul\":2088:2094   */\n              dup3\n                /* \"#utility.yul\":2077:2086   */\n              dup8\n                /* \"#utility.yul\":2073:2095   */\n              add\n                /* \"#utility.yul\":2042:2105   */\n              tag_169\n              jump\t// in\n            tag_190:\n                /* \"#utility.yul\":2032:2105   */\n              swap4\n              pop\n                /* \"#utility.yul\":1828:2115   */\n              pop\n                /* \"#utility.yul\":2154:2156   */\n              0x20\n                /* \"#utility.yul\":2180:2233   */\n              tag_191\n                /* \"#utility.yul\":2225:2232   */\n              dup7\n                /* \"#utility.yul\":2216:2222   */\n              dup3\n                /* \"#utility.yul\":2205:2214   */\n              dup8\n                /* \"#utility.yul\":2201:2223   */\n              add\n                /* \"#utility.yul\":2180:2233   */\n              tag_175\n              jump\t// in\n            tag_191:\n                /* \"#utility.yul\":2170:2233   */\n              swap3\n              pop\n                /* \"#utility.yul\":2125:2243   */\n              pop\n                /* \"#utility.yul\":2282:2284   */\n              0x40\n                /* \"#utility.yul\":2308:2369   */\n              tag_192\n                /* \"#utility.yul\":2361:2368   */\n              dup7\n                /* \"#utility.yul\":2352:2358   */\n              dup3\n                /* \"#utility.yul\":2341:2350   */\n              dup8\n                /* \"#utility.yul\":2337:2359   */\n              add\n                /* \"#utility.yul\":2308:2369   */\n              tag_165\n              jump\t// in\n            tag_192:\n                /* \"#utility.yul\":2298:2369   */\n              swap2\n              pop\n                /* \"#utility.yul\":2253:2379   */\n              pop\n                /* \"#utility.yul\":1689:2386   */\n              swap3\n              pop\n              swap3\n              pop\n              swap3\n              jump\t// out\n                /* \"#utility.yul\":2392:2721   */\n            tag_54:\n                /* \"#utility.yul\":2451:2457   */\n              0x00\n                /* \"#utility.yul\":2500:2502   */\n              0x20\n                /* \"#utility.yul\":2488:2497   */\n              dup3\n                /* \"#utility.yul\":2479:2486   */\n              dup5\n                /* \"#utility.yul\":2475:2498   */\n              sub\n                /* \"#utility.yul\":2471:2503   */\n              slt\n                /* \"#utility.yul\":2468:2470   */\n              iszero\n              tag_194\n              jumpi\n                /* \"#utility.yul\":2506:2585   */\n              tag_195\n              tag_182\n              jump\t// in\n            tag_195:\n                /* \"#utility.yul\":2468:2470   */\n            tag_194:\n                /* \"#utility.yul\":2626:2627   */\n              0x00\n                /* \"#utility.yul\":2651:2704   */\n              tag_196\n                /* \"#utility.yul\":2696:2703   */\n              dup5\n                /* \"#utility.yul\":2687:2693   */\n              dup3\n                /* \"#utility.yul\":2676:2685   */\n              dup6\n                /* \"#utility.yul\":2672:2694   */\n              add\n                /* \"#utility.yul\":2651:2704   */\n              tag_175\n              jump\t// in\n            tag_196:\n                /* \"#utility.yul\":2641:2704   */\n              swap2\n              pop\n                /* \"#utility.yul\":2597:2714   */\n              pop\n                /* \"#utility.yul\":2458:2721   */\n              swap3\n              swap2\n              pop\n              pop\n              jump\t// out\n                /* \"#utility.yul\":2727:2869   */\n            tag_197:\n                /* \"#utility.yul\":2830:2862   */\n              tag_199\n                /* \"#utility.yul\":2856:2861   */\n              dup2\n                /* \"#utility.yul\":2830:2862   */\n              tag_200\n              jump\t// in\n            tag_199:\n                /* \"#utility.yul\":2825:2828   */\n              dup3\n                /* \"#utility.yul\":2818:2863   */\n              mstore\n                /* \"#utility.yul\":2808:2869   */\n              pop\n              pop\n              jump\t// out\n                /* \"#utility.yul\":2875:2993   */\n            tag_201:\n                /* \"#utility.yul\":2962:2986   */\n              tag_203\n                /* \"#utility.yul\":2980:2985   */\n              dup2\n                /* \"#utility.yul\":2962:2986   */\n              tag_204\n              jump\t// in\n            tag_203:\n                /* \"#utility.yul\":2957:2960   */\n              dup3\n                /* \"#utility.yul\":2950:2987   */\n              mstore\n                /* \"#utility.yul\":2940:2993   */\n              pop\n              pop\n              jump\t// out\n                /* \"#utility.yul\":2999:3108   */\n            tag_205:\n                /* \"#utility.yul\":3080:3101   */\n              tag_207\n                /* \"#utility.yul\":3095:3100   */\n              dup2\n                /* \"#utility.yul\":3080:3101   */\n              tag_208\n              jump\t// in\n            tag_207:\n                /* \"#utility.yul\":3075:3078   */\n              dup3\n                /* \"#utility.yul\":3068:3102   */\n              mstore\n                /* \"#utility.yul\":3058:3108   */\n              pop\n              pop\n              jump\t// out\n                /* \"#utility.yul\":3114:3478   */\n            tag_209:\n                /* \"#utility.yul\":3202:3205   */\n              0x00\n                /* \"#utility.yul\":3230:3269   */\n              tag_211\n                /* \"#utility.yul\":3263:3268   */\n              dup3\n                /* \"#utility.yul\":3230:3269   */\n              tag_212\n              jump\t// in\n            tag_211:\n                /* \"#utility.yul\":3285:3356   */\n              tag_213\n                /* \"#utility.yul\":3349:3355   */\n              dup2\n                /* \"#utility.yul\":3344:3347   */\n              dup6\n                /* \"#utility.yul\":3285:3356   */\n              tag_214\n              jump\t// in\n            tag_213:\n                /* \"#utility.yul\":3278:3356   */\n              swap4\n              pop\n                /* \"#utility.yul\":3365:3417   */\n              tag_215\n                /* \"#utility.yul\":3410:3416   */\n              dup2\n                /* \"#utility.yul\":3405:3408   */\n              dup6\n                /* \"#utility.yul\":3398:3402   */\n              0x20\n                /* \"#utility.yul\":3391:3396   */\n              dup7\n                /* \"#utility.yul\":3387:3403   */\n              add\n                /* \"#utility.yul\":3365:3417   */\n              tag_216\n              jump\t// in\n            tag_215:\n                /* \"#utility.yul\":3442:3471   */\n              tag_217\n                /* \"#utility.yul\":3464:3470   */\n              dup2\n                /* \"#utility.yul\":3442:3471   */\n              tag_218\n              jump\t// in\n            tag_217:\n                /* \"#utility.yul\":3437:3440   */\n              dup5\n                /* \"#utility.yul\":3433:3472   */\n              add\n                /* \"#utility.yul\":3426:3472   */\n              swap2\n              pop\n                /* \"#utility.yul\":3206:3478   */\n              pop\n              swap3\n              swap2\n              pop\n              pop\n              jump\t// out\n                /* \"#utility.yul\":3484:3602   */\n            tag_219:\n                /* \"#utility.yul\":3571:3595   */\n              tag_221\n                /* \"#utility.yul\":3589:3594   */\n              dup2\n                /* \"#utility.yul\":3571:3595   */\n              tag_222\n              jump\t// in\n            tag_221:\n                /* \"#utility.yul\":3566:3569   */\n              dup3\n                /* \"#utility.yul\":3559:3596   */\n              mstore\n                /* \"#utility.yul\":3549:3602   */\n              pop\n              pop\n              jump\t// out\n                /* \"#utility.yul\":3608:3830   */\n            tag_62:\n                /* \"#utility.yul\":3701:3705   */\n              0x00\n                /* \"#utility.yul\":3739:3741   */\n              0x20\n                /* \"#utility.yul\":3728:3737   */\n              dup3\n                /* \"#utility.yul\":3724:3742   */\n              add\n                /* \"#utility.yul\":3716:3742   */\n              swap1\n              pop\n                /* \"#utility.yul\":3752:3823   */\n              tag_224\n                /* \"#utility.yul\":3820:3821   */\n              0x00\n                /* \"#utility.yul\":3809:3818   */\n              dup4\n                /* \"#utility.yul\":3805:3822   */\n              add\n                /* \"#utility.yul\":3796:3802   */\n              dup5\n                /* \"#utility.yul\":3752:3823   */\n              tag_201\n              jump\t// in\n            tag_224:\n                /* \"#utility.yul\":3706:3830   */\n              swap3\n              swap2\n              pop\n              pop\n              jump\t// out\n                /* \"#utility.yul\":3836:4149   */\n            tag_50:\n                /* \"#utility.yul\":3949:3953   */\n              0x00\n                /* \"#utility.yul\":3987:3989   */\n              0x20\n                /* \"#utility.yul\":3976:3985   */\n              dup3\n                /* \"#utility.yul\":3972:3990   */\n              add\n                /* \"#utility.yul\":3964:3990   */\n              swap1\n              pop\n                /* \"#utility.yul\":4036:4045   */\n              dup2\n                /* \"#utility.yul\":4030:4034   */\n              dup2\n                /* \"#utility.yul\":4026:4046   */\n              sub\n                /* \"#utility.yul\":4022:4023   */\n              0x00\n                /* \"#utility.yul\":4011:4020   */\n              dup4\n                /* \"#utility.yul\":4007:4024   */\n              add\n                /* \"#utility.yul\":4000:4047   */\n              mstore\n                /* \"#utility.yul\":4064:4142   */\n              tag_226\n                /* \"#utility.yul\":4137:4141   */\n              dup2\n                /* \"#utility.yul\":4128:4134   */\n              dup5\n                /* \"#utility.yul\":4064:4142   */\n              tag_209\n              jump\t// in\n            tag_226:\n                /* \"#utility.yul\":4056:4142   */\n              swap1\n              pop\n                /* \"#utility.yul\":3954:4149   */\n              swap3\n              swap2\n              pop\n              pop\n              jump\t// out\n                /* \"#utility.yul\":4155:4930   */\n            tag_57:\n                /* \"#utility.yul\":4390:4394   */\n              0x00\n                /* \"#utility.yul\":4428:4431   */\n              0xa0\n                /* \"#utility.yul\":4417:4426   */\n              dup3\n                /* \"#utility.yul\":4413:4432   */\n              add\n                /* \"#utility.yul\":4405:4432   */\n              swap1\n              pop\n                /* \"#utility.yul\":4478:4487   */\n              dup2\n                /* \"#utility.yul\":4472:4476   */\n              dup2\n                /* \"#utility.yul\":4468:4488   */\n              sub\n                /* \"#utility.yul\":4464:4465   */\n              0x00\n                /* \"#utility.yul\":4453:4462   */\n              dup4\n                /* \"#utility.yul\":4449:4466   */\n              add\n                /* \"#utility.yul\":4442:4489   */\n              mstore\n                /* \"#utility.yul\":4506:4584   */\n              tag_228\n                /* \"#utility.yul\":4579:4583   */\n              dup2\n                /* \"#utility.yul\":4570:4576   */\n              dup9\n                /* \"#utility.yul\":4506:4584   */\n              tag_209\n              jump\t// in\n            tag_228:\n                /* \"#utility.yul\":4498:4584   */\n              swap1\n              pop\n                /* \"#utility.yul\":4594:4666   */\n              tag_229\n                /* \"#utility.yul\":4662:4664   */\n              0x20\n                /* \"#utility.yul\":4651:4660   */\n              dup4\n                /* \"#utility.yul\":4647:4665   */\n              add\n                /* \"#utility.yul\":4638:4644   */\n              dup8\n                /* \"#utility.yul\":4594:4666   */\n              tag_219\n              jump\t// in\n            tag_229:\n                /* \"#utility.yul\":4676:4764   */\n              tag_230\n                /* \"#utility.yul\":4760:4762   */\n              0x40\n                /* \"#utility.yul\":4749:4758   */\n              dup4\n                /* \"#utility.yul\":4745:4763   */\n              add\n                /* \"#utility.yul\":4736:4742   */\n              dup7\n                /* \"#utility.yul\":4676:4764   */\n              tag_197\n              jump\t// in\n            tag_230:\n                /* \"#utility.yul\":4774:4840   */\n              tag_231\n                /* \"#utility.yul\":4836:4838   */\n              0x60\n                /* \"#utility.yul\":4825:4834   */\n              dup4\n                /* \"#utility.yul\":4821:4839   */\n              add\n                /* \"#utility.yul\":4812:4818   */\n              dup6\n                /* \"#utility.yul\":4774:4840   */\n              tag_205\n              jump\t// in\n            tag_231:\n                /* \"#utility.yul\":4850:4923   */\n              tag_232\n                /* \"#utility.yul\":4918:4921   */\n              0x80\n                /* \"#utility.yul\":4907:4916   */\n              dup4\n                /* \"#utility.yul\":4903:4922   */\n              add\n                /* \"#utility.yul\":4894:4900   */\n              dup5\n                /* \"#utility.yul\":4850:4923   */\n              tag_219\n              jump\t// in\n            tag_232:\n                /* \"#utility.yul\":4395:4930   */\n              swap7\n              swap6\n              pop\n              pop\n              pop\n              pop\n              pop\n              pop\n              jump\t// out\n                /* \"#utility.yul\":4936:6024   */\n            tag_35:\n                /* \"#utility.yul\":5245:5249   */\n              0x00\n                /* \"#utility.yul\":5283:5286   */\n              0x0100\n                /* \"#utility.yul\":5272:5281   */\n              dup3\n                /* \"#utility.yul\":5268:5287   */\n              add\n                /* \"#utility.yul\":5260:5287   */\n              swap1\n              pop\n                /* \"#utility.yul\":5333:5342   */\n              dup2\n                /* \"#utility.yul\":5327:5331   */\n              dup2\n                /* \"#utility.yul\":5323:5343   */\n              sub\n                /* \"#utility.yul\":5319:5320   */\n              0x00\n                /* \"#utility.yul\":5308:5317   */\n              dup4\n                /* \"#utility.yul\":5304:5321   */\n              add\n                /* \"#utility.yul\":5297:5344   */\n              mstore\n                /* \"#utility.yul\":5361:5439   */\n              tag_234\n                /* \"#utility.yul\":5434:5438   */\n              dup2\n                /* \"#utility.yul\":5425:5431   */\n              dup12\n                /* \"#utility.yul\":5361:5439   */\n              tag_209\n              jump\t// in\n            tag_234:\n                /* \"#utility.yul\":5353:5439   */\n              swap1\n              pop\n                /* \"#utility.yul\":5449:5521   */\n              tag_235\n                /* \"#utility.yul\":5517:5519   */\n              0x20\n                /* \"#utility.yul\":5506:5515   */\n              dup4\n                /* \"#utility.yul\":5502:5520   */\n              add\n                /* \"#utility.yul\":5493:5499   */\n              dup11\n                /* \"#utility.yul\":5449:5521   */\n              tag_219\n              jump\t// in\n            tag_235:\n                /* \"#utility.yul\":5531:5603   */\n              tag_236\n                /* \"#utility.yul\":5599:5601   */\n              0x40\n                /* \"#utility.yul\":5588:5597   */\n              dup4\n                /* \"#utility.yul\":5584:5602   */\n              add\n                /* \"#utility.yul\":5575:5581   */\n              dup10\n                /* \"#utility.yul\":5531:5603   */\n              tag_219\n              jump\t// in\n            tag_236:\n                /* \"#utility.yul\":5613:5685   */\n              tag_237\n                /* \"#utility.yul\":5681:5683   */\n              0x60\n                /* \"#utility.yul\":5670:5679   */\n              dup4\n                /* \"#utility.yul\":5666:5684   */\n              add\n                /* \"#utility.yul\":5657:5663   */\n              dup9\n                /* \"#utility.yul\":5613:5685   */\n              tag_219\n              jump\t// in\n            tag_237:\n                /* \"#utility.yul\":5695:5768   */\n              tag_238\n                /* \"#utility.yul\":5763:5766   */\n              0x80\n                /* \"#utility.yul\":5752:5761   */\n              dup4\n                /* \"#utility.yul\":5748:5767   */\n              add\n                /* \"#utility.yul\":5739:5745   */\n              dup8\n                /* \"#utility.yul\":5695:5768   */\n              tag_219\n              jump\t// in\n            tag_238:\n                /* \"#utility.yul\":5778:5851   */\n              tag_239\n                /* \"#utility.yul\":5846:5849   */\n              0xa0\n                /* \"#utility.yul\":5835:5844   */\n              dup4\n                /* \"#utility.yul\":5831:5850   */\n              add\n                /* \"#utility.yul\":5822:5828   */\n              dup7\n                /* \"#utility.yul\":5778:5851   */\n              tag_219\n              jump\t// in\n            tag_239:\n                /* \"#utility.yul\":5861:5934   */\n              tag_240\n                /* \"#utility.yul\":5929:5932   */\n              0xc0\n                /* \"#utility.yul\":5918:5927   */\n              dup4\n                /* \"#utility.yul\":5914:5933   */\n              add\n                /* \"#utility.yul\":5905:5911   */\n              dup6\n                /* \"#utility.yul\":5861:5934   */\n              tag_219\n              jump\t// in\n            tag_240:\n                /* \"#utility.yul\":5944:6017   */\n              tag_241\n                /* \"#utility.yul\":6012:6015   */\n              0xe0\n                /* \"#utility.yul\":6001:6010   */\n              dup4\n                /* \"#utility.yul\":5997:6016   */\n              add\n                /* \"#utility.yul\":5988:5994   */\n              dup5\n                /* \"#utility.yul\":5944:6017   */\n              tag_201\n              jump\t// in\n            tag_241:\n                /* \"#utility.yul\":5250:6024   */\n              swap10\n              swap9\n              pop\n              pop\n              pop\n              pop\n              pop\n              pop\n              pop\n              pop\n              pop\n              jump\t// out\n                /* \"#utility.yul\":6030:6252   */\n            tag_26:\n                /* \"#utility.yul\":6123:6127   */\n              0x00\n                /* \"#utility.yul\":6161:6163   */\n              0x20\n                /* \"#utility.yul\":6150:6159   */\n              dup3\n                /* \"#utility.yul\":6146:6164   */\n              add\n                /* \"#utility.yul\":6138:6164   */\n              swap1\n              pop\n                /* \"#utility.yul\":6174:6245   */\n              tag_243\n                /* \"#utility.yul\":6242:6243   */\n              0x00\n                /* \"#utility.yul\":6231:6240   */\n              dup4\n                /* \"#utility.yul\":6227:6244   */\n              add\n                /* \"#utility.yul\":6218:6224   */\n              dup5\n                /* \"#utility.yul\":6174:6245   */\n              tag_219\n              jump\t// in\n            tag_243:\n                /* \"#utility.yul\":6128:6252   */\n              swap3\n              swap2\n              pop\n              pop\n              jump\t// out\n                /* \"#utility.yul\":6258:6387   */\n            tag_155:\n                /* \"#utility.yul\":6292:6298   */\n              0x00\n                /* \"#utility.yul\":6319:6339   */\n              tag_245\n              tag_246\n              jump\t// in\n            tag_245:\n                /* \"#utility.yul\":6309:6339   */\n              swap1\n              pop\n                /* \"#utility.yul\":6348:6381   */\n              tag_247\n                /* \"#utility.yul\":6376:6380   */\n              dup3\n                /* \"#utility.yul\":6368:6374   */\n              dup3\n                /* \"#utility.yul\":6348:6381   */\n              tag_248\n              jump\t// in\n            tag_247:\n                /* \"#utility.yul\":6299:6387   */\n              swap2\n              swap1\n              pop\n              jump\t// out\n                /* \"#utility.yul\":6393:6468   */\n            tag_246:\n                /* \"#utility.yul\":6426:6432   */\n              0x00\n                /* \"#utility.yul\":6459:6461   */\n              0x40\n                /* \"#utility.yul\":6453:6462   */\n              mload\n                /* \"#utility.yul\":6443:6462   */\n              swap1\n              pop\n                /* \"#utility.yul\":6433:6468   */\n              swap1\n              jump\t// out\n                /* \"#utility.yul\":6474:6782   */\n            tag_154:\n                /* \"#utility.yul\":6536:6540   */\n              0x00\n                /* \"#utility.yul\":6626:6644   */\n              0xffffffffffffffff\n                /* \"#utility.yul\":6618:6624   */\n              dup3\n                /* \"#utility.yul\":6615:6645   */\n              gt\n                /* \"#utility.yul\":6612:6614   */\n              iszero\n              tag_251\n              jumpi\n                /* \"#utility.yul\":6648:6666   */\n              tag_252\n              tag_253\n              jump\t// in\n            tag_252:\n                /* \"#utility.yul\":6612:6614   */\n            tag_251:\n                /* \"#utility.yul\":6686:6715   */\n              tag_254\n                /* \"#utility.yul\":6708:6714   */\n              dup3\n                /* \"#utility.yul\":6686:6715   */\n              tag_218\n              jump\t// in\n            tag_254:\n                /* \"#utility.yul\":6678:6715   */\n              swap1\n              pop\n                /* \"#utility.yul\":6770:6774   */\n              0x20\n                /* \"#utility.yul\":6764:6768   */\n              dup2\n                /* \"#utility.yul\":6760:6775   */\n              add\n                /* \"#utility.yul\":6752:6775   */\n              swap1\n              pop\n                /* \"#utility.yul\":6541:6782   */\n              swap2\n              swap1\n              pop\n              jump\t// out\n                /* \"#utility.yul\":6788:6887   */\n            tag_212:\n                /* \"#utility.yul\":6840:6846   */\n              0x00\n                /* \"#utility.yul\":6874:6879   */\n              dup2\n                /* \"#utility.yul\":6868:6880   */\n              mload\n                /* \"#utility.yul\":6858:6880   */\n              swap1\n              pop\n                /* \"#utility.yul\":6847:6887   */\n              swap2\n              swap1\n              pop\n              jump\t// out\n                /* \"#utility.yul\":6893:7062   */\n            tag_214:\n                /* \"#utility.yul\":6977:6988   */\n              0x00\n                /* \"#utility.yul\":7011:7017   */\n              dup3\n                /* \"#utility.yul\":7006:7009   */\n              dup3\n                /* \"#utility.yul\":6999:7018   */\n              mstore\n                /* \"#utility.yul\":7051:7055   */\n              0x20\n                /* \"#utility.yul\":7046:7049   */\n              dup3\n                /* \"#utility.yul\":7042:7056   */\n              add\n                /* \"#utility.yul\":7027:7056   */\n              swap1\n              pop\n                /* \"#utility.yul\":6989:7062   */\n              swap3\n              swap2\n              pop\n              pop\n              jump\t// out\n                /* \"#utility.yul\":7068:7373   */\n            tag_126:\n                /* \"#utility.yul\":7108:7111   */\n              0x00\n                /* \"#utility.yul\":7127:7147   */\n              tag_258\n                /* \"#utility.yul\":7145:7146   */\n              dup3\n                /* \"#utility.yul\":7127:7147   */\n              tag_222\n              jump\t// in\n            tag_258:\n                /* \"#utility.yul\":7122:7147   */\n              swap2\n              pop\n                /* \"#utility.yul\":7161:7181   */\n              tag_259\n                /* \"#utility.yul\":7179:7180   */\n              dup4\n                /* \"#utility.yul\":7161:7181   */\n              tag_222\n              jump\t// in\n            tag_259:\n                /* \"#utility.yul\":7156:7181   */\n              swap3\n              pop\n                /* \"#utility.yul\":7315:7316   */\n              dup3\n                /* \"#utility.yul\":7247:7313   */\n              0xffffffffffffffffffffffffffffffffffffffffffffffffffffffffffffffff\n                /* \"#utility.yul\":7243:7317   */\n              sub\n                /* \"#utility.yul\":7240:7241   */\n              dup3\n                /* \"#utility.yul\":7237:7318   */\n              gt\n                /* \"#utility.yul\":7234:7236   */\n              iszero\n              tag_260\n              jumpi\n                /* \"#utility.yul\":7321:7339   */\n              tag_261\n              tag_262\n              jump\t// in\n            tag_261:\n                /* \"#utility.yul\":7234:7236   */\n            tag_260:\n                /* \"#utility.yul\":7365:7366   */\n              dup3\n                /* \"#utility.yul\":7362:7363   */\n              dup3\n                /* \"#utility.yul\":7358:7367   */\n              add\n                /* \"#utility.yul\":7351:7367   */\n              swap1\n              pop\n                /* \"#utility.yul\":7112:7373   */\n              swap3\n              swap2\n              pop\n              pop\n              jump\t// out\n                /* \"#utility.yul\":7379:7564   */\n            tag_115:\n                /* \"#utility.yul\":7419:7420   */\n              0x00\n                /* \"#utility.yul\":7436:7456   */\n              tag_264\n                /* \"#utility.yul\":7454:7455   */\n              dup3\n                /* \"#utility.yul\":7436:7456   */\n              tag_222\n              jump\t// in\n            tag_264:\n                /* \"#utility.yul\":7431:7456   */\n              swap2\n              pop\n                /* \"#utility.yul\":7470:7490   */\n              tag_265\n                /* \"#utility.yul\":7488:7489   */\n              dup4\n                /* \"#utility.yul\":7470:7490   */\n              tag_222\n              jump\t// in\n            tag_265:\n                /* \"#utility.yul\":7465:7490   */\n              swap3\n              pop\n                /* \"#utility.yul\":7509:7510   */\n              dup3\n                /* \"#utility.yul\":7499:7501   */\n              tag_266\n              jumpi\n                /* \"#utility.yul\":7514:7532   */\n              tag_267\n              tag_268\n              jump\t// in\n            tag_267:\n                /* \"#utility.yul\":7499:7501   */\n            tag_266:\n                /* \"#utility.yul\":7556:7557   */\n              dup3\n                /* \"#utility.yul\":7553:7554   */\n              dup3\n                /* \"#utility.yul\":7549:7558   */\n              div\n                /* \"#utility.yul\":7544:7558   */\n              swap1\n              pop\n                /* \"#utility.yul\":7421:7564   */\n              swap3\n              swap2\n              pop\n              pop\n              jump\t// out\n                /* \"#utility.yul\":7570:7666   */\n            tag_204:\n                /* \"#utility.yul\":7607:7614   */\n              0x00\n                /* \"#utility.yul\":7636:7660   */\n              tag_270\n                /* \"#utility.yul\":7654:7659   */\n              dup3\n                /* \"#utility.yul\":7636:7660   */\n              tag_271\n              jump\t// in\n            tag_270:\n                /* \"#utility.yul\":7625:7660   */\n              swap1\n              pop\n                /* \"#utility.yul\":7615:7666   */\n              swap2\n              swap1\n              pop\n              jump\t// out\n                /* \"#utility.yul\":7672:7776   */\n            tag_200:\n                /* \"#utility.yul\":7717:7724   */\n              0x00\n                /* \"#utility.yul\":7746:7770   */\n              tag_273\n                /* \"#utility.yul\":7764:7769   */\n              dup3\n                /* \"#utility.yul\":7746:7770   */\n              tag_271\n              jump\t// in\n            tag_273:\n                /* \"#utility.yul\":7735:7770   */\n              swap1\n              pop\n                /* \"#utility.yul\":7725:7776   */\n              swap2\n              swap1\n              pop\n              jump\t// out\n                /* \"#utility.yul\":7782:7872   */\n            tag_208:\n                /* \"#utility.yul\":7816:7823   */\n              0x00\n                /* \"#utility.yul\":7859:7864   */\n              dup2\n                /* \"#utility.yul\":7852:7865   */\n              iszero\n                /* \"#utility.yul\":7845:7866   */\n              iszero\n                /* \"#utility.yul\":7834:7866   */\n              swap1\n              pop\n                /* \"#utility.yul\":7824:7872   */\n              swap2\n              swap1\n              pop\n              jump\t// out\n                /* \"#utility.yul\":7878:8004   */\n            tag_271:\n                /* \"#utility.yul\":7915:7922   */\n              0x00\n                /* \"#utility.yul\":7955:7997   */\n              0xffffffffffffffffffffffffffffffffffffffff\n                /* \"#utility.yul\":7948:7953   */\n              dup3\n                /* \"#utility.yul\":7944:7998   */\n              and\n                /* \"#utility.yul\":7933:7998   */\n              swap1\n              pop\n                /* \"#utility.yul\":7923:8004   */\n              swap2\n              swap1\n              pop\n              jump\t// out\n                /* \"#utility.yul\":8010:8087   */\n            tag_222:\n                /* \"#utility.yul\":8047:8054   */\n              0x00\n                /* \"#utility.yul\":8076:8081   */\n              dup2\n                /* \"#utility.yul\":8065:8081   */\n              swap1\n              pop\n                /* \"#utility.yul\":8055:8087   */\n              swap2\n              swap1\n              pop\n              jump\t// out\n                /* \"#utility.yul\":8093:8247   */\n            tag_160:\n                /* \"#utility.yul\":8177:8183   */\n              dup3\n                /* \"#utility.yul\":8172:8175   */\n              dup2\n                /* \"#utility.yul\":8167:8170   */\n              dup4\n                /* \"#utility.yul\":8154:8184   */\n              calldatacopy\n                /* \"#utility.yul\":8239:8240   */\n              0x00\n                /* \"#utility.yul\":8230:8236   */\n              dup4\n                /* \"#utility.yul\":8225:8228   */\n              dup4\n                /* \"#utility.yul\":8221:8237   */\n              add\n                /* \"#utility.yul\":8214:8241   */\n              mstore\n                /* \"#utility.yul\":8144:8247   */\n              pop\n              pop\n              pop\n              jump\t// out\n                /* \"#utility.yul\":8253:8560   */\n            tag_216:\n                /* \"#utility.yul\":8321:8322   */\n              0x00\n                /* \"#utility.yul\":8331:8444   */\n            tag_279:\n                /* \"#utility.yul\":8345:8351   */\n              dup4\n                /* \"#utility.yul\":8342:8343   */\n              dup2\n                /* \"#utility.yul\":8339:8352   */\n              lt\n                /* \"#utility.yul\":8331:8444   */\n              iszero\n              tag_281\n              jumpi\n                /* \"#utility.yul\":8430:8431   */\n              dup1\n                /* \"#utility.yul\":8425:8428   */\n              dup3\n                /* \"#utility.yul\":8421:8432   */\n              add\n                /* \"#utility.yul\":8415:8433   */\n              mload\n                /* \"#utility.yul\":8411:8412   */\n              dup2\n                /* \"#utility.yul\":8406:8409   */\n              dup5\n                /* \"#utility.yul\":8402:8413   */\n              add\n                /* \"#utility.yul\":8395:8434   */\n              mstore\n                /* \"#utility.yul\":8367:8369   */\n              0x20\n                /* \"#utility.yul\":8364:8365   */\n              dup2\n                /* \"#utility.yul\":8360:8370   */\n              add\n                /* \"#utility.yul\":8355:8370   */\n              swap1\n              pop\n                /* \"#utility.yul\":8331:8444   */\n              jump(tag_279)\n            tag_281:\n                /* \"#utility.yul\":8462:8468   */\n              dup4\n                /* \"#utility.yul\":8459:8460   */\n              dup2\n                /* \"#utility.yul\":8456:8469   */\n              gt\n                /* \"#utility.yul\":8453:8455   */\n              iszero\n              tag_282\n              jumpi\n                /* \"#utility.yul\":8542:8543   */\n              0x00\n                /* \"#utility.yul\":8533:8539   */\n              dup5\n                /* \"#utility.yul\":8528:8531   */\n              dup5\n                /* \"#utility.yul\":8524:8540   */\n              add\n                /* \"#utility.yul\":8517:8544   */\n              mstore\n                /* \"#utility.yul\":8453:8455   */\n            tag_282:\n                /* \"#utility.yul\":8302:8560   */\n              pop\n              pop\n              pop\n              pop\n              jump\t// out\n                /* \"#utility.yul\":8566:8886   */\n            tag_89:\n                /* \"#utility.yul\":8610:8616   */\n              0x00\n                /* \"#utility.yul\":8647:8648   */\n              0x02\n                /* \"#utility.yul\":8641:8645   */\n              dup3\n                /* \"#utility.yul\":8637:8649   */\n              div\n                /* \"#utility.yul\":8627:8649   */\n              swap1\n              pop\n                /* \"#utility.yul\":8694:8695   */\n              0x01\n                /* \"#utility.yul\":8688:8692   */\n              dup3\n                /* \"#utility.yul\":8684:8696   */\n              and\n                /* \"#utility.yul\":8715:8733   */\n              dup1\n                /* \"#utility.yul\":8705:8707   */\n              tag_284\n              jumpi\n                /* \"#utility.yul\":8771:8775   */\n              0x7f\n                /* \"#utility.yul\":8763:8769   */\n              dup3\n                /* \"#utility.yul\":8759:8776   */\n              and\n                /* \"#utility.yul\":8749:8776   */\n              swap2\n              pop\n                /* \"#utility.yul\":8705:8707   */\n            tag_284:\n                /* \"#utility.yul\":8833:8835   */\n              0x20\n                /* \"#utility.yul\":8825:8831   */\n              dup3\n                /* \"#utility.yul\":8822:8836   */\n              lt\n                /* \"#utility.yul\":8802:8820   */\n              dup2\n                /* \"#utility.yul\":8799:8837   */\n              eq\n                /* \"#utility.yul\":8796:8798   */\n              iszero\n              tag_285\n              jumpi\n                /* \"#utility.yul\":8852:8870   */\n              tag_286\n              tag_287\n              jump\t// in\n            tag_286:\n                /* \"#utility.yul\":8796:8798   */\n            tag_285:\n                /* \"#utility.yul\":8617:8886   */\n              pop\n              swap2\n              swap1\n              pop\n              jump\t// out\n                /* \"#utility.yul\":8892:9173   */\n            tag_248:\n                /* \"#utility.yul\":8975:9002   */\n              tag_289\n                /* \"#utility.yul\":8997:9001   */\n              dup3\n                /* \"#utility.yul\":8975:9002   */\n              tag_218\n              jump\t// in\n            tag_289:\n                /* \"#utility.yul\":8967:8973   */\n              dup2\n                /* \"#utility.yul\":8963:9003   */\n              add\n                /* \"#utility.yul\":9105:9111   */\n              dup2\n                /* \"#utility.yul\":9093:9103   */\n              dup2\n                /* \"#utility.yul\":9090:9112   */\n              lt\n                /* \"#utility.yul\":9069:9087   */\n              0xffffffffffffffff\n                /* \"#utility.yul\":9057:9067   */\n              dup3\n                /* \"#utility.yul\":9054:9088   */\n              gt\n                /* \"#utility.yul\":9051:9113   */\n              or\n                /* \"#utility.yul\":9048:9050   */\n              iszero\n              tag_290\n              jumpi\n                /* \"#utility.yul\":9116:9134   */\n              tag_291\n              tag_253\n              jump\t// in\n            tag_291:\n                /* \"#utility.yul\":9048:9050   */\n            tag_290:\n                /* \"#utility.yul\":9156:9166   */\n              dup1\n                /* \"#utility.yul\":9152:9154   */\n              0x40\n                /* \"#utility.yul\":9145:9167   */\n              mstore\n                /* \"#utility.yul\":8935:9173   */\n              pop\n              pop\n              pop\n              jump\t// out\n                /* \"#utility.yul\":9179:9359   */\n            tag_138:\n                /* \"#utility.yul\":9227:9304   */\n              0x4e487b7100000000000000000000000000000000000000000000000000000000\n                /* \"#utility.yul\":9224:9225   */\n              0x00\n                /* \"#utility.yul\":9217:9305   */\n              mstore\n                /* \"#utility.yul\":9324:9328   */\n              0x01\n                /* \"#utility.yul\":9321:9322   */\n              0x04\n                /* \"#utility.yul\":9314:9329   */\n              mstore\n                /* \"#utility.yul\":9348:9352   */\n              0x24\n                /* \"#utility.yul\":9345:9346   */\n              0x00\n                /* \"#utility.yul\":9338:9353   */\n              revert\n                /* \"#utility.yul\":9365:9545   */\n            tag_262:\n                /* \"#utility.yul\":9413:9490   */\n              0x4e487b7100000000000000000000000000000000000000000000000000000000\n                /* \"#utility.yul\":9410:9411   */\n              0x00\n                /* \"#utility.yul\":9403:9491   */\n              mstore\n                /* \"#utility.yul\":9510:9514   */\n              0x11\n                /* \"#utility.yul\":9507:9508   */\n              0x04\n                /* \"#utility.yul\":9500:9515   */\n              mstore\n                /* \"#utility.yul\":9534:9538   */\n              0x24\n                /* \"#utility.yul\":9531:9532   */\n              0x00\n                /* \"#utility.yul\":9524:9539   */\n              revert\n                /* \"#utility.yul\":9551:9731   */\n            tag_268:\n                /* \"#utility.yul\":9599:9676   */\n              0x4e487b7100000000000000000000000000000000000000000000000000000000\n                /* \"#utility.yul\":9596:9597   */\n              0x00\n                /* \"#utility.yul\":9589:9677   */\n              mstore\n                /* \"#utility.yul\":9696:9700   */\n              0x12\n                /* \"#utility.yul\":9693:9694   */\n              0x04\n                /* \"#utility.yul\":9686:9701   */\n              mstore\n                /* \"#utility.yul\":9720:9724   */\n              0x24\n                /* \"#utility.yul\":9717:9718   */\n              0x00\n                /* \"#utility.yul\":9710:9725   */\n              revert\n                /* \"#utility.yul\":9737:9917   */\n            tag_287:\n                /* \"#utility.yul\":9785:9862   */\n              0x4e487b7100000000000000000000000000000000000000000000000000000000\n                /* \"#utility.yul\":9782:9783   */\n              0x00\n                /* \"#utility.yul\":9775:9863   */\n              mstore\n                /* \"#utility.yul\":9882:9886   */\n              0x22\n                /* \"#utility.yul\":9879:9880   */\n              0x04\n                /* \"#utility.yul\":9872:9887   */\n              mstore\n                /* \"#utility.yul\":9906:9910   */\n              0x24\n                /* \"#utility.yul\":9903:9904   */\n              0x00\n                /* \"#utility.yul\":9896:9911   */\n              revert\n                /* \"#utility.yul\":9923:10103   */\n            tag_83:\n                /* \"#utility.yul\":9971:10048   */\n              0x4e487b7100000000000000000000000000000000000000000000000000000000\n                /* \"#utility.yul\":9968:9969   */\n              0x00\n                /* \"#utility.yul\":9961:10049   */\n              mstore\n                /* \"#utility.yul\":10068:10072   */\n              0x32\n                /* \"#utility.yul\":10065:10066   */\n              0x04\n                /* \"#utility.yul\":10058:10073   */\n              mstore\n                /* \"#utility.yul\":10092:10096   */\n              0x24\n                /* \"#utility.yul\":10089:10090   */\n              0x00\n                /* \"#utility.yul\":10082:10097   */\n              revert\n                /* \"#utility.yul\":10109:10289   */\n            tag_253:\n                /* \"#utility.yul\":10157:10234   */\n              0x4e487b7100000000000000000000000000000000000000000000000000000000\n                /* \"#utility.yul\":10154:10155   */\n              0x00\n                /* \"#utility.yul\":10147:10235   */\n              mstore\n                /* \"#utility.yul\":10254:10258   */\n              0x41\n                /* \"#utility.yul\":10251:10252   */\n              0x04\n                /* \"#utility.yul\":10244:10259   */\n              mstore\n                /* \"#utility.yul\":10278:10282   */\n              0x24\n                /* \"#utility.yul\":10275:10276   */\n              0x00\n                /* \"#utility.yul\":10268:10283   */\n              revert\n                /* \"#utility.yul\":10295:10412   */\n            tag_173:\n                /* \"#utility.yul\":10404:10405   */\n              0x00\n                /* \"#utility.yul\":10401:10402   */\n              dup1\n                /* \"#utility.yul\":10394:10406   */\n              revert\n                /* \"#utility.yul\":10418:10535   */\n            tag_158:\n                /* \"#utility.yul\":10527:10528   */\n              0x00\n                /* \"#utility.yul\":10524:10525   */\n              dup1\n                /* \"#utility.yul\":10517:10529   */\n              revert\n                /* \"#utility.yul\":10541:10658   */\n            tag_189:\n                /* \"#utility.yul\":10650:10651   */\n              0x00\n                /* \"#utility.yul\":10647:10648   */\n              dup1\n                /* \"#utility.yul\":10640:10652   */\n              revert\n                /* \"#utility.yul\":10664:10781   */\n            tag_182:\n                /* \"#utility.yul\":10773:10774   */\n              0x00\n                /* \"#utility.yul\":10770:10771   */\n              dup1\n                /* \"#utility.yul\":10763:10775   */\n              revert\n                /* \"#utility.yul\":10787:10889   */\n            tag_218:\n                /* \"#utility.yul\":10828:10834   */\n              0x00\n                /* \"#utility.yul\":10879:10881   */\n              0x1f\n                /* \"#utility.yul\":10875:10882   */\n              not\n                /* \"#utility.yul\":10870:10872   */\n              0x1f\n                /* \"#utility.yul\":10863:10868   */\n              dup4\n                /* \"#utility.yul\":10859:10873   */\n              add\n                /* \"#utility.yul\":10855:10883   */\n              and\n                /* \"#utility.yul\":10845:10883   */\n              swap1\n              pop\n                /* \"#utility.yul\":10835:10889   */\n              swap2\n              swap1\n              pop\n              jump\t// out\n                /* \"#utility.yul\":10895:11017   */\n            tag_164:\n                /* \"#utility.yul\":10968:10992   */\n              tag_304\n                /* \"#utility.yul\":10986:10991   */\n              dup2\n                /* \"#utility.yul\":10968:10992   */\n              tag_204\n              jump\t// in\n            tag_304:\n                /* \"#utility.yul\":10961:10966   */\n              dup2\n                /* \"#utility.yul\":10958:10993   */\n              eq\n                /* \"#utility.yul\":10948:10950   */\n              tag_305\n              jumpi\n                /* \"#utility.yul\":11007:11008   */\n              0x00\n                /* \"#utility.yul\":11004:11005   */\n              dup1\n                /* \"#utility.yul\":10997:11009   */\n              revert\n                /* \"#utility.yul\":10948:10950   */\n            tag_305:\n                /* \"#utility.yul\":10938:11017   */\n              pop\n              jump\t// out\n                /* \"#utility.yul\":11023:11161   */\n            tag_168:\n                /* \"#utility.yul\":11104:11136   */\n              tag_307\n                /* \"#utility.yul\":11130:11135   */\n              dup2\n                /* \"#utility.yul\":11104:11136   */\n              tag_200\n              jump\t// in\n            tag_307:\n                /* \"#utility.yul\":11097:11102   */\n              dup2\n                /* \"#utility.yul\":11094:11137   */\n              eq\n                /* \"#utility.yul\":11084:11086   */\n              tag_308\n              jumpi\n                /* \"#utility.yul\":11151:11152   */\n              0x00\n                /* \"#utility.yul\":11148:11149   */\n              dup1\n                /* \"#utility.yul\":11141:11153   */\n              revert\n                /* \"#utility.yul\":11084:11086   */\n            tag_308:\n                /* \"#utility.yul\":11074:11161   */\n              pop\n              jump\t// out\n                /* \"#utility.yul\":11167:11289   */\n            tag_178:\n                /* \"#utility.yul\":11240:11264   */\n              tag_310\n                /* \"#utility.yul\":11258:11263   */\n              dup2\n                /* \"#utility.yul\":11240:11264   */\n              tag_222\n              jump\t// in\n            tag_310:\n                /* \"#utility.yul\":11233:11238   */\n              dup2\n                /* \"#utility.yul\":11230:11265   */\n              eq\n                /* \"#utility.yul\":11220:11222   */\n              tag_311\n              jumpi\n                /* \"#utility.yul\":11279:11280   */\n              0x00\n                /* \"#utility.yul\":11276:11277   */\n              dup1\n                /* \"#utility.yul\":11269:11281   */\n              revert\n                /* \"#utility.yul\":11220:11222   */\n            tag_311:\n                /* \"#utility.yul\":11210:11289   */\n              pop\n              jump\t// out\n\n            auxdata: 0xa26469706673582212207938a4e72a75c3c17284cefa2598b3a9db36f19c6d298d1dbbbbd3cc4474aef164736f6c63430008050033\n        }\n    }\n\n    auxdata: 0xa2646970667358221220c6f139f0d12543a51238c6d2dc4b524487ee9330af79aff48e4ecf88d0de7fe464736f6c63430008050033\n}\n","bytecode":{"linkReferences":{},"object":"608060405234801561001057600080fd5b50611df4806100206000396000f3fe60806040523480156200001157600080fd5b5060043610620000465760003560e01c8063107046bd146200004b578063610a6a2a1462000081578063dcc6012814620000a1575b600080fd5b62000069600480360381019062000063919062000376565b620000c3565b604051620000789190620004a0565b60405180910390f35b6200009f6004803603810190620000999190620002e5565b62000103565b005b620000ab620001b2565b604051620000ba9190620004bd565b60405180910390f35b60008181548110620000d457600080fd5b906000526020600020016000915054906101000a900473ffffffffffffffffffffffffffffffffffffffff1681565b60008484848433604051620001189062000242565b62000128959493929190620004e1565b604051809103906000f08015801562000145573d6000803e3d6000fd5b5090506000819080600181540180825580915050600190039060005260206000200160009091909190916101000a81548173ffffffffffffffffffffffffffffffffffffffff021916908373ffffffffffffffffffffffffffffffffffffffff1602179055505050505050565b606060008054806020026020016040519081016040528092919081815260200182805480156200023857602002820191906000526020600020905b8160009054906101000a900473ffffffffffffffffffffffffffffffffffffffff1673ffffffffffffffffffffffffffffffffffffffff1681526020019060010190808311620001ed575b5050505050905090565b61169e806200072183390190565b60006200026762000261846200056e565b62000545565b905082815260208101848484011115620002865762000285620006e6565b5b6200029384828562000637565b509392505050565b600082601f830112620002b357620002b2620006e1565b5b8135620002c584826020860162000250565b91505092915050565b600081359050620002df8162000706565b92915050565b60008060008060808587031215620003025762000301620006f0565b5b600085013567ffffffffffffffff811115620003235762000322620006eb565b5b62000331878288016200029b565b94505060206200034487828801620002ce565b93505060406200035787828801620002ce565b92505060606200036a87828801620002ce565b91505092959194509250565b6000602082840312156200038f576200038e620006f0565b5b60006200039f84828501620002ce565b91505092915050565b6000620003b68383620003c2565b60208301905092915050565b620003cd81620005f9565b82525050565b620003de81620005f9565b82525050565b6000620003f182620005b4565b620003fd8185620005d7565b93506200040a83620005a4565b8060005b8381101562000441578151620004258882620003a8565b97506200043283620005ca565b9250506001810190506200040e565b5085935050505092915050565b60006200045b82620005bf565b620004678185620005e8565b93506200047981856020860162000646565b6200048481620006f5565b840191505092915050565b6200049a816200062d565b82525050565b6000602082019050620004b76000830184620003d3565b92915050565b60006020820190508181036000830152620004d98184620003e4565b905092915050565b600060a0820190508181036000830152620004fd81886200044e565b90506200050e60208301876200048f565b6200051d60408301866200048f565b6200052c60608301856200048f565b6200053b6080830184620003d3565b9695505050505050565b60006200055162000564565b90506200055f82826200067c565b919050565b6000604051905090565b600067ffffffffffffffff8211156200058c576200058b620006b2565b5b6200059782620006f5565b9050602081019050919050565b6000819050602082019050919050565b600081519050919050565b600081519050919050565b6000602082019050919050565b600082825260208201905092915050565b600082825260208201905092915050565b600062000606826200060d565b9050919050565b600073ffffffffffffffffffffffffffffffffffffffff82169050919050565b6000819050919050565b82818337600083830152505050565b60005b838110156200066657808201518184015260208101905062000649565b8381111562000676576000848401525b50505050565b6200068782620006f5565b810181811067ffffffffffffffff82111715620006a957620006a8620006b2565b5b80604052505050565b7f4e487b7100000000000000000000000000000000000000000000000000000000600052604160045260246000fd5b600080fd5b600080fd5b600080fd5b600080fd5b6000601f19601f8301169050919050565b62000711816200062d565b81146200071d57600080fd5b5056fe60806040523480156200001157600080fd5b506040516200169e3803806200169e83398181016040528101906200003791906200020c565b806000806101000a81548173ffffffffffffffffffffffffffffffffffffffff021916908373ffffffffffffffffffffffffffffffffffffffff16021790555084600190805190602001906200008f929190620000b0565b508360028190555082600381905550816004819055505050505050620004a9565b828054620000be9062000386565b90600052602060002090601f016020900481019282620000e257600085556200012e565b82601f10620000fd57805160ff19168380011785556200012e565b828001600101855582156200012e579182015b828111156200012d57825182559160200191906001019062000110565b5b5090506200013d919062000141565b5090565b5b808211156200015c57600081600090555060010162000142565b5090565b6000620001776200017184620002dc565b620002b3565b90508281526020810184848401111562000196576200019562000455565b5b620001a384828562000350565b509392505050565b600081519050620001bc8162000475565b92915050565b600082601f830112620001da57620001d962000450565b5b8151620001ec84826020860162000160565b91505092915050565b60008151905062000206816200048f565b92915050565b600080600080600060a086880312156200022b576200022a6200045f565b5b600086015167ffffffffffffffff8111156200024c576200024b6200045a565b5b6200025a88828901620001c2565b95505060206200026d88828901620001f5565b94505060406200028088828901620001f5565b93505060606200029388828901620001f5565b9250506080620002a688828901620001ab565b9150509295509295909350565b6000620002bf620002d2565b9050620002cd8282620003bc565b919050565b6000604051905090565b600067ffffffffffffffff821115620002fa57620002f962000421565b5b620003058262000464565b9050602081019050919050565b60006200031f8262000326565b9050919050565b600073ffffffffffffffffffffffffffffffffffffffff82169050919050565b6000819050919050565b60005b838110156200037057808201518184015260208101905062000353565b8381111562000380576000848401525b50505050565b600060028204905060018216806200039f57607f821691505b60208210811415620003b657620003b5620003f2565b5b50919050565b620003c78262000464565b810181811067ffffffffffffffff82111715620003e957620003e862000421565b5b80604052505050565b7f4e487b7100000000000000000000000000000000000000000000000000000000600052602260045260246000fd5b7f4e487b7100000000000000000000000000000000000000000000000000000000600052604160045260246000fd5b600080fd5b600080fd5b600080fd5b600080fd5b6000601f19601f8301169050919050565b620004808162000312565b81146200048c57600080fd5b50565b6200049a8162000346565b8114620004a657600080fd5b50565b6111e580620004b96000396000f3fe6080604052600436106100c25760003560e01c80637284e4161161007f578063d2b8b86711610059578063d2b8b86714610277578063d7bb99ba146102a0578063d7e64c00146102aa578063de14c818146102d5576100c2565b80637284e416146101e057806387d817891461020b5780638da5cb5b1461024c576100c2565b806303120d46146100c75780633110235a146100f0578063401938831461011b5780634051ddac1461014657806363fd9e38146101785780636f7bc9be146101a3575b600080fd5b3480156100d357600080fd5b506100ee60048036038101906100e99190610beb565b6102fe565b005b3480156100fc57600080fd5b50610105610437565b6040516101129190610e18565b60405180910390f35b34801561012757600080fd5b5061013061043d565b60405161013d9190610e18565b60405180910390f35b34801561015257600080fd5b5061015b610443565b60405161016f989796959493929190610d93565b60405180910390f35b34801561018457600080fd5b5061018d61052c565b60405161019a9190610e18565b60405180910390f35b3480156101af57600080fd5b506101ca60048036038101906101c59190610bbe565b610532565b6040516101d79190610e18565b60405180910390f35b3480156101ec57600080fd5b506101f561054a565b6040516102029190610d17565b60405180910390f35b34801561021757600080fd5b50610232600480360381019061022d9190610c5a565b6105d8565b604051610243959493929190610d39565b60405180910390f35b34801561025857600080fd5b506102616106d3565b60405161026e9190610cfc565b60405180910390f35b34801561028357600080fd5b5061029e60048036038101906102999190610c5a565b6106f7565b005b6102a8610850565b005b3480156102b657600080fd5b506102bf6108f5565b6040516102cc9190610e18565b60405180910390f35b3480156102e157600080fd5b506102fc60048036038101906102f79190610c5a565b6108fb565b005b60008054906101000a900473ffffffffffffffffffffffffffffffffffffffff1673ffffffffffffffffffffffffffffffffffffffff163373ffffffffffffffffffffffffffffffffffffffff161461035657600080fd5b60006007805490509050600760018160018154018082558091505003906000526020600020905050600060078281548110610394576103936110e7565b5b90600052602060002090600502019050848160000190805190602001906103bc929190610a6c565b50838160010181905550828160020160006101000a81548173ffffffffffffffffffffffffffffffffffffffff021916908373ffffffffffffffffffffffffffffffffffffffff16021790555060008160020160146101000a81548160ff021916908315150217905550600081600401819055505050505050565b60035481565b60045481565b6060600080600080600080600060016002546003546004544760055460078054905060008054906101000a900473ffffffffffffffffffffffffffffffffffffffff1687805461049290610fc8565b80601f01602080910402602001604051908101604052809291908181526020018280546104be90610fc8565b801561050b5780601f106104e05761010080835404028352916020019161050b565b820191906000526020600020905b8154815290600101906020018083116104ee57829003601f168201915b50505050509750975097509750975097509750975097509091929394959697565b60025481565b60066020528060005260406000206000915090505481565b6001805461055790610fc8565b80601f016020809104026020016040519081016040528092919081815260200182805461058390610fc8565b80156105d05780601f106105a5576101008083540402835291602001916105d0565b820191906000526020600020905b8154815290600101906020018083116105b357829003601f168201915b505050505081565b600781815481106105e857600080fd5b906000526020600020906005020160009150905080600001805461060b90610fc8565b80601f016020809104026020016040519081016040528092919081815260200182805461063790610fc8565b80156106845780601f1061065957610100808354040283529160200191610684565b820191906000526020600020905b81548152906001019060200180831161066757829003601f168201915b5050505050908060010154908060020160009054906101000a900473ffffffffffffffffffffffffffffffffffffffff16908060020160149054906101000a900460ff16908060040154905085565b60008054906101000a900473ffffffffffffffffffffffffffffffffffffffff1681565b60008054906101000a900473ffffffffffffffffffffffffffffffffffffffff1673ffffffffffffffffffffffffffffffffffffffff163373ffffffffffffffffffffffffffffffffffffffff161461074f57600080fd5b600060078281548110610765576107646110e7565b5b906000526020600020906005020190508060020160149054906101000a900460ff161561079157600080fd5b80600101544710156107a257600080fd5b60026005546107b19190610efb565b8160040154116107c057600080fd5b8060020160009054906101000a900473ffffffffffffffffffffffffffffffffffffffff1673ffffffffffffffffffffffffffffffffffffffff166108fc82600101549081150290604051600060405180830381858888f1935050505015801561082e573d6000803e3d6000fd5b5060018160020160146101000a81548160ff0219169083151502179055505050565b60025434101561085f57600080fd5b60035434111561086e57600080fd5b60006108833447610a4090919063ffffffff16565b905060045481111561089457600080fd5b34600660003373ffffffffffffffffffffffffffffffffffffffff1673ffffffffffffffffffffffffffffffffffffffff168152602001908152602001600020819055506001600560008282546108eb9190610ea5565b9250508190555050565b60055481565b600060078281548110610911576109106110e7565b5b906000526020600020906005020190506000600660003373ffffffffffffffffffffffffffffffffffffffff1673ffffffffffffffffffffffffffffffffffffffff168152602001908152602001600020541161096d57600080fd5b8060030160003373ffffffffffffffffffffffffffffffffffffffff1673ffffffffffffffffffffffffffffffffffffffff16815260200190815260200160002060009054906101000a900460ff16156109c657600080fd5b60018160030160003373ffffffffffffffffffffffffffffffffffffffff1673ffffffffffffffffffffffffffffffffffffffff16815260200190815260200160002060006101000a81548160ff0219169083151502179055506001816004016000828254610a359190610ea5565b925050819055505050565b6000808284610a4f9190610ea5565b905083811015610a6257610a6161102b565b5b8091505092915050565b828054610a7890610fc8565b90600052602060002090601f016020900481019282610a9a5760008555610ae1565b82601f10610ab357805160ff1916838001178555610ae1565b82800160010185558215610ae1579182015b82811115610ae0578251825591602001919060010190610ac5565b5b509050610aee9190610af2565b5090565b5b80821115610b0b576000816000905550600101610af3565b5090565b6000610b22610b1d84610e58565b610e33565b905082815260208101848484011115610b3e57610b3d61114a565b5b610b49848285610f86565b509392505050565b600081359050610b608161116a565b92915050565b600081359050610b7581611181565b92915050565b600082601f830112610b9057610b8f611145565b5b8135610ba0848260208601610b0f565b91505092915050565b600081359050610bb881611198565b92915050565b600060208284031215610bd457610bd3611154565b5b6000610be284828501610b51565b91505092915050565b600080600060608486031215610c0457610c03611154565b5b600084013567ffffffffffffffff811115610c2257610c2161114f565b5b610c2e86828701610b7b565b9350506020610c3f86828701610ba9565b9250506040610c5086828701610b66565b9150509250925092565b600060208284031215610c7057610c6f611154565b5b6000610c7e84828501610ba9565b91505092915050565b610c9081610f3e565b82525050565b610c9f81610f2c565b82525050565b610cae81610f50565b82525050565b6000610cbf82610e89565b610cc98185610e94565b9350610cd9818560208601610f95565b610ce281611159565b840191505092915050565b610cf681610f7c565b82525050565b6000602082019050610d116000830184610c96565b92915050565b60006020820190508181036000830152610d318184610cb4565b905092915050565b600060a0820190508181036000830152610d538188610cb4565b9050610d626020830187610ced565b610d6f6040830186610c87565b610d7c6060830185610ca5565b610d896080830184610ced565b9695505050505050565b6000610100820190508181036000830152610dae818b610cb4565b9050610dbd602083018a610ced565b610dca6040830189610ced565b610dd76060830188610ced565b610de46080830187610ced565b610df160a0830186610ced565b610dfe60c0830185610ced565b610e0b60e0830184610c96565b9998505050505050505050565b6000602082019050610e2d6000830184610ced565b92915050565b6000610e3d610e4e565b9050610e498282610ffa565b919050565b6000604051905090565b600067ffffffffffffffff821115610e7357610e72611116565b5b610e7c82611159565b9050602081019050919050565b600081519050919050565b600082825260208201905092915050565b6000610eb082610f7c565b9150610ebb83610f7c565b9250827fffffffffffffffffffffffffffffffffffffffffffffffffffffffffffffffff03821115610ef057610eef61105a565b5b828201905092915050565b6000610f0682610f7c565b9150610f1183610f7c565b925082610f2157610f20611089565b5b828204905092915050565b6000610f3782610f5c565b9050919050565b6000610f4982610f5c565b9050919050565b60008115159050919050565b600073ffffffffffffffffffffffffffffffffffffffff82169050919050565b6000819050919050565b82818337600083830152505050565b60005b83811015610fb3578082015181840152602081019050610f98565b83811115610fc2576000848401525b50505050565b60006002820490506001821680610fe057607f821691505b60208210811415610ff457610ff36110b8565b5b50919050565b61100382611159565b810181811067ffffffffffffffff8211171561102257611021611116565b5b80604052505050565b7f4e487b7100000000000000000000000000000000000000000000000000000000600052600160045260246000fd5b7f4e487b7100000000000000000000000000000000000000000000000000000000600052601160045260246000fd5b7f4e487b7100000000000000000000000000000000000000000000000000000000600052601260045260246000fd5b7f4e487b7100000000000000000000000000000000000000000000000000000000600052602260045260246000fd5b7f4e487b7100000000000000000000000000000000000000000000000000000000600052603260045260246000fd5b7f4e487b7100000000000000000000000000000000000000000000000000000000600052604160045260246000fd5b600080fd5b600080fd5b600080fd5b600080fd5b6000601f19601f8301169050919050565b61117381610f2c565b811461117e57600080fd5b50565b61118a81610f3e565b811461119557600080fd5b50565b6111a181610f7c565b81146111ac57600080fd5b5056fea26469706673582212207938a4e72a75c3c17284cefa2598b3a9db36f19c6d298d1dbbbbd3cc4474aef164736f6c63430008050033a2646970667358221220c6f139f0d12543a51238c6d2dc4b524487ee9330af79aff48e4ecf88d0de7fe464736f6c63430008050033","opcodes":"PUSH1 0x80 PUSH1 0x40 MSTORE CALLVALUE DUP1 ISZERO PUSH2 0x10 JUMPI PUSH1 0x0 DUP1 REVERT JUMPDEST POP PUSH2 0x1DF4 DUP1 PUSH2 0x20 PUSH1 0x0 CODECOPY PUSH1 0x0 RETURN INVALID PUSH1 0x80 PUSH1 0x40 MSTORE CALLVALUE DUP1 ISZERO PUSH3 0x11 JUMPI PUSH1 0x0 DUP1 REVERT JUMPDEST POP PUSH1 0x4 CALLDATASIZE LT PUSH3 0x46 JUMPI PUSH1 0x0 CALLDATALOAD PUSH1 0xE0 SHR DUP1 PUSH4 0x107046BD EQ PUSH3 0x4B JUMPI DUP1 PUSH4 0x610A6A2A EQ PUSH3 0x81 JUMPI DUP1 PUSH4 0xDCC60128 EQ PUSH3 0xA1 JUMPI JUMPDEST PUSH1 0x0 DUP1 REVERT JUMPDEST PUSH3 0x69 PUSH1 0x4 DUP1 CALLDATASIZE SUB DUP2 ADD SWAP1 PUSH3 0x63 SWAP2 SWAP1 PUSH3 0x376 JUMP JUMPDEST PUSH3 0xC3 JUMP JUMPDEST PUSH1 0x40 MLOAD PUSH3 0x78 SWAP2 SWAP1 PUSH3 0x4A0 JUMP JUMPDEST PUSH1 0x40 MLOAD DUP1 SWAP2 SUB SWAP1 RETURN JUMPDEST PUSH3 0x9F PUSH1 0x4 DUP1 CALLDATASIZE SUB DUP2 ADD SWAP1 PUSH3 0x99 SWAP2 SWAP1 PUSH3 0x2E5 JUMP JUMPDEST PUSH3 0x103 JUMP JUMPDEST STOP JUMPDEST PUSH3 0xAB PUSH3 0x1B2 JUMP JUMPDEST PUSH1 0x40 MLOAD PUSH3 0xBA SWAP2 SWAP1 PUSH3 0x4BD JUMP JUMPDEST PUSH1 0x40 MLOAD DUP1 SWAP2 SUB SWAP1 RETURN JUMPDEST PUSH1 0x0 DUP2 DUP2 SLOAD DUP2 LT PUSH3 0xD4 JUMPI PUSH1 0x0 DUP1 REVERT JUMPDEST SWAP1 PUSH1 0x0 MSTORE PUSH1 0x20 PUSH1 0x0 KECCAK256 ADD PUSH1 0x0 SWAP2 POP SLOAD SWAP1 PUSH2 0x100 EXP SWAP1 DIV PUSH20 0xFFFFFFFFFFFFFFFFFFFFFFFFFFFFFFFFFFFFFFFF AND DUP2 JUMP JUMPDEST PUSH1 0x0 DUP5 DUP5 DUP5 DUP5 CALLER PUSH1 0x40 MLOAD PUSH3 0x118 SWAP1 PUSH3 0x242 JUMP JUMPDEST PUSH3 0x128 SWAP6 SWAP5 SWAP4 SWAP3 SWAP2 SWAP1 PUSH3 0x4E1 JUMP JUMPDEST PUSH1 0x40 MLOAD DUP1 SWAP2 SUB SWAP1 PUSH1 0x0 CREATE DUP1 ISZERO DUP1 ISZERO PUSH3 0x145 JUMPI RETURNDATASIZE PUSH1 0x0 DUP1 RETURNDATACOPY RETURNDATASIZE PUSH1 0x0 REVERT JUMPDEST POP SWAP1 POP PUSH1 0x0 DUP2 SWAP1 DUP1 PUSH1 0x1 DUP2 SLOAD ADD DUP1 DUP3 SSTORE DUP1 SWAP2 POP POP PUSH1 0x1 SWAP1 SUB SWAP1 PUSH1 0x0 MSTORE PUSH1 0x20 PUSH1 0x0 KECCAK256 ADD PUSH1 0x0 SWAP1 SWAP2 SWAP1 SWAP2 SWAP1 SWAP2 PUSH2 0x100 EXP DUP2 SLOAD DUP2 PUSH20 0xFFFFFFFFFFFFFFFFFFFFFFFFFFFFFFFFFFFFFFFF MUL NOT AND SWAP1 DUP4 PUSH20 0xFFFFFFFFFFFFFFFFFFFFFFFFFFFFFFFFFFFFFFFF AND MUL OR SWAP1 SSTORE POP POP POP POP POP POP JUMP JUMPDEST PUSH1 0x60 PUSH1 0x0 DUP1 SLOAD DUP1 PUSH1 0x20 MUL PUSH1 0x20 ADD PUSH1 0x40 MLOAD SWAP1 DUP2 ADD PUSH1 0x40 MSTORE DUP1 SWAP3 SWAP2 SWAP1 DUP2 DUP2 MSTORE PUSH1 0x20 ADD DUP3 DUP1 SLOAD DUP1 ISZERO PUSH3 0x238 JUMPI PUSH1 0x20 MUL DUP3 ADD SWAP2 SWAP1 PUSH1 0x0 MSTORE PUSH1 0x20 PUSH1 0x0 KECCAK256 SWAP1 JUMPDEST DUP2 PUSH1 0x0 SWAP1 SLOAD SWAP1 PUSH2 0x100 EXP SWAP1 DIV PUSH20 0xFFFFFFFFFFFFFFFFFFFFFFFFFFFFFFFFFFFFFFFF AND PUSH20 0xFFFFFFFFFFFFFFFFFFFFFFFFFFFFFFFFFFFFFFFF AND DUP2 MSTORE PUSH1 0x20 ADD SWAP1 PUSH1 0x1 ADD SWAP1 DUP1 DUP4 GT PUSH3 0x1ED JUMPI JUMPDEST POP POP POP POP POP SWAP1 POP SWAP1 JUMP JUMPDEST PUSH2 0x169E DUP1 PUSH3 0x721 DUP4 CODECOPY ADD SWAP1 JUMP JUMPDEST PUSH1 0x0 PUSH3 0x267 PUSH3 0x261 DUP5 PUSH3 0x56E JUMP JUMPDEST PUSH3 0x545 JUMP JUMPDEST SWAP1 POP DUP3 DUP2 MSTORE PUSH1 0x20 DUP2 ADD DUP5 DUP5 DUP5 ADD GT ISZERO PUSH3 0x286 JUMPI PUSH3 0x285 PUSH3 0x6E6 JUMP JUMPDEST JUMPDEST PUSH3 0x293 DUP5 DUP3 DUP6 PUSH3 0x637 JUMP JUMPDEST POP SWAP4 SWAP3 POP POP POP JUMP JUMPDEST PUSH1 0x0 DUP3 PUSH1 0x1F DUP4 ADD SLT PUSH3 0x2B3 JUMPI PUSH3 0x2B2 PUSH3 0x6E1 JUMP JUMPDEST JUMPDEST DUP2 CALLDATALOAD PUSH3 0x2C5 DUP5 DUP3 PUSH1 0x20 DUP7 ADD PUSH3 0x250 JUMP JUMPDEST SWAP2 POP POP SWAP3 SWAP2 POP POP JUMP JUMPDEST PUSH1 0x0 DUP2 CALLDATALOAD SWAP1 POP PUSH3 0x2DF DUP2 PUSH3 0x706 JUMP JUMPDEST SWAP3 SWAP2 POP POP JUMP JUMPDEST PUSH1 0x0 DUP1 PUSH1 0x0 DUP1 PUSH1 0x80 DUP6 DUP8 SUB SLT ISZERO PUSH3 0x302 JUMPI PUSH3 0x301 PUSH3 0x6F0 JUMP JUMPDEST JUMPDEST PUSH1 0x0 DUP6 ADD CALLDATALOAD PUSH8 0xFFFFFFFFFFFFFFFF DUP2 GT ISZERO PUSH3 0x323 JUMPI PUSH3 0x322 PUSH3 0x6EB JUMP JUMPDEST JUMPDEST PUSH3 0x331 DUP8 DUP3 DUP9 ADD PUSH3 0x29B JUMP JUMPDEST SWAP5 POP POP PUSH1 0x20 PUSH3 0x344 DUP8 DUP3 DUP9 ADD PUSH3 0x2CE JUMP JUMPDEST SWAP4 POP POP PUSH1 0x40 PUSH3 0x357 DUP8 DUP3 DUP9 ADD PUSH3 0x2CE JUMP JUMPDEST SWAP3 POP POP PUSH1 0x60 PUSH3 0x36A DUP8 DUP3 DUP9 ADD PUSH3 0x2CE JUMP JUMPDEST SWAP2 POP POP SWAP3 SWAP6 SWAP2 SWAP5 POP SWAP3 POP JUMP JUMPDEST PUSH1 0x0 PUSH1 0x20 DUP3 DUP5 SUB SLT ISZERO PUSH3 0x38F JUMPI PUSH3 0x38E PUSH3 0x6F0 JUMP JUMPDEST JUMPDEST PUSH1 0x0 PUSH3 0x39F DUP5 DUP3 DUP6 ADD PUSH3 0x2CE JUMP JUMPDEST SWAP2 POP POP SWAP3 SWAP2 POP POP JUMP JUMPDEST PUSH1 0x0 PUSH3 0x3B6 DUP4 DUP4 PUSH3 0x3C2 JUMP JUMPDEST PUSH1 0x20 DUP4 ADD SWAP1 POP SWAP3 SWAP2 POP POP JUMP JUMPDEST PUSH3 0x3CD DUP2 PUSH3 0x5F9 JUMP JUMPDEST DUP3 MSTORE POP POP JUMP JUMPDEST PUSH3 0x3DE DUP2 PUSH3 0x5F9 JUMP JUMPDEST DUP3 MSTORE POP POP JUMP JUMPDEST PUSH1 0x0 PUSH3 0x3F1 DUP3 PUSH3 0x5B4 JUMP JUMPDEST PUSH3 0x3FD DUP2 DUP6 PUSH3 0x5D7 JUMP JUMPDEST SWAP4 POP PUSH3 0x40A DUP4 PUSH3 0x5A4 JUMP JUMPDEST DUP1 PUSH1 0x0 JUMPDEST DUP4 DUP2 LT ISZERO PUSH3 0x441 JUMPI DUP2 MLOAD PUSH3 0x425 DUP9 DUP3 PUSH3 0x3A8 JUMP JUMPDEST SWAP8 POP PUSH3 0x432 DUP4 PUSH3 0x5CA JUMP JUMPDEST SWAP3 POP POP PUSH1 0x1 DUP2 ADD SWAP1 POP PUSH3 0x40E JUMP JUMPDEST POP DUP6 SWAP4 POP POP POP POP SWAP3 SWAP2 POP POP JUMP JUMPDEST PUSH1 0x0 PUSH3 0x45B DUP3 PUSH3 0x5BF JUMP JUMPDEST PUSH3 0x467 DUP2 DUP6 PUSH3 0x5E8 JUMP JUMPDEST SWAP4 POP PUSH3 0x479 DUP2 DUP6 PUSH1 0x20 DUP7 ADD PUSH3 0x646 JUMP JUMPDEST PUSH3 0x484 DUP2 PUSH3 0x6F5 JUMP JUMPDEST DUP5 ADD SWAP2 POP POP SWAP3 SWAP2 POP POP JUMP JUMPDEST PUSH3 0x49A DUP2 PUSH3 0x62D JUMP JUMPDEST DUP3 MSTORE POP POP JUMP JUMPDEST PUSH1 0x0 PUSH1 0x20 DUP3 ADD SWAP1 POP PUSH3 0x4B7 PUSH1 0x0 DUP4 ADD DUP5 PUSH3 0x3D3 JUMP JUMPDEST SWAP3 SWAP2 POP POP JUMP JUMPDEST PUSH1 0x0 PUSH1 0x20 DUP3 ADD SWAP1 POP DUP2 DUP2 SUB PUSH1 0x0 DUP4 ADD MSTORE PUSH3 0x4D9 DUP2 DUP5 PUSH3 0x3E4 JUMP JUMPDEST SWAP1 POP SWAP3 SWAP2 POP POP JUMP JUMPDEST PUSH1 0x0 PUSH1 0xA0 DUP3 ADD SWAP1 POP DUP2 DUP2 SUB PUSH1 0x0 DUP4 ADD MSTORE PUSH3 0x4FD DUP2 DUP9 PUSH3 0x44E JUMP JUMPDEST SWAP1 POP PUSH3 0x50E PUSH1 0x20 DUP4 ADD DUP8 PUSH3 0x48F JUMP JUMPDEST PUSH3 0x51D PUSH1 0x40 DUP4 ADD DUP7 PUSH3 0x48F JUMP JUMPDEST PUSH3 0x52C PUSH1 0x60 DUP4 ADD DUP6 PUSH3 0x48F JUMP JUMPDEST PUSH3 0x53B PUSH1 0x80 DUP4 ADD DUP5 PUSH3 0x3D3 JUMP JUMPDEST SWAP7 SWAP6 POP POP POP POP POP POP JUMP JUMPDEST PUSH1 0x0 PUSH3 0x551 PUSH3 0x564 JUMP JUMPDEST SWAP1 POP PUSH3 0x55F DUP3 DUP3 PUSH3 0x67C JUMP JUMPDEST SWAP2 SWAP1 POP JUMP JUMPDEST PUSH1 0x0 PUSH1 0x40 MLOAD SWAP1 POP SWAP1 JUMP JUMPDEST PUSH1 0x0 PUSH8 0xFFFFFFFFFFFFFFFF DUP3 GT ISZERO PUSH3 0x58C JUMPI PUSH3 0x58B PUSH3 0x6B2 JUMP JUMPDEST JUMPDEST PUSH3 0x597 DUP3 PUSH3 0x6F5 JUMP JUMPDEST SWAP1 POP PUSH1 0x20 DUP2 ADD SWAP1 POP SWAP2 SWAP1 POP JUMP JUMPDEST PUSH1 0x0 DUP2 SWAP1 POP PUSH1 0x20 DUP3 ADD SWAP1 POP SWAP2 SWAP1 POP JUMP JUMPDEST PUSH1 0x0 DUP2 MLOAD SWAP1 POP SWAP2 SWAP1 POP JUMP JUMPDEST PUSH1 0x0 DUP2 MLOAD SWAP1 POP SWAP2 SWAP1 POP JUMP JUMPDEST PUSH1 0x0 PUSH1 0x20 DUP3 ADD SWAP1 POP SWAP2 SWAP1 POP JUMP JUMPDEST PUSH1 0x0 DUP3 DUP3 MSTORE PUSH1 0x20 DUP3 ADD SWAP1 POP SWAP3 SWAP2 POP POP JUMP JUMPDEST PUSH1 0x0 DUP3 DUP3 MSTORE PUSH1 0x20 DUP3 ADD SWAP1 POP SWAP3 SWAP2 POP POP JUMP JUMPDEST PUSH1 0x0 PUSH3 0x606 DUP3 PUSH3 0x60D JUMP JUMPDEST SWAP1 POP SWAP2 SWAP1 POP JUMP JUMPDEST PUSH1 0x0 PUSH20 0xFFFFFFFFFFFFFFFFFFFFFFFFFFFFFFFFFFFFFFFF DUP3 AND SWAP1 POP SWAP2 SWAP1 POP JUMP JUMPDEST PUSH1 0x0 DUP2 SWAP1 POP SWAP2 SWAP1 POP JUMP JUMPDEST DUP3 DUP2 DUP4 CALLDATACOPY PUSH1 0x0 DUP4 DUP4 ADD MSTORE POP POP POP JUMP JUMPDEST PUSH1 0x0 JUMPDEST DUP4 DUP2 LT ISZERO PUSH3 0x666 JUMPI DUP1 DUP3 ADD MLOAD DUP2 DUP5 ADD MSTORE PUSH1 0x20 DUP2 ADD SWAP1 POP PUSH3 0x649 JUMP JUMPDEST DUP4 DUP2 GT ISZERO PUSH3 0x676 JUMPI PUSH1 0x0 DUP5 DUP5 ADD MSTORE JUMPDEST POP POP POP POP JUMP JUMPDEST PUSH3 0x687 DUP3 PUSH3 0x6F5 JUMP JUMPDEST DUP2 ADD DUP2 DUP2 LT PUSH8 0xFFFFFFFFFFFFFFFF DUP3 GT OR ISZERO PUSH3 0x6A9 JUMPI PUSH3 0x6A8 PUSH3 0x6B2 JUMP JUMPDEST JUMPDEST DUP1 PUSH1 0x40 MSTORE POP POP POP JUMP JUMPDEST PUSH32 0x4E487B7100000000000000000000000000000000000000000000000000000000 PUSH1 0x0 MSTORE PUSH1 0x41 PUSH1 0x4 MSTORE PUSH1 0x24 PUSH1 0x0 REVERT JUMPDEST PUSH1 0x0 DUP1 REVERT JUMPDEST PUSH1 0x0 DUP1 REVERT JUMPDEST PUSH1 0x0 DUP1 REVERT JUMPDEST PUSH1 0x0 DUP1 REVERT JUMPDEST PUSH1 0x0 PUSH1 0x1F NOT PUSH1 0x1F DUP4 ADD AND SWAP1 POP SWAP2 SWAP1 POP JUMP JUMPDEST PUSH3 0x711 DUP2 PUSH3 0x62D JUMP JUMPDEST DUP2 EQ PUSH3 0x71D JUMPI PUSH1 0x0 DUP1 REVERT JUMPDEST POP JUMP INVALID PUSH1 0x80 PUSH1 0x40 MSTORE CALLVALUE DUP1 ISZERO PUSH3 0x11 JUMPI PUSH1 0x0 DUP1 REVERT JUMPDEST POP PUSH1 0x40 MLOAD PUSH3 0x169E CODESIZE SUB DUP1 PUSH3 0x169E DUP4 CODECOPY DUP2 DUP2 ADD PUSH1 0x40 MSTORE DUP2 ADD SWAP1 PUSH3 0x37 SWAP2 SWAP1 PUSH3 0x20C JUMP JUMPDEST DUP1 PUSH1 0x0 DUP1 PUSH2 0x100 EXP DUP2 SLOAD DUP2 PUSH20 0xFFFFFFFFFFFFFFFFFFFFFFFFFFFFFFFFFFFFFFFF MUL NOT AND SWAP1 DUP4 PUSH20 0xFFFFFFFFFFFFFFFFFFFFFFFFFFFFFFFFFFFFFFFF AND MUL OR SWAP1 SSTORE POP DUP5 PUSH1 0x1 SWAP1 DUP1 MLOAD SWAP1 PUSH1 0x20 ADD SWAP1 PUSH3 0x8F SWAP3 SWAP2 SWAP1 PUSH3 0xB0 JUMP JUMPDEST POP DUP4 PUSH1 0x2 DUP2 SWAP1 SSTORE POP DUP3 PUSH1 0x3 DUP2 SWAP1 SSTORE POP DUP2 PUSH1 0x4 DUP2 SWAP1 SSTORE POP POP POP POP POP POP PUSH3 0x4A9 JUMP JUMPDEST DUP3 DUP1 SLOAD PUSH3 0xBE SWAP1 PUSH3 0x386 JUMP JUMPDEST SWAP1 PUSH1 0x0 MSTORE PUSH1 0x20 PUSH1 0x0 KECCAK256 SWAP1 PUSH1 0x1F ADD PUSH1 0x20 SWAP1 DIV DUP2 ADD SWAP3 DUP3 PUSH3 0xE2 JUMPI PUSH1 0x0 DUP6 SSTORE PUSH3 0x12E JUMP JUMPDEST DUP3 PUSH1 0x1F LT PUSH3 0xFD JUMPI DUP1 MLOAD PUSH1 0xFF NOT AND DUP4 DUP1 ADD OR DUP6 SSTORE PUSH3 0x12E JUMP JUMPDEST DUP3 DUP1 ADD PUSH1 0x1 ADD DUP6 SSTORE DUP3 ISZERO PUSH3 0x12E JUMPI SWAP2 DUP3 ADD JUMPDEST DUP3 DUP2 GT ISZERO PUSH3 0x12D JUMPI DUP3 MLOAD DUP3 SSTORE SWAP2 PUSH1 0x20 ADD SWAP2 SWAP1 PUSH1 0x1 ADD SWAP1 PUSH3 0x110 JUMP JUMPDEST JUMPDEST POP SWAP1 POP PUSH3 0x13D SWAP2 SWAP1 PUSH3 0x141 JUMP JUMPDEST POP SWAP1 JUMP JUMPDEST JUMPDEST DUP1 DUP3 GT ISZERO PUSH3 0x15C JUMPI PUSH1 0x0 DUP2 PUSH1 0x0 SWAP1 SSTORE POP PUSH1 0x1 ADD PUSH3 0x142 JUMP JUMPDEST POP SWAP1 JUMP JUMPDEST PUSH1 0x0 PUSH3 0x177 PUSH3 0x171 DUP5 PUSH3 0x2DC JUMP JUMPDEST PUSH3 0x2B3 JUMP JUMPDEST SWAP1 POP DUP3 DUP2 MSTORE PUSH1 0x20 DUP2 ADD DUP5 DUP5 DUP5 ADD GT ISZERO PUSH3 0x196 JUMPI PUSH3 0x195 PUSH3 0x455 JUMP JUMPDEST JUMPDEST PUSH3 0x1A3 DUP5 DUP3 DUP6 PUSH3 0x350 JUMP JUMPDEST POP SWAP4 SWAP3 POP POP POP JUMP JUMPDEST PUSH1 0x0 DUP2 MLOAD SWAP1 POP PUSH3 0x1BC DUP2 PUSH3 0x475 JUMP JUMPDEST SWAP3 SWAP2 POP POP JUMP JUMPDEST PUSH1 0x0 DUP3 PUSH1 0x1F DUP4 ADD SLT PUSH3 0x1DA JUMPI PUSH3 0x1D9 PUSH3 0x450 JUMP JUMPDEST JUMPDEST DUP2 MLOAD PUSH3 0x1EC DUP5 DUP3 PUSH1 0x20 DUP7 ADD PUSH3 0x160 JUMP JUMPDEST SWAP2 POP POP SWAP3 SWAP2 POP POP JUMP JUMPDEST PUSH1 0x0 DUP2 MLOAD SWAP1 POP PUSH3 0x206 DUP2 PUSH3 0x48F JUMP JUMPDEST SWAP3 SWAP2 POP POP JUMP JUMPDEST PUSH1 0x0 DUP1 PUSH1 0x0 DUP1 PUSH1 0x0 PUSH1 0xA0 DUP7 DUP9 SUB SLT ISZERO PUSH3 0x22B JUMPI PUSH3 0x22A PUSH3 0x45F JUMP JUMPDEST JUMPDEST PUSH1 0x0 DUP7 ADD MLOAD PUSH8 0xFFFFFFFFFFFFFFFF DUP2 GT ISZERO PUSH3 0x24C JUMPI PUSH3 0x24B PUSH3 0x45A JUMP JUMPDEST JUMPDEST PUSH3 0x25A DUP9 DUP3 DUP10 ADD PUSH3 0x1C2 JUMP JUMPDEST SWAP6 POP POP PUSH1 0x20 PUSH3 0x26D DUP9 DUP3 DUP10 ADD PUSH3 0x1F5 JUMP JUMPDEST SWAP5 POP POP PUSH1 0x40 PUSH3 0x280 DUP9 DUP3 DUP10 ADD PUSH3 0x1F5 JUMP JUMPDEST SWAP4 POP POP PUSH1 0x60 PUSH3 0x293 DUP9 DUP3 DUP10 ADD PUSH3 0x1F5 JUMP JUMPDEST SWAP3 POP POP PUSH1 0x80 PUSH3 0x2A6 DUP9 DUP3 DUP10 ADD PUSH3 0x1AB JUMP JUMPDEST SWAP2 POP POP SWAP3 SWAP6 POP SWAP3 SWAP6 SWAP1 SWAP4 POP JUMP JUMPDEST PUSH1 0x0 PUSH3 0x2BF PUSH3 0x2D2 JUMP JUMPDEST SWAP1 POP PUSH3 0x2CD DUP3 DUP3 PUSH3 0x3BC JUMP JUMPDEST SWAP2 SWAP1 POP JUMP JUMPDEST PUSH1 0x0 PUSH1 0x40 MLOAD SWAP1 POP SWAP1 JUMP JUMPDEST PUSH1 0x0 PUSH8 0xFFFFFFFFFFFFFFFF DUP3 GT ISZERO PUSH3 0x2FA JUMPI PUSH3 0x2F9 PUSH3 0x421 JUMP JUMPDEST JUMPDEST PUSH3 0x305 DUP3 PUSH3 0x464 JUMP JUMPDEST SWAP1 POP PUSH1 0x20 DUP2 ADD SWAP1 POP SWAP2 SWAP1 POP JUMP JUMPDEST PUSH1 0x0 PUSH3 0x31F DUP3 PUSH3 0x326 JUMP JUMPDEST SWAP1 POP SWAP2 SWAP1 POP JUMP JUMPDEST PUSH1 0x0 PUSH20 0xFFFFFFFFFFFFFFFFFFFFFFFFFFFFFFFFFFFFFFFF DUP3 AND SWAP1 POP SWAP2 SWAP1 POP JUMP JUMPDEST PUSH1 0x0 DUP2 SWAP1 POP SWAP2 SWAP1 POP JUMP JUMPDEST PUSH1 0x0 JUMPDEST DUP4 DUP2 LT ISZERO PUSH3 0x370 JUMPI DUP1 DUP3 ADD MLOAD DUP2 DUP5 ADD MSTORE PUSH1 0x20 DUP2 ADD SWAP1 POP PUSH3 0x353 JUMP JUMPDEST DUP4 DUP2 GT ISZERO PUSH3 0x380 JUMPI PUSH1 0x0 DUP5 DUP5 ADD MSTORE JUMPDEST POP POP POP POP JUMP JUMPDEST PUSH1 0x0 PUSH1 0x2 DUP3 DIV SWAP1 POP PUSH1 0x1 DUP3 AND DUP1 PUSH3 0x39F JUMPI PUSH1 0x7F DUP3 AND SWAP2 POP JUMPDEST PUSH1 0x20 DUP3 LT DUP2 EQ ISZERO PUSH3 0x3B6 JUMPI PUSH3 0x3B5 PUSH3 0x3F2 JUMP JUMPDEST JUMPDEST POP SWAP2 SWAP1 POP JUMP JUMPDEST PUSH3 0x3C7 DUP3 PUSH3 0x464 JUMP JUMPDEST DUP2 ADD DUP2 DUP2 LT PUSH8 0xFFFFFFFFFFFFFFFF DUP3 GT OR ISZERO PUSH3 0x3E9 JUMPI PUSH3 0x3E8 PUSH3 0x421 JUMP JUMPDEST JUMPDEST DUP1 PUSH1 0x40 MSTORE POP POP POP JUMP JUMPDEST PUSH32 0x4E487B7100000000000000000000000000000000000000000000000000000000 PUSH1 0x0 MSTORE PUSH1 0x22 PUSH1 0x4 MSTORE PUSH1 0x24 PUSH1 0x0 REVERT JUMPDEST PUSH32 0x4E487B7100000000000000000000000000000000000000000000000000000000 PUSH1 0x0 MSTORE PUSH1 0x41 PUSH1 0x4 MSTORE PUSH1 0x24 PUSH1 0x0 REVERT JUMPDEST PUSH1 0x0 DUP1 REVERT JUMPDEST PUSH1 0x0 DUP1 REVERT JUMPDEST PUSH1 0x0 DUP1 REVERT JUMPDEST PUSH1 0x0 DUP1 REVERT JUMPDEST PUSH1 0x0 PUSH1 0x1F NOT PUSH1 0x1F DUP4 ADD AND SWAP1 POP SWAP2 SWAP1 POP JUMP JUMPDEST PUSH3 0x480 DUP2 PUSH3 0x312 JUMP JUMPDEST DUP2 EQ PUSH3 0x48C JUMPI PUSH1 0x0 DUP1 REVERT JUMPDEST POP JUMP JUMPDEST PUSH3 0x49A DUP2 PUSH3 0x346 JUMP JUMPDEST DUP2 EQ PUSH3 0x4A6 JUMPI PUSH1 0x0 DUP1 REVERT JUMPDEST POP JUMP JUMPDEST PUSH2 0x11E5 DUP1 PUSH3 0x4B9 PUSH1 0x0 CODECOPY PUSH1 0x0 RETURN INVALID PUSH1 0x80 PUSH1 0x40 MSTORE PUSH1 0x4 CALLDATASIZE LT PUSH2 0xC2 JUMPI PUSH1 0x0 CALLDATALOAD PUSH1 0xE0 SHR DUP1 PUSH4 0x7284E416 GT PUSH2 0x7F JUMPI DUP1 PUSH4 0xD2B8B867 GT PUSH2 0x59 JUMPI DUP1 PUSH4 0xD2B8B867 EQ PUSH2 0x277 JUMPI DUP1 PUSH4 0xD7BB99BA EQ PUSH2 0x2A0 JUMPI DUP1 PUSH4 0xD7E64C00 EQ PUSH2 0x2AA JUMPI DUP1 PUSH4 0xDE14C818 EQ PUSH2 0x2D5 JUMPI PUSH2 0xC2 JUMP JUMPDEST DUP1 PUSH4 0x7284E416 EQ PUSH2 0x1E0 JUMPI DUP1 PUSH4 0x87D81789 EQ PUSH2 0x20B JUMPI DUP1 PUSH4 0x8DA5CB5B EQ PUSH2 0x24C JUMPI PUSH2 0xC2 JUMP JUMPDEST DUP1 PUSH4 0x3120D46 EQ PUSH2 0xC7 JUMPI DUP1 PUSH4 0x3110235A EQ PUSH2 0xF0 JUMPI DUP1 PUSH4 0x40193883 EQ PUSH2 0x11B JUMPI DUP1 PUSH4 0x4051DDAC EQ PUSH2 0x146 JUMPI DUP1 PUSH4 0x63FD9E38 EQ PUSH2 0x178 JUMPI DUP1 PUSH4 0x6F7BC9BE EQ PUSH2 0x1A3 JUMPI JUMPDEST PUSH1 0x0 DUP1 REVERT JUMPDEST CALLVALUE DUP1 ISZERO PUSH2 0xD3 JUMPI PUSH1 0x0 DUP1 REVERT JUMPDEST POP PUSH2 0xEE PUSH1 0x4 DUP1 CALLDATASIZE SUB DUP2 ADD SWAP1 PUSH2 0xE9 SWAP2 SWAP1 PUSH2 0xBEB JUMP JUMPDEST PUSH2 0x2FE JUMP JUMPDEST STOP JUMPDEST CALLVALUE DUP1 ISZERO PUSH2 0xFC JUMPI PUSH1 0x0 DUP1 REVERT JUMPDEST POP PUSH2 0x105 PUSH2 0x437 JUMP JUMPDEST PUSH1 0x40 MLOAD PUSH2 0x112 SWAP2 SWAP1 PUSH2 0xE18 JUMP JUMPDEST PUSH1 0x40 MLOAD DUP1 SWAP2 SUB SWAP1 RETURN JUMPDEST CALLVALUE DUP1 ISZERO PUSH2 0x127 JUMPI PUSH1 0x0 DUP1 REVERT JUMPDEST POP PUSH2 0x130 PUSH2 0x43D JUMP JUMPDEST PUSH1 0x40 MLOAD PUSH2 0x13D SWAP2 SWAP1 PUSH2 0xE18 JUMP JUMPDEST PUSH1 0x40 MLOAD DUP1 SWAP2 SUB SWAP1 RETURN JUMPDEST CALLVALUE DUP1 ISZERO PUSH2 0x152 JUMPI PUSH1 0x0 DUP1 REVERT JUMPDEST POP PUSH2 0x15B PUSH2 0x443 JUMP JUMPDEST PUSH1 0x40 MLOAD PUSH2 0x16F SWAP9 SWAP8 SWAP7 SWAP6 SWAP5 SWAP4 SWAP3 SWAP2 SWAP1 PUSH2 0xD93 JUMP JUMPDEST PUSH1 0x40 MLOAD DUP1 SWAP2 SUB SWAP1 RETURN JUMPDEST CALLVALUE DUP1 ISZERO PUSH2 0x184 JUMPI PUSH1 0x0 DUP1 REVERT JUMPDEST POP PUSH2 0x18D PUSH2 0x52C JUMP JUMPDEST PUSH1 0x40 MLOAD PUSH2 0x19A SWAP2 SWAP1 PUSH2 0xE18 JUMP JUMPDEST PUSH1 0x40 MLOAD DUP1 SWAP2 SUB SWAP1 RETURN JUMPDEST CALLVALUE DUP1 ISZERO PUSH2 0x1AF JUMPI PUSH1 0x0 DUP1 REVERT JUMPDEST POP PUSH2 0x1CA PUSH1 0x4 DUP1 CALLDATASIZE SUB DUP2 ADD SWAP1 PUSH2 0x1C5 SWAP2 SWAP1 PUSH2 0xBBE JUMP JUMPDEST PUSH2 0x532 JUMP JUMPDEST PUSH1 0x40 MLOAD PUSH2 0x1D7 SWAP2 SWAP1 PUSH2 0xE18 JUMP JUMPDEST PUSH1 0x40 MLOAD DUP1 SWAP2 SUB SWAP1 RETURN JUMPDEST CALLVALUE DUP1 ISZERO PUSH2 0x1EC JUMPI PUSH1 0x0 DUP1 REVERT JUMPDEST POP PUSH2 0x1F5 PUSH2 0x54A JUMP JUMPDEST PUSH1 0x40 MLOAD PUSH2 0x202 SWAP2 SWAP1 PUSH2 0xD17 JUMP JUMPDEST PUSH1 0x40 MLOAD DUP1 SWAP2 SUB SWAP1 RETURN JUMPDEST CALLVALUE DUP1 ISZERO PUSH2 0x217 JUMPI PUSH1 0x0 DUP1 REVERT JUMPDEST POP PUSH2 0x232 PUSH1 0x4 DUP1 CALLDATASIZE SUB DUP2 ADD SWAP1 PUSH2 0x22D SWAP2 SWAP1 PUSH2 0xC5A JUMP JUMPDEST PUSH2 0x5D8 JUMP JUMPDEST PUSH1 0x40 MLOAD PUSH2 0x243 SWAP6 SWAP5 SWAP4 SWAP3 SWAP2 SWAP1 PUSH2 0xD39 JUMP JUMPDEST PUSH1 0x40 MLOAD DUP1 SWAP2 SUB SWAP1 RETURN JUMPDEST CALLVALUE DUP1 ISZERO PUSH2 0x258 JUMPI PUSH1 0x0 DUP1 REVERT JUMPDEST POP PUSH2 0x261 PUSH2 0x6D3 JUMP JUMPDEST PUSH1 0x40 MLOAD PUSH2 0x26E SWAP2 SWAP1 PUSH2 0xCFC JUMP JUMPDEST PUSH1 0x40 MLOAD DUP1 SWAP2 SUB SWAP1 RETURN JUMPDEST CALLVALUE DUP1 ISZERO PUSH2 0x283 JUMPI PUSH1 0x0 DUP1 REVERT JUMPDEST POP PUSH2 0x29E PUSH1 0x4 DUP1 CALLDATASIZE SUB DUP2 ADD SWAP1 PUSH2 0x299 SWAP2 SWAP1 PUSH2 0xC5A JUMP JUMPDEST PUSH2 0x6F7 JUMP JUMPDEST STOP JUMPDEST PUSH2 0x2A8 PUSH2 0x850 JUMP JUMPDEST STOP JUMPDEST CALLVALUE DUP1 ISZERO PUSH2 0x2B6 JUMPI PUSH1 0x0 DUP1 REVERT JUMPDEST POP PUSH2 0x2BF PUSH2 0x8F5 JUMP JUMPDEST PUSH1 0x40 MLOAD PUSH2 0x2CC SWAP2 SWAP1 PUSH2 0xE18 JUMP JUMPDEST PUSH1 0x40 MLOAD DUP1 SWAP2 SUB SWAP1 RETURN JUMPDEST CALLVALUE DUP1 ISZERO PUSH2 0x2E1 JUMPI PUSH1 0x0 DUP1 REVERT JUMPDEST POP PUSH2 0x2FC PUSH1 0x4 DUP1 CALLDATASIZE SUB DUP2 ADD SWAP1 PUSH2 0x2F7 SWAP2 SWAP1 PUSH2 0xC5A JUMP JUMPDEST PUSH2 0x8FB JUMP JUMPDEST STOP JUMPDEST PUSH1 0x0 DUP1 SLOAD SWAP1 PUSH2 0x100 EXP SWAP1 DIV PUSH20 0xFFFFFFFFFFFFFFFFFFFFFFFFFFFFFFFFFFFFFFFF AND PUSH20 0xFFFFFFFFFFFFFFFFFFFFFFFFFFFFFFFFFFFFFFFF AND CALLER PUSH20 0xFFFFFFFFFFFFFFFFFFFFFFFFFFFFFFFFFFFFFFFF AND EQ PUSH2 0x356 JUMPI PUSH1 0x0 DUP1 REVERT JUMPDEST PUSH1 0x0 PUSH1 0x7 DUP1 SLOAD SWAP1 POP SWAP1 POP PUSH1 0x7 PUSH1 0x1 DUP2 PUSH1 0x1 DUP2 SLOAD ADD DUP1 DUP3 SSTORE DUP1 SWAP2 POP POP SUB SWAP1 PUSH1 0x0 MSTORE PUSH1 0x20 PUSH1 0x0 KECCAK256 SWAP1 POP POP PUSH1 0x0 PUSH1 0x7 DUP3 DUP2 SLOAD DUP2 LT PUSH2 0x394 JUMPI PUSH2 0x393 PUSH2 0x10E7 JUMP JUMPDEST JUMPDEST SWAP1 PUSH1 0x0 MSTORE PUSH1 0x20 PUSH1 0x0 KECCAK256 SWAP1 PUSH1 0x5 MUL ADD SWAP1 POP DUP5 DUP2 PUSH1 0x0 ADD SWAP1 DUP1 MLOAD SWAP1 PUSH1 0x20 ADD SWAP1 PUSH2 0x3BC SWAP3 SWAP2 SWAP1 PUSH2 0xA6C JUMP JUMPDEST POP DUP4 DUP2 PUSH1 0x1 ADD DUP2 SWAP1 SSTORE POP DUP3 DUP2 PUSH1 0x2 ADD PUSH1 0x0 PUSH2 0x100 EXP DUP2 SLOAD DUP2 PUSH20 0xFFFFFFFFFFFFFFFFFFFFFFFFFFFFFFFFFFFFFFFF MUL NOT AND SWAP1 DUP4 PUSH20 0xFFFFFFFFFFFFFFFFFFFFFFFFFFFFFFFFFFFFFFFF AND MUL OR SWAP1 SSTORE POP PUSH1 0x0 DUP2 PUSH1 0x2 ADD PUSH1 0x14 PUSH2 0x100 EXP DUP2 SLOAD DUP2 PUSH1 0xFF MUL NOT AND SWAP1 DUP4 ISZERO ISZERO MUL OR SWAP1 SSTORE POP PUSH1 0x0 DUP2 PUSH1 0x4 ADD DUP2 SWAP1 SSTORE POP POP POP POP POP POP JUMP JUMPDEST PUSH1 0x3 SLOAD DUP2 JUMP JUMPDEST PUSH1 0x4 SLOAD DUP2 JUMP JUMPDEST PUSH1 0x60 PUSH1 0x0 DUP1 PUSH1 0x0 DUP1 PUSH1 0x0 DUP1 PUSH1 0x0 PUSH1 0x1 PUSH1 0x2 SLOAD PUSH1 0x3 SLOAD PUSH1 0x4 SLOAD SELFBALANCE PUSH1 0x5 SLOAD PUSH1 0x7 DUP1 SLOAD SWAP1 POP PUSH1 0x0 DUP1 SLOAD SWAP1 PUSH2 0x100 EXP SWAP1 DIV PUSH20 0xFFFFFFFFFFFFFFFFFFFFFFFFFFFFFFFFFFFFFFFF AND DUP8 DUP1 SLOAD PUSH2 0x492 SWAP1 PUSH2 0xFC8 JUMP JUMPDEST DUP1 PUSH1 0x1F ADD PUSH1 0x20 DUP1 SWAP2 DIV MUL PUSH1 0x20 ADD PUSH1 0x40 MLOAD SWAP1 DUP2 ADD PUSH1 0x40 MSTORE DUP1 SWAP3 SWAP2 SWAP1 DUP2 DUP2 MSTORE PUSH1 0x20 ADD DUP3 DUP1 SLOAD PUSH2 0x4BE SWAP1 PUSH2 0xFC8 JUMP JUMPDEST DUP1 ISZERO PUSH2 0x50B JUMPI DUP1 PUSH1 0x1F LT PUSH2 0x4E0 JUMPI PUSH2 0x100 DUP1 DUP4 SLOAD DIV MUL DUP4 MSTORE SWAP2 PUSH1 0x20 ADD SWAP2 PUSH2 0x50B JUMP JUMPDEST DUP3 ADD SWAP2 SWAP1 PUSH1 0x0 MSTORE PUSH1 0x20 PUSH1 0x0 KECCAK256 SWAP1 JUMPDEST DUP2 SLOAD DUP2 MSTORE SWAP1 PUSH1 0x1 ADD SWAP1 PUSH1 0x20 ADD DUP1 DUP4 GT PUSH2 0x4EE JUMPI DUP3 SWAP1 SUB PUSH1 0x1F AND DUP3 ADD SWAP2 JUMPDEST POP POP POP POP POP SWAP8 POP SWAP8 POP SWAP8 POP SWAP8 POP SWAP8 POP SWAP8 POP SWAP8 POP SWAP8 POP SWAP8 POP SWAP1 SWAP2 SWAP3 SWAP4 SWAP5 SWAP6 SWAP7 SWAP8 JUMP JUMPDEST PUSH1 0x2 SLOAD DUP2 JUMP JUMPDEST PUSH1 0x6 PUSH1 0x20 MSTORE DUP1 PUSH1 0x0 MSTORE PUSH1 0x40 PUSH1 0x0 KECCAK256 PUSH1 0x0 SWAP2 POP SWAP1 POP SLOAD DUP2 JUMP JUMPDEST PUSH1 0x1 DUP1 SLOAD PUSH2 0x557 SWAP1 PUSH2 0xFC8 JUMP JUMPDEST DUP1 PUSH1 0x1F ADD PUSH1 0x20 DUP1 SWAP2 DIV MUL PUSH1 0x20 ADD PUSH1 0x40 MLOAD SWAP1 DUP2 ADD PUSH1 0x40 MSTORE DUP1 SWAP3 SWAP2 SWAP1 DUP2 DUP2 MSTORE PUSH1 0x20 ADD DUP3 DUP1 SLOAD PUSH2 0x583 SWAP1 PUSH2 0xFC8 JUMP JUMPDEST DUP1 ISZERO PUSH2 0x5D0 JUMPI DUP1 PUSH1 0x1F LT PUSH2 0x5A5 JUMPI PUSH2 0x100 DUP1 DUP4 SLOAD DIV MUL DUP4 MSTORE SWAP2 PUSH1 0x20 ADD SWAP2 PUSH2 0x5D0 JUMP JUMPDEST DUP3 ADD SWAP2 SWAP1 PUSH1 0x0 MSTORE PUSH1 0x20 PUSH1 0x0 KECCAK256 SWAP1 JUMPDEST DUP2 SLOAD DUP2 MSTORE SWAP1 PUSH1 0x1 ADD SWAP1 PUSH1 0x20 ADD DUP1 DUP4 GT PUSH2 0x5B3 JUMPI DUP3 SWAP1 SUB PUSH1 0x1F AND DUP3 ADD SWAP2 JUMPDEST POP POP POP POP POP DUP2 JUMP JUMPDEST PUSH1 0x7 DUP2 DUP2 SLOAD DUP2 LT PUSH2 0x5E8 JUMPI PUSH1 0x0 DUP1 REVERT JUMPDEST SWAP1 PUSH1 0x0 MSTORE PUSH1 0x20 PUSH1 0x0 KECCAK256 SWAP1 PUSH1 0x5 MUL ADD PUSH1 0x0 SWAP2 POP SWAP1 POP DUP1 PUSH1 0x0 ADD DUP1 SLOAD PUSH2 0x60B SWAP1 PUSH2 0xFC8 JUMP JUMPDEST DUP1 PUSH1 0x1F ADD PUSH1 0x20 DUP1 SWAP2 DIV MUL PUSH1 0x20 ADD PUSH1 0x40 MLOAD SWAP1 DUP2 ADD PUSH1 0x40 MSTORE DUP1 SWAP3 SWAP2 SWAP1 DUP2 DUP2 MSTORE PUSH1 0x20 ADD DUP3 DUP1 SLOAD PUSH2 0x637 SWAP1 PUSH2 0xFC8 JUMP JUMPDEST DUP1 ISZERO PUSH2 0x684 JUMPI DUP1 PUSH1 0x1F LT PUSH2 0x659 JUMPI PUSH2 0x100 DUP1 DUP4 SLOAD DIV MUL DUP4 MSTORE SWAP2 PUSH1 0x20 ADD SWAP2 PUSH2 0x684 JUMP JUMPDEST DUP3 ADD SWAP2 SWAP1 PUSH1 0x0 MSTORE PUSH1 0x20 PUSH1 0x0 KECCAK256 SWAP1 JUMPDEST DUP2 SLOAD DUP2 MSTORE SWAP1 PUSH1 0x1 ADD SWAP1 PUSH1 0x20 ADD DUP1 DUP4 GT PUSH2 0x667 JUMPI DUP3 SWAP1 SUB PUSH1 0x1F AND DUP3 ADD SWAP2 JUMPDEST POP POP POP POP POP SWAP1 DUP1 PUSH1 0x1 ADD SLOAD SWAP1 DUP1 PUSH1 0x2 ADD PUSH1 0x0 SWAP1 SLOAD SWAP1 PUSH2 0x100 EXP SWAP1 DIV PUSH20 0xFFFFFFFFFFFFFFFFFFFFFFFFFFFFFFFFFFFFFFFF AND SWAP1 DUP1 PUSH1 0x2 ADD PUSH1 0x14 SWAP1 SLOAD SWAP1 PUSH2 0x100 EXP SWAP1 DIV PUSH1 0xFF AND SWAP1 DUP1 PUSH1 0x4 ADD SLOAD SWAP1 POP DUP6 JUMP JUMPDEST PUSH1 0x0 DUP1 SLOAD SWAP1 PUSH2 0x100 EXP SWAP1 DIV PUSH20 0xFFFFFFFFFFFFFFFFFFFFFFFFFFFFFFFFFFFFFFFF AND DUP2 JUMP JUMPDEST PUSH1 0x0 DUP1 SLOAD SWAP1 PUSH2 0x100 EXP SWAP1 DIV PUSH20 0xFFFFFFFFFFFFFFFFFFFFFFFFFFFFFFFFFFFFFFFF AND PUSH20 0xFFFFFFFFFFFFFFFFFFFFFFFFFFFFFFFFFFFFFFFF AND CALLER PUSH20 0xFFFFFFFFFFFFFFFFFFFFFFFFFFFFFFFFFFFFFFFF AND EQ PUSH2 0x74F JUMPI PUSH1 0x0 DUP1 REVERT JUMPDEST PUSH1 0x0 PUSH1 0x7 DUP3 DUP2 SLOAD DUP2 LT PUSH2 0x765 JUMPI PUSH2 0x764 PUSH2 0x10E7 JUMP JUMPDEST JUMPDEST SWAP1 PUSH1 0x0 MSTORE PUSH1 0x20 PUSH1 0x0 KECCAK256 SWAP1 PUSH1 0x5 MUL ADD SWAP1 POP DUP1 PUSH1 0x2 ADD PUSH1 0x14 SWAP1 SLOAD SWAP1 PUSH2 0x100 EXP SWAP1 DIV PUSH1 0xFF AND ISZERO PUSH2 0x791 JUMPI PUSH1 0x0 DUP1 REVERT JUMPDEST DUP1 PUSH1 0x1 ADD SLOAD SELFBALANCE LT ISZERO PUSH2 0x7A2 JUMPI PUSH1 0x0 DUP1 REVERT JUMPDEST PUSH1 0x2 PUSH1 0x5 SLOAD PUSH2 0x7B1 SWAP2 SWAP1 PUSH2 0xEFB JUMP JUMPDEST DUP2 PUSH1 0x4 ADD SLOAD GT PUSH2 0x7C0 JUMPI PUSH1 0x0 DUP1 REVERT JUMPDEST DUP1 PUSH1 0x2 ADD PUSH1 0x0 SWAP1 SLOAD SWAP1 PUSH2 0x100 EXP SWAP1 DIV PUSH20 0xFFFFFFFFFFFFFFFFFFFFFFFFFFFFFFFFFFFFFFFF AND PUSH20 0xFFFFFFFFFFFFFFFFFFFFFFFFFFFFFFFFFFFFFFFF AND PUSH2 0x8FC DUP3 PUSH1 0x1 ADD SLOAD SWAP1 DUP2 ISZERO MUL SWAP1 PUSH1 0x40 MLOAD PUSH1 0x0 PUSH1 0x40 MLOAD DUP1 DUP4 SUB DUP2 DUP6 DUP9 DUP9 CALL SWAP4 POP POP POP POP ISZERO DUP1 ISZERO PUSH2 0x82E JUMPI RETURNDATASIZE PUSH1 0x0 DUP1 RETURNDATACOPY RETURNDATASIZE PUSH1 0x0 REVERT JUMPDEST POP PUSH1 0x1 DUP2 PUSH1 0x2 ADD PUSH1 0x14 PUSH2 0x100 EXP DUP2 SLOAD DUP2 PUSH1 0xFF MUL NOT AND SWAP1 DUP4 ISZERO ISZERO MUL OR SWAP1 SSTORE POP POP POP JUMP JUMPDEST PUSH1 0x2 SLOAD CALLVALUE LT ISZERO PUSH2 0x85F JUMPI PUSH1 0x0 DUP1 REVERT JUMPDEST PUSH1 0x3 SLOAD CALLVALUE GT ISZERO PUSH2 0x86E JUMPI PUSH1 0x0 DUP1 REVERT JUMPDEST PUSH1 0x0 PUSH2 0x883 CALLVALUE SELFBALANCE PUSH2 0xA40 SWAP1 SWAP2 SWAP1 PUSH4 0xFFFFFFFF AND JUMP JUMPDEST SWAP1 POP PUSH1 0x4 SLOAD DUP2 GT ISZERO PUSH2 0x894 JUMPI PUSH1 0x0 DUP1 REVERT JUMPDEST CALLVALUE PUSH1 0x6 PUSH1 0x0 CALLER PUSH20 0xFFFFFFFFFFFFFFFFFFFFFFFFFFFFFFFFFFFFFFFF AND PUSH20 0xFFFFFFFFFFFFFFFFFFFFFFFFFFFFFFFFFFFFFFFF AND DUP2 MSTORE PUSH1 0x20 ADD SWAP1 DUP2 MSTORE PUSH1 0x20 ADD PUSH1 0x0 KECCAK256 DUP2 SWAP1 SSTORE POP PUSH1 0x1 PUSH1 0x5 PUSH1 0x0 DUP3 DUP3 SLOAD PUSH2 0x8EB SWAP2 SWAP1 PUSH2 0xEA5 JUMP JUMPDEST SWAP3 POP POP DUP2 SWAP1 SSTORE POP POP JUMP JUMPDEST PUSH1 0x5 SLOAD DUP2 JUMP JUMPDEST PUSH1 0x0 PUSH1 0x7 DUP3 DUP2 SLOAD DUP2 LT PUSH2 0x911 JUMPI PUSH2 0x910 PUSH2 0x10E7 JUMP JUMPDEST JUMPDEST SWAP1 PUSH1 0x0 MSTORE PUSH1 0x20 PUSH1 0x0 KECCAK256 SWAP1 PUSH1 0x5 MUL ADD SWAP1 POP PUSH1 0x0 PUSH1 0x6 PUSH1 0x0 CALLER PUSH20 0xFFFFFFFFFFFFFFFFFFFFFFFFFFFFFFFFFFFFFFFF AND PUSH20 0xFFFFFFFFFFFFFFFFFFFFFFFFFFFFFFFFFFFFFFFF AND DUP2 MSTORE PUSH1 0x20 ADD SWAP1 DUP2 MSTORE PUSH1 0x20 ADD PUSH1 0x0 KECCAK256 SLOAD GT PUSH2 0x96D JUMPI PUSH1 0x0 DUP1 REVERT JUMPDEST DUP1 PUSH1 0x3 ADD PUSH1 0x0 CALLER PUSH20 0xFFFFFFFFFFFFFFFFFFFFFFFFFFFFFFFFFFFFFFFF AND PUSH20 0xFFFFFFFFFFFFFFFFFFFFFFFFFFFFFFFFFFFFFFFF AND DUP2 MSTORE PUSH1 0x20 ADD SWAP1 DUP2 MSTORE PUSH1 0x20 ADD PUSH1 0x0 KECCAK256 PUSH1 0x0 SWAP1 SLOAD SWAP1 PUSH2 0x100 EXP SWAP1 DIV PUSH1 0xFF AND ISZERO PUSH2 0x9C6 JUMPI PUSH1 0x0 DUP1 REVERT JUMPDEST PUSH1 0x1 DUP2 PUSH1 0x3 ADD PUSH1 0x0 CALLER PUSH20 0xFFFFFFFFFFFFFFFFFFFFFFFFFFFFFFFFFFFFFFFF AND PUSH20 0xFFFFFFFFFFFFFFFFFFFFFFFFFFFFFFFFFFFFFFFF AND DUP2 MSTORE PUSH1 0x20 ADD SWAP1 DUP2 MSTORE PUSH1 0x20 ADD PUSH1 0x0 KECCAK256 PUSH1 0x0 PUSH2 0x100 EXP DUP2 SLOAD DUP2 PUSH1 0xFF MUL NOT AND SWAP1 DUP4 ISZERO ISZERO MUL OR SWAP1 SSTORE POP PUSH1 0x1 DUP2 PUSH1 0x4 ADD PUSH1 0x0 DUP3 DUP3 SLOAD PUSH2 0xA35 SWAP2 SWAP1 PUSH2 0xEA5 JUMP JUMPDEST SWAP3 POP POP DUP2 SWAP1 SSTORE POP POP POP JUMP JUMPDEST PUSH1 0x0 DUP1 DUP3 DUP5 PUSH2 0xA4F SWAP2 SWAP1 PUSH2 0xEA5 JUMP JUMPDEST SWAP1 POP DUP4 DUP2 LT ISZERO PUSH2 0xA62 JUMPI PUSH2 0xA61 PUSH2 0x102B JUMP JUMPDEST JUMPDEST DUP1 SWAP2 POP POP SWAP3 SWAP2 POP POP JUMP JUMPDEST DUP3 DUP1 SLOAD PUSH2 0xA78 SWAP1 PUSH2 0xFC8 JUMP JUMPDEST SWAP1 PUSH1 0x0 MSTORE PUSH1 0x20 PUSH1 0x0 KECCAK256 SWAP1 PUSH1 0x1F ADD PUSH1 0x20 SWAP1 DIV DUP2 ADD SWAP3 DUP3 PUSH2 0xA9A JUMPI PUSH1 0x0 DUP6 SSTORE PUSH2 0xAE1 JUMP JUMPDEST DUP3 PUSH1 0x1F LT PUSH2 0xAB3 JUMPI DUP1 MLOAD PUSH1 0xFF NOT AND DUP4 DUP1 ADD OR DUP6 SSTORE PUSH2 0xAE1 JUMP JUMPDEST DUP3 DUP1 ADD PUSH1 0x1 ADD DUP6 SSTORE DUP3 ISZERO PUSH2 0xAE1 JUMPI SWAP2 DUP3 ADD JUMPDEST DUP3 DUP2 GT ISZERO PUSH2 0xAE0 JUMPI DUP3 MLOAD DUP3 SSTORE SWAP2 PUSH1 0x20 ADD SWAP2 SWAP1 PUSH1 0x1 ADD SWAP1 PUSH2 0xAC5 JUMP JUMPDEST JUMPDEST POP SWAP1 POP PUSH2 0xAEE SWAP2 SWAP1 PUSH2 0xAF2 JUMP JUMPDEST POP SWAP1 JUMP JUMPDEST JUMPDEST DUP1 DUP3 GT ISZERO PUSH2 0xB0B JUMPI PUSH1 0x0 DUP2 PUSH1 0x0 SWAP1 SSTORE POP PUSH1 0x1 ADD PUSH2 0xAF3 JUMP JUMPDEST POP SWAP1 JUMP JUMPDEST PUSH1 0x0 PUSH2 0xB22 PUSH2 0xB1D DUP5 PUSH2 0xE58 JUMP JUMPDEST PUSH2 0xE33 JUMP JUMPDEST SWAP1 POP DUP3 DUP2 MSTORE PUSH1 0x20 DUP2 ADD DUP5 DUP5 DUP5 ADD GT ISZERO PUSH2 0xB3E JUMPI PUSH2 0xB3D PUSH2 0x114A JUMP JUMPDEST JUMPDEST PUSH2 0xB49 DUP5 DUP3 DUP6 PUSH2 0xF86 JUMP JUMPDEST POP SWAP4 SWAP3 POP POP POP JUMP JUMPDEST PUSH1 0x0 DUP2 CALLDATALOAD SWAP1 POP PUSH2 0xB60 DUP2 PUSH2 0x116A JUMP JUMPDEST SWAP3 SWAP2 POP POP JUMP JUMPDEST PUSH1 0x0 DUP2 CALLDATALOAD SWAP1 POP PUSH2 0xB75 DUP2 PUSH2 0x1181 JUMP JUMPDEST SWAP3 SWAP2 POP POP JUMP JUMPDEST PUSH1 0x0 DUP3 PUSH1 0x1F DUP4 ADD SLT PUSH2 0xB90 JUMPI PUSH2 0xB8F PUSH2 0x1145 JUMP JUMPDEST JUMPDEST DUP2 CALLDATALOAD PUSH2 0xBA0 DUP5 DUP3 PUSH1 0x20 DUP7 ADD PUSH2 0xB0F JUMP JUMPDEST SWAP2 POP POP SWAP3 SWAP2 POP POP JUMP JUMPDEST PUSH1 0x0 DUP2 CALLDATALOAD SWAP1 POP PUSH2 0xBB8 DUP2 PUSH2 0x1198 JUMP JUMPDEST SWAP3 SWAP2 POP POP JUMP JUMPDEST PUSH1 0x0 PUSH1 0x20 DUP3 DUP5 SUB SLT ISZERO PUSH2 0xBD4 JUMPI PUSH2 0xBD3 PUSH2 0x1154 JUMP JUMPDEST JUMPDEST PUSH1 0x0 PUSH2 0xBE2 DUP5 DUP3 DUP6 ADD PUSH2 0xB51 JUMP JUMPDEST SWAP2 POP POP SWAP3 SWAP2 POP POP JUMP JUMPDEST PUSH1 0x0 DUP1 PUSH1 0x0 PUSH1 0x60 DUP5 DUP7 SUB SLT ISZERO PUSH2 0xC04 JUMPI PUSH2 0xC03 PUSH2 0x1154 JUMP JUMPDEST JUMPDEST PUSH1 0x0 DUP5 ADD CALLDATALOAD PUSH8 0xFFFFFFFFFFFFFFFF DUP2 GT ISZERO PUSH2 0xC22 JUMPI PUSH2 0xC21 PUSH2 0x114F JUMP JUMPDEST JUMPDEST PUSH2 0xC2E DUP7 DUP3 DUP8 ADD PUSH2 0xB7B JUMP JUMPDEST SWAP4 POP POP PUSH1 0x20 PUSH2 0xC3F DUP7 DUP3 DUP8 ADD PUSH2 0xBA9 JUMP JUMPDEST SWAP3 POP POP PUSH1 0x40 PUSH2 0xC50 DUP7 DUP3 DUP8 ADD PUSH2 0xB66 JUMP JUMPDEST SWAP2 POP POP SWAP3 POP SWAP3 POP SWAP3 JUMP JUMPDEST PUSH1 0x0 PUSH1 0x20 DUP3 DUP5 SUB SLT ISZERO PUSH2 0xC70 JUMPI PUSH2 0xC6F PUSH2 0x1154 JUMP JUMPDEST JUMPDEST PUSH1 0x0 PUSH2 0xC7E DUP5 DUP3 DUP6 ADD PUSH2 0xBA9 JUMP JUMPDEST SWAP2 POP POP SWAP3 SWAP2 POP POP JUMP JUMPDEST PUSH2 0xC90 DUP2 PUSH2 0xF3E JUMP JUMPDEST DUP3 MSTORE POP POP JUMP JUMPDEST PUSH2 0xC9F DUP2 PUSH2 0xF2C JUMP JUMPDEST DUP3 MSTORE POP POP JUMP JUMPDEST PUSH2 0xCAE DUP2 PUSH2 0xF50 JUMP JUMPDEST DUP3 MSTORE POP POP JUMP JUMPDEST PUSH1 0x0 PUSH2 0xCBF DUP3 PUSH2 0xE89 JUMP JUMPDEST PUSH2 0xCC9 DUP2 DUP6 PUSH2 0xE94 JUMP JUMPDEST SWAP4 POP PUSH2 0xCD9 DUP2 DUP6 PUSH1 0x20 DUP7 ADD PUSH2 0xF95 JUMP JUMPDEST PUSH2 0xCE2 DUP2 PUSH2 0x1159 JUMP JUMPDEST DUP5 ADD SWAP2 POP POP SWAP3 SWAP2 POP POP JUMP JUMPDEST PUSH2 0xCF6 DUP2 PUSH2 0xF7C JUMP JUMPDEST DUP3 MSTORE POP POP JUMP JUMPDEST PUSH1 0x0 PUSH1 0x20 DUP3 ADD SWAP1 POP PUSH2 0xD11 PUSH1 0x0 DUP4 ADD DUP5 PUSH2 0xC96 JUMP JUMPDEST SWAP3 SWAP2 POP POP JUMP JUMPDEST PUSH1 0x0 PUSH1 0x20 DUP3 ADD SWAP1 POP DUP2 DUP2 SUB PUSH1 0x0 DUP4 ADD MSTORE PUSH2 0xD31 DUP2 DUP5 PUSH2 0xCB4 JUMP JUMPDEST SWAP1 POP SWAP3 SWAP2 POP POP JUMP JUMPDEST PUSH1 0x0 PUSH1 0xA0 DUP3 ADD SWAP1 POP DUP2 DUP2 SUB PUSH1 0x0 DUP4 ADD MSTORE PUSH2 0xD53 DUP2 DUP9 PUSH2 0xCB4 JUMP JUMPDEST SWAP1 POP PUSH2 0xD62 PUSH1 0x20 DUP4 ADD DUP8 PUSH2 0xCED JUMP JUMPDEST PUSH2 0xD6F PUSH1 0x40 DUP4 ADD DUP7 PUSH2 0xC87 JUMP JUMPDEST PUSH2 0xD7C PUSH1 0x60 DUP4 ADD DUP6 PUSH2 0xCA5 JUMP JUMPDEST PUSH2 0xD89 PUSH1 0x80 DUP4 ADD DUP5 PUSH2 0xCED JUMP JUMPDEST SWAP7 SWAP6 POP POP POP POP POP POP JUMP JUMPDEST PUSH1 0x0 PUSH2 0x100 DUP3 ADD SWAP1 POP DUP2 DUP2 SUB PUSH1 0x0 DUP4 ADD MSTORE PUSH2 0xDAE DUP2 DUP12 PUSH2 0xCB4 JUMP JUMPDEST SWAP1 POP PUSH2 0xDBD PUSH1 0x20 DUP4 ADD DUP11 PUSH2 0xCED JUMP JUMPDEST PUSH2 0xDCA PUSH1 0x40 DUP4 ADD DUP10 PUSH2 0xCED JUMP JUMPDEST PUSH2 0xDD7 PUSH1 0x60 DUP4 ADD DUP9 PUSH2 0xCED JUMP JUMPDEST PUSH2 0xDE4 PUSH1 0x80 DUP4 ADD DUP8 PUSH2 0xCED JUMP JUMPDEST PUSH2 0xDF1 PUSH1 0xA0 DUP4 ADD DUP7 PUSH2 0xCED JUMP JUMPDEST PUSH2 0xDFE PUSH1 0xC0 DUP4 ADD DUP6 PUSH2 0xCED JUMP JUMPDEST PUSH2 0xE0B PUSH1 0xE0 DUP4 ADD DUP5 PUSH2 0xC96 JUMP JUMPDEST SWAP10 SWAP9 POP POP POP POP POP POP POP POP POP JUMP JUMPDEST PUSH1 0x0 PUSH1 0x20 DUP3 ADD SWAP1 POP PUSH2 0xE2D PUSH1 0x0 DUP4 ADD DUP5 PUSH2 0xCED JUMP JUMPDEST SWAP3 SWAP2 POP POP JUMP JUMPDEST PUSH1 0x0 PUSH2 0xE3D PUSH2 0xE4E JUMP JUMPDEST SWAP1 POP PUSH2 0xE49 DUP3 DUP3 PUSH2 0xFFA JUMP JUMPDEST SWAP2 SWAP1 POP JUMP JUMPDEST PUSH1 0x0 PUSH1 0x40 MLOAD SWAP1 POP SWAP1 JUMP JUMPDEST PUSH1 0x0 PUSH8 0xFFFFFFFFFFFFFFFF DUP3 GT ISZERO PUSH2 0xE73 JUMPI PUSH2 0xE72 PUSH2 0x1116 JUMP JUMPDEST JUMPDEST PUSH2 0xE7C DUP3 PUSH2 0x1159 JUMP JUMPDEST SWAP1 POP PUSH1 0x20 DUP2 ADD SWAP1 POP SWAP2 SWAP1 POP JUMP JUMPDEST PUSH1 0x0 DUP2 MLOAD SWAP1 POP SWAP2 SWAP1 POP JUMP JUMPDEST PUSH1 0x0 DUP3 DUP3 MSTORE PUSH1 0x20 DUP3 ADD SWAP1 POP SWAP3 SWAP2 POP POP JUMP JUMPDEST PUSH1 0x0 PUSH2 0xEB0 DUP3 PUSH2 0xF7C JUMP JUMPDEST SWAP2 POP PUSH2 0xEBB DUP4 PUSH2 0xF7C JUMP JUMPDEST SWAP3 POP DUP3 PUSH32 0xFFFFFFFFFFFFFFFFFFFFFFFFFFFFFFFFFFFFFFFFFFFFFFFFFFFFFFFFFFFFFFFF SUB DUP3 GT ISZERO PUSH2 0xEF0 JUMPI PUSH2 0xEEF PUSH2 0x105A JUMP JUMPDEST JUMPDEST DUP3 DUP3 ADD SWAP1 POP SWAP3 SWAP2 POP POP JUMP JUMPDEST PUSH1 0x0 PUSH2 0xF06 DUP3 PUSH2 0xF7C JUMP JUMPDEST SWAP2 POP PUSH2 0xF11 DUP4 PUSH2 0xF7C JUMP JUMPDEST SWAP3 POP DUP3 PUSH2 0xF21 JUMPI PUSH2 0xF20 PUSH2 0x1089 JUMP JUMPDEST JUMPDEST DUP3 DUP3 DIV SWAP1 POP SWAP3 SWAP2 POP POP JUMP JUMPDEST PUSH1 0x0 PUSH2 0xF37 DUP3 PUSH2 0xF5C JUMP JUMPDEST SWAP1 POP SWAP2 SWAP1 POP JUMP JUMPDEST PUSH1 0x0 PUSH2 0xF49 DUP3 PUSH2 0xF5C JUMP JUMPDEST SWAP1 POP SWAP2 SWAP1 POP JUMP JUMPDEST PUSH1 0x0 DUP2 ISZERO ISZERO SWAP1 POP SWAP2 SWAP1 POP JUMP JUMPDEST PUSH1 0x0 PUSH20 0xFFFFFFFFFFFFFFFFFFFFFFFFFFFFFFFFFFFFFFFF DUP3 AND SWAP1 POP SWAP2 SWAP1 POP JUMP JUMPDEST PUSH1 0x0 DUP2 SWAP1 POP SWAP2 SWAP1 POP JUMP JUMPDEST DUP3 DUP2 DUP4 CALLDATACOPY PUSH1 0x0 DUP4 DUP4 ADD MSTORE POP POP POP JUMP JUMPDEST PUSH1 0x0 JUMPDEST DUP4 DUP2 LT ISZERO PUSH2 0xFB3 JUMPI DUP1 DUP3 ADD MLOAD DUP2 DUP5 ADD MSTORE PUSH1 0x20 DUP2 ADD SWAP1 POP PUSH2 0xF98 JUMP JUMPDEST DUP4 DUP2 GT ISZERO PUSH2 0xFC2 JUMPI PUSH1 0x0 DUP5 DUP5 ADD MSTORE JUMPDEST POP POP POP POP JUMP JUMPDEST PUSH1 0x0 PUSH1 0x2 DUP3 DIV SWAP1 POP PUSH1 0x1 DUP3 AND DUP1 PUSH2 0xFE0 JUMPI PUSH1 0x7F DUP3 AND SWAP2 POP JUMPDEST PUSH1 0x20 DUP3 LT DUP2 EQ ISZERO PUSH2 0xFF4 JUMPI PUSH2 0xFF3 PUSH2 0x10B8 JUMP JUMPDEST JUMPDEST POP SWAP2 SWAP1 POP JUMP JUMPDEST PUSH2 0x1003 DUP3 PUSH2 0x1159 JUMP JUMPDEST DUP2 ADD DUP2 DUP2 LT PUSH8 0xFFFFFFFFFFFFFFFF DUP3 GT OR ISZERO PUSH2 0x1022 JUMPI PUSH2 0x1021 PUSH2 0x1116 JUMP JUMPDEST JUMPDEST DUP1 PUSH1 0x40 MSTORE POP POP POP JUMP JUMPDEST PUSH32 0x4E487B7100000000000000000000000000000000000000000000000000000000 PUSH1 0x0 MSTORE PUSH1 0x1 PUSH1 0x4 MSTORE PUSH1 0x24 PUSH1 0x0 REVERT JUMPDEST PUSH32 0x4E487B7100000000000000000000000000000000000000000000000000000000 PUSH1 0x0 MSTORE PUSH1 0x11 PUSH1 0x4 MSTORE PUSH1 0x24 PUSH1 0x0 REVERT JUMPDEST PUSH32 0x4E487B7100000000000000000000000000000000000000000000000000000000 PUSH1 0x0 MSTORE PUSH1 0x12 PUSH1 0x4 MSTORE PUSH1 0x24 PUSH1 0x0 REVERT JUMPDEST PUSH32 0x4E487B7100000000000000000000000000000000000000000000000000000000 PUSH1 0x0 MSTORE PUSH1 0x22 PUSH1 0x4 MSTORE PUSH1 0x24 PUSH1 0x0 REVERT JUMPDEST PUSH32 0x4E487B7100000000000000000000000000000000000000000000000000000000 PUSH1 0x0 MSTORE PUSH1 0x32 PUSH1 0x4 MSTORE PUSH1 0x24 PUSH1 0x0 REVERT JUMPDEST PUSH32 0x4E487B7100000000000000000000000000000000000000000000000000000000 PUSH1 0x0 MSTORE PUSH1 0x41 PUSH1 0x4 MSTORE PUSH1 0x24 PUSH1 0x0 REVERT JUMPDEST PUSH1 0x0 DUP1 REVERT JUMPDEST PUSH1 0x0 DUP1 REVERT JUMPDEST PUSH1 0x0 DUP1 REVERT JUMPDEST PUSH1 0x0 DUP1 REVERT JUMPDEST PUSH1 0x0 PUSH1 0x1F NOT PUSH1 0x1F DUP4 ADD AND SWAP1 POP SWAP2 SWAP1 POP JUMP JUMPDEST PUSH2 0x1173 DUP2 PUSH2 0xF2C JUMP JUMPDEST DUP2 EQ PUSH2 0x117E JUMPI PUSH1 0x0 DUP1 REVERT JUMPDEST POP JUMP JUMPDEST PUSH2 0x118A DUP2 PUSH2 0xF3E JUMP JUMPDEST DUP2 EQ PUSH2 0x1195 JUMPI PUSH1 0x0 DUP1 REVERT JUMPDEST POP JUMP JUMPDEST PUSH2 0x11A1 DUP2 PUSH2 0xF7C JUMP JUMPDEST DUP2 EQ PUSH2 0x11AC JUMPI PUSH1 0x0 DUP1 REVERT JUMPDEST POP JUMP INVALID LOG2 PUSH5 0x6970667358 0x22 SLT KECCAK256 PUSH26 0x38A4E72A75C3C17284CEFA2598B3A9DB36F19C6D298D1DBBBBD3 0xCC DIFFICULTY PUSH21 0xAEF164736F6C63430008050033A264697066735822 SLT KECCAK256 0xC6 CALL CODECOPY CREATE 0xD1 0x25 NUMBER 0xA5 SLT CODESIZE 0xC6 0xD2 0xDC 0x4B MSTORE DIFFICULTY DUP8 0xEE SWAP4 ADDRESS 0xAF PUSH26 0xAFF48E4ECF88D0DE7FE464736F6C634300080500330000000000 "},"gasEstimates":{"creation":{"codeDepositCost":"1533600","executionCost":"1603","totalCost":"1535203"},"external":{"createProject(string,uint256,uint256,uint256)":"infinite","getProjects()":"infinite","projects(uint256)":"4934"}},"methodIdentifiers":{"createProject(string,uint256,uint256,uint256)":"610a6a2a","getProjects()":"dcc60128","projects(uint256)":"107046bd"}},"storageLayout":{"storage":[{"astId":378,"contract":"ProjectList.sol:ProjectList","label":"projects","offset":0,"slot":"0","type":"t_array(t_address)dyn_storage"}],"types":{"t_address":{"encoding":"inplace","label":"address","numberOfBytes":"20"},"t_array(t_address)dyn_storage":{"base":"t_address","encoding":"dynamic_array","label":"address[]","numberOfBytes":"32"}}},"userdoc":{"kind":"user","methods":{},"version":1}}